:100000000C9472000C9489000C9489000C94890063
:100010000C9489000C9489000C9489000C9489003C
:100020000C9489000C9489000C9489000C9489002C
:100030000C9489000C9489000C9489000C9489001C
:100040000C9489000C9489000C9489000C9489000C
:100050000C9489000C9489000C9489000C948900FC
:100060000C9489000C9489000C9489000C948900EC
:100070000C9489000C9489000C9489000C948900DC
:100080000C9489000C9489000C9489000C948900CC
:100090000C9489000C9489000C9489000C948900BC
:1000A0000C9489000C9489000C9489000C948900AC
:1000B0000C9489000C9489000C9489000C9489009C
:1000C0000C9489000C9489000C9489000C9489008C
:1000D0000C9489000C9489000C9489000C9489007C
:1000E0000C94890011241FBECFEFD1E2DEBFCDBF3B
:1000F00017E0A0E0B2E0E6E3FBE100E00BBF02C0E6
:1001000007900D92A63CB107D9F70E94690B0C9499
:10011000990D0C940000CF93DF9300D000D00F9284
:10012000CDB7DEB70E9477098D8319821A821B82B0
:100130001C828D818D3061F469817A818B819C81F3
:100140000F900F900F900F900F90DF91CF91089527
:10015000AAE0B0E029813A814B815C810E943D0D8B
:100160002D812053DC01CB01820F911DA11DB11DFA
:1001700089839A83AB83BC838FEB95E00E94530BFA
:1001800069817A818B819C810E9485090E9477090F
:100190008D8389819A81AB81BC810097A044B10590
:1001A00040F280E092E00E94530BBFCF87E084B919
:1001B00081E085B9E4E6F0E080818B7F808382E591
:1001C0008CBD8DB58E7F8DBD08958EBD0DB407FE9F
:1001D000FDCF08958EB508950C94E5008FEF0E9431
:1001E000E5000C94EA00CF93C0E00E94EE008F3F40
:1001F00011F0CF910895C150C1F780E8FACFCF93A5
:10020000C82F87FF04C083E094E00E94530BC6FF11
:1002100004C080E194E00E94530BC5FF04C082E259
:1002200094E00E94530BC4FF04C082E394E00E9458
:10023000530BC3FF04C088E494E00E94530BC2FF39
:1002400004C087E594E00E94530BC1FF04C088E618
:1002500094E00E94530BC0FF04C085E794E00E9425
:10026000530B84E894E0CF910C94530BCF92DF9220
:10027000EF92FF926B017C01D0FE04C081E994E013
:100280000E94530BD1FE04C087EA94E00E94530BF6
:10029000D2FE04C08CEB94E00E94530BD3FE04C04A
:1002A00083ED94E00E94530BD4FE04C086EE94E0EC
:1002B0000E94530BD5FE04C086EF94E00E94530BBE
:1002C000D6FE04C08EE095E00E94530BD7FE04C01A
:1002D00083E295E00E94530BE0FE04C084E395E0C6
:1002E0000E94530BE1FE04C08BE495E00E94530B87
:1002F00080E695E0E2FC06C0CD28CE28CF2841F468
:1003000081E795E0FF90EF90DF90CF900C94530B36
:10031000FF90EF90DF90CF9008952F923F924F92F1
:100320005F926F927F928F929F92AF92BF92CF9285
:10033000DF92EF92FF920F931F93CF93DF93CDB78E
:10034000DEB728970FB6F894DEBF0FBECDBFE22F01
:100350003B834C835D836E83472E382E292E88E2A3
:10036000A82EB12C512C612C712C812C912C89E858
:1003700089831A82C12CD12CE12CF12C10E0188633
:1003800080E88F83B0E0F0E02D2D2E233B813E21CD
:100390004C814F215D8151236E81888568237F8147
:1003A00074218B2F83219F2F9221A0E00E947E0D2C
:1003B00091F0E5258B8186258B838C8187258C8325
:1003C0008D8188258D838E8189258E83898148261C
:1003D0008A8138262C24252D362D472D582D692D20
:1003E00079818A819C2D01E00E94630D522E632E3B
:1003F000742E852E962E79838A83C92E2D2D3E2D1F
:100400004F2D512F68857F818B2F9F2F0E94630D69
:10041000D22EE32EF42E152F68877F83B82FF92F65
:1004200081E0A81AB10809F0AFCF8E2F28960FB639
:10043000F894DEBF0FBECDBFDF91CF911F910F911A
:10044000FF90EF90DF90CF90BF90AF909F908F90F4
:100450007F906F905F904F903F902F9008956F9294
:100460007F928F929F92AF92BF92CF92DF92EF9244
:10047000FF920F931F93CF93DF934A015B01282FC5
:10048000206430E040E050E060E070E080E090E028
:1004900008E20E94480DC22F632E742EB52FA62F9E
:1004A000F72F182FD92F9401A50160E070E080E0AC
:1004B00090E008E00E94480DC22B632A742AD52ED2
:1004C000DB2AE62EEA2AF72EFF2A182BD92B2C2F0F
:1004D000362D472D5D2DB701812F9D2F0E948D0157
:1004E000C82BC1608BE0882E912C8FEF0E94E50015
:1004F00081E0881A9108C9F72C2F362D472D5D2DE4
:10050000B701812F9D2F08E20E94630D822F0E9468
:10051000E5002C2F362D472D5D2DB701812F9D2F06
:1005200000E20E94630D822F0E94E5002C2F362DE1
:10053000472D5D2DB701812F9D2F08E10E94630D8E
:10054000822F0E94E5002C2F362D472D5D2DB701FF
:10055000812F9D2F00E10E94630D822F0E94E500F4
:100560002C2F362D472D5D2DB701812F9D2F08E0B3
:100570000E94630D822F0E94E5008C2FDF91CF91A6
:100580001F910F91FF90EF90DF90CF90BF90AF90B1
:100590009F908F907F906F900C94E500BF92CF92C8
:1005A000DF92EF92FF920F931F93CF93DF938C0113
:1005B000CBE0D0E08FEF0E94E5002197D9F7289893
:1005C00040E050E0BA0180E00E942F020E94F30058
:1005D000D82F289A813089F0682F70E07160072E3B
:1005E000000C880B990BDF91CF911F910F91FF9019
:1005F000EF90DF90CF90BF90089528984AEA51E09D
:1006000060E070E088E00E942F020E94F300C82F93
:100610000E94EE000E94EE000E94EE00F82E0E9462
:10062000EE00289AC53091F4F801D083289840E074
:1006300050E0BA018BE30E942F020E94F300289A37
:100640008130B9F0682F70E07860C9CFC13069F4AB
:1006500092E0F8019083F1E0FF1202C08A3A31F390
:1006600061E076E080E090E0BECF6C2F70E07260D9
:10067000B6CFCFEF289840E050E0BA0187E30E9460
:100680002F020E94F300289A813021F0682F70E039
:100690007061A5CF289840E050E060E070E489E206
:1006A0000E942F020E94F300289A823020F0682FC7
:1006B00070E0706294CFC15039F4882339F061E062
:1006C00070E680E090E08FCF8111D4CF289840E091
:1006D00050E0BA018AE30E942F020E94F3008823AF
:1006E00031F0682F70E0706890E080E07CCF0E946D
:1006F000EE00E82EEE1CEE24EE1C87FD06C0289AC4
:1007000060E070E081E090E06ECFC82ED12C9601C1
:1007100045E0359527954A95E1F7922F9170F92E8E
:10072000960153E0359527955A95E1F7E22FE2704F
:10073000BE2ED82FD1700E94EE00C82F0E94EE006E
:10074000382FA60166E0559547956A95E1F7F801BF
:100750004230C1F0E1822F2D2B29822F8D2B289A38
:1007600061F48C2F90E0880F991F232F221F2227DE
:10077000221F822B8F3F914039F060E074E880E0C7
:1007800090E031CF1182E7CF60E070E0CB012BCF5A
:10079000EF92FF920F931F93CF93DF93362F272F64
:1007A000BC01EA012898432F522F81E10E942F02B9
:1007B0000E94F300882351F0289A90E09068DF911E
:1007C000CF911F910F91FF90EF9008950E94EE003E
:1007D0001FEF8E3FD9F48E017E018EEFF81A0E9432
:1007E000EE00F80181938F01EE15FF05C1F70E941D
:1007F000EE00F80180830E94EE00CF5FDD4F88831A
:100800000E94EE00289A80E094E0D9CF0E94EE008A
:100810001150F9F6289A80E092E0D1CFAF92BF92C2
:10082000CF92DF92EF92FF920F931F93CF93DF93BC
:1008300000D000D000D0CDB7DEB76C0181E895E0E4
:100840000E94530B1E821D8200E110E0F12CE12C6E
:100850008DEA95E00E94530B970150E040E0298318
:100860003A834B835C8383EB95E03FEFE316F1041F
:1008700019F010F084E892E00E94530B69817A81AC
:100880008B819C810E94CB0A87EB95E00E94530BE1
:10089000AD80BE80AC0CBD1CF12CE12C8D819E8105
:1008A0008E0D9F1D80179107B0F18AEB95E00E9495
:1008B000530BED80FE80E016F10608F44CC08D81EC
:1008C0009E817801E81AF90A0817190710F4F12C2B
:1008D000E12CAD81BE81EA0EFB1E005F1F4F5096DA
:1008E000BE83AD830031B2E01B0709F0B1CF8DEBC1
:1008F00095E026960FB6F894DEBF0FBECDBFDF9110
:10090000CF911F910F91FF90EF90DF90CF90BF900C
:10091000AF900C94530BC70183709927892B21F456
:1009200088EB95E00E94530B88EB95E00E94530BF7
:10093000D5018D915D01282F30E050E040E0298302
:100940003A834B835C83CA01B9010E94CB0A3FEF13
:10095000E31AF30AA3CFF601EE0DFF1D808180326A
:1009600038F480E20E947E094FEFE41AF40AA3CF24
:1009700087FFF8CF8EE2F6CF2F923F924F925F9291
:100980006F927F928F929F92AF92BF92CF92DF929F
:10099000EF92FF920F931F93CF93DF93CDB7DEB704
:1009A000C850D2400FB6F894DEBF0FBECDBF6B016A
:1009B0007C0129013A012898BC01A60182E10E942C
:1009C0002F020E94F300182F81EC95E00E94530B38
:1009D000812F0E94FF00112309F48AC0289A812FD9
:1009E00090E09068C85FDD4F0FB6F894DEBF0FBE91
:1009F000CDBFDF91CF911F910F91FF90EF90DF90CE
:100A0000CF90BF90AF909F908F907F906F905F90AE
:100A10004F903F902F9008950150110929F480E0E4
:100A200092E0E0CF01E015E00E94EE008E3FA1F7DA
:100A30008E010F5F1F4FC95FDD4F0883C750D24043
:100A4000C85FDD4F1883C850D2400E94EE00D80125
:100A50008D938D01A215B305C1F70E94EE00F1013F
:100A600080830E94EE00CE5FDD4F8883C250D2406B
:100A700082ED95E00E94530BD701C60129E0B6959F
:100A8000A795979587952A95D1F7CD5FDD4F8883F8
:100A90009983AA83BB83C350D240BC01CD010E947D
:100AA0008509C95FDD4F8881C750D240C85FDD4FDF
:100AB0009881C850D2400E940E049FEF891A990A6B
:100AC000A90AB90AA2E0DA0EE11CF11C4814590483
:100AD0006A047B0409F0A6CF40E050E0BA018CE044
:100AE0000E942F020E94EE00289A80E094E07ACFC4
:100AF000812C912C54011E01BFEF2B1ABDEF3B0A34
:100B0000E5CF0F931F93CF93DF93362F272FBC0191
:100B10008A012898432F522F88E10E942F020E94B9
:100B2000F300882341F0289A90E09068DF91CF91FC
:100B30001F910F9108958EEF0E94EC00E8011E5F57
:100B400089910E94EC00C017D107D1F78FEF0E9466
:100B5000EC008FEF0E94EC00C0E0D1E00E94EE00BC
:100B6000219721F4289A80E090E2E0CF982F9F719E
:100B7000282F2771253011F09B3081F7982F957021
:100B8000953081F4C1E0D2E00E94EE00882321F08C
:100B9000289A80E091E0CACF2197B1F7289A80E0A7
:100BA00090E4C4CF982F9B709B3021F4289A80E06A
:100BB00092E0BCCF8D708D3021F4289A80E094E0D3
:100BC000B5CF80E098E0B2CF6F927F928F929F92E4
:100BD000AF92BF92CF92DF92EF92FF920F931F934B
:100BE000CF93DF93F62FE72FBC0169017A0138011B
:100BF00028984F2F5E2F89E10E942F020E94F30058
:100C0000882309F466C0289AC82FD0E0D068CE01A6
:100C1000DF91CF911F910F91FF90EF90DF90CF90D8
:100C2000BF90AF909F908F907F906F9008958CEFC2
:100C30000E94EC00E30189910E94EC000C171D0753
:100C4000D1F78FEF0E94EC008FEF0E94EC00C1E023
:100C5000D1E00E94EE00219721F4289AC0E0D0E272
:100C6000D6CF982F9F71282F2771253011F09B30F8
:100C700081F7982F9570953011F5C1E0D2E00E9470
:100C8000EE008823B9F08FEF881A980AA80AB80AEC
:100C9000C814D904EA04FB0451F6C0E0D1E08DEF9A
:100CA0000E94EC0001E012E00E94EE008823C9F0EF
:100CB000289AADCF219719F7C0E0D0E4A8CF982F9C
:100CC0009B709B3059F08D708D30E9F6C0E0D4E018
:100CD000E6CF812C912C54011E5FDACFC0E0D2E028
:100CE000DECF0150110901F7289AE6CF1F93CF9369
:100CF000DF93EC01289840E050E0BA0187E30E94BE
:100D00002F020E94F300882339F0289A90E090681F
:100D1000DF91CF911F91089540E050E0BA0186E144
:100D20000E942F020E94F300182F882341F0289A76
:100D3000EDCF115021F4289A80E092E0E9CF0E9493
:100D4000EE008E3FB1F70E94EE0090E0B0E0A0E030
:100D5000BA2FA92F982F882788839983AA83BB83CA
:100D60000E94EE00488159816A817B81482B762F51
:100D7000652F542F4427488359836A837B830E94BD
:100D8000EE00488159816A817B81482B762F652F3F
:100D9000542F4427488359836A837B830E94EE0043
:100DA000488159816A817B81482B488359836A83B2
:100DB0007B830E94EE000E94EE00289A80E094E07F
:100DC000A7CF0F931F93CF93DF93F62FE72FBC018D
:100DD0008901D42FC52F28984F2F5E2F80E20E94C3
:100DE0002F020E94F300289A882339F090E091683E
:100DF000DF91CF911F910F9108952898A8016D2F31
:100E00007C2F81E20E942F020E94F300289A8823FF
:100E100019F090E09268ECCF289840E050E0BA01D9
:100E200086E20E942F020E94F300D0E0C0E08823F7
:100E300049F0289A90E09468DBCF219719F480E07C
:100E400098E0D6CF0E94EE008823B9F3289A90E06C
:100E500080E0CECF8827811528E0920739F170F421
:100E6000811522E09207E1F0811524E09207D9F084
:100E70008115914089F082E696E010C0811520E44A
:100E80009207B9F0811520E89207B1F081159042E0
:100E900091F788E296E002C082EE95E00C94530B45
:100EA00083EF95E0FBCF80E096E0F8CF8FE096E00F
:100EB000F5CF81E496E0F2CF86E596E0EFCF882784
:100EC000811524E0920771F0811520E8920731F036
:100ED0008115924051F482E996E002C086E796E0DF
:100EE0000C94530B82E896E0FBCF82E696E0F8CFB5
:100EF0008827811522E09207D1F040F4009781F015
:100F00008115914089F082E696E00CC0811524E0BD
:100F1000920781F081159840B1F786E097E002C012
:100F200089EA96E00C94530B8DEB96E0FBCF8BEDAA
:100F300096E0F8CF87EF96E0F5CFCF92DF92EF9271
:100F4000FF920F931F93CF93DF93CDB7DEB729970F
:100F50000FB6F894DEBF0FBECDBF289840E050E03A
:100F6000BA0189E00E942F020E94F300882301F158
:100F7000289A8CE197E00E94530BC12CD12C76016A
:100F8000C394C982DA82EB82FC8269817A818B8187
:100F90009C8129960FB6F894DEBF0FBECDBFDF91BE
:100FA000CF911F910F91FF90EF90DF90CF90089518
:100FB00019820E94EE008295869586958370833013
:100FC00079F47981715079837111F3CF289A81E096
:100FD00090E0A0E0B0E089839A83AB83BC83D5CF57
:100FE00019820E94EE0087FF07C099819150998372
:100FF0009111F7CF289AC1CF0E94EE001D820E9466
:10100000EE007D817F5F7983823341F08A3531F054
:101010008D818F3F79F3D980DD82F1CFE12C0E9461
:10102000EE008B7781F00E94EE00982F92959F70D2
:10103000953009F07BC08F70E82E87EF8E0D8330DE
:1010400028F6198602C091E09987C980CC2009F45E
:10105000BDCF99819F5F9983A985A13001F3DA2ED5
:10106000AD8310E000E00E94EE00982F937F61E0D6
:1010700011F18370082F10E0102F00270E94EE005E
:10108000082B000F111F000F111F0E94EE00829508
:10109000869586958370082B0E94EE0089830E94B6
:1010A000EE00C980CC0C7C2D7670881F8827881FA5
:1010B000782B7D83698581E0D81609F49BCFDA947B
:1010C000613089F2289A862F21E030E040E050E03C
:1010D000E8122FC081E090E0A0E0B0E089839A831D
:1010E000AB83BC83CD808C2D90E00196C980DA80E3
:1010F000EB80FC80CC0CDD1CEE1CFF1CC982DA826C
:10110000EB82FC826F5F6817190681F37CF3D801CC
:1011100011960E943D0D9B01AC01C701B6010E94D2
:10112000F70C69837A838B839C832FCFA1E0A987F7
:101130008CCF220F331F441F551F8F5FC9CFCF9213
:10114000DF92EF92FF920F931F93CF93DF93CDB770
:10115000DEB7CA50D2400FB6F894DEBF0FBECDBF87
:10116000CD5FDD4F6883C350D240CC5FDD4F7883C5
:10117000C450D240CB5FDD4F8883C550D240CA5F98
:10118000DD4F9883C650D240C95FDD4F2883C750DA
:10119000D240C85FDD4F3883C850D240C75FDD4FB3
:1011A0004883C950D240C65FDD4F5883CA50D240F1
:1011B00083E797E00E94530BCD5FDD4F6881798113
:1011C0008A819B81C350D2400E9485098FE997E0B4
:1011D0000E94530BC95FDD4F688179818A819B81B1
:1011E000C750D2400E94850910E000E07E012FEF39
:1011F000E21A2DEFF20A85E0C82ED12CCD5FDD4F2B
:10120000288139814A815B81C350D240C95FDD4F5B
:1012100088819981AA81BB81C750D24082179307E8
:10122000A407B507A0F484EA97E00E94530BC65FB9
:10123000DD4F0FB6F894DEBF0FBECDBFDF91CF916B
:101240001F910F91FF90EF90DF90CF900895AE0126
:101250004F5F5F4FCD5FDD4F688179818A819B81D0
:10126000C350D2400E94C803FE0131968191882369
:1012700071F1C801B6010E94070D892B21F48EEB94
:1012800095E00E94530B8AEB95E00E94530BCD5FD3
:10129000DD4F688179818A819B81C350D2400E9451
:1012A00085090F5F1F4FCD5FDD4F88819981AA812E
:1012B000BB81C350D2400196A11DB11DCD5FDD4F52
:1012C00088839983AA83BB83C350D24097CFEE15FE
:1012D000FF0561F6E8CF1092C50087E68093C40051
:1012E00088E18093C10086E08093C20008958091D8
:1012F000C00087FFFCCF8091C60008959091C00088
:1013000095FFFCCF8093C60008954F925F926F9235
:101310007F928F929F92AF92BF92CF92DF92EF9285
:10132000FF920F931F93CF93DF93CDB7DEB79B014F
:10133000AC018DB69EB66A30710581059105C0F18C
:101340006436710581059105A8F1283E83E03807D0
:101350004105510588F1203197E2390741055105D2
:1013600068F1203AE6E83E07E1E04E07510540F11A
:101370002034F2E43F07FFE04F07510518F1203811
:1013800086E9380788E948075105F0F0211591EE04
:10139000390795EF490795E05907C0F02115EAECA8
:1013A0003E07EAE94E07EBE35E0790F00AE011C062
:1013B00001E00FC002E00DC003E00BC004E009C073
:1013C00005E007C006E005C007E003C008E001C073
:1013D00009E010E06801F1E0CF1AD1088DB79EB79F
:1013E000801B910B0FB6F8949EBF0FBE8DBFEDB75B
:1013F000FEB731967F0160E36193CF018E199F099B
:1014000080179107CCF357018AE0482E512C612CAC
:10141000712CCA01B901A30192010E941B0D605DEC
:10142000F50161935F01CF018E199F098017910724
:1014300084F3F701EC0DFD1D80810E947E09F1E02F
:10144000CF1AD108B0F70FB6F8949EBE0FBE8DBE6E
:10145000DF91CF911F910F91FF90EF90DF90CF9090
:10146000BF90AF909F908F907F906F905F904F90C4
:101470000895CF92DF92EF92FF920F931F93CF9335
:10148000DF93CDB7DEB7CDB6DEB66031710581052D
:10149000910530F16F3F71058105910519F110F14A
:1014A000611520E1720781059105F0F06115710564
:1014B00031E083079105D0F06115710520E18207C5
:1014C0009105B0F061157105810531E0930790F049
:1014D00061157105810520E1920770F020E20DC0D1
:1014E00024E00BC028E009C02CE007C020E105C0C3
:1014F00024E103C028E101C02CE1422F50E08A0121
:10150000015011092DB73EB7241B350B0FB6F894C7
:101510003EBF0FBE2DBF2F5F3F4F7901F901A0E302
:10152000A1939F012E193F0924173507CCF3F7012A
:10153000A1E3B0E3262F217096958795779567955F
:10154000211102C0B08301C0A08331969F012E19E2
:101550003F092417350774F3F701E00FF11F80816D
:101560000E947E09C80183709927892B19F480E2B3
:101570000E947E090150110978F70FB6F894DEBE7B
:101580000FBECDBEDF91CF911F910F91FF90EF90D5
:10159000DF90CF900895CF92DF92EF92FF920F935A
:1015A0001F93CF93DF93CDB7DEB7CDB6DEB66F3FD7
:1015B00071058105910509F100F1611520E17207BE
:1015C00081059105E0F06115710531E08307910512
:1015D000C0F06115710520E182079105A0F0611549
:1015E0007105810531E0930780F061157105810572
:1015F00020E1920760F028E00BC022E009C023E060
:1016000007C024E005C025E003C026E001C027E0B4
:10161000422F50E07A0131E0E31AF1082DB73EB7CE
:10162000241B350B0FB6F8943EBF0FBE2DBF0DB770
:101630001EB70F5F1F4FF801A0E3A1939F01201B6E
:10164000310B24173507CCF3F801262F2F7034E027
:1016500096958795779567953A95D1F72A3010F446
:10166000205D01C0295C208331969F01201B310B36
:101670002417350754F3F801EE0DFF1D80810E94F9
:101680007E0931E0E31AF108B0F70FB6F894DEBE38
:101690000FBECDBEDF91CF911F910F91FF90EF90C4
:1016A000DF90CF9008950F931F93CF93DF93EC01BA
:1016B0008C0107511C4F8991882331F0C017D10745
:1016C00019F00E947E09F7CFDF91CF911F910F9102
:1016D0000895CDB7DEB7CC50D2400FB6F894DEBF38
:1016E0000FBECDBF0E946B090E94D6000FEF10E025
:1016F00084E392E00E94530B01501109C9F78FEB6C
:1017000095E00E94530BCD5FDD4F1882C350D2404D
:10171000CC5FDD4F1882C450D24086E392E00E9435
:10172000530B60E070E0CB010E948509CE018D5F14
:101730009D4F0E94CE02CB5FDD4F6883C550D240E3
:10174000CA5FDD4F7883C650D240C95FDD4F8883C2
:10175000C750D240C85FDD4F9883C850D240CB5F9E
:10176000DD4F288139814A815B81C550D240232BCE
:10177000242B252B09F423C18AE592E00E94530B08
:10178000CB5FDD4F688179818A819B81C550D240D2
:101790000E94CB0ACB5FDD4F688179818A819B8172
:1017A000C550D2400E9436018CEA92E00E94530B51
:1017B000CB5FDD4F8881C550D2400E94FF008FEC87
:1017C00092E00E94530BCB5FDD4F688179818A8163
:1017D0009B81C550D2400E9436018CEE92E00E945F
:1017E000530BCD5FDD4F8881C350D240282F30E0AE
:1017F00050E040E0CA01B9010E9485098EEF92E0F5
:101800000E94530BCC5FDD4F8881C450D2408111C0
:10181000DBC080E193E00E94530BCB5FDD4F8881FA
:101820009981AA81BB81C550D240892B8A2B8B2BF1
:1018300009F0C0C00E949D077B018C018AE193E002
:101840000E94530BB701C8010E9485098FE293E003
:101850000E94530B22E030E240E050E060E070E292
:1018600080E090E00E949F08CC5FDD4F8881C450EB
:10187000D240813009F4AEC020E036E040E050E0D4
:10188000CB5FDD4F288339834A835B83C550D240C9
:10189000AE014F5F5F4FCB5FDD4F688179818A81F9
:1018A0009B81C550D2400E94C8038C0188E393E01D
:1018B0000E94530BC8010E945F07CE0101960E944F
:1018C0000E0480E493E00E94530B0E948B00CB5FD8
:1018D000DD4F6883C550D240CA5FDD4F7883C65064
:1018E000D240C95FDD4F8883C750D240C85FDD4F0B
:1018F0009883C850D24087E593E00E94530B0E9422
:101900008B007B018C0182E893E00E94530BB701AE
:10191000C8010E94850987E993E00E94530BCB5FC1
:10192000DD4F688179818A819B81C550D2400E94B8
:10193000850985EB93E00E94530B0E947709D82E0E
:101940000E947E098EEB95E00E94530B99E7D91215
:10195000B8CFCB5FDD4F288139814A815B81C5508B
:10196000D24089E0220F331F441F551F8A95D1F7BB
:10197000CB5FDD4F288339834A835B83C550D240D8
:101980009701A801CB5FDD4F688179818A819B81B6
:10199000C550D2400E94BC040E945F078EEC93E0C9
:1019A0000E94530B0E947709182F0E947E0911375D
:1019B00009F087CF0E9477090E947E09FBCF87E854
:1019C00092E00E94530BF0CE813009F026CF85E1E2
:1019D00093E021CF83E090E0A0E0B0E0CB5FDD4F6B
:1019E00088839983AA83BB83C550D24051CFDB0142
:1019F0008F939F930E943D0DBF91AF91A29F800D49
:101A0000911DA39F900DB29F900D11240895AA1BC4
:101A1000BB1B51E107C0AA1FBB1FA617B70710F0D9
:101A2000A61BB70B881F991F5A95A9F7809590950B
:101A3000BC01CD010895A1E21A2EAA1BBB1BFD011A
:101A40000DC0AA1FBB1FEE1FFF1FA217B307E4079D
:101A5000F50720F0A21BB30BE40BF50B661F771FF5
:101A6000881F991F1A9469F76095709580959095D5
:101A70009B01AC01BD01CF0108950E948A0DA59F75
:101A8000900DB49F900DA49F800D911D1124089579
:101A9000002E083090F0982F872F762F652F542F27
:101AA000432F322F22270850F4CF220F331F441F19
:101AB000551F661F771F881F991F0A95B2F7002DC3
:101AC000089597FD1094002E083098F00850232FA9
:101AD000342F452F562F672F782F892F912DF4CF34
:101AE0001594979587957795679557954795379569
:101AF00027950A95AAF71124002D08950024A7FD23
:101B000000942A17300540055005600570058005D2
:101B100090050895A29FB001B39FC001A39F700DCF
:101B2000811D1124911DB29F700D811D1124911DE5
:061B30000895F894FFCFB8
:101B3600736563746F722076616C756520697320B6
:101B4600746F6F206C617267652E0A0D456E746541
:101B5600722076616C7565203C203431393433301F
:101B6600340A0D000A000A0A0D53442043617264C8
:101B760020496E697469616C697A6174696F6E2057
:101B8600417474656D70743A20000A0A0D5344203E
:101B9600494E495449414C495A4154494F4E2046B1
:101BA60041494C4544207769746820526573706FCB
:101BB6006E7365203078000A0D53442043617264C9
:101BC600205375636365737366756C6C7920496E13
:101BD600697469616C697A65640A0D000A0D507250
:101BE600696E74696E6720523120526573706F6E2C
:101BF600736520666F7220696E6974203D20000A45
:101C06000D696E697469616C697A6174696F6E20B9
:101C1600726573706F6E7365203D20000A0D206338
:101C260074762E76657273696F6E203D20000A0DFC
:101C3600206374762E74797065202020203D200064
:101C4600534453430053444843000A0D6D656D6F7A
:101C56007279206361706163697479203D20002088
:101C660042797465730A0D0020657272203D20006A
:101C76000A0D456E74657220537461727420536543
:101C860063746F720A0D000A0D686F77206D616EBE
:101C96007920736563746F727320646F20796F7532
:101CA6002077616E7420746F207072696E743F0ABB
:101CB6000D000A0D596F752077616E7420746F20C0
:101CC6007072696E74200020736563746F7273207E
:101CD600626567696E6E696E6720617420736563FD
:101CE600746F7220000A0D6973207468697320632B
:101CF6006F72726563743F2028792F6E29000A0D72
:101D06002070726573732027712720746F20717598
:101D1600697420616E6420616E79206F74686572E3
:101D2600206B657920746F20676F20616761696E2B
:101D36003A20002052315F54494D454F55542C00EE
:101D460020504152414D45544552204552524F5222
:101D56002C002041444452455353204552524F5281
:101D66002C002045524153452053455155454E437D
:101D760045204552524F520020434F4D5F43524338
:101D86005F4552524F520020494C4C4547414C202A
:101D9600434F4D4D414E440020455241534520523C
:101DA600455345540020494E2049444C4520535440
:101DB60041544500204F5554204F462049444C4538
:101DC60000204641494C45445F474F5F49444C45D6
:101DD6005F535441544500204641494C45445F53A6
:101DE600454E445F49465F434F4E440020554E538F
:101DF6005550504F525445445F434152445F5459E5
:101E0600504500204641494C45445F4352435F4F8D
:101E16004E5F4F464600204641494C45445F41507F
:101E2600505F434D4400204641494C45445F53446E
:101E36005F53454E445F4F505F434F4E4400204F23
:101E460055545F4F465F49444C455F54494D454F95
:101E5600555400204641494C45445F524541445F34
:101E66004F43520020504F5745525F55505F4E4FDB
:101E7600545F434F4D504C45544500204641494C14
:101E860045445F5345545F424C4F434B4C454E00CF
:101E9600204641494C45445F53454E445F435344B5
:101EA6000020494E49545F535543434553530A0D49
:101EB600000A0A0D20424C4F434B204F46465345DD
:101EC6005409090909202020484558090909090922
:101ED600202020202041534349490A0D000A0D20A5
:101EE600202000307830000920000909000A0A0D78
:101EF600000A0D7072696E74696E67205231203D5A
:101F060020000A0A0D0909090909424C4F434B3AB8
:101F160020000A0D2044415441204143434550547A
:101F26004544000A0D204352435F4552524F52002A
:101F36000A0D2057524954455F4552524F52000AE6
:101F46000D20494E56414C49445F444154415F522D
:101F56004553504F4E5345000A0D20444154415FAE
:101F6600524553504F4E53455F54494D454F555476
:101F7600000A0D20434152445F425553595F54496C
:101F86004D454F5554000A0D2052315F4552524F70
:101F960052000A0D20554E4B4E4F574E2052455378
:101FA600504F4E5345000A0D205231204552524F94
:101FB60052000A0D20524541442053554343455390
:101FC60053000A0D20535441525420544F4B454E52
:101FD6002054494D454F5554000A0D204552415352
:101FE60045205355434345535346554C000A0D204F
:101FF6005345542045524153452053544152542091
:1020060041444452204552524F52000A0D20534536
:102016005420455241534520454E442041444452A4
:10202600204552524F52000A0D204552524F52201F
:102036004552415345000A0D2045524153455F42E2
:102046005553595F54494D454F5554000A0D3E3E70
:10205600204552524F523A20202053454E445F436A
:1020660053442028434D44392920696E2073645F08
:102076006765744D656D6F727943617061636974EC
:102086007928292072657475726E6564206572728E
:102096006F7220696E20523120726573706F6E7395
:1020A600652E000A0D536561726368696E67206666
:1020B6006F72206E6F6E2D7A65726F20626C6F6321
:1020C6006B73206F7665722072616E6765200020E3
:1020D600746F20000A0D446F6E652073656172632C
:1020E60068696E67206E6F6E2D7A65726F20626CFE
:0620F6006F636B732E0006
:00000001FF
