:100000000C9472000C9489000C9489000C94890063
:100010000C9489000C9489000C9489000C9489003C
:100020000C9489000C9489000C9489000C9489002C
:100030000C9489000C9489000C9489000C9489001C
:100040000C9489000C9489000C9489000C9489000C
:100050000C9489000C9489000C9489000C948900FC
:100060000C9489000C9489000C9489000C948900EC
:100070000C9489000C9489000C9489000C948900DC
:100080000C9489000C9489000C9489000C948900CC
:100090000C9489000C9489000C9489000C948900BC
:1000A0000C9489000C9489000C9489000C948900AC
:1000B0000C9489000C9489000C9489000C9489009C
:1000C0000C9489000C9489000C9489000C9489008C
:1000D0000C9489000C9489000C9489000C9489007C
:1000E0000C94890011241FBECFEFD1E2DEBFCDBF3B
:1000F0001CE0A0E0B2E0EAE5FAE100E00BBF02C0DC
:1001000007900D92AC31B107D9F70E94B30B0C9454
:100110002B0D0C94000087E084B981E085B9E4E6FA
:10012000F0E080818B7F808382E58CBD8DB58E7FF2
:100130008DBD08958EBD0DB407FEFDCF08958EB51B
:1001400008950C949A008FEF0E949A000C949F00DF
:10015000CF93C0E00E94A3008F3F11F0CF9108958C
:10016000C150C1F780E8FACFCF93C82F87FF04C0F2
:100170008BEF92E00E949D0BC6FF04C088E093E0E5
:100180000E949D0BC5FF04C08AE193E00E949D0B75
:10019000C4FF04C08AE293E00E949D0BC3FF04C029
:1001A00080E493E00E949D0BC2FF04C08FE493E0C3
:1001B0000E949D0BC1FF04C080E693E00E949D0B4E
:1001C0008DE693E0C0FD04C0C11105C08CE793E04B
:1001D000CF910C949D0BCF910895CF92DF92EF9227
:1001E000FF926B017C01D0FE04C089E893E00E947D
:1001F0009D0BD1FE04C08FE993E00E949D0BD2FEBF
:1002000004C084EB93E00E949D0BD3FE04C08BECF2
:1002100093E00E949D0BD4FE04C08EED93E00E94FB
:100220009D0BD5FE04C08EEE93E00E949D0BD6FE82
:1002300004C086E094E00E949D0BD7FE04C08BE1D1
:1002400094E00E949D0BE0FE04C08CE294E00E94CA
:100250009D0BE1FE04C083E494E00E949D0B88E5C1
:1002600094E0E2FC06C0CD28CE28CF2841F489E6F0
:1002700094E0FF90EF90DF90CF900C949D0BFF9057
:10028000EF90DF90CF9008952F923F924F925F9220
:100290006F927F928F929F92AF92BF92CF92DF9296
:1002A000EF92FF920F931F93CF93DF93CDB7DEB7FB
:1002B00028970FB6F894DEBF0FBECDBFE22F3B8369
:1002C0004C835D836E83472E382E292E88E2A82E1C
:1002D000B12C512C612C712C812C912C89E88983B3
:1002E0001A82C12CD12CE12CF12C10E0188680E868
:1002F0008F83B0E0F0E02D2D2E233B813E214C81F9
:100300004F215D8151236E81888568237F8174210F
:100310008B2F83219F2F9221A0E00E94100D91F03E
:10032000E5258B8186258B838C8187258C838D8128
:1003300088258D838E8189258E83898148268A81AF
:1003400038262C24252D362D472D582D692D7981C1
:100350008A819C2D01E00E94F50C522E632E742E92
:10036000852E962E79838A83C92E2D2D3E2D4F2DD5
:10037000512F68857F818B2F9F2F0E94F50CD22EE5
:10038000E32EF42E152F68877F83B82FF92F81E095
:10039000A81AB10809F0AFCF8E2F28960FB6F8949F
:1003A000DEBF0FBECDBFDF91CF911F910F91FF90A8
:1003B000EF90DF90CF90BF90AF909F908F907F9005
:1003C0006F905F904F903F902F9008957F928F9203
:1003D0009F92AF92BF92CF92DF92EF92FF920F93D4
:1003E0001F93CF93DF934A015B01282F206430E0F5
:1003F00040E050E060E070E080E090E008E20E94C1
:10040000DA0CC22F732EB42FA52FF62FE72F182F3B
:10041000D92F9401A50160E070E080E090E008E051
:100420000E94DA0CC22B732AC42ECB2AD52EDA2ACC
:10043000E62EEF2AF72EFE2A182BD92B2C2F372D3C
:10044000A601B701812F9D2F0E944401C82BC160D6
:100450008FEF0E949A008FEF0E949A008FEF0E9408
:100460009A002C2F372DA601B701812F9D2F08E26E
:100470000E94F50C822F0E949A002C2F372DA60186
:10048000B701812F9D2F00E20E94F50C822F0E9460
:100490009A002C2F372DA601B701812F9D2F08E13F
:1004A0000E94F50C822F0E949A002C2F372DA60156
:1004B000B701812F9D2F00E10E94F50C822F0E9431
:1004C0009A002C2F372DA601B701812F9D2F08E010
:1004D0000E94F50C822F0E949A008C2FDF91CF9101
:1004E0001F910F91FF90EF90DF90CF90BF90AF9052
:1004F0009F908F907F900C949A000F931F93CF93AF
:10050000DF93CBE0D0E08FEF0E949A002197D9F7DC
:10051000289840E050E0BA0180E00E94E6010E9485
:10052000A800289A813061F0682F70E07160072E72
:10053000000C880B990BDF91CF911F910F910895BB
:1005400028984AEA51E060E070E088E00E94E60105
:100550000E94A800C82F0E94A3000E94A3000E942E
:10056000A300D82F0E94A300289AC13021F06C2F3D
:1005700070E07260DCCFD13009F08AC08A3A09F0AD
:1005800087C0289840E050E0BA018BE30E94E60162
:100590000E94A800289A813021F0682F70E07860CE
:1005A000C6CFC6E0289840E050E0BA0187E30E9439
:1005B000E6010E94A800289A813021F0682F70E09F
:1005C0007061B5CF289840E050E0BA0189E20E94FE
:1005D000E6010E94A800682F289A823018F070E087
:1005E0007062A5CFC15019F470E07066A0CF811180
:1005F000D9CF289840E050E0BA018AE30E94E60192
:100600000E94A800882331F0682F70E0706890E0A5
:1006100080E091CF0E94A300D82F87FD06C0289AC2
:1006200060E070E081E090E086CF082F10E00E944B
:10063000A300C82F0E94A300282FC80156E095955B
:1006400087955A95E1F7823031F0289A60E074E896
:1006500080E090E070CFD5FB882780F943E01595C6
:1006600007954A95E1F70270082BD170D02B289A94
:1006700069F78C2F90E0880F991F221F2227221FD5
:10068000822B8F3F914011F760E070E0CB0153CF98
:1006900061E076E080E090E04ECFEF92FF920F9322
:1006A0001F93CF93DF93362F272FBC01EA012898A1
:1006B000432F522F81E10E94E6010E94A800882367
:1006C00051F0289A90E09160DF91CF911F910F91A6
:1006D000FF90EF9008950E94A3001FEF8E3FD9F482
:1006E0008E017E018EEFF81A0E94A300F80181931B
:1006F0008F01EE15FF05C1F70E94A300F80180836A
:100700000E94A300CF5FDD4F88830E94A300289A38
:1007100080E094E0D9CF0E94A3001150F9F6289A06
:1007200080E092E0D1CFAF92BF92CF92DF92EF9272
:10073000FF920F931F93CF93DF9300D000D000D090
:10074000CDB7DEB76C0189E794E00E949D0B1E8255
:100750001D8200E110E0F12CE12C85EA94E00E947A
:100760009D0B970150E040E029833A834B835C83E3
:100770008BEA94E03FEFE316F10419F010F087E7FD
:1007800092E00E949D0B69817A818B819C810E94FD
:10079000150B8FEA94E00E949D0BAD80BE80AC0CDF
:1007A000BD1CF12CE12C8D819E818E0D9F1D80172B
:1007B0009107B0F182EB94E00E949D0BED80FE80EA
:1007C000E016F10608F44CC08D819E817801E81A8C
:1007D000F90A0817190710F4F12CE12CAD81BE813C
:1007E000EA0EFB1E005F1F4F5096BE83AD830031A3
:1007F000B2E01B0709F0B1CF85E292E026960FB672
:10080000F894DEBF0FBECDBFDF91CF911F910F9146
:10081000FF90EF90DF90CF90BF90AF900C949D0B26
:10082000C70183709927892B21F480EB94E00E9403
:100830009D0B80EB94E00E949D0BD5018D915D0195
:10084000282F30E050E040E029833A834B835C83DB
:10085000CA01B9010E94150B3FEFE31AF30AA3CFB7
:10086000F601EE0DFF1D8081803238F480E20E9497
:10087000C8094FEFE41AF40AA3CF87FFF8CF8EE23E
:10088000F6CF2F923F924F925F926F927F928F920C
:100890009F92AF92BF92CF92DF92EF92FF920F930F
:1008A0001F93CF93DF93CDB7DEB7C850D2400FB6BA
:1008B000F894DEBF0FBECDBF6B017C0129013A0168
:1008C0002898BC01A60182E10E94E6010E94A800CE
:1008D000882309F487C0289A90E09160C85FDD4FB3
:1008E0000FB6F894DEBF0FBECDBFDF91CF911F9141
:1008F0000F91FF90EF90DF90CF90BF90AF909F90BF
:100900008F907F906F905F904F903F902F900895C1
:10091000115021F480E092E0E1CF1FEF0E94A3008C
:100920008E3FB1F78E010F5F1F4FC95FDD4F088308
:10093000C750D240C85FDD4F1883C850D2400E94D4
:10094000A300D8018D938D01A215B305C1F70E94B4
:10095000A300F10180830E94A300CE5FDD4F888356
:10096000C250D24085EB94E00E949D0BD701C60196
:1009700029E0B695A795979587952A95D1F7CD5FEC
:10098000DD4F88839983AA83BB83C350D240BC01C7
:10099000CD010E94CF09C95FDD4F8881C750D24089
:1009A000C85FDD4F9881C850D2400E9493039FEFEB
:1009B000891A990AA90AB90AA2E0DA0EE11CF11C07
:1009C000481459046A047B0409F0A7CF40E050E0C2
:1009D000BA018CE00E94E6010E94A300289A80E000
:1009E00094E07CCF812C912C54011E01BFEF2B1A77
:1009F000BDEF3B0AE5CF0F931F93CF93DF9300D05A
:100A000000D0CDB7DEB7362F272FBC018A0128983A
:100A1000432F522F88E10E94E6010E94A80089839B
:100A20008823A9F0289A85EC94E00E949D0B898187
:100A30000E94B4002981822F90E09F600F900F9058
:100A40000F900F90DF91CF911F910F9108958EEF2E
:100A50000E94A10009831A8309811A811E5FA9815E
:100A6000BA818D91BA83A9830E94A100E981FA819C
:100A7000E017F107A1F78FEF0E94A1008FEF0E940E
:100A8000A10001E011E00E94A30089830150110937
:100A900041F4289A83E295E00E949D0B80E09FE05C
:100AA000CDCF89818F7199819771953011F08B30FD
:100AB00051F7898185708530B9F4A2E0B2E0BA833C
:100AC000A9830E94A30081110BC089819A8101979B
:100AD0009A838983892BA9F782EA95E00E949D0B6E
:100AE000289A80E092E0AACF89818B708B30A9F49C
:100AF000289A82ED95E00E949D0B9981892F90E0C4
:100B0000B0E0A0E0BC01CD010E94150B8EE096E0A4
:100B10000E949D0B80E095E091CF89818D708D3092
:100B200009F0BCCF289A81E196E00E949D0B998143
:100B3000892F90E0B0E0A0E0BC01CD010E94150B30
:100B40008EE096E00E949D0B80E096E077CF8F923A
:100B50009F92AF92BF92CF92DF92EF92FF920F934C
:100B60001F93CF93DF9300D000D0CDB7DEB7E62F31
:100B7000572FBC01042F790128984E2F89E10E943C
:100B8000E6010E94A8008983882309F4CAC0289A34
:100B900081E596E00E949D0B89810E94B4009981B5
:100BA000892F90E09F609A83898389819A810F9031
:100BB0000F900F900F90DF91CF911F910F91FF90A9
:100BC000EF90DF90CF90BF90AF909F908F9008955F
:100BD00089818F7199819771953011F08B3091F5E2
:100BE00089818570853009F04EC082E092E09A8359
:100BF00089830E94A3008823A9F1A0E0B2E0BA8310
:100C0000A983FFEFCF1ADF0AC016D1060CF058C037
:100C10008CEF0E94A100FA82E982A981BA818D91AC
:100C2000BA83A9830E94A100E981FA81EA15FB0534
:100C3000A1F78FEF0E94A1008FEF0E94A1008824EE
:100C40008394982C0E94A3008983F1E08F1A910865
:100C500009F0BECF289A82EB96E00E949D0B80E0BF
:100C60009FE0A1CFA981BA811197BA83A983AB2B49
:100C700009F0BFCF82EA95E00E949D0BE0E0F2E030
:100C8000FA83E983BECF89818B708B3059F582ED71
:100C900095E00E949D0B9981892F90E0B0E0A0E043
:100CA00089839A83AB83BC83BC01CD010E94150B61
:100CB0008EE096E00E949D0BA0E0B5E0BA83A98388
:100CC0008DEF0E94A10002E012E00E94A3008111BA
:100CD00007C001501109C9F782EA95E00E949D0BF7
:100CE000289A63CF89818D708D30C1F481E196E0BF
:100CF0000E949D0B9981892F90E0B0E0A0E089834C
:100D00009A83AB83BC83BC01CD010E94150B8EE09E
:100D100096E00E949D0BA0E0B6E0D0CFE0E0FFE0BF
:100D2000AFCFD12CC12C80E09FE09A83898310E063
:100D300057019EEFB91A68CFCF93DF93EC0184E39C
:100D400097E00E949D0B8C2F0E94B4008CE697E0E8
:100D50000E949D0BCC27D770C11585E0D80781F084
:100D6000C11586E0D80731F0C115D24061F483EA9D
:100D700097E002C087E897E0DF91CF910C949D0B3C
:100D800086E997E0F9CF84EB97E0F6CFCF92DF9238
:100D9000EF92FF92CF93DF9300D000D0CDB7DEB7B4
:100DA000289840E050E0BA0187E30E94E6010E94E3
:100DB000A800F82E83ED97E0F1100DC040E050E060
:100DC000BA0186E10E94E6010E94A800F82E88235D
:100DD00039F188E498E00E949D0B8F2D0E94B400A9
:100DE00019821A821B821C8269817A818B819C8183
:100DF0000F900F900F900F90DF91CF91FF90EF9099
:100E0000DF90CF90089529813A81215031093A83AA
:100E10002983232B49F488EC98E00E949D0BE0CFB6
:100E200040E051E05A8349830E94A3008E3F59F766
:100E30000E94A30090E0B0E0A0E0CC24D82EE92EE0
:100E4000FA2E0E94A300C82AFE2CED2CDC2CCC2408
:100E50000E94A300C82AFE2CED2CDC2CCC240E947E
:100E6000A300A7019601282B29833A834B835C8337
:100E70000E94A3000E94A300289AB6CFFF920F936E
:100E80001F93CF93DF93F62FE72FBC01F22E032F92
:100E9000142FD52F28984F2F5E2F80E20E94E60155
:100EA0000E94A800C82F289A882381F08AE399E03D
:100EB0000E949D0B8C2F0E94B4008C2F90E09160BB
:100EC000DF91CF911F910F91FF90089528984F2D9A
:100ED000502F612F7D2F81E20E94E6010E94A80021
:100EE000C82F289A882359F08DE999E00E949D0B1C
:100EF0008C2F0E94B4008C2F90E09260E1CF289854
:100F000040E050E0BA0186E20E94E6010E94A8009B
:100F1000C82F8823A9F0289A8EEF99E00E949D0B94
:100F20008C2F0E94B4008C2F90E09460C9CF219741
:100F300049F48DE49AE00E949D0B80E098E0C0CFD8
:100F4000D0E0C0E00E94A300882389F3289A90E0B3
:100F500080E0B6CFCF93DF93EC010E94B400CC27A2
:100F6000C11582E0D807D9F050F486ED9AE02097B9
:100F700091F0C115D14069F083E59BE00CC0C1152B
:100F800084E0D80779F0C115D840B1F781E49BE03F
:100F900002C08EEE9AE0DF91CF910C949D0B8FE012
:100FA0009BE0F9CF8EE29BE0F6CFCF92DF92EF92FB
:100FB000FF920F931F93CF93DF93CDB7DEB729979F
:100FC0000FB6F894DEBF0FBECDBF289840E050E0CA
:100FD000BA0189E00E94E6010E94A800882301F17D
:100FE000289A81E79BE00E949D0BC12CD12C7601B1
:100FF000C394C982DA82EB82FC8269817A818B8117
:101000009C8129960FB6F894DEBF0FBECDBFDF914D
:10101000CF911F910F91FF90EF90DF90CF900895A7
:1010200019820E94A30082958695869583708330ED
:1010300079F47981715079837111F3CF289A81E025
:1010400090E0A0E0B0E089839A83AB83BC83D5CFE6
:1010500019820E94A30087FF07C09981915099834C
:101060009111F7CF289AC1CF0E94A3001D820E9440
:10107000A3007D817F5F7983823341F08A3531F02F
:101080008D818F3F79F3D980DD82F1CFE12C0E94F1
:10109000A3008B7781F00E94A300982F92959F70F8
:1010A000953009F07BC08F70E82E87EF8E0D83306E
:1010B00028F6198602C091E09987C980CC2009F4EE
:1010C000BDCF99819F5F9983A985A13001F3DA2E65
:1010D000AD8310E000E00E94A300982F937F61E0B1
:1010E00011F18370082F10E0102F00270E94A30039
:1010F000082B000F111F000F111F0E94A3008295E3
:10110000869586958370082B0E94A30089830E9490
:10111000A300C980CC0C7C2D7670881F8827881F7F
:10112000782B7D83698581E0D81609F49BCFDA940A
:10113000613089F2289A862F21E030E040E050E0CB
:10114000E8122FC081E090E0A0E0B0E089839A83AC
:10115000AB83BC83CD808C2D90E00196C980DA8072
:10116000EB80FC80CC0CDD1CEE1CFF1CC982DA82FB
:10117000EB82FC826F5F6817190681F37CF3D8015C
:1011800011960E94CF0C9B01AC01C701B6010E94D1
:10119000890C69837A838B839C832FCFA1E0A987F5
:1011A0008CCF220F331F441F551F8F5FC9CFCF92A3
:1011B000DF92EF92FF920F931F93CF93DF93CDB700
:1011C000DEB7CE50D2400FB6F894DEBF0FBECDBF13
:1011D000CD5FDD4F6883C350D240CC5FDD4F788355
:1011E000C450D240CB5FDD4F8883C550D240CA5F28
:1011F000DD4F9883C650D240C95FDD4F2883C7506A
:10120000D240C85FDD4F3883C850D240C75FDD4F42
:101210004883C950D240C65FDD4F5883CA50D24080
:1012200088EC9BE00E949D0BCD5FDD4F688179814A
:101230008A819B81C350D2400E94CF0984EF9BE0FA
:101240000E949D0BC95FDD4F688179818A819B81F6
:10125000C750D2400E94CF0910E000E07E012FEF7E
:10126000E21A2DEFF20A35E0C32ED12CCD5FDD4F0F
:1012700088819981AA81BB81C350D240C95FDD4F6B
:10128000288139814A815B81C750D24028173907AC
:101290004A075B07A0F489EF9BE00E949D0BC25FA9
:1012A000DD4F0FB6F894DEBF0FBECDBFDF91CF91FB
:1012B0001F910F91FF90EF90DF90CF900895AE01B6
:1012C0004F5F5F4FCD5FDD4F88819981AA81BB81E0
:1012D000C350D24029E0880F991FAA1FBB1F2A952F
:1012E000D1F7C55FDD4F88839983AA83BB83CB5039
:1012F000D240BC01CD010E944D03FE013196819187
:10130000882379F1C801B6010E94990C892B21F438
:1013100086E292E00E949D0B82EB94E00E949D0B7E
:10132000CD5FDD4F688179818A819B81C350D24036
:101330000E94CF090F5F1F4FCD5FDD4F288139819C
:101340004A815B81C350D2402F5F3F4F4F4F5F4F69
:10135000CD5FDD4F288339834A835B83C350D240FE
:1013600085CFEE15FF0559F6E7CF1092C50087E649
:101370008093C40088E18093C10086E08093C2001E
:1013800008958091C00087FFFCCF8091C60008952A
:101390009091C00095FFFCCF8093C60008954F92B6
:1013A0005F926F927F928F929F92AF92BF92CF92F5
:1013B000DF92EF92FF920F931F93CF93DF93CDB7FE
:1013C000DEB79B01AC018DB69EB66A307105810512
:1013D0009105C0F16436710581059105A8F1283E9B
:1013E00083E038074105510588F1203197E239073C
:1013F0004105510568F1203AE6E83E07E1E04E0775
:10140000510540F12034F2E43F07FFE04F0751055A
:1014100018F1203886E9380788E948075105F0F0C7
:10142000211591EE390795EF490795E05907C0F06E
:101430002115EAEC3E07EAE94E07EBE35E0790F080
:101440000AE011C001E00FC002E00DC003E00BC0D4
:1014500004E009C005E007C006E005C007E003C0DE
:1014600008E001C009E010E06801F1E0CF1AD108FE
:101470008DB79EB7801B910B0FB6F8949EBF0FBE21
:101480008DBFEDB7FEB731967F0160E36193CF0169
:101490008E199F0980179107CCF357018AE0482ED7
:1014A000512C612C712CCA01B901A30192010E9437
:1014B000AD0C605DF50161935F01CF018E199F094D
:1014C0008017910784F3F701EC0DFD1D80810E94C8
:1014D000C809F1E0CF1AD108B0F70FB6F8949EBE54
:1014E0000FBE8DBEDF91CF911F910F91FF90EF90B6
:1014F000DF90CF90BF90AF909F908F907F906F9034
:101500005F904F900895CF92DF92EF92FF920F93EA
:101510001F93CF93DF93CDB7DEB7CDB6DEB6603184
:1015200071058105910530F16F3F710581059105C8
:1015300019F110F1611520E1720781059105F0F0B4
:101540006115710531E083079105D0F061157105D2
:1015500020E182079105B0F061157105810531E048
:10156000930790F061157105810520E1920770F0F5
:1015700020E20DC024E00BC028E009C02CE007C029
:1015800020E105C024E103C028E101C02CE1422F85
:1015900050E08A01015011092DB73EB7241B350BCD
:1015A0000FB6F8943EBF0FBE2DBF2F5F3F4F79019E
:1015B000F901A0E3A1939F012E193F0924173507D4
:1015C000CCF3F701A1E3B0E3262F21709695879520
:1015D00077956795211102C0B08301C0A083319631
:1015E0009F012E193F092417350774F3F701E00F07
:1015F000F11F80810E94C809C80183709927892B37
:1016000019F480E20E94C8090150110978F70FB659
:10161000F894DEBE0FBECDBEDF91CF911F910F912A
:10162000FF90EF90DF90CF900895CF92DF92EF92EE
:10163000FF920F931F93CF93DF93CDB7DEB7CDB655
:10164000DEB66F3F71058105910509F100F1611565
:1016500020E1720781059105E0F06115710531E027
:1016600083079105C0F06115710520E1820791059E
:10167000A0F061157105810531E0930780F06115D7
:101680007105810520E1920760F028E00BC022E09F
:1016900009C023E007C024E005C025E003C026E020
:1016A00001C027E0422F50E07A0131E0E31AF1084F
:1016B0002DB73EB7241B350B0FB6F8943EBF0FBEB7
:1016C0002DBF0DB71EB70F5F1F4FF801A0E3A19309
:1016D0009F01201B310B24173507CCF3F801262F6F
:1016E0002F7034E096958795779567953A95D1F761
:1016F0002A3010F4205D01C0295C208331969F01BF
:10170000201B310B2417350754F3F801EE0DFF1D94
:1017100080810E94C80931E0E31AF108B0F70FB6E2
:10172000F894DEBE0FBECDBEDF91CF911F910F9119
:10173000FF90EF90DF90CF9008950F931F93CF937A
:10174000DF93EC018C0107511C4F8991882331F004
:10175000C017D10719F00E94C809F7CFDF91CF91C8
:101760001F910F910895CDB7DEB7CA50D2400FB682
:10177000F894DEBF0FBECDBF0E94B5090E948B005A
:101780000FEF10E086E292E00E949D0B01501109DC
:10179000C9F780E092E00E949D0BC95FDD4F18827F
:1017A00019821A821B82C750D24089E292E00E94BD
:1017B0009D0BC95FDD4F688179818A819B81C7500C
:1017C000D2400E94CF090E947D02CD5FDD4F688329
:1017D000C350D240CC5FDD4F7883C450D240CB5F42
:1017E000DD4F8883C550D240CA5FDD4F9883C65015
:1017F000D240CD5FDD4F88819981AA81BB81C350E2
:10180000D240892B8A2B8B2B89F18DE492E00E94A8
:101810009D0BCD5FDD4F688179818A819B81C350AB
:10182000D2400E94150BCD5FDD4F688179818A819E
:101830009B81C350D2400E94ED00C95FDD4F88817B
:101840009981AA81BB81C750D2400197A105B105FA
:1018500089F081E090E0A0E0B0E0C95FDD4F8883CF
:101860009983AA83BB83C750D2409FCF8AE792E077
:101870000E949D0B8FE992E00E949D0BCD5FDD4F92
:101880008881C350D2400E94B40080EC92E00E9454
:101890009D0BCD5FDD4F688179818A819B81C3502B
:1018A000D2400E94ED00CD5FDD4F88819981AA81F1
:1018B000BB81C350D240892B8A2B8B2B29F50E94E8
:1018C000D5077B018C018DED92E00E949D0BB70145
:1018D000C8010E94CF0982EF92E00E949D0B24E68E
:1018E00030E040E050E060E070E0CB010E94D708BB
:1018F000AE014F5F5F4F60E070E0CB010E944D038F
:10190000CE0101960E9493030E94C1090E94C8095A
:10191000FBCFDB018F939F930E94CF0CBF91AF91C0
:10192000A29F800D911DA39F900DB29F900D112439
:101930000895AA1BBB1B51E107C0AA1FBB1FA61716
:10194000B70710F0A61BB70B881F991F5A95A9F768
:1019500080959095BC01CD010895A1E21A2EAA1B95
:10196000BB1BFD010DC0AA1FBB1FEE1FFF1FA2174F
:10197000B307E407F50720F0A21BB30BE40BF50B4C
:10198000661F771F881F991F1A9469F760957095D5
:10199000809590959B01AC01BD01CF0108950E94F7
:1019A0001C0DA59F900DB49F900DA49F800D911DBF
:1019B00011240895002E083090F0982F872F762F4D
:1019C000652F542F432F322F22270850F4CF220F98
:1019D000331F441F551F661F771F881F991F0A95C5
:1019E000B2F7002D089597FD1094002E083098F05E
:1019F0000850232F342F452F562F672F782F892FEC
:101A0000912DF4CF15949795879577956795579570
:101A10004795379527950A95AAF71124002D089523
:101A20000024A7FD00942A173005400550056005E5
:101A30007005800590050895A29FB001B39FC00175
:101A4000A39F700D811D1124911DB29F700D811DEA
:0A1A50001124911D0895F894FFCFB2
:101A5A000A0A0A0D202A2A2A2A2A2A202042454727
:101A6A00494E2054455354494E47202A2A2A2A2AA5
:101A7A002A2A2A2A0A0A0A0D000A0A0D534420436E
:101A8A0061726420496E697469616C697A6174690A
:101A9A006F6E20417474656D70743A20000A0A0DE5
:101AAA00534420494E495449414C495A4154494F9B
:101ABA004E204641494C4544207769746820526556
:101ACA0073706F6E7365203078000A0D534420439B
:101ADA00617264205375636365737366756C6C79A0
:101AEA0020496E697469616C697A65640A0D0050EF
:101AFA0072696E74696E6720523120526573706F15
:101B0A006E736520666F7220696E6974203D2000CD
:101B1A000A0D696E697469616C697A6174696F6EBC
:101B2A0020726573706F6E7365203D20000A0D6D1B
:101B3A00656D6F7279206361706163697479203DA4
:101B4A0020002042797465730A0D002052315F54D7
:101B5A00494D454F55542C0020504152414D455452
:101B6A004552204552524F522C002041444452457E
:101B7A005353204552524F522C002045524153454F
:101B8A002053455155454E4345204552524F520028
:101B9A0020434F4D5F4352435F4552524F520020FC
:101BAA00494C4C4547414C20434F4D4D414E440012
:101BBA002045524153452052455345540020494E31
:101BCA002049444C4520535441544500204F555414
:101BDA00204F462049444C4500204641494C454443
:101BEA005F474F5F49444C455F5354415445002079
:101BFA004641494C45445F53454E445F49465F431D
:101C0A004F4E440020554E535550504F5254454460
:101C1A005F434152445F5459504500204641494C64
:101C2A0045445F4352435F4F4E5F4F46460020464E
:101C3A0041494C45445F4150505F434D4400204662
:101C4A0041494C45445F53445F53454E445F4F50AE
:101C5A005F434F4E4400204F55545F4F465F4944FF
:101C6A004C455F54494D454F555400204641494C17
:101C7A0045445F524541445F4F43520020504F57FD
:101C8A0045525F55505F4E4F545F434F4D504C4540
:101C9A00544500204641494C45445F5345545F42F0
:101CAA004C4F434B4C454E00204641494C45445FFE
:101CBA0053454E445F4353440020494E49545F53B1
:101CCA005543434553530A0D000A0A0D20424C4F0F
:101CDA00434B204F46465345540909090920202001
:101CEA004845580909090909202020202041534361
:101CFA0049490A0D000A0D202020003078300009D9
:101D0A0020000909000A0A0D0909090909424C4F6C
:101D1A00434B3A20000A0D3E3E204552524F523A5A
:101D2A0020202057524954455F424C4F434B2028AC
:101D3A00434D4432342920696E2053445F577269F7
:101D4A00746553696E676C6544617461426C6F6354
:101D5A006B28292072657475726E656420657272CB
:101D6A006F7220696E20523120726573706F6E73C4
:101D7A00652E000A0D3E3E204552524F523A20200F
:101D8A002054696D656F7574207768696C65207772
:101D9A00616974696E6720666F722044617461209C
:101DAA00526573706F6E736520546F6B656E206930
:101DBA006E2053445F577269746553696E676C6528
:101DCA0044617461426C6F636B28292E202052652E
:101DDA007475726E696E67207769746820494E5609
:101DEA00414C49445F444154415F544F4B454E0A6C
:101DFA000D000A0D3E3E2074696D656F757420777B
:101E0A00616974696E6720666F722063617264200B
:101E1A00746F206E6F7420626520627573792E0A62
:101E2A000D000A0D3E3E20446174612072656A65A8
:101E3A00637465642044756520746F20435243209F
:101E4A004572726F720A0D44617461205265737033
:101E5A006F6E736520546F6B656E203D20006E0DAA
:101E6A00000A0D3E3E20446174612072656A656312
:101E7A007465642064756520746F206120577269E7
:101E8A007465204572726F720A0D44617461205242
:101E9A006573706F6E736520546F6B656E203D209D
:101EAA00000A0D3E3E204552524F523A20202057FA
:101EBA00524954455F424C4F434B2028434D4432CC
:101ECA00342920696E2053445F57726974654D75D1
:101EDA006C7469706C6544617461426C6F636B7396
:101EEA0028292072657475726E6564206572726F36
:101EFA007220696E20523120726573706F6E73653D
:101F0A002E000A0D3E3E204552524F523A202020C2
:101F1A0054696D656F7574207768696C652077619F
:101F2A006974696E6720666F722044617461205219
:101F3A006573706F6E736520546F6B656E20696E82
:101F4A002053445F57726974654D756C7469706C7F
:101F5A006544617461426C6F636B7328292E20207B
:101F6A0052657475726E696E672077697468204964
:101F7A004E56414C49445F444154415F544F4B458E
:101F8A004E0A0D000A0D3E3E2052312052657370F2
:101F9A006F6E73652072657475726E6564206279FE
:101FAA002073645F577269746553696E67656C4420
:101FBA00617461426C6F636B28293A000A0D3E3ED8
:101FCA00204461746120526573706F6E7365204599
:101FDA0072726F72733A000A0D2057524954455F64
:101FEA004552524F52000A0D204352435F45525206
:101FFA004F52000A0D204441544120414343455069
:10200A00544544000A0D20494E434F525245435409
:10201A0020524553504F4E53452052455455524E27
:10202A004544000A0D3E3E204552524F523A206521
:10203A0072726F722072657475726E656420696E51
:10204A0020523120726573706F6E736520746F2031
:10205A004150505F434D4420696E2053445F4E7592
:10206A006D6265724F6657656C6C577269747465F8
:10207A006E426C6F636B7328292E205265747572D9
:10208A006E696E67207769746820696E76616C691B
:10209A00642076616C7565000A0D3E3E20455252F9
:1020AA004F523A206572726F722072657475726E41
:1020BA00656420696E20523120726573706F6E7389
:1020CA006520746F2053454E445F4E554D5F5752FD
:1020DA005F424C4F434B5320696E2053445F4E7509
:1020EA006D6265724F6657656C6C57726974746578
:1020FA006E426C6F636B7328292E20526574757259
:10210A006E696E67207769746820696E76616C699A
:10211A00642076616C7565000A0D3E3E2045525278
:10212A004F523A2074696D656F7574207768696CCF
:10213A00652077616974696E6720666F72207374AF
:10214A0061727420746F6B656E20696E2053445FF0
:10215A004E756D6265724F6657656C6C577269741D
:10216A0074656E426C6F636B7328292E20526574F6
:10217A0075726E696E67207769746820696E766118
:10218A006C69642076616C7565000A0D3E3E2045D7
:10219A0052524F523A20202045524153455F5752DE
:1021AA005F424C4F434B5F53544152545F41444446
:1021BA00522028434D4433322920696E2053445F0C
:1021CA004572617365426C6F636B7328292072656F
:1021DA007475726E6564206572726F7220696E2002
:1021EA00523120726573706F6E73652E000A0D3E50
:1021FA003E204552524F523A2020204552415345E3
:10220A005F57525F424C4F434B5F454E445F4144D8
:10221A0044522028434D4433332920696E205344C5
:10222A005F4572617365426C6F636B732829207214
:10223A00657475726E6564206572726F7220696E5C
:10224A0020523120726573706F6E73652E000A0D0D
:10225A003E3E204552524F523A2020204552415389
:10226A00452028434D4433382920696E2053445F62
:10227A004572617365426C6F636B732829207265BE
:10228A007475726E6564206572726F7220696E2051
:10229A00523120726573706F6E73652E000A0D3E9F
:1022AA003E204552524F523A2020202054696D65F3
:1022BA006F7574207768696C652077616974696ED7
:1022CA006720666F72206361726420746F2065787C
:1022DA0069742074686520627573792073746174F7
:1022EA006520647572696E6720626C6F636B206526
:1022FA007261736520696E2053445F45726173652C
:10230A00426C6F636B737328292E20526574757241
:10231A006E696E672077697468206572726F7228B9
:10232A0073292E0A0D000A0D09202020204552414A
:10233A005345205355434345535346554C000A0DC4
:10234A0009202020204552524F52204552415345E0
:10235A002053544152542041444452455353000A95
:10236A000D09202020204552524F522045524153F8
:10237A004520454E442041444452455353000A0DDA
:10238A0009202020204552524F52204552415345A0
:10239A00000A0D09202020204552524F5220425552
:1023AA005359000A0D0920202020494E56414C4914
:1023BA0044204552524F5220524553504F4E534596
:1023CA00000A0D3E3E204552524F523A20202053D9
:1023DA00454E445F4353442028434D4439292069DC
:1023EA006E2073645F6765744D656D6F72794361C2
:1023FA0070616369747928292072657475726E65D3
:10240A0064206572726F7220696E20523120726583
:10241A0073706F6E73652E000A0D5365617263687F
:10242A00696E6720666F72206E6F6E2D7A65726FA5
:10243A0020626C6F636B73206F7665722072616EB7
:10244A006765200020746F20000A0D446F6E6520B6
:10245A00736561726368696E67206E6F6E2D7A6547
:0C246A00726F20626C6F636B732E0000B9
:00000001FF
