:100000000C9472000C9489000C9489000C94890063
:100010000C9489000C9489000C9489000C9489003C
:100020000C9489000C9489000C9489000C9489002C
:100030000C9489000C9489000C9489000C9489001C
:100040000C9489000C9489000C9489000C9489000C
:100050000C9489000C9489000C9489000C948900FC
:100060000C9489000C9489000C9489000C948900EC
:100070000C9489000C9489000C9489000C948900DC
:100080000C9489000C9489000C9489000C948900CC
:100090000C9489000C9489000C9489000C948900BC
:1000A0000C9489000C9489000C9489000C948900AC
:1000B0000C9489000C9489000C9489000C9489009C
:1000C0000C9489000C9489000C9489000C9489008C
:1000D0000C9489000C9489000C9489000C9489007C
:1000E0000C94890011241FBECFEFD1E2DEBFCDBF3B
:1000F0001BE0A0E0B2E0EAE7F6E100E00BBF02C0DF
:1001000007900D92A836B107D9F70E942E0A0C94D9
:100110003B0B0C94000087E084B981E085B9E4E6EC
:10012000F0E080818B7F808382E58CBD8DB58E7FF2
:100130008DBD08958EBD0DB407FEFDCF08958EB51B
:1001400008950C949A008FEF0E949A000C949F00DF
:100150002F923F924F925F926F927F928F929F92D7
:10016000AF92BF92CF92DF92EF92FF920F931F93C5
:10017000CF93DF93CDB7DEB728970FB6F894DEBFE5
:100180000FBECDBFD22E832E742E652E562E472E37
:10019000382E292E88E290E09A838983E12CF12C75
:1001A00010E018861F82B9E8912CA12CF0E0E0E065
:1001B0001B821C821D8290E89E83B12CC12C2F2FA4
:1001C0002D213E2F38214B8147215C8156216D81A5
:1001D00065217E8174218B2D83219C2D9221A0E0AD
:1001E0000E940C0B51F0DE248F247126888568262E
:1001F0009F8159264B2639242A249701412F58855F
:100200006F817B2F892D9A2D01E00E94F00A7901E0
:10021000142F58876F83B72F982EA92E2F2F3E2F7C
:100220004B815C816D817E818B2D9C2D0E94F00A1B
:10023000F22FE32F4B835C836D837E83B82EC92E10
:1002400089819A8101979A838983892B09F0B7CF95
:100250008D2D28960FB6F894DEBF0FBECDBFDF916F
:10026000CF911F910F91FF90EF90DF90CF90BF90B3
:10027000AF909F908F907F906F905F904F903F9046
:100280002F9008957F928F929F92AF92BF92CF92BC
:10029000DF92EF92FF920F931F93CF93DF934A0168
:1002A0005B01282F206430E040E050E060E070E027
:1002B00080E090E008E20E94D50AC22F732EB42F8E
:1002C000A52FF62FE72F182FD92F9401A50160E055
:1002D00070E080E090E008E00E94D50AC22BB32EC7
:1002E000B728C42ECB2AD52EDA2AE62EEF2AF72EEF
:1002F000FE2A182BD92B2C2F3B2DA601B701812FBD
:100300009D2F0E94A800C160C82B8FEF0E949A0009
:100310008FEF0E949A008FEF0E949A002C2F3B2DA6
:10032000A601B701812F9D2F08E20E94F00A822FBB
:100330000E949A002C2F3B2DA601B701812F9D2FE3
:1003400000E20E94F00A822F0E949A002C2F3B2D7F
:10035000A601B701812F9D2F08E10E94F00A822F8C
:100360000E949A002C2F3B2DA601B701812F9D2FB3
:1003700000E10E94F00A822F0E949A002C2F3B2D50
:10038000A601B701812F9D2F08E00E94F00A822F5D
:100390000E949A008C2FDF91CF911F910F91FF90B7
:1003A000EF90DF90CF90BF90AF909F908F907F9015
:1003B0000C949A00CF93C0E00E94A3008F3F19F4E1
:1003C000C150D1F780E8CF910895EF92FF920F933B
:1003D0001F93CF93DF93CBE0D0E08FEF0E949A0082
:1003E0002197D9F7289840E050E0BA0180E00E94B8
:1003F00042010E94DA01289A813021F0682F70E0D2
:1004000071601AC028984AEA51E060E070E088E024
:100410000E9442010E94DA01C82F0E94A3000E949C
:10042000A3000E94A300D82F0E94A300289AC130E5
:1004300041F06C2F70E07260072E000C880B990B56
:100440008FC0D13009F088C08A3A09F085C0289859
:1004500040E050E0BA018BE30E9442010E94DA01C1
:10046000289A813021F0682F70E07860E5CFC6E0EF
:10047000289840E050E0BA0187E30E9442010E94C0
:10048000DA01289A813021F0682F70E07061D4CFB2
:10049000289840E050E0BA0189E20E9442010E949F
:1004A000DA01289A823020F0682F70E07062C4CFA1
:1004B000C15021F4682F70E07066BECF8111D8CF93
:1004C000289840E050E0BA018AE30E9442010E946D
:1004D000DA01882331F0682F70E0706880E090E0E6
:1004E0003FC00E94A300082F87FD06C0289A60E045
:1004F00070E081E090E034C085FBEE24E0F880718C
:1005000090E023E0959587952A95E1F7182F802FA5
:100510008170F82E0E94A300C82FD0E0CC0FDD1F01
:100520000E94A300881F8827881FC82B06FD09C0CA
:10053000E11007C0111105C0F11003C0CF3FD14039
:1005400031F0289A60E074E880E090E009C0289AD1
:1005500060E070E0CB0104C061E076E080E090E014
:10056000DF91CF911F910F91FF90EF900895089523
:100570000895CF92DF92EF92FF920F931F93CF9344
:10058000DF93289840E050E0BA0189E00E944201E0
:100590000E94DA01882331F0289A8FE992E00E94C4
:1005A000180A37C0C0E00E94A30082958695869500
:1005B0008370833019F4C150B1F72AC0C0E00E94A3
:1005C000A30087FF03C0C150D1F722C00E94A3003F
:1005D000C0E00E94A300CF5F823379F08A3569F0D2
:1005E000C111F7CF15C00E94A300982F92959F705C
:1005F000953041F0CC2361F0CF5F0E94A3008B7750
:10060000C9F3F1CF182F1F7087EF810F833030F0BF
:10061000289A61E070E080E090E05AC0CC23C1F3FA
:10062000F12C0E94A300982F937F09F44BC0837094
:10063000C82FD0E0DC2FCC270E94A300C82BCC0F02
:10064000DD1FCC0FDD1F0E94A30082958695869545
:100650008370C82B0E94A300082F0E94A300037080
:10066000000F881F8827881F802B91E0F91681F2E0
:10067000289A90E021E030E040E050E0220F331F64
:10068000441F551F9F5F1913F9CF60E0C12CD12C77
:100690007601C39490E00196E62FF0E08E179F0755
:1006A00034F0CC0CDD1CEE1CFF1C6F5FF5CFDE01BF
:1006B00011960E94CA0A9B01AC01C701B6010E94B3
:1006C000840A06C081E0F81609F4A2CFFA94A9CFF3
:1006D000DF91CF911F910F91FF90EF90DF90CF901E
:1006E0000895BF92CF92DF92EF92FF920F931F93E4
:1006F000CF93DF93CDB7DEB7C450D2400FB6F89496
:10070000DEBF0FBECDBF8C01289881E10E9442015F
:100710000E94DA01F82E8823B1F0289A86EF92E041
:100720000E94180A8F2D0E94B702F98281E08A8305
:10073000CD5FDD4F1882C350D240CC5FDD4F1882B1
:10074000C450D2402EC00E94A300F12C8E3F21F055
:100750000E94A300F394FACFCE018D5F9D4F6C01F0
:100760009FEFF916A1F07E01E3E0EE0EF11C0E946E
:10077000A300F70181937F01EC15FD05C1F70E94ED
:10078000A300B82E0E94A300E82E0E94A300289A7E
:1007900019821A82F601B082CC5FDD4FE882C45024
:1007A000D24084E092E0FE013196D80101900D9292
:1007B0000197E1F7C801CC5FDD4F0FB6F894DEBFBB
:1007C0000FBECDBFDF91CF911F910F91FF90EF90A2
:1007D000DF90CF90BF9008954F925F926F927F927B
:1007E0008F929F92AF92BF92CF92DF92EF92FF9241
:1007F0000F931F93CF93DF935C0189E593E00E94F1
:10080000180A750100E010E0C0E0D0E085E893E050
:100810000E94180A2E01612C712CCF3FD10509F0DE
:1008200018F48BE893E002C087E792E00E94180A70
:10083000C301B2010E9490098FE893E00E94180A58
:10084000680180E1C80ED11CE7014501800E911EB0
:10085000CE018A199B098C159D05B0F4CE0188192B
:10086000990983709927892B21F480E993E00E94EC
:10087000180A80E993E00E94180A699170E080E00C
:1008800090E00E949009E4CF82E993E00E94180A68
:100890004701E801CC15DD0568F4F40181914F01B1
:1008A000803210F480E202C087FD8EE20E9443088D
:1008B0002196F0CFF0E1EF0EF11C8601C11482E029
:1008C000D80609F0A3CF85E292E0DF91CF911F9186
:1008D0000F91FF90EF90DF90CF90BF90AF909F90DF
:1008E0008F907F906F905F904F900C94180A2F928A
:1008F0003F924F925F926F927F928F929F92AF92B0
:10090000BF92CF92DF92EF92FF920F931F93CF93FC
:10091000DF93CDB7DEB7C650D2400FB6F894DEBF36
:100920000FBECDBF1B018C0129013A012898AB01F4
:10093000BC0182E10E9442010E94DA01898388237E
:1009400041F0289A85E993E00E94180A89810E9463
:10095000B702898181116BC0812C912C54016101F6
:1009600078011E018DEF281A380A84149504A60414
:10097000B70409F454C000E012E00E94A3008E3FC7
:1009800049F001501109C9F78EEF93E00E94180A4F
:10099000E1E0EA838E010D5F1F4FCB5FDD4F0883DF
:1009A000C550D240CA5FDD4F1883C650D2400E9466
:1009B000A300F80181938F012E163F06C1F70E9414
:1009C000A300F10180830E94A300CC5FDD4F8883E8
:1009D000C450D24089E594E00E94180AC701B601CC
:1009E00029E096958795779567952A95D1F70E9486
:1009F0004A08CB5FDD4F8881C550D240CA5FDD4FCA
:100A00009881C650D2400E94EC03FFEF8F1A9F0AD4
:100A1000AF0ABF0A82E0D80EE11CF11CA6CF40E06D
:100A200050E0BA018CE00E9442010E94A300289A83
:100A3000CA5FDD4F0FB6F894DEBF0FBECDBFDF91AA
:100A4000CF911F910F91FF90EF90DF90CF90BF90CB
:100A5000AF909F908F907F906F905F904F903F905E
:100A60002F9008952F923F924F925F926F927F92B4
:100A70008F929F92AF92BF92CF92DF92EF92FF92AE
:100A80000F931F93CF93DF93CDB7DEB7C450D240FF
:100A90000FB6F894DEBF0FBECDBF6B017C014901DC
:100AA0005A0189E694E00E94180AC701B6010E9423
:100AB0004A0885E994E00E94180AC501B4010E9421
:100AC0004A082601370189E0440C551C661C771C36
:100AD0008A95D1F700E010E08FEF881A980AA80AEB
:100AE000B80A1E018DEF281A380AC814D904EA047E
:100AF000FB0470F5B301A201CE0101960E947103BF
:100B0000FE01339681918823B1F0C80165E070E061
:100B10000E94940A892B21F486E292E00E94180A2E
:100B200082E993E00E94180AC701B6010E944A08B0
:100B30000F5F1F4F03C0E215F30521F78FEFC81AAF
:100B4000D80AE80AF80A82E0580E611C711CCDCF61
:100B50008AE994E0CC5FDD4F0FB6F894DEBF0FBE9C
:100B6000CDBFDF91CF911F910F91FF90EF90DF905C
:100B7000CF90BF90AF909F908F907F906F905F903D
:100B80004F903F902F900C94180A0F931F93CF9380
:100B9000DF938A012898AB01BC0188E10E944201E1
:100BA0000E94DA01C82F882361F0289A8CEB94E028
:100BB0000E94180A8C2F0E94B7028C2F90E09F6031
:100BC0006AC08EEF0E94A100E8011E5F89910E9419
:100BD000A100C017D107D1F78FEF0E94A1008FEFBE
:100BE0000E94A10001E011E00E94A300C82F015063
:100BF000110931F4289A8AE195E00E94180A49C047
:100C00008F719C2F9771953039F48C2F85708530BA
:100C1000A1F4C2E0D2E003C08B3031F7F6CF0E94DE
:100C2000A300811106C02197D1F789E995E00E94C0
:100C3000180A289A80E092E02EC08C2F8B708B309F
:100C400091F4289A89EC95E00E94180A6C2F70E0C4
:100C500080E090E00E94900985E096E00E94180AEA
:100C600080E095E018C08C2F8D708D3091F4289A1B
:100C700088E096E00E94180A6C2F70E080E090E017
:100C80000E94900985E096E00E94180A80E096E0B4
:100C900002C080E09FE0DF91CF911F910F910895F6
:100CA0008F929F92AF92BF92CF92DF92EF92FF927C
:100CB0000F931F93CF93DF93042F69012898AB0103
:100CC000BC0189E10E9442010E94DA01C82F811112
:100CD00009C0E12CF12CD0E0CFE010E056018EEFFE
:100CE000B81A27C0289A88E496E00E94180A8C2F28
:100CF0000E94B7028C2F90E09F6084C08C2F8F7170
:100D00009C2F97719530D9F58C2F85708530D1F552
:100D1000C2E0D2E00E94A300811106C02197D1F762
:100D200089E995E00E94180AD0E0C2E08FEFE81A46
:100D3000F80AE016F1060CF052C08CEF0E94A100F8
:100D4000E60189910E94A100CA15DB05D1F78FEF5A
:100D50000E94A1008FEF0E94A10088248394982C08
:100D60000E94A300C82F81E0881A910839F6289ABA
:100D700089EA96E00E94180A80E09FE043C08B3029
:100D800079F7C2CF8C2F8B708B3089F489EC95E08A
:100D90000E94180A6C2F70E080E090E00E94900999
:100DA00085E096E00E94180AD0E0C5E018C08C2FBC
:100DB0008D708D3089F488E096E00E94180A6C2FBF
:100DC00070E080E090E00E94900985E096E00E944B
:100DD000180AD0E0C6E003C0D0E0CFE0A7CF8DEF87
:100DE0000E94A10002E012E00E94A300811107C04E
:100DF00001501109C9F789E995E00E94180A289A5B
:100E00008D2F9C2FDF91CF911F910F91FF90EF902D
:100E1000DF90CF90BF90AF909F908F900895CF9329
:100E2000DF93EC018BE297E00E94180A8C2F0E945E
:100E3000B70283E697E00E94180ACE0188279770D0
:100E4000811525E0920769F0811526E0920731F0BF
:100E50008115924049F48AE997E008C08EE797E04F
:100E600005C08DE897E002C08BEA97E0DF91CF9153
:100E70000C94180ACF92DF92EF92FF92CF93DF93F8
:100E8000289840E050E0BA0187E30E9442010E94A6
:100E9000DA01C82F882319F08AEC97E00DC040E0F2
:100EA00050E0BA0186E10E9442010E94DA01C82F97
:100EB000882361F08FE398E00E94180A8C2F0E942B
:100EC000B70260E070E080E090E02FC0C0E0D1E0C9
:100ED0000E94A3008E3F39F02197D1F78FEB98E065
:100EE0000E94180AEECF0E94A300C82ED12CE12C3C
:100EF000F12CFE2CED2CDC2CCC240E94A300C82A63
:100F0000FE2CED2CDC2CCC240E94A300C82AFE2C45
:100F1000ED2CDC2CCC240E94A300C82A0E94A30044
:100F20000E94A300289AB601C701DF91CF91FF90DC
:100F3000EF90DF90CF900895CF92DF92EF92FF92E3
:100F4000CF93DF9369017A012898AB01BC0180E25D
:100F50000E9442010E94DA01C82F289A882359F082
:100F600081E399E00E94180A8C2F0E94B7028C2F0F
:100F700090E0916041C02898B701A60181E20E94EB
:100F800042010E94DA01C82F289A882359F084E987
:100F900099E00E94180A8C2F0E94B7028C2F90E0D3
:100FA00092602AC0289840E050E0BA0186E20E9490
:100FB00042010E94DA01C82F882361F0289A85EF48
:100FC00099E00E94180A8C2F0E94B7028C2F90E0A3
:100FD000946012C0C0E0D0E00E94A300811109C05B
:100FE0002197D1F784E49AE00E94180A80E098E003
:100FF00003C0289A80E090E0DF91CF91FF90EF90BE
:10100000DF90CF900895CF93DF93EC010E94B70259
:10101000CE018827811522E09207B1F040F40097B5
:1010200081F081159140B1F485EE9AE015C08115EB
:1010300024E0920761F08115984061F488E39BE019
:101040000BC08DEC9AE008C086E09BE005C085E20D
:101050009BE002C08AE49BE0DF91CF910C94180AD8
:101060001092C50087E68093C40088E18093C10098
:1010700086E08093C20008958091C00087FFFCCF76
:101080008091C60008959091C00095FFFCCF809399
:10109000C60008954F925F926F927F928F929F92B7
:1010A000AF92BF92CF92DF92EF92FF920F931F9376
:1010B000CF93DF93CDB7DEB79B01AC018DB69EB663
:1010C0006A30710581059105C0F1643671058105AD
:1010D0009105A8F1283E83E038074105510588F1C4
:1010E000203197E239074105510568F1203AE6E8D9
:1010F0003E07E1E04E07510540F12034F2E43F079E
:10110000FFE04F07510518F1203886E9380788E9D4
:1011100048075105F0F0211591EE390795EF490781
:1011200095E05907C0F02115EAEC3E07EAE94E07C1
:10113000EBE35E0790F00AE011C001E00FC002E0AF
:101140000DC003E00BC004E009C005E007C006E0E5
:1011500005C007E003C008E001C009E010E0680135
:10116000F1E0CF1AD1088DB79EB7801B910B0FB657
:10117000F8949EBF0FBE8DBFEDB7FEB731967F01CD
:1011800060E36193CF018E199F0980179107CCF31B
:1011900057018AE0482E512C612C712CCA01B901EB
:1011A000A30192010E94A80A605DF50161935F01AD
:1011B000CF018E199F098017910784F3F701EC0D79
:1011C000FD1D80810E944308F1E0CF1AD108B0F7DD
:1011D0000FB6F8949EBE0FBE8DBEDF91CF911F91CA
:1011E0000F91FF90EF90DF90CF90BF90AF909F90C6
:1011F0008F907F906F905F904F900895CF92DF9285
:10120000EF92FF920F931F93CF93DF93CDB7DEB78B
:10121000CDB6DEB6603171058105910530F16F3FC5
:1012200071058105910519F110F1611520E1720731
:1012300081059105F0F06115710531E08307910595
:10124000D0F06115710520E182079105B0F06115BC
:101250007105810531E0930790F0611571058105F5
:1012600020E1920770F020E20DC024E00BC028E0DE
:1012700009C02CE007C020E105C024E103C028E13B
:1012800001C02CE1422F50E08A01015011092DB715
:101290003EB7241B350B0FB6F8943EBF0FBE2DBFD3
:1012A0002F5F3F4F7901F901A0E3A1939F012E1910
:1012B0003F0924173507CCF3F701A1E3B0E3262F4C
:1012C00021709695879577956795211102C0B08317
:1012D00001C0A08331969F012E193F0924173507BD
:1012E00074F3F701E00FF11F80810E944308C801E9
:1012F00083709927892B19F480E20E9443080150DA
:10130000110978F70FB6F894DEBE0FBECDBEDF919F
:10131000CF911F910F91FF90EF90DF90CF900895A4
:10132000CF92DF92EF92FF920F931F93CF93DF93B1
:10133000CDB7DEB7CDB6DEB66F3F7105810591053D
:1013400009F100F1611520E1720781059105E0F0D6
:101350006115710531E083079105C0F061157105D4
:1013600020E182079105A0F061157105810531E04A
:10137000930780F061157105810520E1920760F007
:1013800028E00BC022E009C023E007C024E005C02C
:1013900025E003C026E001C027E0422F50E07A019B
:1013A00031E0E31AF1082DB73EB7241B350B0FB619
:1013B000F8943EBF0FBE2DBF0DB71EB70F5F1F4F76
:1013C000F801A0E3A1939F01201B310B24173507DF
:1013D000CCF3F801262F2F7034E0969587957795FA
:1013E00067953A95D1F72A3010F4205D01C0295C49
:1013F000208331969F01201B310B2417350754F3AE
:10140000F801EE0DFF1D80810E94430831E0E31AD0
:10141000F108B0F70FB6F894DEBE0FBECDBEDF9177
:10142000CF911F910F91FF90EF90DF90CF90089593
:101430000F931F93CF93DF93EC018C0107511C4F47
:101440008991882331F0C017D10719F00E94430811
:10145000F7CFDF91CF911F910F9108950E9430082F
:101460000E948B00CFEFD0E086E292E00E94180A43
:101470002197D1F780E092E00E94180A812C912CEC
:10148000540189E292E00E94180AC501B4010E9449
:101490004A080E94E5016B017C01672B682B692BD0
:1014A000C1F08DE492E00E94180AC701B6010E94C3
:1014B0009009C701B6010E94B8028FEF881A980AF6
:1014C000A80AB80A82E088169104A104B104C9F6FA
:1014D00004C08AE792E00E94180AC701B6010E9480
:1014E000B802CD28CE28CF2851F423E030E040E0E8
:1014F00050E060E074E180E090E00E9477040E9498
:101500003C080E944308FBCFDB018F939F930E940E
:10151000CA0ABF91AF91A29F800D911DA39F900D0C
:10152000B29F900D1124089597FB072E16F4009496
:1015300007D077FD09D00E94180B07FC05D03EF4B8
:10154000909581959F4F0895709561957F4F08956F
:10155000A1E21A2EAA1BBB1BFD010DC0AA1FBB1FB7
:10156000EE1FFF1FA217B307E407F50720F0A21B29
:10157000B30BE40BF50B661F771F881F991F1A9496
:1015800069F760957095809590959B01AC01BD01C0
:10159000CF0108950E942C0BA59F900DB49F900D34
:1015A000A49F800D911D112408950F93083090F091
:1015B000982F872F762F652F542F432F322F2227D6
:1015C0000850F4CF220F331F441F551F661F771F8B
:1015D000881F991F0A95B2F70F91089597FB10F88D
:1015E000169400080F93083098F00850232F342FDA
:1015F000452F562F672F782F892F902DF4CF0594E4
:10160000979587957795679557954795379527953A
:101610000A95AAF70F9108950024A7FD00942A17B0
:10162000300540055005600570058005900508955A
:10163000AA1BBB1B51E107C0AA1FBB1FA617B707F8
:1016400010F0A61BB70B881F991F5A95A9F7809514
:101650009095BC01CD010895A29FB001B39FC00138
:10166000A39F700D811D1124911DB29F700D811DCE
:0A1670001124911D0895F894FFCF96
:10167A000A0A0A0D202A2A2A2A2A2A20204245470B
:10168A00494E2054455354494E47202A2A2A2A2A89
:10169A002A2A2A2A0A0A0A0D000A0A0D5344204352
:1016AA0061726420496E697469616C697A617469EE
:1016BA006F6E20417474656D70743A20000A0A0DC9
:1016CA00534420494E495449414C495A4154494F7F
:1016DA004E204641494C454420776974682052653A
:1016EA0073706F6E7365203078000A0D534420437F
:1016FA00617264205375636365737366756C6C7984
:10170A0020496E697469616C697A65640A0D000A18
:10171A000D3E3E204552524F523A20202053454E0C
:10172A00445F4353442028434D44392920696E209D
:10173A0073645F6765744D656D6F7279436170613B
:10174A006369747928292072657475726E656420DC
:10175A006572726F7220696E2052312072657370E1
:10176A006F6E73652E000A0D3E3E204552524F524F
:10177A003A202020524541445F53494E474C455F29
:10178A00424C4F434B2028434D4431372920696E40
:10179A002073645F5265616453696E676C65446166
:1017AA007461426C6F636B28292072657475726E5E
:1017BA006564206572726F7220696E2052312072E0
:1017CA006573706F6E73652E000A0A0D20424C4FC6
:1017DA00434B204F46465345540909090920202006
:1017EA004845580909090909202020202041534366
:1017FA0049490A0D000A0D202020003078300009DE
:10180A0020000909000A0D3E3E204552524F523A25
:10181A00202020524541445F4D554C5449504C4577
:10182A005F424C4F434B2028434D443138292069AD
:10183A006E2073645F5072696E744D756C74697052
:10184A006C6544617461426C6F636B732829207202
:10185A00657475726E6564206572726F7220696E46
:10186A0020523120726573706F6E73652E000A0DF7
:10187A003E3E204552524F523A20202054696D650F
:10188A006F7574207768696C652077616974696E11
:10189A006720666F7220537461727420426C6F63A2
:1018AA006B20546F6B656E20696E2073645F507293
:1018BA00696E744D756C7469706C654461746142CB
:1018CA006C6F636B7328292E000A0A0D090909092E
:1018DA0009424C4F434B3A20000A0D53656172632B
:1018EA0068696E6720666F72206E6F6E2D7A6572F8
:1018FA006F20626C6F636B73206F76657220726102
:10190A006E6765200020746F20000A0D446F6E65B3
:10191A0020736561726368696E67206E6F6E2D7AD7
:10192A0065726F20626C6F636B732E000A0D3E3E08
:10193A00204552524F523A20202057524954455F6F
:10194A00424C4F434B2028434D4432342920696E80
:10195A002073645F577269746553696E676C654476
:10196A00617461426C6F636B2829207265747572A9
:10197A006E6564206572726F7220696E2052312022
:10198A00726573706F6E73652E000A0D3E3E2045B8
:10199A0052524F523A20202054696D656F75742057
:1019AA007768696C652077616974696E6720666F0C
:1019BA0072204461746120526573706F6E73652082
:1019CA00546F6B656E20696E2073645F5772697419
:1019DA006553696E676C6544617461426C6F636BD1
:1019EA0028292E202052657475726E696E672077D9
:1019FA0069746820494E56414C49445F44415441F8
:101A0A005F544F4B454E0A0D000A0D3E3E20746945
:101A1A006D656F75742077616974696E6720666F8A
:101A2A0072206361726420746F206E6F7420626525
:101A3A0020627573792E0A0D000A0D3E3E2044611C
:101A4A0074612072656A65637465642044756520F3
:101A5A00746F20435243204572726F720A0D4461BB
:101A6A00746120526573706F6E736520546F6B6575
:101A7A006E203D20006E0D000A0D3E3E204461742A
:101A8A00612072656A656374656420647565207493
:101A9A006F2061205772697465204572726F720AED
:101AAA000D4461746120526573706F6E73652054C2
:101ABA006F6B656E203D20000A0D3E3E2045525256
:101ACA004F523A20202057524954455F424C4F43C7
:101ADA004B2028434D4432342920696E2073645FB9
:101AEA0057726974654D756C7469706C654461747C
:101AFA0061426C6F636B7328292072657475726E0C
:101B0A006564206572726F7220696E20523120728C
:101B1A006573706F6E73652E000A0D3E3E20455246
:101B2A00524F523A20202054696D656F75742077A0
:101B3A0068696C652077616974696E6720666F727F
:101B4A00204461746120526573706F6E736520540E
:101B5A006F6B656E20696E2073645F577269746576
:101B6A004D756C7469706C6544617461426C6F6325
:101B7A006B7328292E202052657475726E696E6700
:101B8A00207769746820494E56414C49445F444164
:101B9A0054415F544F4B454E0A0D000A0D3E3E20FC
:101BAA00523120526573706F6E7365207265747559
:101BBA00726E65642062792073645F577269746516
:101BCA0053696E67656C44617461426C6F636B281C
:101BDA00293A000A0D3E3E20446174612052657321
:101BEA00706F6E7365204572726F72733A000A0DD8
:101BFA002057524954455F4552524F52000A0D2010
:101C0A004352435F4552524F52000A0D20444154F9
:101C1A0041204143434550544544000A0D20494E52
:101C2A00434F525245435420524553504F4E534509
:101C3A002052455455524E4544000A0D3E3E204519
:101C4A0052524F523A206572726F722072657475E1
:101C5A00726E656420696E20523120726573706FEE
:101C6A006E736520746F204150505F434D44206964
:101C7A006E2073645F4E756D6265724F6657656C50
:101C8A006C5772697474656E426C6F636B73282942
:101C9A002E2052657475726E696E67207769746852
:101CAA0020696E76616C69642076616C7565000ADC
:101CBA000D3E3E204552524F523A206572726F7263
:101CCA002072657475726E656420696E20523120C7
:101CDA00726573706F6E736520746F2053454E443E
:101CEA005F4E554D5F57525F424C4F434B532069ED
:101CFA006E2073645F4E756D6265724F6657656CD0
:101D0A006C5772697474656E426C6F636B732829C1
:101D1A002E2052657475726E696E672077697468D1
:101D2A0020696E76616C69642076616C7565000A5B
:101D3A000D3E3E204552524F523A2074696D656FEE
:101D4A007574207768696C652077616974696E6754
:101D5A0020666F7220737461727420746F6B656E83
:101D6A0020696E2073645F4E756D6265724F6657A7
:101D7A00656C6C5772697474656E426C6F636B73D1
:101D8A0028292E2052657475726E696E67207769EC
:101D9A00746820696E76616C69642076616C756519
:101DAA00000A0D3E3E204552524F523A202020450D
:101DBA00524153455F57525F424C4F434B5F535416
:101DCA004152545F414444522028434D44333229FE
:101DDA0020696E2073645F4572617365426C6F633C
:101DEA006B7328292072657475726E65642065723A
:101DFA00726F7220696E20523120726573706F6E35
:101E0A0073652E000A0D3E3E204552524F523A202B
:101E1A00202045524153455F57525F424C4F434B36
:101E2A005F454E445F414444522028434D44333376
:101E3A002920696E2073645F4572617365426C6F15
:101E4A00636B7328292072657475726E65642065E8
:101E5A0072726F7220696E20523120726573706FD0
:101E6A006E73652E000A0D3E3E204552524F523A7D
:101E7A0020202045524153452028434D44333829D8
:101E8A0020696E2073645F4572617365426C6F638B
:101E9A006B7328292072657475726E656420657289
:101EAA00726F7220696E20523120726573706F6E84
:101EBA0073652E000A0D3E3E204552524F523A207B
:101ECA0020202054696D656F7574207768696C6588
:101EDA002077616974696E6720666F722063617228
:101EEA006420746F2065786974207468652062754F
:101EFA00737920737461746520647572696E6720E2
:101F0A00626C6F636B20657261736520696E207302
:101F1A00645F4572617365426C6F636B73732829E2
:101F2A002E2052657475726E696E672077697468BF
:101F3A00206572726F722873292E0A0D000A0D0924
:101F4A0020202020455241534520535543434553B1
:101F5A005346554C000A0D09202020204552524F65
:101F6A005220455241534520535441525420414432
:101F7A004452455353000A0D09202020204552524D
:101F8A004F5220455241534520454E442041444436
:101F9A0052455353000A0D09202020204552524F22
:101FAA0052204552415345000A0D09202020204560
:101FBA0052524F522042555359000A0D09202020EF
:101FCA0020494E56414C4944204552524F522052C4
:081FDA004553504F4E534500E2
:00000001FF
