:100000000C9472000C9489000C9489000C94890063
:100010000C9489000C9489000C9489000C9489003C
:100020000C9489000C9489000C9489000C9489002C
:100030000C9489000C9489000C9489000C9489001C
:100040000C9489000C9489000C9489000C9489000C
:100050000C9489000C9489000C9489000C948900FC
:100060000C9489000C9489000C9489000C948900EC
:100070000C9489000C9489000C9489000C948900DC
:100080000C9489000C9489000C9489000C948900CC
:100090000C9489000C9489000C9489000C948900BC
:1000A0000C9489000C9489000C9489000C948900AC
:1000B0000C9489000C9489000C9489000C9489009C
:1000C0000C9489000C9489000C9489000C9489008C
:1000D0000C9489000C9489000C9489000C9489007C
:1000E0000C94890011241FBECFEFD1E2DEBFCDBF3B
:1000F00017E0A0E0B2E0ECE3FBE100E00BBF02C0E0
:1001000007900D92AC3CB107D9F70E947D0B0C947F
:100110009C0D0C940000CF93DF9300D000D00F9281
:10012000CDB7DEB70E948B098D8319821A821B829C
:100130001C828D818D3061F469817A818B819C81F3
:100140000F900F900F900F900F90DF91CF91089527
:10015000AAE0B0E029813A814B815C810E94400D88
:100160002D812053DC01CB01820F911DA11DB11DFA
:1001700089839A83AB83BC838BE592E00E94670BF3
:1001800069817A818B819C810E9499090E948B09E7
:100190008D8389819A81AB81BC810097A044B10590
:1001A00040F280E092E00E94670BBFCF87E084B905
:1001B00081E085B9E4E6F0E080818B7F808382E591
:1001C0008CBD8DB58E7F8DBD08958EBD0DB407FE9F
:1001D000FDCF08958EB508950C94E5008FEF0E9431
:1001E000E5000C94EA00CF93C0E00E94EE008F3F40
:1001F00011F0CF910895C150C1F780E8FACFCF93A5
:10020000C82F87FF04C08CE094E00E94670BC6FFF4
:1002100004C089E194E00E94670BC5FF04C08BE233
:1002200094E00E94670BC4FF04C08BE394E00E943B
:10023000670BC3FF04C081E594E00E94670BC2FF17
:1002400004C080E694E00E94670BC1FF04C081E710
:1002500094E00E94670B8EE794E0C0FD04C0C111DA
:1002600005C08DE894E0CF910C94670BCF91089571
:10027000CF92DF92EF92FF926B017C01D0FE04C01F
:100280008AE994E00E94670BD1FE04C080EB94E001
:100290000E94670BD2FE04C085EC94E00E94670BBD
:1002A000D3FE04C08CED94E00E94670BD4FE04C022
:1002B0008FEE94E00E94670BD5FE04C08FEF94E0B0
:1002C0000E94670BD6FE04C087E195E00E94670B91
:1002D000D7FE04C08CE295E00E94670BE0FE04C0EC
:1002E0008DE395E00E94670BE1FE04C084E595E094
:1002F0000E94670B89E695E0E2FC06C0CD28CE2877
:10030000CF2841F48AE795E0FF90EF90DF90CF90FF
:100310000C94670BFF90EF90DF90CF9008952F9291
:100320003F924F925F926F927F928F929F92AF9285
:10033000BF92CF92DF92EF92FF920F931F93CF93D2
:10034000DF93CDB7DEB728970FB6F894DEBF0FBEA8
:10035000CDBFE22F3B834C835D836E83472E382EC7
:10036000292E88E2A82EB12C512C612C712C812CC5
:10037000912C89E889831A82C12CD12CE12CF12C93
:1003800010E0188680E88F83B0E0F0E02D2D2E235A
:100390003B813E214C814F215D8151236E818885B7
:1003A00068237F8174218B2F83219F2F9221A0E0CE
:1003B0000E94810D91F0E5258B8186258B838C81B0
:1003C00087258C838D8188258D838E8189258E83D9
:1003D000898148268A8138262C24252D362D472DC3
:1003E000582D692D79818A819C2D01E00E94660D2E
:1003F000522E632E742E852E962E79838A83C92ED3
:100400002D2D3E2D4F2D512F68857F818B2F9F2FB6
:100410000E94660DD22EE32EF42E152F68877F835F
:10042000B82FF92F81E0A81AB10809F0AFCF8E2FAD
:1004300028960FB6F894DEBF0FBECDBFDF91CF91E7
:100440001F910F91FF90EF90DF90CF90BF90AF90F2
:100450009F908F907F906F905F904F903F902F90E4
:1004600008956F927F928F929F92AF92BF92CF9298
:10047000DF92EF92FF920F931F93CF93DF934A0186
:100480005B01282F206430E040E050E060E070E045
:1004900080E090E008E20E944B0DC22F632E742E84
:1004A000B52FA62FF72F182FD92F9401A50160E0A3
:1004B00070E080E090E008E00E944B0DC22B632AC0
:1004C000742AD52EDB2AE62EEA2AF72EFF2A182BCD
:1004D000D92B2C2F362D472D5D2DB701812F9D2F28
:1004E0000E948F01C82BC1608BE0882E912C8FEF6A
:1004F0000E94E50081E0881A9108C9F72C2F362D5B
:10050000472D5D2DB701812F9D2F08E20E94660DBA
:10051000822F0E94E5002C2F362D472D5D2DB7012F
:10052000812F9D2F00E20E94660D822F0E94E50020
:100530002C2F362D472D5D2DB701812F9D2F08E1E2
:100540000E94660D822F0E94E5002C2F362D472D2C
:100550005D2DB701812F9D2F00E10E94660D822F36
:100560000E94E5002C2F362D472D5D2DB701812FE0
:100570009D2F08E00E94660D822F0E94E5008C2FBF
:10058000DF91CF911F910F91FF90EF90DF90CF906F
:10059000BF90AF909F908F907F906F900C94E500EC
:1005A000BF92CF92DF92EF92FF920F931F93CF9360
:1005B000DF938C01CBE0D0E08FEF0E94E500219724
:1005C000D9F7289840E050E0BA0180E00E9431025B
:1005D0000E94F300D82F289A813089F0682F70E0AC
:1005E0007160072E000C880B990BDF91CF911F9142
:1005F0000F91FF90EF90DF90CF90BF9008952898D3
:100600004AEA51E060E070E088E00E9431020E9416
:10061000F300C82F0E94EE000E94EE000E94EE0040
:10062000F82E0E94EE00289AC53091F4F801D0838C
:10063000289840E050E0BA018BE30E9431020E940A
:10064000F300289A8130B9F0682F70E07860C9CF44
:10065000C13069F492E0F8019083F1E0FF1202C02A
:100660008A3A31F361E076E080E090E0BECF6C2F13
:1006700070E07260B6CFCFEF289840E050E0BA014A
:1006800087E30E9431020E94F300289A813021F012
:10069000682F70E07061A5CF289840E050E060E0DE
:1006A00070E489E20E9431020E94F300289A8230AD
:1006B00020F0682F70E0706294CFC15039F4882325
:1006C00039F061E070E680E090E08FCF8111D4CF07
:1006D000289840E050E0BA018AE30E9431020E946B
:1006E000F300882331F0682F70E0706890E080E0BC
:1006F0007CCF0E94EE00E82EEE1CEE24EE1C87FD5F
:1007000006C0289A60E070E081E090E06ECFC82ECD
:10071000D12C960145E0359527954A95E1F7922F22
:100720009170F92E960153E0359527955A95E1F78A
:10073000E22FE270BE2ED82FD1700E94EE00C82F9B
:100740000E94EE00382FA60166E0559547956A9500
:10075000E1F7F8014230C1F0E1822F2D2B29822FE1
:100760008D2B289A61F48C2F90E0880F991F232FEE
:10077000221F2227221F822B8F3F914039F060E0F9
:1007800074E880E090E031CF1182E7CF60E070E064
:10079000CB012BCFEF92FF920F931F93CF93DF9359
:1007A000362F272FBC01EA012898432F522F81E1D1
:1007B0000E9431020E94F300882351F0289A90E0B1
:1007C0009068DF91CF911F910F91FF90EF90089566
:1007D0000E94EE001FEF8E3FD9F48E017E018EEF56
:1007E000F81A0E94EE00F80181938F01EE15FF05C3
:1007F000C1F70E94EE00F80180830E94EE00CF5FF7
:10080000DD4F88830E94EE00289A80E094E0D9CFE3
:100810000E94EE001150F9F6289A80E092E0D1CFC4
:10082000AF92BF92CF92DF92EF92FF920F931F93FE
:10083000CF93DF9300D000D000D0CDB7DEB76C01EE
:100840008AE895E00E94670B1E821D8200E110E09D
:10085000F12CE12C86EB95E00E94670B970150E0AC
:1008600040E029833A834B835C838CEB95E03FEF38
:10087000E316F10419F010F085EB92E00E94670B8B
:1008800069817A818B819C810E94DF0A80EC95E0EE
:100890000E94670BAD80BE80AC0CBD1CF12CE12C1E
:1008A0008D819E818E0D9F1D80179107B0F183EC85
:1008B00095E00E94670BED80FE80E016F10608F4DB
:1008C0004CC08D819E817801E81AF90A0817190732
:1008D00010F4F12CE12CAD81BE81EA0EFB1E005F0D
:1008E0001F4F5096BE83AD830031B2E01B0709F065
:1008F000B1CF89E592E026960FB6F894DEBF0FBE21
:10090000CDBFDF91CF911F910F91FF90EF90DF90BE
:10091000CF90BF90AF900C94670BC701837099275D
:10092000892B21F481EC95E00E94670B81EC95E026
:100930000E94670BD5018D915D01282F30E050E0BA
:1009400040E029833A834B835C83CA01B9010E944A
:10095000DF0A3FEFE31AF30AA3CFF601EE0DFF1D06
:100960008081803238F480E20E9492094FEFE41ACD
:10097000F40AA3CF87FFF8CF8EE2F6CF2F923F92F3
:100980004F925F926F927F928F929F92AF92BF929F
:10099000CF92DF92EF92FF920F931F93CF93DF934B
:1009A000CDB7DEB7C850D2400FB6F894DEBF0FBE49
:1009B000CDBF6B017C0129013A012898BC01A60139
:1009C00082E10E9431020E94F300182F86EC95E02C
:1009D0000E94670B812F0E94FF00112309F48AC037
:1009E000289A812F90E09068C85FDD4F0FB6F89489
:1009F000DEBF0FBECDBFDF91CF911F910F91FF9052
:100A0000EF90DF90CF90BF90AF909F908F907F90AE
:100A10006F905F904F903F902F9008950150110973
:100A200029F480E092E0E0CF01E015E00E94EE00C2
:100A30008E3FA1F78E010F5F1F4FC95FDD4F088307
:100A4000C750D240C85FDD4F1883C850D2400E94C3
:100A5000EE00D8018D938D01A215B305C1F70E9458
:100A6000EE00F10180830E94EE00CE5FDD4F8883AF
:100A7000C250D24087ED95E00E94670BD701C601B6
:100A800029E0B695A795979587952A95D1F7CD5FDB
:100A9000DD4F88839983AA83BB83C350D240BC01B6
:100AA000CD010E949909C95FDD4F8881C750D240AE
:100AB000C85FDD4F9881C850D2400E9410049FEF5C
:100AC000891A990AA90AB90AA2E0DA0EE11CF11CF6
:100AD000481459046A047B0409F0A6CF40E050E0B2
:100AE000BA018CE00E9431020E94EE00289A80E058
:100AF00094E07ACF812C912C54011E01BFEF2B1A68
:100B0000BDEF3B0AE5CF0F931F93CF93DF93362FB3
:100B1000272FBC018A012898432F522F88E10E9479
:100B200031020E94F300882341F0289A90E09068F7
:100B3000DF91CF911F910F9108958EEF0E94EC00ED
:100B4000E8011E5F89910E94EC00C017D107D1F720
:100B50008FEF0E94EC008FEF0E94EC00C0E0D1E02C
:100B60000E94EE00219721F4289A80E090E2E0CFE5
:100B7000982F9F71282F2771253011F09B3081F716
:100B8000982F9570953081F4C1E0D2E00E94EE007C
:100B9000882321F0289A80E091E0CACF2197B1F70D
:100BA000289A80E090E4C4CF982F9B709B3021F46A
:100BB000289A80E092E0BCCF8D708D3021F4289A85
:100BC00080E094E0B5CF80E098E0B2CF6F927F9262
:100BD0008F929F92AF92BF92CF92DF92EF92FF924D
:100BE0000F931F93CF93DF93F62FE72FBC0169017B
:100BF0007A01380128984F2F5E2F89E10E94310237
:100C00000E94F300882309F466C0289AC82FD0E018
:100C1000D068CE01DF91CF911F910F91FF90EF909F
:100C2000DF90CF90BF90AF909F908F907F906F900C
:100C300008958CEF0E94EC00E30189910E94EC0082
:100C40000C171D07D1F78FEF0E94EC008FEF0E9469
:100C5000EC00C1E0D1E00E94EE00219721F4289A37
:100C6000C0E0D0E2D6CF982F9F71282F2771253072
:100C700011F09B3081F7982F9570953011F5C1E0F8
:100C8000D2E00E94EE008823B9F08FEF881A980A0C
:100C9000A80AB80AC814D904EA04FB0451F6C0E053
:100CA000D1E08DEF0E94EC0001E012E00E94EE0026
:100CB0008823C9F0289AADCF219719F7C0E0D0E476
:100CC000A8CF982F9B709B3059F08D708D30E9F62E
:100CD000C0E0D4E0E6CF812C912C54011E5FDACF26
:100CE000C0E0D2E0DECF0150110901F7289AE6CF2B
:100CF0001F93CF93DF93EC01289840E050E0BA01B6
:100D000087E30E9431020E94F300882339F0289A79
:100D100090E09068DF91CF911F91089540E050E0FE
:100D2000BA0186E10E9431020E94F300182F882345
:100D300041F0289AEDCF115021F4289A80E092E0FA
:100D4000E9CF0E94EE008E3FB1F70E94EE0090E0E6
:100D5000B0E0A0E0BA2FA92F982F88278883998325
:100D6000AA83BB830E94EE00488159816A817B81FE
:100D7000482B762F652F542F4427488359836A8345
:100D80007B830E94EE00488159816A817B81482BD8
:100D9000762F652F542F4427488359836A837B839A
:100DA0000E94EE00488159816A817B81482B4883EB
:100DB00059836A837B830E94EE000E94EE00289A8A
:100DC00080E094E0A7CF0F931F93CF93DF93F62F8C
:100DD000E72FBC018901D42FC52F28984F2F5E2FF4
:100DE00080E20E9431020E94F300289A882339F0A1
:100DF00090E09168DF91CF911F910F91089528980D
:100E0000A8016D2F7C2F81E20E9431020E94F30025
:100E1000289A882319F090E09268ECCF289840E057
:100E200050E0BA0186E20E9431020E94F300D0E055
:100E3000C0E0882349F0289A90E09468DBCF21979E
:100E400019F480E098E0D6CF0E94EE008823B9F331
:100E5000289A90E080E0CECF8827811528E092077D
:100E600039F170F4811522E09207E1F0811524E058
:100E70009207D9F08115914089F087E696E010C07D
:100E8000811520E49207B9F0811520E89207B1F0AE
:100E90008115904291F78DE296E002C087EE95E0D1
:100EA0000C94670B88EF95E0FBCF85E096E0F8CFD8
:100EB00084E196E0F5CF86E496E0F2CF8BE596E00C
:100EC000EFCF8827811524E0920771F0811520E883
:100ED000920731F08115924051F487E996E002C003
:100EE0008BE796E00C94670B87E896E0FBCF87E6EC
:100EF00096E0F8CF8827811522E09207D1F040F4E0
:100F0000009781F08115914089F087E696E00CC04A
:100F1000811524E0920781F081159840B1F78BE0AC
:100F200097E002C08EEA96E00C94670B82EC96E0A4
:100F3000FBCF80EE96E0F8CF8CEF96E0F5CFCF9226
:100F4000DF92EF92FF920F931F93CF93DF93CDB772
:100F5000DEB729970FB6F894DEBF0FBECDBF289835
:100F600040E050E0BA0189E00E9431020E94F300A3
:100F7000882301F1289A81E297E00E94670BC12C37
:100F8000D12C7601C394C982DA82EB82FC8269811A
:100F90007A818B819C8129960FB6F894DEBF0FBEB3
:100FA000CDBFDF91CF911F910F91FF90EF90DF9018
:100FB000CF90089519820E94EE00829586958695BD
:100FC0008370833079F47981715079837111F3CF13
:100FD000289A81E090E0A0E0B0E089839A83AB8317
:100FE000BC83D5CF19820E94EE0087FF07C099818C
:100FF000915099839111F7CF289AC1CF0E94EE00AA
:101000001D820E94EE007D817F5F7983823341F0F3
:101010008A3531F08D818F3F79F3D980DD82F1CF30
:10102000E12C0E94EE008B7781F00E94EE00982F59
:1010300092959F70953009F07BC08F70E82E87EFF6
:101040008E0D833028F6198602C091E09987C980F9
:10105000CC2009F4BDCF99819F5F9983A985A130E8
:1010600001F3DA2EAD8310E000E00E94EE00982F2D
:10107000937F61E011F18370082F10E0102F00279B
:101080000E94EE00082B000F111F000F111F0E947D
:10109000EE008295869586958370082B0E94EE005F
:1010A00089830E94EE00C980CC0C7C2D7670881F4D
:1010B0008827881F782B7D83698581E0D81609F4FD
:1010C0009BCFDA94613089F2289A862F21E030E0B4
:1010D00040E050E0E8122FC081E090E0A0E0B0E0F6
:1010E00089839A83AB83BC83CD808C2D90E001965D
:1010F000C980DA80EB80FC80CC0CDD1CEE1CFF1C70
:10110000C982DA82EB82FC826F5F6817190681F36D
:101110007CF3D80111960E94400D9B01AC01C701E0
:10112000B6010E94FA0C69837A838B839C832FCF4C
:10113000A1E0A9878CCF220F331F441F551F8F5F5B
:10114000C9CFCF92DF92EF92FF920F931F93CF936D
:10115000DF93CDB7DEB7CE50D2400FB6F894DEBFE6
:101160000FBECDBFCD5FDD4F6883C350D240CC5F93
:10117000DD4F7883C450D240CB5FDD4F8883C550AC
:10118000D240CA5FDD4F9883C650D240C95FDD4F61
:101190002883C750D240C85FDD4F3883C850D24043
:1011A000C75FDD4F4883C950D240C65FDD4F5883CB
:1011B000CA50D24088E797E00E94670BCD5FDD4FB1
:1011C000688179818A819B81C350D2400E949909AC
:1011D00084EA97E00E94670BC95FDD4F68817981DF
:1011E0008A819B81C750D2400E94990910E000E09B
:1011F0007E012FEFE21A2DEFF20A35E0C32ED12C3B
:10120000CD5FDD4F88819981AA81BB81C350D240D7
:10121000C95FDD4F288139814A815B81C750D24047
:10122000281739074A075B07A0F489EA97E00E946C
:10123000670BC25FDD4F0FB6F894DEBF0FBECDBFA8
:10124000DF91CF911F910F91FF90EF90DF90CF90A2
:101250000895AE014F5F5F4FCD5FDD4F888199816B
:10126000AA81BB81C350D24029E0880F991FAA1FD1
:10127000BB1F2A95D1F7C55FDD4F88839983AA8369
:10128000BB83CB50D240BC01CD010E94CA03FE01FA
:1012900031968191882379F1C801B6010E940A0D27
:1012A000892B21F48AE592E00E94670B83EC95E09C
:1012B0000E94670BCD5FDD4F688179818A819B81B8
:1012C000C350D2400E9499090F5F1F4FCD5FDD4F81
:1012D000288139814A815B81C350D2402F5F3F4FC3
:1012E0004F4F5F4FCD5FDD4F288339834A835B8348
:1012F000C350D24085CFEE15FF0559F6E7CF1092C7
:10130000C50087E68093C40088E18093C10086E031
:101310008093C20008958091C00087FFFCCF809128
:10132000C60008959091C00095FFFCCF8093C60041
:1013300008954F925F926F927F928F929F92AF9299
:10134000BF92CF92DF92EF92FF920F931F93CF93B2
:10135000DF93CDB7DEB79B01AC018DB69EB66A3088
:10136000710581059105C0F164367105810591050E
:10137000A8F1283E83E038074105510588F1203166
:1013800097E239074105510568F1203AE6E83E0742
:10139000E1E04E07510540F12034F2E43F07FFE061
:1013A0004F07510518F1203886E9380788E94807C2
:1013B0005105F0F0211591EE390795EF490795E0B9
:1013C0005907C0F02115EAEC3E07EAE94E07EBE3C6
:1013D0005E0790F00AE011C001E00FC002E00DC00E
:1013E00003E00BC004E009C005E007C006E005C04B
:1013F00007E003C008E001C009E010E06801F1E087
:10140000CF1AD1088DB79EB7801B910B0FB6F894F9
:101410009EBF0FBE8DBFEDB7FEB731967F0160E373
:101420006193CF018E199F0980179107CCF3570163
:101430008AE0482E512C612C712CCA01B901A301FC
:1014400092010E941E0D605DF50161935F01CF0165
:101450008E199F098017910784F3F701EC0DFD1D8C
:1014600080810E949209F1E0CF1AD108B0F70FB63F
:10147000F8949EBE0FBE8DBEDF91CF911F910F914C
:10148000FF90EF90DF90CF90BF90AF909F908F90A4
:101490007F906F905F904F900895CF92DF92EF9280
:1014A000FF920F931F93CF93DF93CDB7DEB7CDB6E7
:1014B000DEB6603171058105910530F16F3F710530
:1014C0008105910519F110F1611520E1720781057F
:1014D0009105F0F06115710531E083079105D0F0B9
:1014E0006115710520E182079105B0F06115710564
:1014F000810531E0930790F061157105810520E1C8
:10150000920770F020E20DC024E00BC028E009C073
:101510002CE007C020E105C024E103C028E101C0A0
:101520002CE1422F50E08A01015011092DB73EB73E
:10153000241B350B0FB6F8943EBF0FBE2DBF2F5F97
:101540003F4F7901F901A0E3A1939F012E193F09B3
:1015500024173507CCF3F701A1E3B0E3262F217060
:101560009695879577956795211102C0B08301C044
:10157000A08331969F012E193F092417350774F374
:10158000F701E00FF11F80810E949209C80183706A
:101590009927892B19F480E20E94920901501109C0
:1015A00078F70FB6F894DEBE0FBECDBEDF91CF91B7
:1015B0001F910F91FF90EF90DF90CF900895CF9201
:1015C000DF92EF92FF920F931F93CF93DF93CDB7EC
:1015D000DEB7CDB6DEB66F3F71058105910509F125
:1015E00000F1611520E1720781059105E0F06115B8
:1015F000710531E083079105C0F06115710520E1A7
:1016000082079105A0F061157105810531E093070E
:1016100080F061157105810520E1920760F028E0F6
:101620000BC022E009C023E007C024E005C025E08C
:1016300003C026E001C027E0422F50E07A0131E0EC
:10164000E31AF1082DB73EB7241B350B0FB6F894FB
:101650003EBF0FBE2DBF0DB71EB70F5F1F4FF80166
:10166000A0E3A1939F01201B310B24173507CCF376
:10167000F801262F2F7034E096958795779567951A
:101680003A95D1F72A3010F4205D01C0295C2083FF
:1016900031969F01201B310B2417350754F3F801B5
:1016A000EE0DFF1D80810E94920931E0E31AF108DE
:1016B000B0F70FB6F894DEBE0FBECDBEDF91CF916E
:1016C0001F910F91FF90EF90DF90CF9008950F93AF
:1016D0001F93CF93DF93EC018C0107511C4F89912D
:1016E000882331F0C017D10719F00E949209F7CF73
:1016F000DF91CF911F910F910895CDB7DEB7CC50F8
:10170000D2400FB6F894DEBF0FBECDBF0E947F0956
:101710000E94D6000FEF10E08AE592E00E94670B6E
:1017200001501109C9F784E392E00E94670BCD5F75
:10173000DD4F1882C350D240CC5FDD4F1882C450B9
:10174000D2408DE592E00E94670BCD5FDD4F88812E
:10175000C350D240282F30E050E040E0CA01B90128
:101760000E9499098FE692E00E94670BCC5FDD4FE3
:101770008881C450D24081112CC181E892E00E943E
:10178000670B88EE93E00E94670B60E070E0CB018E
:101790000E949909CE018D5F9D4F0E94D002CB5FC0
:1017A000DD4F6883C550D240CA5FDD4F7883C65095
:1017B000D240C95FDD4F8883C750D240C85FDD4F3C
:1017C0009883C850D240CB5FDD4F88819981AA8130
:1017D000BB81C550D240892B8A2B8B2B09F4FFC0CB
:1017E0008BE892E00E94670BCB5FDD4F68817981C7
:1017F0008A819B81C550D2400E94DF0ACB5FDD4FBA
:10180000688179818A819B81C550D2400E943801CC
:101810008DED92E00E94670BCB5FDD4F8881C55054
:10182000D2400E94FF0080E093E00E94670BCB5FF4
:10183000DD4F688179818A819B81C550D2400E94A9
:1018400038018DE592E00E94670BCD5FDD4F888106
:10185000C350D240282F30E050E040E0CA01B90127
:101860000E9499098FE692E00E94670BCC5FDD4FE2
:101870008881C450D2408111B7C081E892E00E94B3
:10188000670BCB5FDD4F88819981AA81BB81C550F1
:10189000D240892B8A2B8B2B09F096C024E630E0AE
:1018A00040E050E060E070E0CB010E94A108AE0192
:1018B0004F5F5F4F60E070E0CB010E94CA038C0174
:1018C0008DE193E00E94670BC8010E946107CE0181
:1018D00001960E94100485E293E00E94670B0E942B
:1018E0008B00CB5FDD4F6883C550D240CA5FDD4FB0
:1018F0007883C650D240C95FDD4F8883C750D2403D
:10190000C85FDD4F9883C850D2408CE393E00E94BB
:10191000670B0E948B007B018C0187E693E00E949D
:10192000670BB701C8010E9499098CE793E00E94F8
:10193000670BCB5FDD4F688179818A819B81C550C0
:10194000D2400E9499098AE993E00E94670B0E94A5
:101950008B09D82E0E9492098AE592E00E94670BBB
:1019600099E7D912B8CFCB5FDD4F288139814A8101
:101970005B81C550D24089E0220F331F441F551FA1
:101980008A95D1F7CB5FDD4F288339834A835B8308
:10199000C550D2409701A801CB5FDD4F68817981A6
:1019A0008A819B81C550D2400E94BE040E9461077B
:1019B00083EB93E00E94670B0E948B09182F0E9413
:1019C0009209113709F087CF0E948B090E94920972
:1019D000FBCF813009F0D5CE86E892E0D0CE88EBFF
:1019E00092E00E94670B14CF813009F04ACF86E85D
:1019F00092E045CFDB018F939F930E94400DBF91F2
:101A0000AF91A29F800D911DA39F900DB29F900D4D
:101A100011240895AA1BBB1B51E107C0AA1FBB1FBD
:101A2000A617B70710F0A61BB70B881F991F5A956A
:101A3000A9F780959095BC01CD010895A1E21A2ED9
:101A4000AA1BBB1BFD010DC0AA1FBB1FEE1FFF1F62
:101A5000A217B307E407F50720F0A21BB30BE40BB2
:101A6000F50B661F771F881F991F1A9469F76095F9
:101A70007095809590959B01AC01BD01CF010895B3
:101A80000E948D0DA59F900DB49F900DA49F800D79
:101A9000911D11240895002E083090F0982F872F63
:101AA000762F652F542F432F322F22270850F4CF43
:101AB000220F331F441F551F661F771F881F991F52
:101AC0000A95B2F7002D089597FD1094002E083066
:101AD00098F00850232F342F452F562F672F782F3B
:101AE000892F912DF4CF15949795879577956795C4
:101AF00057954795379527950A95AAF71124002DF4
:101B000008950024A7FD00942A17300540055005CC
:101B100060057005800590050895A29FB001B39FF0
:101B2000C001A39F700D811D1124911DB29F700DE6
:0C1B3000811D1124911D0895F894FFCF31
:101B3C00736563746F722076616C756520697320B0
:101B4C00746F6F206C617267652E0A0D456E74653B
:101B5C00722076616C7565203C2034313934333019
:101B6C00340A0D000A0A0A0D202A2A2A2A2A2A20B7
:101B7C0020424547494E2054455354494E47202A4C
:101B8C002A2A2A2A2A2A2A2A0A0A0A0D000A0D2097
:101B9C006374762E76657273696F6E203D20000A31
:101BAC000D206374762E74797065202020203D20E2
:101BBC0000534453430053444843000A0A0D534412
:101BCC0020494E495449414C495A4154494F4E20A1
:101BDC004641494C454420776974682052657370BE
:101BEC006F6E7365203078000A0D53442043617288
:101BFC0064205375636365737366756C6C792049E7
:101C0C006E697469616C697A65640A0D000A0D501D
:101C1C0072696E74696E6720523120526573706FF1
:101C2C006E736520666F7220696E6974203D2000AA
:101C3C000A0D696E697469616C697A6174696F6E99
:101C4C0020726573706F6E7365203D200020657285
:101C5C0072203D20000A0D456E746572205374612C
:101C6C00727420536563746F720A0D000A0D686FED
:101C7C0077206D616E7920736563746F7273206465
:101C8C006F20796F752077616E7420746F2070727D
:101C9C00696E743F0A0D000A0D596F752077616EDD
:101CAC007420746F207072696E74200020736563E9
:101CBC00746F727320626567696E6E696E672061FE
:101CCC007420736563746F7220000A0D697320743D
:101CDC0068697320636F72726563743F2028792F73
:101CEC006E29000A0D2070726573732027712720EE
:101CFC00746F207175697420616E6420616E792037
:101D0C006F74686572206B657920746F20676F2023
:101D1C00616761696E3A20000A0A0D5344204361E1
:101D2C00726420496E697469616C697A6174696F57
:101D3C006E20417474656D70743A20002052315FCE
:101D4C0054494D454F55542C0020504152414D455E
:101D5C00544552204552524F522C0020414444527B
:101D6C00455353204552524F522C0020455241535B
:101D7C00452053455155454E4345204552524F52EF
:101D8C000020434F4D5F4352435F4552524F520028
:101D9C0020494C4C4547414C20434F4D4D414E44FE
:101DAC00002045524153452052455345540020498B
:101DBC004E2049444C4520535441544500204F5526
:101DCC0054204F462049444C4500204641494C453F
:101DDC00445F474F5F49444C455F53544154450061
:101DEC00204641494C45445F53454E445F49465F4C
:101DFC00434F4E440020554E535550504F5254456E
:101E0C00445F434152445F54595045002046414978
:101E1C004C45445F4352435F4F4E5F4F4646002054
:101E2C004641494C45445F4150505F434D4400206E
:101E3C004641494C45445F53445F53454E445F4FC4
:101E4C00505F434F4E4400204F55545F4F465F49FF
:101E5C00444C455F54494D454F555400204641492B
:101E6C004C45445F524541445F4F43520020504F14
:101E7C005745525F55505F4E4F545F434F4D504C3A
:101E8C0045544500204641494C45445F5345545FF9
:101E9C00424C4F434B4C454E00204641494C454427
:101EAC005F53454E445F4353440020494E49545FB1
:101EBC00535543434553530A0D000A0A0D20424C17
:101ECC004F434B204F4646534554090909092020DE
:101EDC002048455809090909092020202020415390
:101EEC004349490A0D000A0D2020200030783000AB
:101EFC000920000909000A0D7072696E74696E6719
:101F0C00205231203D20000A0A0D09090909094215
:101F1C004C4F434B3A20000A0D2044415441204180
:101F2C0043434550544544000A0D204352435F45FA
:101F3C0052524F52000A0D2057524954455F455298
:101F4C00524F52000A0D20494E56414C49445F44B1
:101F5C004154415F524553504F4E5345000A0D209A
:101F6C00444154415F524553504F4E53455F544981
:101F7C004D454F5554000A0D20434152445F425584
:101F8C0053595F54494D454F5554000A0D20523159
:101F9C005F4552524F52000A0D20554E4B4E4F5733
:101FAC004E20524553504F4E5345000A0D2052318E
:101FBC00204552524F52000A0D20524541442053A5
:101FCC00554343455353000A0D205354415254205A
:101FDC00544F4B454E2054494D454F5554000A0D16
:101FEC002045524153452053554343455353465581
:101FFC004C000A0D20534554204552415345205363
:10200C00544152542041444452204552524F5200A4
:10201C000A0D2053455420455241534520454E440A
:10202C002041444452204552524F52000A0D204543
:10203C0052524F52204552415345000A0D204552F1
:10204C004153455F425553595F54494D454F555483
:10205C00000A0D3E3E204552524F523A202020534A
:10206C00454E445F4353442028434D44392920694D
:10207C006E2073645F6765744D656D6F7279436133
:10208C0070616369747928292072657475726E6544
:10209C0064206572726F7220696E205231207265F5
:1020AC0073706F6E73652E000A0D536561726368F1
:1020BC00696E6720666F72206E6F6E2D7A65726F17
:1020CC0020626C6F636B73206F7665722072616E29
:1020DC006765200020746F20000A0D446F6E652028
:1020EC00736561726368696E67206E6F6E2D7A65B9
:0C20FC00726F20626C6F636B732E00002B
:00000001FF
