:100000000C9472000C9489000C9489000C94890063
:100010000C9489000C9489000C9489000C9489003C
:100020000C9489000C9489000C9489000C9489002C
:100030000C9489000C9489000C9489000C9489001C
:100040000C9489000C9489000C9489000C9489000C
:100050000C9489000C9489000C9489000C948900FC
:100060000C9489000C9489000C9489000C948900EC
:100070000C9489000C9489000C9489000C948900DC
:100080000C9489000C9489000C9489000C948900CC
:100090000C9489000C9489000C9489000C948900BC
:1000A0000C9489000C9489000C9489000C948900AC
:1000B0000C9489000C9489000C9489000C9489009C
:1000C0000C9489000C9489000C9489000C9489008C
:1000D0000C9489000C9489000C9489000C9489007C
:1000E0000C94890011241FBECFEFD1E2DEBFCDBF3B
:1000F0001DE0A0E0B2E0E2E6FAE100E00BBF02C0E2
:1001000007900D92A234B107D9F70E94E00B0C942E
:100110002F0D0C94000087E084B981E085B9E4E6F6
:10012000F0E080818B7F808382E58CBD8DB58E7FF2
:100130008DBD08958EBD0DB407FEFDCF08958EB51B
:1001400008950C949A008FEF0E949A000C949F00DF
:10015000CF93C0E00E94A3008F3F11F0CF9108958C
:10016000C150C1F780E8FACFCF93C82F87FF04C0F2
:100170008BEF92E00E94CA0BC6FF04C088E093E0B8
:100180000E94CA0BC5FF04C08AE193E00E94CA0B1B
:10019000C4FF04C08AE293E00E94CA0BC3FF04C0FC
:1001A00080E493E00E94CA0BC2FF04C08FE493E096
:1001B0000E94CA0BC1FF04C080E693E00E94CA0BF4
:1001C0008DE693E0C0FD04C0C11105C08CE793E04B
:1001D000CF910C94CA0BCF910895CF92DF92EF92FA
:1001E000FF926B017C01D0FE04C089E893E00E947D
:1001F000CA0BD1FE04C08FE993E00E94CA0BD2FE65
:1002000004C084EB93E00E94CA0BD3FE04C08BECC5
:1002100093E00E94CA0BD4FE04C08EED93E00E94CE
:10022000CA0BD5FE04C08EEE93E00E94CA0BD6FE28
:1002300004C086E094E00E94CA0BD7FE04C08BE1A4
:1002400094E00E94CA0BE0FE04C08CE294E00E949D
:10025000CA0BE1FE04C083E494E00E94CA0B88E567
:1002600094E0E2FC06C0CD28CE28CF2841F489E6F0
:1002700094E0FF90EF90DF90CF900C94CA0BFF902A
:10028000EF90DF90CF9008952F923F924F925F9220
:100290006F927F928F929F92AF92BF92CF92DF9296
:1002A000EF92FF920F931F93CF93DF93CDB7DEB7FB
:1002B00028970FB6F894DEBF0FBECDBFE22F3B8369
:1002C0004C835D836E83472E382E292E88E2A82E1C
:1002D000B12C512C612C712C812C912C89E88983B3
:1002E0001A82C12CD12CE12CF12C10E0188680E868
:1002F0008F83B0E0F0E02D2D2E233B813E214C81F9
:100300004F215D8151236E81888568237F8174210F
:100310008B2F83219F2F9221A0E00E94000D91F04E
:10032000E5258B8186258B838C8187258C838D8128
:1003300088258D838E8189258E83898148268A81AF
:1003400038262C24252D362D472D582D692D7981C1
:100350008A819C2D01E00E94E50C522E632E742EA2
:10036000852E962E79838A83C92E2D2D3E2D4F2DD5
:10037000512F68857F818B2F9F2F0E94E50CD22EF5
:10038000E32EF42E152F68877F83B82FF92F81E095
:10039000A81AB10809F0AFCF8E2F28960FB6F8949F
:1003A000DEBF0FBECDBFDF91CF911F910F91FF90A8
:1003B000EF90DF90CF90BF90AF909F908F907F9005
:1003C0006F905F904F903F902F9008957F928F9203
:1003D0009F92AF92BF92CF92DF92EF92FF920F93D4
:1003E0001F93CF93DF934A015B01282F206430E0F5
:1003F00040E050E060E070E080E090E008E20E94C1
:10040000CA0CC22F732EB42FA52FF62FE72F182F4B
:10041000D92F9401A50160E070E080E090E008E051
:100420000E94CA0CC22B732AC42ECB2AD52EDA2ADC
:10043000E62EEF2AF72EFE2A182BD92B2C2F372D3C
:10044000A601B701812F9D2F0E944401C82BC160D6
:100450008FEF0E949A008FEF0E949A008FEF0E9408
:100460009A002C2F372DA601B701812F9D2F08E26E
:100470000E94E50C822F0E949A002C2F372DA60196
:10048000B701812F9D2F00E20E94E50C822F0E9470
:100490009A002C2F372DA601B701812F9D2F08E13F
:1004A0000E94E50C822F0E949A002C2F372DA60166
:1004B000B701812F9D2F00E10E94E50C822F0E9441
:1004C0009A002C2F372DA601B701812F9D2F08E010
:1004D0000E94E50C822F0E949A008C2FDF91CF9111
:1004E0001F910F91FF90EF90DF90CF90BF90AF9052
:1004F0009F908F907F900C949A000F931F93CF93AF
:10050000DF93CBE0D0E08FEF0E949A002197D9F7DC
:10051000289840E050E0BA0180E00E94E6010E9485
:10052000A800289A813061F0682F70E07160072E72
:10053000000C880B990BDF91CF911F910F910895BB
:1005400028984AEA51E060E070E088E00E94E60105
:100550000E94A800C82F0E94A3000E94A3000E942E
:10056000A300D82F0E94A300289AC13021F06C2F3D
:1005700070E07260DCCFD13009F08AC08A3A09F0AD
:1005800087C0289840E050E0BA018BE30E94E60162
:100590000E94A800289A813021F0682F70E07860CE
:1005A000C6CFC6E0289840E050E0BA0187E30E9439
:1005B000E6010E94A800289A813021F0682F70E09F
:1005C0007061B5CF289840E050E0BA0189E20E94FE
:1005D000E6010E94A800682F289A823018F070E087
:1005E0007062A5CFC15019F470E07066A0CF811180
:1005F000D9CF289840E050E0BA018AE30E94E60192
:100600000E94A800882331F0682F70E0706890E0A5
:1006100080E091CF0E94A300D82F87FD06C0289AC2
:1006200060E070E081E090E086CF082F10E00E944B
:10063000A300C82F0E94A300282FC80156E095955B
:1006400087955A95E1F7823031F0289A60E074E896
:1006500080E090E070CFD5FB882780F943E01595C6
:1006600007954A95E1F70270082BD170D02B289A94
:1006700069F78C2F90E0880F991F221F2227221FD5
:10068000822B8F3F914011F760E070E0CB0153CF98
:1006900061E076E080E090E04ECFCF92DF92EF9283
:1006A000FF920F931F93CF93DF93CDB7DEB72997B8
:1006B0000FB6F894DEBF0FBECDBF289840E050E0E3
:1006C000BA0189E00E94E6010E94A800882301F196
:1006D000289A89E794E00E94CA0BC12CD12C76019C
:1006E000C394C982DA82EB82FC8269817A818B8130
:1006F0009C8129960FB6F894DEBF0FBECDBFDF9167
:10070000CF911F910F91FF90EF90DF90CF900895C0
:1007100019820E94A3008295869586958370833006
:1007200079F47981715079837111F3CF289A81E03E
:1007300090E0A0E0B0E089839A83AB83BC83D5CFFF
:1007400019820E94A30087FF07C099819150998365
:100750009111F7CF289AC1CF0E94A3001D820E9459
:10076000A3007D817F5F7983823341F08A3531F048
:100770008D818F3F79F3D980DD82F1CFE12C0E940A
:10078000A3008B7781F00E94A300982F92959F7011
:10079000953009F07BC08F70E82E87EF8E0D833087
:1007A00028F6198602C091E09987C980CC2009F407
:1007B000BDCF99819F5F9983A985A13001F3DA2E7E
:1007C000AD8310E000E00E94A300982F937F61E0CA
:1007D00011F18370082F10E0102F00270E94A30052
:1007E000082B000F111F000F111F0E94A3008295FC
:1007F000869586958370082B0E94A30089830E94AA
:10080000A300C980CC0C7C2D7670881F8827881F98
:10081000782B7D83698581E0D81609F49BCFDA9423
:10082000613089F2289A862F21E030E040E050E0E4
:10083000E8122FC081E090E0A0E0B0E089839A83C5
:10084000AB83BC83CD808C2D90E00196C980DA808B
:10085000EB80FC80CC0CDD1CEE1CFF1CC982DA8214
:10086000EB82FC826F5F6817190681F37CF3D80175
:1008700011960E94BF0C9B01AC01C701B6010E94FA
:10088000790C69837A838B839C832FCFA1E0A9871E
:100890008CCF220F331F441F551F8F5FC9CFAF92DC
:1008A000BF92CF92DF92EF92FF920F931F93CF935D
:1008B000DF93CDB7DEB7C450D2400FB6F894DEBF99
:1008C0000FBECDBFF82E092F289881E10E94E601C6
:1008D0000E94A800182F882399F1289A80ED94E0AF
:1008E0000E94CA0B812F0E94B400198381E08A8381
:1008F000CD5FDD4F1882C350D240CC5FDD4F1882F0
:10090000C450D24084E092E0FE013196AF2DB02F6A
:1009100001900D920197E1F78F2D902FCC5FDD4F65
:100920000FB6F894DEBF0FBECDBFDF91CF911F9100
:100930000F91FF90EF90DF90CF90BF90AF90089510
:100940000E94A3008E3F29F5CE018D5F9D4F5C0173
:100950001F3FA1F06E0193E0C90ED11C0E94A300BD
:10096000F60181936F01EA15FB05C1F70E94A30010
:10097000D82E0E94A300E82E0E94A300289A198274
:100980001A82F501D082CC5FDD4FE882C450D2409C
:10099000B9CF0E94A3001F5FD5CFAF92BF92CF9275
:1009A000DF92EF92FF920F931F93CF93DF9300D0CC
:1009B00000D000D0CDB7DEB76C0183E395E00E9494
:1009C000CA0B1E821D8200E110E0F12CE12C8FE5A4
:1009D00095E00E94CA0B970150E040E029833A83DA
:1009E0004B835C8385E695E03FEFE316F10419F055
:1009F00010F087E792E00E94CA0B69817A818B81AF
:100A00009C810E94420B89E695E00E94CA0BAD8052
:100A1000BE80AC0CBD1CF12CE12C8D819E818E0D15
:100A20009F1D80179107B0F18CE695E00E94CA0BDC
:100A3000ED80FE80E016F10608F44CC08D819E81A9
:100A40007801E81AF90A0817190710F4F12CE12CBB
:100A5000AD81BE81EA0EFB1E005F1F4F5096BE8324
:100A6000AD830031B2E01B0709F0B1CF85E292E01F
:100A700026960FB6F894DEBF0FBECDBFDF91CF91A3
:100A80001F910F91FF90EF90DF90CF90BF90AF90AC
:100A90000C94CA0BC70183709927892B21F48AE62D
:100AA00095E00E94CA0B8AE695E00E94CA0BD50128
:100AB0008D915D01282F30E050E040E029833A839A
:100AC0004B835C83CA01B9010E94420B3FEFE31ADA
:100AD000F30AA3CFF601EE0DFF1D8081803238F4BA
:100AE00080E20E94F5094FEFE41AF40AA3CF87FFD2
:100AF000F8CF8EE2F6CF3F924F925F926F927F9245
:100B00008F929F92AF92BF92CF92DF92EF92FF921D
:100B10000F931F93CF93DF93CDB7DEB7C850D2406A
:100B20000FB6F894DEBF0FBECDBF2B013C0179019B
:100B30002898BC01A20182E10E94E6010E94A8005F
:100B40008983882359F0289A8FE695E00E94CA0B82
:100B500089810E94B4008981811163C08701D12CF1
:100B6000C12C992493945E01BDEFAB1ABB0A4DC012
:100B7000E12C32E0F32E0E94A3008E3F49F081E089
:100B8000E81AF108C1F788ED95E00E94CA0B9A8235
:100B90007E0193E0E90EF11C3E2C8F2C0E94A300F5
:100BA000D7018D937D01AA15BB05C1F70E94A30053
:100BB000F50180830E94A300CC5FDD4F8883C45081
:100BC000D24083E396E00E94CA0BD301C20129E020
:100BD000B695A795979587952A95D1F7CB5FDD4F69
:100BE00088839983AA83BB83C550D240BC01CD01C1
:100BF0000E94FC09832D982D0E94CD049FEFC91AF5
:100C0000D90AA2E05A0E611C711CC016D10609F067
:100C1000AFCF40E050E0BA018CE00E94E6010E94B4
:100C2000A300289AC85FDD4F0FB6F894DEBF0FBE51
:100C3000CDBFDF91CF911F910F91FF90EF90DF908B
:100C4000CF90BF90AF909F908F907F906F905F906C
:100C50004F903F9008958F929F92AF92BF92CF9204
:100C6000DF92EF92FF920F931F93CF93DF93CDB755
:100C7000DEB7CC50D2400FB6F894DEBF0FBECDBF6A
:100C8000CB5FDD4F6883C550D240CA5FDD4F7883AC
:100C9000C650D240C95FDD4F8883C750D240C85F7D
:100CA000DD4F9883C850D240C75FDD4F2883C950BD
:100CB000D240C65FDD4F3883CA50D240C55FDD4F9A
:100CC0004883CB50D240C45FDD4F5883CC50D240D4
:100CD00083E496E00E94CA0BCB5FDD4F6881798187
:100CE0008A819B81C550D2400E94FC098FE696E024
:100CF0000E94CA0BC75FDD4F688179818A819B8121
:100D0000C950D2400E94FC0910E000E0C75FDD4FEF
:100D100088809980AA80BB80C950D2408FEF881A02
:100D2000980AA80AB80A7E019DEFE91AF90A95E027
:100D3000C92ED12CCB5FDD4F88819981AA81BB81DF
:100D4000C550D24088159905AA05BB05B8F084E7BF
:100D500096E0C45FDD4F0FB6F894DEBF0FBECDBF87
:100D6000DF91CF911F910F91FF90EF90DF90CF9087
:100D7000BF90AF909F908F900C94CA0BCB5FDD4FCC
:100D8000488159816A817B81C550D24089E0440FF6
:100D9000551F661F771F8A95D1F7CE0101960E94D5
:100DA0004F04FE0133968191882371F1C801B60189
:100DB0000E94890C892B21F486E292E00E94CA0BE2
:100DC0008CE695E00E94CA0BCB5FDD4F688179818C
:100DD0008A819B81C550D2400E94FC090F5F1F4F42
:100DE000CB5FDD4F88819981AA81BB81C550D240FC
:100DF0000196A11DB11DCB5FDD4F88839983AA8326
:100E0000BB83C550D24096CFEE15FF0561F6E8CF03
:100E10000F931F93CF93DF9300D000D0CDB7DEB7F1
:100E2000362F272FBC018A012898432F522F88E1A3
:100E30000E94E6010E94A80089838823A9F0289ACD
:100E400086E996E00E94CA0B89810E94B40029813C
:100E5000822F90E09F600F900F900F900F90DF9186
:100E6000CF911F910F9108958EEF0E94A1000983E9
:100E70001A8309811A811E5FA981BA818D91BA8373
:100E8000A9830E94A100E981FA81E017F107A1F787
:100E90008FEF0E94A1008FEF0E94A10001E011E0FE
:100EA0000E94A30089830150110941F4289A84EF1C
:100EB00096E00E94CA0B80E09FE0CDCF89818F71C0
:100EC00099819771953011F08B3051F78981857038
:100ED0008530B9F4A2E0B2E0BA83A9830E94A300EE
:100EE00081110BC089819A8101979A838983892B0B
:100EF000A9F783E797E00E94CA0B289A80E092E066
:100F0000AACF89818B708B30A9F4289A83EA97E065
:100F10000E94CA0B9981892F90E0B0E0A0E0BC014B
:100F2000CD010E94420B8FED97E00E94CA0B80E03A
:100F300095E091CF89818D708D3009F0BCCF289AD2
:100F400082EE97E00E94CA0B9981892F90E0B0E071
:100F5000A0E0BC01CD010E94420B8FED97E00E9402
:100F6000CA0B80E096E077CF8F929F92AF92BF92AC
:100F7000CF92DF92EF92FF920F931F93CF93DF9365
:100F800000D000D0CDB7DEB7E62F572FBC01042F1D
:100F9000790128984E2F89E10E94E6010E94A8005D
:100FA0008983882309F4CAC0289A82E298E00E94C3
:100FB000CA0B89810E94B4009981892F90E09F60BB
:100FC0009A83898389819A810F900F900F900F9057
:100FD000DF91CF911F910F91FF90EF90DF90CF9015
:100FE000BF90AF909F908F90089589818F71998164
:100FF0009771953011F08B3091F58981857085302E
:1010000009F04EC082E092E09A8389830E94A30097
:101010008823A9F1A0E0B2E0BA83A983FFEFCF1A39
:10102000DF0AC016D1060CF058C08CEF0E94A10058
:10103000FA82E982A981BA818D91BA83A9830E943B
:10104000A100E981FA81EA15FB05A1F78FEF0E9463
:10105000A1008FEF0E94A10088248394982C0E9405
:10106000A3008983F1E08F1A910809F0BECF289A76
:1010700083E898E00E94CA0B80E09FE0A1CFA9819D
:10108000BA811197BA83A983AB2B09F0BFCF83E74D
:1010900097E00E94CA0BE0E0F2E0FA83E983BECF5A
:1010A00089818B708B3059F583EA97E00E94CA0BD7
:1010B0009981892F90E0B0E0A0E089839A83AB8387
:1010C000BC83BC01CD010E94420B8FED97E00E94D2
:1010D000CA0BA0E0B5E0BA83A9838DEF0E94A100FE
:1010E00002E012E00E94A300811107C00150110923
:1010F000C9F783E797E00E94CA0B289A63CF8981DA
:101100008D708D30C1F482EE97E00E94CA0B9981F8
:10111000892F90E0B0E0A0E089839A83AB83BC8301
:10112000BC01CD010E94420B8FED97E00E94CA0BDB
:10113000A0E0B6E0D0CFE0E0FFE0AFCFD12CC12CF3
:1011400080E09FE09A83898310E057019EEFB91AEF
:1011500068CFCF93DF93EC0185E099E00E94CA0B42
:101160008C2F0E94B4008DE399E00E94CA0BCC271B
:10117000D770C11585E0D80781F0C11586E0D80782
:1011800031F0C115D24061F484E799E002C088E5EE
:1011900099E0DF91CF910C94CA0B87E699E0F9CFE3
:1011A00085E899E0F6CFCF92DF92EF92FF92CF934E
:1011B000DF9300D000D0CDB7DEB7289840E050E0F4
:1011C000BA0187E30E94E6010E94A800F82E84EA93
:1011D00099E0F1100DC040E050E0BA0186E10E94B4
:1011E000E6010E94A800F82E882339F189E19AE0EF
:1011F0000E94CA0B8F2D0E94B40019821A821B8292
:101200001C8269817A818B819C810F900F900F9055
:101210000F90DF91CF91FF90EF90DF90CF900895E6
:1012200029813A81215031093A832983232B49F4BA
:1012300089E99AE00E94CA0BE0CF40E051E05A836E
:1012400049830E94A3008E3F59F70E94A30090E0BB
:10125000B0E0A0E0CC24D82EE92EFA2E0E94A30004
:10126000C82AFE2CED2CDC2CCC240E94A300C82A1A
:10127000FE2CED2CDC2CCC240E94A300A7019601AF
:10128000282B29833A834B835C830E94A3000E940E
:10129000A300289AB6CFFF920F931F93CF93DF93AB
:1012A000F62FE72FBC01F22E032F142FD52F2898ED
:1012B0004F2F5E2F80E20E94E6010E94A800C82FF7
:1012C000289A882381F08BE09BE00E94CA0B8C2F28
:1012D0000E94B4008C2F90E09160DF91CF911F911C
:1012E0000F91FF90089528984F2D502F612F7D2F3B
:1012F00081E20E94E6010E94A800C82F289A882354
:1013000059F08EE69BE00E94CA0B8C2F0E94B4001D
:101310008C2F90E09260E1CF289840E050E0BA0135
:1013200086E20E94E6010E94A800C82F8823A9F047
:10133000289A8FEC9BE00E94CA0B8C2F0E94B4006D
:101340008C2F90E09460C9CF219749F48EE19CE006
:101350000E94CA0B80E098E0C0CFD0E0C0E00E94BD
:10136000A300882389F3289A90E080E0B6CFCF933A
:10137000DF93EC010E94B400CC27C11582E0D807AE
:10138000D9F050F487EA9CE0209791F0C115D14044
:1013900069F084E29DE00CC0C11584E0D80779F0C3
:1013A000C115D840B1F782E19DE002C08FEB9CE00F
:1013B000DF91CF910C94CA0B80EE9CE0F9CF8FEFB8
:1013C0009CE0F6CF1092C50087E68093C40088E1C8
:1013D0008093C10086E08093C20008958091C00090
:1013E00087FFFCCF8091C60008959091C00095FFC3
:1013F000FCCF8093C60008954F925F926F927F92C8
:101400008F929F92AF92BF92CF92DF92EF92FF9214
:101410000F931F93CF93DF93CDB7DEB79B01AC0142
:101420008DB69EB66A30710581059105C0F16436AE
:10143000710581059105A8F1283E83E03807410533
:10144000510588F1203197E239074105510568F1CE
:10145000203AE6E83E07E1E04E07510540F120342E
:10146000F2E43F07FFE04F07510518F1203886E905
:10147000380788E948075105F0F0211591EE390742
:1014800095EF490795E05907C0F02115EAEC3E07B2
:10149000EAE94E07EBE35E0790F00AE011C001E0D5
:1014A0000FC002E00DC003E00BC004E009C005E07E
:1014B00007C006E005C007E003C008E001C009E07E
:1014C00010E06801F1E0CF1AD1088DB79EB7801BFC
:1014D000910B0FB6F8949EBF0FBE8DBFEDB7FEB750
:1014E00031967F0160E36193CF018E199F098017C8
:1014F0009107CCF357018AE0482E512C612C712CB6
:10150000CA01B901A30192010E949D0C605DF50121
:1015100061935F01CF018E199F098017910784F3B2
:10152000F701EC0DFD1D80810E94F509F1E0CF1A55
:10153000D108B0F70FB6F8949EBE0FBE8DBEDF91F6
:10154000CF911F910F91FF90EF90DF90CF90BF90C0
:10155000AF909F908F907F906F905F904F90089585
:10156000CF92DF92EF92FF920F931F93CF93DF936F
:10157000CDB7DEB7CDB6DEB6603171058105910518
:1015800030F16F3F71058105910519F110F1611579
:1015900020E1720781059105F0F06115710531E0D8
:1015A00083079105D0F06115710520E1820791054F
:1015B000B0F061157105810531E0930790F0611578
:1015C0007105810520E1920770F020E20DC024E052
:1015D0000BC028E009C02CE007C020E105C024E1D1
:1015E00003C028E101C02CE1422F50E08A010150E4
:1015F00011092DB73EB7241B350B0FB6F8943EBF2B
:101600000FBE2DBF2F5F3F4F7901F901A0E3A193DA
:101610009F012E193F0924173507CCF3F701A1E3E9
:10162000B0E3262F217096958795779567952111C0
:1016300002C0B08301C0A08331969F012E193F09DB
:101640002417350774F3F701E00FF11F80810E9422
:10165000F509C80183709927892B19F480E20E944B
:10166000F5090150110978F70FB6F894DEBE0FBEE8
:10167000CDBEDF91CF911F910F91FF90EF90DF9042
:10168000CF900895CF92DF92EF92FF920F931F9326
:10169000CF93DF93CDB7DEB7CDB6DEB66F3F710522
:1016A0008105910509F100F1611520E172078105BD
:1016B0009105E0F06115710531E083079105C0F0F7
:1016C0006115710520E182079105A0F06115710592
:1016D000810531E0930780F061157105810520E1F6
:1016E000920760F028E00BC022E009C023E007C0A9
:1016F00024E005C025E003C026E001C027E0422F1A
:1017000050E07A0131E0E31AF1082DB73EB7241B0F
:10171000350B0FB6F8943EBF0FBE2DBF0DB71EB7E9
:101720000F5F1F4FF801A0E3A1939F01201B310B16
:1017300024173507CCF3F801262F2F7034E0969547
:101740008795779567953A95D1F72A3010F4205D03
:1017500001C0295C208331969F01201B310B241787
:10176000350754F3F801EE0DFF1D80810E94F50945
:1017700031E0E31AF108B0F70FB6F894DEBE0FBE01
:10178000CDBEDF91CF911F910F91FF90EF90DF9031
:10179000CF9008950F931F93CF93DF93EC018C01AB
:1017A00007511C4F8991882331F0C017D10719F0D8
:1017B0000E94F509F7CFDF91CF911F910F91089506
:1017C000CDB7DEB728970FB6F894DEBF0FBECDBFFA
:1017D0000E94E2090E948B008FEF90E09A83898338
:1017E00086E292E00E94CA0BA981BA811197BA835E
:1017F000A983AB2BA9F780E092E00E94CA0B1D825F
:101800001E821F82188689E292E00E94CA0B6D81B7
:101810007E818F8198850E94FC090E947D026983E8
:101820007A838B839C8389819A81AB81BC81892B4C
:101830008A2B8B2B09F18DE492E00E94CA0B6981FF
:101840007A818B819C810E94420B69817A818B8194
:101850009C810E94ED008D819E81AF81B8850197AA
:10186000A105B10569F081E090E0A0E0B0E08D83D2
:101870009E83AF83B887C7CF8AE792E00E94CA0BE6
:101880008FE992E00E94CA0B89810E94B40080EC2B
:1018900092E00E94CA0B69817A818B819C810E94AF
:1018A000ED0089819A81AB81BC81892B8A2B8B2B9E
:1018B000D9F40E944D038B018D8399838DED92E0C5
:1018C0000E94CA0BB8018D8199810E94FC0982EFA8
:1018D00092E00E94CA0B25E030E040E050E060E07A
:1018E00070E0CB010E947B050E94EE090E94F50981
:1018F000FBCFDB018F939F930E94BF0CBF91AF91F1
:10190000A29F800D911DA39F900DB29F900D112459
:10191000089597FB072E16F4009407D077FD09D0A1
:101920000E940C0D07FC05D03EF4909581959F4FC9
:101930000895709561957F4F0895A1E21A2EAA1B14
:10194000BB1BFD010DC0AA1FBB1FEE1FFF1FA2176F
:10195000B307E407F50720F0A21BB30BE40BF50B6C
:10196000661F771F881F991F1A9469F760957095F5
:10197000809590959B01AC01BD01CF0108950E9417
:10198000200DA59F900DB49F900DA49F800D911DDB
:1019900011240895002E083090F0982F872F762F6D
:1019A000652F542F432F322F22270850F4CF220FB8
:1019B000331F441F551F661F771F881F991F0A95E5
:1019C000B2F7002D089597FD1094002E083098F07E
:1019D0000850232F342F452F562F672F782F892F0C
:1019E000912DF4CF15949795879577956795579591
:1019F0004795379527950A95AAF71124002D089544
:101A00000024A7FD00942A17300540055005600505
:101A10007005800590050895AA1BBB1B51E107C006
:101A2000AA1FBB1FA617B70710F0A61BB70B881F6E
:101A3000991F5A95A9F780959095BC01CD010895FD
:101A4000A29FB001B39FC001A39F700D811D1124FF
:101A5000911DB29F700D811D1124911D0895F89460
:021A6000FFCFB6
:101A62000A0A0A0D202A2A2A2A2A2A20204245471F
:101A7200494E2054455354494E47202A2A2A2A2A9D
:101A82002A2A2A2A0A0A0A0D000A0A0D5344204366
:101A920061726420496E697469616C697A61746902
:101AA2006F6E20417474656D70743A20000A0A0DDD
:101AB200534420494E495449414C495A4154494F93
:101AC2004E204641494C454420776974682052654E
:101AD20073706F6E7365203078000A0D5344204393
:101AE200617264205375636365737366756C6C7998
:101AF20020496E697469616C697A65640A0D0050E7
:101B020072696E74696E6720523120526573706F0C
:101B12006E736520666F7220696E6974203D2000C5
:101B22000A0D696E697469616C697A6174696F6EB4
:101B320020726573706F6E7365203D20000A0D6D13
:101B4200656D6F7279206361706163697479203D9C
:101B520020002042797465730A0D002052315F54CF
:101B6200494D454F55542C0020504152414D45544A
:101B72004552204552524F522C0020414444524576
:101B82005353204552524F522C0020455241534547
:101B92002053455155454E4345204552524F520020
:101BA20020434F4D5F4352435F4552524F520020F4
:101BB200494C4C4547414C20434F4D4D414E44000A
:101BC2002045524153452052455345540020494E29
:101BD2002049444C4520535441544500204F55540C
:101BE200204F462049444C4500204641494C45443B
:101BF2005F474F5F49444C455F5354415445002071
:101C02004641494C45445F53454E445F49465F4314
:101C12004F4E440020554E535550504F5254454458
:101C22005F434152445F5459504500204641494C5C
:101C320045445F4352435F4F4E5F4F464600204646
:101C420041494C45445F4150505F434D440020465A
:101C520041494C45445F53445F53454E445F4F50A6
:101C62005F434F4E4400204F55545F4F465F4944F7
:101C72004C455F54494D454F555400204641494C0F
:101C820045445F524541445F4F43520020504F57F5
:101C920045525F55505F4E4F545F434F4D504C4538
:101CA200544500204641494C45445F5345545F42E8
:101CB2004C4F434B4C454E00204641494C45445FF6
:101CC20053454E445F4353440020494E49545F53A9
:101CD2005543434553530A0D000A0D3E3E204552DB
:101CE200524F523A20202053454E445F43534420E2
:101CF20028434D44392920696E2073645F676574F7
:101D02004D656D6F727943617061636974792829D9
:101D12002072657475726E6564206572726F7220CE
:101D2200696E20523120726573706F6E73652E007A
:101D32000A0D3E3E204552524F523A202020524533
:101D420041445F53494E474C455F424C4F434B2001
:101D520028434D4431372920696E2073645F5265F0
:101D6200616453696E676C6544617461426C6F6350
:101D72006B28292072657475726E656420657272B3
:101D82006F7220696E20523120726573706F6E73AC
:101D9200652E000A0A0D20424C4F434B204F464607
:101DA20053455409090909202020484558090909C1
:101DB2000909202020202041534349490A0D000AE5
:101DC2000D20202000307830000920000909000A87
:101DD2000D3E3E204552524F523A2020205245415C
:101DE200445F4D554C5449504C455F424C4F434B18
:101DF2002028434D4431382920696E2073645F5096
:101E020072696E744D756C7469706C65446174614D
:101E1200426C6F636B7328292072657475726E65EC
:101E220064206572726F7220696E20523120726571
:101E320073706F6E73652E000A0D3E3E204552523E
:101E42004F523A20202054696D656F75742077686F
:101E5200696C652077616974696E6720666F7220AC
:101E6200537461727420426C6F636B20546F6B65A4
:101E72006E20696E2073645F5072696E744D756C6A
:101E82007469706C6544617461426C6F636B732832
:101E9200292E000A0A0D0909090909424C4F434B30
:101EA2003A20000A0D536561726368696E672066A5
:101EB2006F72206E6F6E2D7A65726F20626C6F6327
:101EC2006B73206F7665722072616E6765200020E9
:101ED200746F20000A0D446F6E6520736561726332
:101EE20068696E67206E6F6E2D7A65726F20626C04
:101EF2006F636B732E000A0D3E3E204552524F52C5
:101F02003A20202057524954455F424C4F434B20C0
:101F120028434D4432342920696E2073645F57721E
:101F220069746553696E676C6544617461426C6F74
:101F3200636B28292072657475726E656420657200
:101F4200726F7220696E20523120726573706F6EEB
:101F520073652E000A0D3E3E204552524F523A20E2
:101F6200202054696D656F7574207768696C6520EF
:101F720077616974696E6720666F7220446174616B
:101F820020526573706F6E736520546F6B656E209F
:101F9200696E2073645F577269746553696E676C0A
:101FA2006544617461426C6F636B28292E20205254
:101FB200657475726E696E67207769746820494E20
:101FC20056414C49445F444154415F544F4B454E46
:101FD2000A0D000A0D3E3E2074696D656F7574200E
:101FE20077616974696E6720666F722063617264DB
:101FF20020746F206E6F7420626520627573792E73
:102002000A0D000A0D3E3E20446174612072656A29
:1020120065637465642044756520746F2043524380
:10202200204572726F720A0D4461746120526573A9
:10203200706F6E736520546F6B656E203D20006E6D
:102042000D000A0D3E3E20446174612072656A658E
:10205200637465642064756520746F206120577213
:10206200697465204572726F720A0D446174612051
:10207200526573706F6E736520546F6B656E203D91
:1020820020000A0D3E3E204552524F523A20202057
:1020920057524954455F424C4F434B2028434D44CD
:1020A20032342920696E2073645F57726974654DFA
:1020B200756C7469706C6544617461426C6F636BBA
:1020C2007328292072657475726E65642065727258
:1020D2006F7220696E20523120726573706F6E7359
:1020E200652E000A0D3E3E204552524F523A2020A4
:1020F2002054696D656F7574207768696C65207707
:10210200616974696E6720666F7220446174612030
:10211200526573706F6E736520546F6B656E2069C4
:102122006E2073645F57726974654D756C74697063
:102132006C6544617461426C6F636B7328292E2055
:102142002052657475726E696E67207769746820B3
:10215200494E56414C49445F444154415F544F4BB0
:10216200454E0A0D000A0D3E3E2052312052657343
:10217200706F6E73652072657475726E656420622D
:10218200792073645F577269746553696E67656C11
:1021920044617461426C6F636B28293A000A0D3EF8
:1021A2003E204461746120526573706F6E736520C6
:1021B2004572726F72733A000A0D205752495445A4
:1021C2005F4552524F52000A0D204352435F45521F
:1021D200524F52000A0D204441544120414343458D
:1021E20050544544000A0D20494E434F5252454334
:1021F2005420524553504F4E534520524554555248
:102202004E4544000A0D3E3E204552524F523A205E
:102212006572726F722072657475726E6564206980
:102222006E20523120726573706F6E736520746F09
:10223200204150505F434D4420696E2073645F4ECD
:10224200756D6265724F6657656C6C57726974740E
:10225200656E426C6F636B7328292E20526574750C
:10226200726E696E67207769746820696E76616C38
:1022720069642076616C7565000A0D3E3E20455208
:10228200524F523A206572726F7220726574757283
:102292006E656420696E20523120726573706F6EB4
:1022A200736520746F2053454E445F4E554D5F5702
:1022B200525F424C4F434B5320696E2073645F4E12
:1022C200756D6265724F6657656C6C57726974748E
:1022D200656E426C6F636B7328292E20526574758C
:1022E200726E696E67207769746820696E76616CB8
:1022F20069642076616C7565000A0D3E3E20455288
:10230200524F523A2074696D656F7574207768690F
:102312006C652077616974696E6720666F722073DD
:102322007461727420746F6B656E20696E207364C1
:102332005F4E756D6265724F6657656C6C57726958
:102342007474656E426C6F636B7328292E2052651C
:102352007475726E696E67207769746820696E762B
:10236200616C69642076616C7565000A0D3E3E20E1
:102372004552524F523A20202045524153455F5711
:10238200525F424C4F434B5F53544152545F41445E
:1023920044522028434D4433322920696E2073640D
:1023A2005F4572617365426C6F636B73282920729B
:1023B200657475726E6564206572726F7220696EE3
:1023C20020523120726573706F6E73652E000A0D94
:1023D2003E3E204552524F523A2020204552415310
:1023E200455F57525F424C4F434B5F454E445F41FE
:1023F2004444522028434D4433332920696E2073CC
:10240200645F4572617365426C6F636B7328292048
:1024120072657475726E6564206572726F7220697E
:102422006E20523120726573706F6E73652E000AD2
:102432000D3E3E204552524F523A202020455241F5
:1024420053452028434D4433382920696E20736454
:102452005F4572617365426C6F636B7328292072EA
:10246200657475726E6564206572726F7220696E32
:1024720020523120726573706F6E73652E000A0DE3
:102482003E3E204552524F523A2020202054696D40
:10249200656F7574207768696C6520776169746906
:1024A2006E6720666F72206361726420746F2065AC
:1024B2007869742074686520627573792073746119
:1024C200746520647572696E6720626C6F636B203D
:1024D200657261736520696E2073645F4572617312
:1024E20065426C6F636B737328292E205265747575
:1024F200726E696E672077697468206572726F7296
:102502002873292E0A0D000A0D0920202020455289
:10251200415345205355434345535346554C000AB6
:102522000D09202020204552524F5220455241533E
:102532004520535441525420414444524553530080
:102542000A0D09202020204552524F522045524167
:10255200534520454E442041444452455353000ABA
:102562000D09202020204552524F522045524153FE
:1025720045000A0D09202020204552524F52204288
:10258200555359000A0D0920202020494E56414C2E
:102592004944204552524F5220524553504F4E53B8
:0225A2004500F2
:00000001FF
