:100000000C9472000C9489000C9489000C94890063
:100010000C9489000C9489000C9489000C9489003C
:100020000C9489000C9489000C9489000C9489002C
:100030000C9489000C9489000C9489000C9489001C
:100040000C9489000C9489000C9489000C9489000C
:100050000C9489000C9489000C9489000C948900FC
:100060000C9489000C9489000C9489000C948900EC
:100070000C9489000C9489000C9489000C948900DC
:100080000C9489000C9489000C9489000C948900CC
:100090000C9489000C9489000C9489000C948900BC
:1000A0000C9489000C9489000C9489000C948900AC
:1000B0000C9489000C9489000C9489000C9489009C
:1000C0000C9489000C9489000C9489000C9489008C
:1000D0000C9489000C9489000C9489000C9489007C
:1000E0000C94890011241FBECFEFD1E2DEBFCDBF3B
:1000F00017E0A0E0B2E0E4E0FBE100E00BBF02C0EB
:1001000007900D92AE3CB107D9F70E94A90B0C9451
:10011000800D0C940000CF93DF9300D000D00F929D
:10012000CDB7DEB70E94B7098D8319821A821B8270
:100130001C828D818D3061F469817A818B819C81F3
:100140000F900F900F900F900F90DF91CF91089527
:10015000AAE0B0E029813A814B815C810E94240DA4
:100160002D812053DC01CB01820F911DA11DB11DFA
:1001700089839A83AB83BC838BE592E00E94930BC7
:1001800069817A818B819C810E94C5090E94B7098F
:100190008D8389819A81AB81BC810097A044B10590
:1001A00040F280E092E00E94930BBFCF87E084B9D9
:1001B00081E085B9E4E6F0E080818B7F808382E591
:1001C0008CBD8DB58E7F8DBD08958EBD0DB407FE9F
:1001D000FDCF08958EB508950C94E5008FEF0E9431
:1001E000E5000C94EA00CF93C0E00E94EE008F3F40
:1001F00011F0CF910895C150C1F780E8FACFCF93A5
:10020000C82F87FF04C08FEF93E00E94930BC6FFB7
:1002100004C08CE094E00E94930BC5FF04C08EE103
:1002200094E00E94930BC4FF04C08EE294E00E940D
:10023000930BC3FF04C084E494E00E94930BC2FFBD
:1002400004C083E594E00E94930BC1FF04C084E6E0
:1002500094E00E94930B81E794E0C0FD04C0C111BB
:1002600005C080E894E0CF910C94930BCF91089552
:10027000CF92DF92EF92FF926B017C01D0FE04C01F
:100280008DE894E00E94930BD1FE04C083EA94E0D1
:100290000E94930BD2FE04C088EB94E00E94930B63
:1002A000D3FE04C08FEC94E00E94930BD4FE04C0F4
:1002B00082EE94E00E94930BD5FE04C082EF94E09E
:1002C0000E94930BD6FE04C08AE095E00E94930B37
:1002D000D7FE04C08FE195E00E94930BE0FE04C0BE
:1002E00080E395E00E94930BE1FE04C087E495E073
:1002F0000E94930B8CE595E0E2FC06C0CD28CE2849
:10030000CF2841F48DE695E0FF90EF90DF90CF90FD
:100310000C94930BFF90EF90DF90CF9008952F9265
:100320003F924F925F926F927F928F929F92AF9285
:10033000BF92CF92DF92EF92FF920F931F93CF93D2
:10034000DF93CDB7DEB728970FB6F894DEBF0FBEA8
:10035000CDBFE22F3B834C835D836E83472E382EC7
:10036000292E88E2A82EB12C512C612C712C812CC5
:10037000912C89E889831A82C12CD12CE12CF12C93
:1003800010E0188680E88F83B0E0F0E02D2D2E235A
:100390003B813E214C814F215D8151236E818885B7
:1003A00068237F8174218B2F83219F2F9221A0E0CE
:1003B0000E94650D91F0E5258B8186258B838C81CC
:1003C00087258C838D8188258D838E8189258E83D9
:1003D000898148268A8138262C24252D362D472DC3
:1003E000582D692D79818A819C2D01E00E944A0D4A
:1003F000522E632E742E852E962E79838A83C92ED3
:100400002D2D3E2D4F2D512F68857F818B2F9F2FB6
:100410000E944A0DD22EE32EF42E152F68877F837B
:10042000B82FF92F81E0A81AB10809F0AFCF8E2FAD
:1004300028960FB6F894DEBF0FBECDBFDF91CF91E7
:100440001F910F91FF90EF90DF90CF90BF90AF90F2
:100450009F908F907F906F905F904F903F902F90E4
:1004600008956F927F928F929F92AF92BF92CF9298
:10047000DF92EF92FF920F931F93CF93DF934A0186
:100480005B01282F206430E040E050E060E070E045
:1004900080E090E008E20E942F0DC22F632E742EA0
:1004A000B52FA62FF72F182FD92F9401A50160E0A3
:1004B00070E080E090E008E00E942F0DC22B632ADC
:1004C000742AD52EDB2AE62EEA2AF72EFF2A182BCD
:1004D000D92B2C2F362D472D5D2DB701812F9D2F28
:1004E0000E948F01C82BC1608BE0882E912C8FEF6A
:1004F0000E94E50081E0881A9108C9F72C2F362D5B
:10050000472D5D2DB701812F9D2F08E20E944A0DD6
:10051000822F0E94E5002C2F362D472D5D2DB7012F
:10052000812F9D2F00E20E944A0D822F0E94E5003C
:100530002C2F362D472D5D2DB701812F9D2F08E1E2
:100540000E944A0D822F0E94E5002C2F362D472D48
:100550005D2DB701812F9D2F00E10E944A0D822F52
:100560000E94E5002C2F362D472D5D2DB701812FE0
:100570009D2F08E00E944A0D822F0E94E5008C2FDB
:10058000DF91CF911F910F91FF90EF90DF90CF906F
:10059000BF90AF909F908F907F906F900C94E500EC
:1005A000CF92DF92EF92FF920F931F93CF93DF933F
:1005B00000D000D00F92CDB7DEB72BE030E03A8309
:1005C00029838FEF0E94E50089819A8101979A83A0
:1005D0008983892BB1F7289840E050E0BA0180E088
:1005E0000E9431020E94F300289A8130A9F0682FFE
:1005F00070E07160072E000C880B990B0F900F9024
:100600000F900F900F90DF91CF911F910F91FF905E
:10061000EF90DF90CF9008958DE795E00E94930BC7
:1006200028984AEA51E060E070E088E00E943102D8
:100630000E94F30089830E94EE000E94EE000E9457
:10064000EE008D830E94EE00289A9981953009F47E
:10065000C3C09130B9F4AD81A13009F0C2C08A3A6B
:1006600009F0BFC0289840E050E0BA018BE30E9437
:1006700031020E94F300289A813049F0682F70E01F
:100680007860B8CFB9816B2F70E07260B3CFC12CA6
:10069000D12C7601289840E050E0BA0187E30E940F
:1006A00031020E94F300289A813021F0682F70E017
:1006B0007061A0CF289840E050E0BA0189E20E9422
:1006C00031020E94F3008D83289A823020F0682F37
:1006D00070E070628FCF84E895E00E94930B9D815B
:1006E000892F90E0B0E0A0E089839A83AB83BC833C
:1006F000BC01CD010E94C5098AE592E00E94930BDE
:10070000C701B6010E94C509AEEFCA16D104E104C3
:10071000F10441F4BD81BB2369F061E070E680E043
:1007200090E06CCF2FEFC21AD20AE20AF20A3D81A2
:100730003111B0CF289840E050E0BA018AE30E941E
:1007400031020E94F300882331F0682F70E0706856
:1007500090E080E053CF0E94EE008D8387FD06C0BD
:10076000289A60E070E081E090E048CF8D81082F0A
:1007700010E00E94EE0089830E94EE00282FC8013D
:1007800056E0959587955A95E1F7823031F0289A91
:1007900060E074E880E090E031CF05FB882780F9C5
:1007A00043E0159507954A95E1F70270082B9D8166
:1007B0009170902B61F7A9818A2F90E0880F991F83
:1007C000221F2227221F822B8F3F914001F7289A58
:1007D00060E070E0CB0112CF65E076E080E090E071
:1007E0000DCF61E076E080E090E008CFEF92FF92DD
:1007F0000F931F93CF93DF93362F272FBC01EA016E
:100800002898432F522F81E10E9431020E94F30069
:10081000882351F0289A90E09068DF91CF911F9142
:100820000F91FF90EF9008950E94EE001FEF8E3F12
:10083000D9F48E017E018EEFF81A0E94EE00F801C5
:1008400081938F01EE15FF05C1F70E94EE00F801BC
:1008500080830E94EE00CF5FDD4F88830E94EE0010
:10086000289A80E094E0D9CF0E94EE001150F9F66A
:10087000289A80E092E0D1CFAF92BF92CF92DF92E0
:10088000EF92FF920F931F93CF93DF9300D000D08E
:1008900000D0CDB7DEB76C018CE895E00E94930BD9
:1008A0001E821D8200E110E0F12CE12C88EB95E026
:1008B0000E94930B970150E040E029833A834B83D9
:1008C0005C838EEB95E03FEFE316F10419F010F036
:1008D00087EC93E00E94930B69817A818B819C81E4
:1008E0000E940B0B82EC95E00E94930BAD80BE80C2
:1008F000AC0CBD1CF12CE12C8D819E818E0D9F1DB9
:1009000080179107B0F185EC95E00E94930BED8084
:10091000FE80E016F10608F44CC08D819E817801BE
:10092000E81AF90A0817190710F4F12CE12CAD8127
:10093000BE81EA0EFB1E005F1F4F5096BE83AD8343
:100940000031B2E01B0709F0B1CF89E592E02696AD
:100950000FB6F894DEBF0FBECDBFDF91CF911F91D0
:100960000F91FF90EF90DF90CF90BF90AF900C94DD
:10097000930BC70183709927892B21F483EC95E0B1
:100980000E94930B83EC95E00E94930BD5018D910F
:100990005D01282F30E050E040E029833A834B830B
:1009A0005C83CA01B9010E940B0B3FEFE31AF30A03
:1009B000A3CFF601EE0DFF1D8081803238F480E276
:1009C0000E94BE094FEFE41AF40AA3CF87FFF8CFC5
:1009D0008EE2F6CF2F923F924F925F926F927F926C
:1009E0008F929F92AF92BF92CF92DF92EF92FF923F
:1009F0000F931F93CF93DF93CDB7DEB7C850D2408C
:100A00000FB6F894DEBF0FBECDBF6B017C0129018C
:100A10003A012898BC01A60182E10E9431020E949D
:100A2000F300182F88EC95E00E94930B812F0E9411
:100A3000FF00112309F48AC0289A812F90E0906862
:100A4000C85FDD4F0FB6F894DEBF0FBECDBFDF919C
:100A5000CF911F910F91FF90EF90DF90CF90BF90BB
:100A6000AF909F908F907F906F905F904F903F904E
:100A70002F9008950150110929F480E092E0E0CF11
:100A800001E015E00E94EE008E3FA1F78E010F5F9E
:100A90001F4FC95FDD4F0883C750D240C85FDD4F8D
:100AA0001883C850D2400E94EE00D8018D938D016A
:100AB000A215B305C1F70E94EE00F10180830E94E8
:100AC000EE00CE5FDD4F8883C250D24089ED95E0C5
:100AD0000E94930BD701C60129E0B695A79597957B
:100AE00087952A95D1F7CD5FDD4F88839983AA83B7
:100AF000BB83C350D240BC01CD010E94C509C95F70
:100B0000DD4F8881C750D240C85FDD4F9881C85003
:100B1000D2400E943C049FEF891A990AA90AB90A97
:100B2000A2E0DA0EE11CF11C481459046A047B04AB
:100B300009F0A6CF40E050E0BA018CE00E943102FB
:100B40000E94EE00289A80E094E07ACF812C912CCC
:100B500054011E01BFEF2B1ABDEF3B0AE5CF0F93E7
:100B60001F93CF93DF93362F272FBC018A0128983C
:100B7000432F522F88E10E9431020E94F300882304
:100B800041F0289A90E09068DF91CF911F910F91EA
:100B900008958EEF0E94EC00E8011E5F89910E948B
:100BA000EC00C017D107D1F78FEF0E94EC008FEF58
:100BB0000E94EC00C0E0D1E00E94EE00219721F4F9
:100BC000289A80E090E2E0CF982F9F71282F27711C
:100BD000253011F09B3081F7982F9570953081F476
:100BE000C1E0D2E00E94EE00882321F0289A80E044
:100BF00091E0CACF2197B1F7289A80E090E4C4CF62
:100C0000982F9B709B3021F4289A80E092E0BCCF13
:100C10008D708D3021F4289A80E094E0B5CF80E08B
:100C200098E0B2CF6F927F928F929F92AF92BF92D5
:100C3000CF92DF92EF92FF920F931F93CF93DF93A8
:100C4000F62FE72FBC0169017A01380128984F2F50
:100C50005E2F89E10E9431020E94F300882309F48B
:100C600066C0289AC82FD0E0D068CE01DF91CF911E
:100C70001F910F91FF90EF90DF90CF90BF90AF90BA
:100C80009F908F907F906F9008958CEF0E94EC0062
:100C9000E30189910E94EC000C171D07D1F78FEF3B
:100CA0000E94EC008FEF0E94EC00C1E0D1E00E94B6
:100CB000EE00219721F4289AC0E0D0E2D6CF982FF9
:100CC0009F71282F2771253011F09B3081F7982FC5
:100CD0009570953011F5C1E0D2E00E94EE008823B6
:100CE000B9F08FEF881A980AA80AB80AC814D9046C
:100CF000EA04FB0451F6C0E0D1E08DEF0E94EC0065
:100D000001E012E00E94EE008823C9F0289AADCFDE
:100D1000219719F7C0E0D0E4A8CF982F9B709B30A3
:100D200059F08D708D30E9F6C0E0D4E0E6CF812C2B
:100D3000912C54011E5FDACFC0E0D2E0DECF01502B
:100D4000110901F7289AE6CF1F93CF93DF93EC01A7
:100D5000289840E050E0BA0187E30E9431020E94E7
:100D6000F300882339F0289A90E09068DF91CF91C2
:100D70001F91089540E050E0BA0186E10E943102DF
:100D80000E94F300182F882341F0289AEDCF1150CC
:100D900021F4289A80E092E0E9CF0E94EE008E3F95
:100DA000B1F70E94EE0090E0B0E0A0E0BA2FA92FCA
:100DB000982F882788839983AA83BB830E94EE009B
:100DC000488159816A817B81482B762F652F542F6A
:100DD0004427488359836A837B830E94EE004881BD
:100DE00059816A817B81482B762F652F542F4427A8
:100DF000488359836A837B830E94EE00488159812E
:100E00006A817B81482B488359836A837B830E9454
:100E1000EE000E94EE00289A80E094E0A7CF0F93A6
:100E20001F93CF93DF93F62FE72FBC018901D42FB7
:100E3000C52F28984F2F5E2F80E20E9431020E941A
:100E4000F300289A882339F090E09168DF91CF91E0
:100E50001F910F9108952898A8016D2F7C2F81E292
:100E60000E9431020E94F300289A882319F090E032
:100E70009268ECCF289840E050E0BA0186E20E94E8
:100E800031020E94F300D0E0C0E0882349F0289AA4
:100E900090E09468DBCF219719F480E098E0D6CFFA
:100EA0000E94EE008823B9F3289A90E080E0CECF2C
:100EB0008827811528E0920739F170F4811522E026
:100EC0009207E1F0811524E09207D9F08115914055
:100ED00089F089E696E010C0811520E49207B9F008
:100EE000811520E89207B1F08115904291F78FE2C9
:100EF00096E002C089EE95E00C94930B8AEF95E0A2
:100F0000FBCF87E096E0F8CF86E196E0F5CF88E466
:100F100096E0F2CF8DE596E0EFCF8827811524E0AB
:100F2000920771F0811520E8920731F08115924007
:100F300051F489E996E002C08DE796E00C94930B9A
:100F400089E896E0FBCF89E696E0F8CF88278115FF
:100F500022E09207D1F040F4009781F08115914092
:100F600089F089E696E00CC0811524E0920781F0B3
:100F700081159840B1F78DE097E002C080EB96E0D4
:100F80000C94930B84EC96E0FBCF82EE96E0F8CFC6
:100F90008EEF96E0F5CFCF92DF92EF92FF920F9314
:100FA0001F93CF93DF93CDB7DEB729970FB6F89491
:100FB000DEBF0FBECDBF289840E050E0BA0189E007
:100FC0000E9431020E94F300882301F1289A83E2F3
:100FD00097E00E94930BC12CD12C7601C394C98257
:100FE000DA82EB82FC8269817A818B819C812996ED
:100FF0000FB6F894DEBF0FBECDBFDF91CF911F912A
:101000000F91FF90EF90DF90CF90089519820E948A
:10101000EE008295869586958370833079F4798188
:10102000715079837111F3CF289A81E090E0A0E0AC
:10103000B0E089839A83AB83BC83D5CF19820E94A9
:10104000EE0087FF07C09981915099839111F7CFE6
:10105000289AC1CF0E94EE001D820E94EE007D8181
:101060007F5F7983823341F08A3531F08D818F3F04
:1010700079F3D980DD82F1CFE12C0E94EE008B77ED
:1010800081F00E94EE00982F92959F70953009F0A4
:101090007BC08F70E82E87EF8E0D833028F619867F
:1010A00002C091E09987C980CC2009F4BDCF998115
:1010B0009F5F9983A985A13001F3DA2EAD8310E0FB
:1010C00000E00E94EE00982F937F61E011F18370A1
:1010D000082F10E0102F00270E94EE00082B000FB1
:1010E000111F000F111F0E94EE00829586958695B4
:1010F0008370082B0E94EE0089830E94EE00C98055
:10110000CC0C7C2D7670881F8827881F782B7D83D8
:10111000698581E0D81609F49BCFDA94613089F2B1
:10112000289A862F21E030E040E050E0E8122FC0FE
:1011300081E090E0A0E0B0E089839A83AB83BC8338
:10114000CD808C2D90E00196C980DA80EB80FC8008
:10115000CC0CDD1CEE1CFF1CC982DA82EB82FC8207
:101160006F5F6817190681F37CF3D80111960E940E
:10117000240D9B01AC01C701B6010E94DE0C6983FE
:101180007A838B839C832FCFA1E0A9878CCF220FFA
:10119000331F441F551F8F5FC9CFCF92DF92EF924D
:1011A000FF920F931F93CF93DF93CDB7DEB7CE504F
:1011B000D2400FB6F894DEBF0FBECDBFCD5FDD4F7E
:1011C0006883C350D240CC5FDD4F7883C450D24097
:1011D000CB5FDD4F8883C550D240CA5FDD4F988317
:1011E000C650D240C95FDD4F2883C750D240C85F88
:1011F000DD4F3883C850D240C75FDD4F4883C950A8
:10120000D240C65FDD4F5883CA50D2408AE797E08C
:101210000E94930BCD5FDD4F688179818A819B812C
:10122000C350D2400E94C50986EA97E00E94930B02
:10123000C95FDD4F688179818A819B81C750D24027
:101240000E94C50910E000E07E012FEFE21A2DEFA9
:10125000F20A35E0C32ED12CCD5FDD4F8881998114
:10126000AA81BB81C350D240C95FDD4F288139813B
:101270004A815B81C750D240281739074A075B076C
:10128000A0F48BEA97E00E94930BC25FDD4F0FB68C
:10129000F894DEBF0FBECDBFDF91CF911F910F91AC
:1012A000FF90EF90DF90CF900895AE014F5F5F4FBA
:1012B000CD5FDD4F88819981AA81BB81C350D24027
:1012C00029E0880F991FAA1FBB1F2A95D1F7C55F78
:1012D000DD4F88839983AA83BB83CB50D240BC0166
:1012E000CD010E94F603FE0131968191882379F1A8
:1012F000C801B6010E94EE0C892B21F48AE592E028
:101300000E94930B85EC95E00E94930BCD5FDD4F1F
:10131000688179818A819B81C350D2400E94C5092E
:101320000F5F1F4FCD5FDD4F288139814A815B817F
:10133000C350D2402F5F3F4F4F4F5F4FCD5FDD4FC8
:10134000288339834A835B83C350D24085CFEE150F
:10135000FF0559F6E7CF1092C50087E68093C400D9
:1013600088E18093C10086E08093C2000895809157
:10137000C00087FFFCCF8091C60008959091C00007
:1013800095FFFCCF8093C60008954F925F926F92B5
:101390007F928F929F92AF92BF92CF92DF92EF9205
:1013A000FF920F931F93CF93DF93CDB7DEB79B01CF
:1013B000AC018DB69EB66A30710581059105C0F10C
:1013C0006436710581059105A8F1283E83E0380750
:1013D0004105510588F1203197E239074105510552
:1013E00068F1203AE6E83E07E1E04E07510540F19A
:1013F0002034F2E43F07FFE04F07510518F1203891
:1014000086E9380788E948075105F0F0211591EE83
:10141000390795EF490795E05907C0F02115EAEC27
:101420003E07EAE94E07EBE35E0790F00AE011C0E1
:1014300001E00FC002E00DC003E00BC004E009C0F2
:1014400005E007C006E005C007E003C008E001C0F2
:1014500009E010E06801F1E0CF1AD1088DB79EB71E
:10146000801B910B0FB6F8949EBF0FBE8DBFEDB7DA
:10147000FEB731967F0160E36193CF018E199F091A
:1014800080179107CCF357018AE0482E512C612C2C
:10149000712CCA01B901A30192010E94020D605D85
:1014A000F50161935F01CF018E199F0980179107A4
:1014B00084F3F701EC0DFD1D80810E94BE09F1E06F
:1014C000CF1AD108B0F70FB6F8949EBE0FBE8DBEEE
:1014D000DF91CF911F910F91FF90EF90DF90CF9010
:1014E000BF90AF909F908F907F906F905F904F9044
:1014F0000895CF92DF92EF92FF920F931F93CF93B5
:10150000DF93CDB7DEB7CDB6DEB6603171058105AC
:10151000910530F16F3F71058105910519F110F1C9
:10152000611520E1720781059105F0F061157105E3
:1015300031E083079105D0F06115710520E1820744
:101540009105B0F061157105810531E0930790F0C8
:1015500061157105810520E1920770F020E20DC050
:1015600024E00BC028E009C02CE007C020E105C042
:1015700024E103C028E101C02CE1422F50E08A01A0
:10158000015011092DB73EB7241B350B0FB6F89447
:101590003EBF0FBE2DBF2F5F3F4F7901F901A0E382
:1015A000A1939F012E193F0924173507CCF3F701AA
:1015B000A1E3B0E3262F21709695879577956795DF
:1015C000211102C0B08301C0A08331969F012E1962
:1015D0003F092417350774F3F701E00FF11F8081ED
:1015E0000E94BE09C80183709927892B19F480E2F3
:1015F0000E94BE090150110978F70FB6F894DEBEBB
:101600000FBECDBEDF91CF911F910F91FF90EF9054
:10161000DF90CF900895CF92DF92EF92FF920F93D9
:101620001F93CF93DF93CDB7DEB7CDB6DEB66F3F56
:1016300071058105910509F100F1611520E172073D
:1016400081059105E0F06115710531E08307910591
:10165000C0F06115710520E182079105A0F06115C8
:101660007105810531E0930780F0611571058105F1
:1016700020E1920760F028E00BC022E009C023E0DF
:1016800007C024E005C025E003C026E001C027E034
:10169000422F50E07A0131E0E31AF1082DB73EB74E
:1016A000241B350B0FB6F8943EBF0FBE2DBF0DB7F0
:1016B0001EB70F5F1F4FF801A0E3A1939F01201BEE
:1016C000310B24173507CCF3F801262F2F7034E0A7
:1016D00096958795779567953A95D1F72A3010F4C6
:1016E000205D01C0295C208331969F01201B310BB6
:1016F0002417350754F3F801EE0DFF1D80810E9479
:10170000BE0931E0E31AF108B0F70FB6F894DEBE77
:101710000FBECDBEDF91CF911F910F91FF90EF9043
:10172000DF90CF9008950F931F93CF93DF93EC0139
:101730008C0107511C4F8991882331F0C017D107C4
:1017400019F00E94BE09F7CFDF91CF911F910F9141
:101750000895CDB7DEB7C650D2400FB6F894DEBFBD
:101760000FBECDBF0E94AB090E94D6000FEF10E064
:101770008AE592E00E94930B01501109C9F784E3B6
:1017800092E00E94930BC12CD12C76018DE592E062
:101790000E94930BC701B6010E94C5090E94D002A6
:1017A000CD5FDD4F6883C350D240CC5FDD4F78837F
:1017B000C450D240CB5FDD4F8883C550D240CA5F52
:1017C000DD4F9883C650D240CD5FDD4F888199812F
:1017D000AA81BB81C350D240892B8A2B8B2B09F461
:1017E000E8C081E892E00E94930BCD5FDD4F6881F5
:1017F00079818A819B81C350D2400E940B0BCD5FBF
:10180000DD4F688179818A819B81C350D2400E94DB
:1018100038019FEFC91AD90AE90AF90AAAE0CA16DB
:10182000D104E104F10409F0B1CF83ED92E00E940C
:10183000930BCD5FDD4F8881C350D2400E94FF00E3
:1018400086EF92E00E94930BCD5FDD4F6881798136
:101850008A819B81C350D2400E943801CD5FDD4F09
:1018600088819981AA81BB81C350D240892B8A2B60
:101870008B2B09F099C00E94CB077B018C0183E17F
:1018800093E00E94930BB701C8010E94C50988E24A
:1018900093E00E94930B24E630E040E050E060E0EB
:1018A00070E0CB010E94CD08AE014F5F5F4F60E05A
:1018B00070E0CB010E94F603CE0101960E943C0429
:1018C00081E393E00E94930B0E948B00CD5FDD4F7C
:1018D0006883C350D240CC5FDD4F7883C450D24080
:1018E000CB5FDD4F8883C550D240CA5FDD4F988300
:1018F000C650D24088E493E00E94930B0E948B0074
:101900007B018C0183E793E00E94930BB701C80130
:101910000E94C50988E893E00E94930BCD5FDD4FDC
:10192000688179818A819B81C350D2400E94C50918
:1019300086EA93E00E94930B0E94B709D82E0E947A
:10194000BE098AE592E00E94930B99E7D912B8CFBD
:10195000CD5FDD4F88819981AA81BB81C350D24080
:1019600029E0880F991FAA1FBB1F2A95D1F797015D
:10197000A801BC01CD010E94EA048C018FEB93E029
:101980000E94930BB0E0A0E0B801CD010E940B0BC8
:101990008AEC93E00E94930B0E94B709182F0E94D3
:1019A000BE09113709F08CCF0E94B7090E94BE0909
:1019B000FBCF8EEA92E00E94930B37CFDB018F932F
:1019C0009F930E94240DBF91AF91A29F800D911D06
:1019D000A39F900DB29F900D11240895AA1BBB1BCD
:1019E00051E107C0AA1FBB1FA617B70710F0A61B1F
:1019F000B70B881F991F5A95A9F780959095BC0140
:101A0000CD010895A1E21A2EAA1BBB1BFD010DC03A
:101A1000AA1FBB1FEE1FFF1FA217B307E407F5079E
:101A200020F0A21BB30BE40BF50B661F771F881F7A
:101A3000991F1A9469F760957095809590959B0110
:101A4000AC01BD01CF0108950E94710DA59F900DBD
:101A5000B49F900DA49F800D911D11240895002E18
:101A6000083090F0982F872F762F652F542F432F13
:101A7000322F22270850F4CF220F331F441F551F47
:101A8000661F771F881F991F0A95B2F7002D0895CA
:101A900097FD1094002E083098F00850232F342F13
:101AA000452F562F672F782F892F912DF4CF15941E
:101AB0009795879577956795579547953795279586
:101AC0000A95AAF71124002D08950024A7FD00947B
:101AD0002A17300540055005600570058005900502
:101AE0000895A29FB001B39FC001A39F700D811DF7
:101AF0001124911DB29F700D811D1124911D089517
:041B0000F894FFCF87
:101B0400736563746F722076616C756520697320E8
:101B1400746F6F206C617267652E0A0D456E746573
:101B2400722076616C7565203C2034313934333051
:101B3400340A0D000A0A0A0D202A2A2A2A2A2A20EF
:101B440020424547494E2054455354494E47202A84
:101B54002A2A2A2A2A2A2A2A0A0A0A0D000A0A0DE5
:101B64005344204361726420496E697469616C69ED
:101B74007A6174696F6E20417474656D70743A2073
:101B8400000A0A0D534420494E495449414C495ACC
:101B94004154494F4E204641494C4544207769748D
:101BA4006820526573706F6E7365203078000A0D7B
:101BB4005344204361726420537563636573736691
:101BC400756C6C7920496E697469616C697A6564B5
:101BD4000A0D000A0D5072696E74696E67205231E5
:101BE40020526573706F6E736520666F7220696E24
:101BF4006974203D20000A0D696E697469616C691D
:101C04007A6174696F6E20726573706F6E7365208C
:101C14003D20000A0D6D656D6F72792063617061FE
:101C240063697479203D20002042797465730A0D3C
:101C3400000A0D456E7465722053746172742053EA
:101C44006563746F720A0D000A0D686F77206D6109
:101C54006E7920736563746F727320646F20796F7B
:101C6400752077616E7420746F207072696E743F92
:101C74000A0D000A0D596F752077616E7420746F18
:101C8400207072696E74200020736563746F7273C0
:101C940020626567696E6E696E6720617420736582
:101CA40063746F7220000A0D69732074686973206D
:101CB400636F72726563743F2028792F6E29000A5E
:101CC4000D657272203D203078000A0D2070726517
:101CD40073732027712720746F20717569742061D4
:101CE4006E6420616E79206F74686572206B65790B
:101CF40020746F20676F20616761696E3A2000204D
:101D040052315F54494D454F55542C002050415297
:101D1400414D45544552204552524F522C002041CA
:101D2400444452455353204552524F522C002045AF
:101D3400524153452053455155454E434520455244
:101D4400524F520020434F4D5F4352435F4552521E
:101D54004F520020494C4C4547414C20434F4D4D78
:101D6400414E440020455241534520524553455469
:101D74000020494E2049444C4520535441544500C9
:101D8400204F5554204F462049444C45002046419D
:101D9400494C45445F474F5F49444C455F53544168
:101DA400544500204641494C45445F53454E445FE9
:101DB40049465F434F4E440020554E535550504FB3
:101DC400525445445F434152445F545950450020A6
:101DD4004641494C45445F4352435F4F4E5F4F4633
:101DE4004600204641494C45445F4150505F434DB5
:101DF4004400204641494C45445F53445F53454E9B
:101E0400445F4F505F434F4E4400204F55545F4F43
:101E1400465F49444C455F54494D454F5554002055
:101E24004641494C45445F524541445F4F4352004B
:101E340020504F5745525F55505F4E4F545F434FAC
:101E44004D504C45544500204641494C45445F5350
:101E540045545F424C4F434B4C454E00204641494C
:101E64004C45445F53454E445F4353440020494E20
:101E740049545F535543434553530A0D000A0D48D3
:101E8400455245000A0D5231203D20000A0A0D201A
:101E9400424C4F434B204F464653455409090909C8
:101EA400202020484558090909090920202020201C
:101EB40041534349490A0D000A0D2020200030787F
:101EC40030000920000909000A0D7072696E7469F6
:101ED4006E67205231203D20000A0A0D09090909C4
:101EE40009424C4F434B3A20000A0D2044415441CF
:101EF400204143434550544544000A0D2043524376
:101F04005F4552524F52000A0D2057524954455FC3
:101F14004552524F52000A0D20494E56414C4944F5
:101F24005F444154415F524553504F4E5345000A5C
:101F34000D20444154415F524553504F4E53455F29
:101F440054494D454F5554000A0D20434152445FB6
:101F5400425553595F54494D454F5554000A0D207D
:101F640052315F4552524F52000A0D20554E4B4E8E
:101F74004F574E20524553504F4E5345000A0D20A3
:101F84005231204552524F52000A0D2052454144CD
:101F94002053554343455353000A0D205354415293
:101FA4005420544F4B454E2054494D454F555400F1
:101FB4000A0D20455241534520535543434553533D
:101FC40046554C000A0D2053455420455241534573
:101FD4002053544152542041444452204552524FBC
:101FE40052000A0D20534554204552415345204583
:101FF4004E442041444452204552524F52000A0D4F
:10200400204552524F52204552415345000A0D205B
:1020140045524153455F425553595F54494D454FCD
:102024005554000A0D3E3E204552524F523A20204C
:102034002053454E445F4353442028434D4439299B
:1020440020696E2073645F6765744D656D6F727986
:1020540043617061636974792829207265747572AB
:102064006E6564206572726F7220696E2052312031
:10207400726573706F6E73652E000A0D536561721D
:102084006368696E6720666F72206E6F6E2D7A6565
:10209400726F20626C6F636B73206F76657220724F
:1020A400616E6765200020746F20000A0D446F6E16
:1020B4006520736561726368696E67206E6F6E2D4B
:0E20C4007A65726F20626C6F636B732E000082
:00000001FF
