:100000000C9472000C9489000C9489000C94890063
:100010000C9489000C9489000C9489000C9489003C
:100020000C9489000C9489000C9489000C9489002C
:100030000C9489000C9489000C9489000C9489001C
:100040000C9489000C9489000C9489000C9489000C
:100050000C9489000C9489000C9489000C948900FC
:100060000C9489000C9489000C9489000C948900EC
:100070000C9489000C9489000C9489000C948900DC
:100080000C9489000C9489000C9489000C948900CC
:100090000C9489000C9489000C9489000C948900BC
:1000A0000C9489000C9489000C9489000C948900AC
:1000B0000C9489000C9489000C9489000C9489009C
:1000C0000C9489000C9489000C9489000C9489008C
:1000D0000C9489000C9489000C9489000C9489007C
:1000E0000C94890011241FBECFEFD1E2DEBFCDBF3B
:1000F0001EE0A0E0B2E0E6ECFEE400E00BBF02C0D0
:1001000007900D92A639B107D9F70E948D220C9461
:1001100061270C940000CF93DF9300D000D00F92A2
:10012000CDB7DEB70E9402098D8319821A821B8225
:100130001C828D818D3061F469817A818B819C81F3
:100140000F900F900F900F900F90DF91CF91089527
:10015000AAE0B0E029813A814B815C810E94B726F8
:100160002D812053DC01CB01820F911DA11DB11DFA
:1001700089839A83AB83BC838DE895E00E94DE0A75
:1001800069817A818B819C810E9410090E940209F9
:100190008D8389819A81AB81BC810097A044B10590
:1001A00040F280E092E00E94DE0ABFCF87E084B98F
:1001B00081E085B9E4E6F0E080818B7F808382E591
:1001C0008CBD8DB58E7F8DBD08958EBD0DB407FE9F
:1001D000FDCF08958EB508950C94E5008FEF0E9431
:1001E000E5000C94EA00CF93C0E00E94EE008F3F40
:1001F00011F0CF910895C150C1F780E8FACFCF93A5
:10020000C82F87FF04C081ED93E00E94DE0AC6FF7D
:1002100004C08EED93E00E94DE0AC5FF04C080EFAB
:1002200093E00E94DE0AC4FF04C080E094E00E94D4
:10023000DE0AC3FF04C086E194E00E94DE0AC2FF2A
:1002400004C085E294E00E94DE0AC1FF04C086E398
:1002500094E00E94DE0A83E494E0C0FD04C0C11172
:1002600005C082E594E0CF910C94DE0ACF91089509
:10027000CF92DF92EF92FF926B017C01D0FE04C01F
:100280008FE594E00E94DE0AD1FE04C085E794E089
:100290000E94DE0AD2FE04C08AE894E00E94DE0AD0
:1002A000D3FE04C081EA94E00E94DE0AD4FE04C0BA
:1002B00084EB94E00E94DE0AD5FE04C084EC94E056
:1002C0000E94DE0AD6FE04C08CED94E00E94DE0A95
:1002D000D7FE04C081EF94E00E94DE0AE0FE04C075
:1002E00082E095E00E94DE0AE1FE04C089E195E02B
:1002F0000E94DE0A8EE295E0E2FC06C0CD28CE2800
:10030000CF2841F48FE395E0FF90EF90DF90CF90FE
:100310000C94DE0AFF90EF90DF90CF9008952F921B
:100320003F924F925F926F927F928F929F92AF9285
:10033000BF92CF92DF92EF92FF920F931F93CF93D2
:10034000DF93CDB7DEB728970FB6F894DEBF0FBEA8
:10035000CDBFE22F3B834C835D836E83472E382EC7
:10036000292E88E2A82EB12C512C612C712C812CC5
:10037000912C89E889831A82C12CD12CE12CF12C93
:1003800010E0188680E88F83B0E0F0E02D2D2E235A
:100390003B813E214C814F215D8151236E818885B7
:1003A00068237F8174218B2F83219F2F9221A0E0CE
:1003B0000E94F82691F0E5258B8186258B838C8120
:1003C00087258C838D8188258D838E8189258E83D9
:1003D000898148268A8138262C24252D362D472DC3
:1003E000582D692D79818A819C2D01E00E94DD269E
:1003F000522E632E742E852E962E79838A83C92ED3
:100400002D2D3E2D4F2D512F68857F818B2F9F2FB6
:100410000E94DD26D22EE32EF42E152F68877F83CF
:10042000B82FF92F81E0A81AB10809F0AFCF8E2FAD
:1004300028960FB6F894DEBF0FBECDBFDF91CF91E7
:100440001F910F91FF90EF90DF90CF90BF90AF90F2
:100450009F908F907F906F905F904F903F902F90E4
:1004600008957F928F929F92AF92BF92CF92DF9228
:10047000EF92FF920F931F93CF93DF934A015B019B
:10048000282F206430E040E050E060E070E080E041
:1004900090E008E20E94C226C22F732EB42FA52F2F
:1004A000F62FE72F182FD92F9401A50160E070E0F7
:1004B00080E090E008E00E94C226C22B732AC42E7E
:1004C000CB2AD52EDA2AE62EEF2AF72EFE2A182B73
:1004D000D92B2C2F372DA601B701812F9D2F0E94DC
:1004E0008F01C82BC1608FEF0E94E5008FEF0E9443
:1004F000E5008FEF0E94E5002C2F372DA601B701F4
:10050000812F9D2F08E20E94DD26822F0E94E500A8
:100510002C2F372DA601B701812F9D2F00E20E94BD
:10052000DD26822F0E94E5002C2F372DA601B70172
:10053000812F9D2F08E10E94DD26822F0E94E50079
:100540002C2F372DA601B701812F9D2F00E10E948E
:10055000DD26822F0E94E5002C2F372DA601B70142
:10056000812F9D2F08E00E94DD26822F0E94E5004A
:100570008C2FDF91CF911F910F91FF90EF90DF9023
:10058000CF90BF90AF909F908F907F900C94E5009C
:100590000F931F93CF93DF93CBE0D0E08FEF0E94B8
:1005A000E5002197D9F7289840E050E0BA0180E0B3
:1005B0000E9431020E94F300289A813061F0682F76
:1005C00070E07160072E000C880B990BDF91CF91C2
:1005D0001F910F91089528984AEA51E060E070E079
:1005E00088E00E9431020E94F300C82F0E94EE00B2
:1005F0000E94EE000E94EE00D82F0E94EE00289A82
:10060000C13021F06C2F70E07260DCCFD13009F086
:100610008AC08A3A09F087C0289840E050E0BA01C1
:100620008BE30E9431020E94F300289A813021F06E
:10063000682F70E07860C6CFC6E0289840E050E0B0
:10064000BA0187E30E9431020E94F300289A8130A8
:1006500021F0682F70E07061B5CF289840E050E03D
:10066000BA0189E20E9431020E94F300682F289AA1
:10067000823018F070E07062A5CFC15019F470E0BC
:100680007066A0CF8111D9CF289840E050E0BA0120
:100690008AE30E9431020E94F300882331F0682F20
:1006A00070E0706890E080E091CF0E94EE00D82F5B
:1006B00087FD06C0289A60E070E081E090E086CF78
:1006C000082F10E00E94EE00C82F0E94EE00282F95
:1006D000C80156E0959587955A95E1F7823031F03B
:1006E000289A60E074E880E090E070CFD5FB88271E
:1006F00080F943E0159507954A95E1F70270082BBC
:10070000D170D02B289A69F78C2F90E0880F991F11
:10071000221F2227221F822B8F3F914011F760E07A
:1007200070E0CB0153CF61E076E080E090E04ECF07
:10073000EF92FF920F931F93CF93DF93362F272FC4
:10074000BC01EA012898432F522F81E10E94310217
:100750000E94F300882351F0289A90E09160DF9185
:10076000CF911F910F91FF90EF9008950E94EE009E
:100770001FEF8E3FD9F48E017E018EEFF81A0E9492
:10078000EE00F80181938F01EE15FF05C1F70E947D
:10079000EE00F80180830E94EE00CF5FDD4F88837A
:1007A0000E94EE00289A80E094E0D9CF0E94EE00EB
:1007B0001150F9F6289A80E092E0D1CFAF92BF9223
:1007C000CF92DF92EF92FF920F931F93CF93DF931D
:1007D00000D000D000D0CDB7DEB76C018FE495E03B
:1007E0000E94DE0A1E821D8200E110E0F12CE12C45
:1007F0008BE795E00E94DE0A970150E040E02983F4
:100800003A834B835C8381E895E03FEFE316F10484
:1008100019F010F080E592E00E94DE0A69817A8189
:100820008B819C810E94560A85E895E00E94DE0A31
:10083000AD80BE80AC0CBD1CF12CE12C8D819E8165
:100840008E0D9F1D80179107B0F188E895E00E94FA
:10085000DE0AED80FE80E016F10608F44CC08D81C2
:100860009E817801E81AF90A0817190710F4F12C8B
:10087000E12CAD81BE81EA0EFB1E005F1F4F50963A
:10088000BE83AD830031B2E01B0709F0B1CF8BE826
:1008900095E026960FB6F894DEBF0FBECDBFDF9170
:1008A000CF911F910F91FF90EF90DF90CF90BF906D
:1008B000AF900C94DE0AC70183709927892B21F42D
:1008C00086E895E00E94DE0A86E895E00E94DE0A4E
:1008D000D5018D915D01282F30E050E040E0298363
:1008E0003A834B835C83CA01B9010E94560A3FEFE9
:1008F000E31AF30AA3CFF601EE0DFF1D80818032CB
:1009000038F480E20E9409094FEFE41AF40AA3CFF9
:1009100087FFF8CF8EE2F6CF4F925F926F927F9271
:100920008F929F92AF92BF92CF92DF92EF92FF92FF
:100930000F931F93CF93DF93CDB7DEB7C650D2404E
:100940000FB6F894DEBF0FBECDBF2B013C0179017D
:100950002898BC01A20182E10E9431020E94F300AA
:10096000182F811114C08701D12CC12C5E018FEF8B
:10097000A81A8DEFB80AC016D10651F540E050E034
:10098000BA018CE00E9431020E94EE0008C0289A51
:100990008FE895E00E94DE0A812F0E94FF00289ACE
:1009A000CA5FDD4F0FB6F894DEBF0FBECDBFDF913B
:1009B000CF911F910F91FF90EF90DF90CF90BF905C
:1009C000AF909F908F907F906F905F904F90089521
:1009D000E12C32E0F32E0E94EE008E3F41F091E0D8
:1009E000E91AF108C1F788EF95E00E94DE0ADE01FE
:1009F00011967D014D010E94EE00F70181937F0168
:100A0000AE16BF06C1F70E94EE00D5018C930E947E
:100A1000EE00CE5FDD4F8883C250D24083E596E082
:100A20000E94DE0AD301C20129E0B695A7959795E9
:100A300087952A95D1F7CD5FDD4F88839983AA8367
:100A4000BB83C350D240BC01CD010E941009C40138
:100A50000E94DE039FEFC91AD90AA2E05A0E611C58
:100A6000711C89CF8F929F92AF92BF92CF92DF92EB
:100A7000EF92FF920F931F93CF93DF93CDB7DEB723
:100A8000CA50D2400FB6F894DEBF0FBECDBFCD5FC7
:100A9000DD4F6883C350D240CC5FDD4F7883C450B4
:100AA000D240CB5FDD4F8883C550D240CA5FDD4F57
:100AB0009883C650D240C95FDD4F2883C750D240CB
:100AC000C85FDD4F3883C850D240C75FDD4F4883D1
:100AD000C950D240C65FDD4F5883CA50D24083E62A
:100AE00096E00E94DE0ACD5FDD4F688179818A81C0
:100AF0009B81C350D2400E9410098FE896E00E946B
:100B0000DE0AC95FDD4F688179818A819B81C75088
:100B1000D2400E94100910E000E0C95FDD4F8880DC
:100B20009980AA80BB80C750D2408FEF881A980A5C
:100B3000A80AB80A7E019FEFE91A9DEFF90A35E08D
:100B4000C32ED12CCD5FDD4F88819981AA81BB81D5
:100B5000C350D24088159905AA05BB05C0F084E9A9
:100B600096E00E94DE0AC65FDD4F0FB6F894DEBF46
:100B70000FBECDBFDF91CF911F910F91FF90EF90EE
:100B8000DF90CF90BF90AF909F908F900895AE016F
:100B90004F5F5F4FCD5FDD4F88819981AA81BB8117
:100BA000C350D24029E0880F991FAA1FBB1F2A9566
:100BB000D1F7C95FDD4F88839983AA83BB83C75070
:100BC000D240BC01CD010E949803FE013196819173
:100BD000882371F1C801B6010E948126892B21F476
:100BE0008CE895E00E94DE0A88E895E00E94DE0A23
:100BF000CD5FDD4F688179818A819B81C350D2406E
:100C00000E9410090F5F1F4FCD5FDD4F88819981D2
:100C1000AA81BB81C350D2400196A11DB11DCD5FF9
:100C2000DD4F88839983AA83BB83C350D2408ACF88
:100C3000EE15FF0561F6E8CF0F931F93CF93DF9377
:100C400000D000D0CDB7DEB7362F272FBC018A01E8
:100C50002898432F522F88E10E9431020E94F3000E
:100C600089838823A9F0289A86EB96E00E94DE0A01
:100C700089810E94FF002981822F90E09F600F9060
:100C80000F900F900F90DF91CF911F910F910895CA
:100C90008EEF0E94EC0009831A8309811A811E5F7E
:100CA000A981BA818D91BA83A9830E94EC00E98160
:100CB000FA81E017F107A1F78FEF0E94EC008FEFA8
:100CC0000E94EC0001E011E00E94EE0089830150D7
:100CD000110941F4289A84E197E00E94DE0A80E03D
:100CE0009FE0CDCF89818F7199819771953011F0F7
:100CF0008B3051F7898185708530B9F4A2E0B2E07C
:100D0000BA83A9830E94EE0081110BC089819A8168
:100D100001979A838983892BA9F783E997E00E9439
:100D2000DE0A289A80E092E0AACF89818B708B300E
:100D3000A9F4289A83EC97E00E94DE0A9981892F12
:100D400090E0B0E0A0E0BC01CD010E94560A8FEF18
:100D500097E00E94DE0A80E095E091CF89818D7056
:100D60008D3009F0BCCF289A82E098E00E94DE0A1C
:100D70009981892F90E0B0E0A0E0BC01CD010E94F4
:100D8000560A8FEF97E00E94DE0A80E096E077CF68
:100D90008F929F92AF92BF92CF92DF92EF92FF928B
:100DA0000F931F93CF93DF9300D000D0CDB7DEB762
:100DB000E62F572FBC01042F790128984E2F89E187
:100DC0000E9431020E94F3008983882309F4CAC07B
:100DD000289A82E498E00E94DE0A89810E94FF003E
:100DE0009981892F90E09F609A83898389819A8174
:100DF0000F900F900F900F90DF91CF911F910F9157
:100E0000FF90EF90DF90CF90BF90AF909F908F902A
:100E1000089589818F7199819771953011F08B3088
:100E200091F589818570853009F04EC082E092E0AD
:100E30009A8389830E94EE008823A9F1A0E0B2E0A2
:100E4000BA83A983FFEFCF1ADF0AC016D1060CF0D0
:100E500058C08CEF0E94EC00FA82E982A981BA8125
:100E60008D91BA83A9830E94EC00E981FA81EA1589
:100E7000FB05A1F78FEF0E94EC008FEF0E94EC00C2
:100E800088248394982C0E94EE008983F1E08F1AC5
:100E9000910809F0BECF289A83EA98E00E94DE0A02
:100EA00080E09FE0A1CFA981BA811197BA83A9837D
:100EB000AB2B09F0BFCF83E997E00E94DE0AE0E0A8
:100EC000F2E0FA83E983BECF89818B708B3059F5CC
:100ED00083EC97E00E94DE0A9981892F90E0B0E0D0
:100EE000A0E089839A83AB83BC83BC01CD010E94BF
:100EF000560A8FEF97E00E94DE0AA0E0B5E0BA83C1
:100F0000A9838DEF0E94EC0002E012E00E94EE0047
:100F1000811107C001501109C9F783E997E00E94C8
:100F2000DE0A289A63CF89818D708D30C1F482E00A
:100F300098E00E94DE0A9981892F90E0B0E0A0E05D
:100F400089839A83AB83BC83BC01CD010E94560A7E
:100F50008FEF97E00E94DE0AA0E0B6E0D0CFE0E09D
:100F6000FFE0AFCFD12CC12C80E09FE09A83898332
:100F700010E057019EEFB91A68CFCF93DF93EC01D1
:100F800085E299E00E94DE0A8C2F0E94FF008DE529
:100F900099E00E94DE0ACC27D770C11585E0D807FA
:100FA00081F0C11586E0D80731F0C115D24061F457
:100FB00084E999E002C088E799E0DF91CF910C9431
:100FC000DE0A87E899E0F9CF85EA99E0F6CFCF927B
:100FD000DF92EF92FF92CF93DF9300D000D0CDB796
:100FE000DEB7289840E050E0BA0187E30E94310262
:100FF0000E94F300F82E84EC99E0F1100DC040E05F
:1010000050E0BA0186E10E9431020E94F300F82EFE
:10101000882339F189E39AE00E94DE0A8F2D0E942D
:10102000FF0019821A821B821C8269817A818B815E
:101030009C810F900F900F900F90DF91CF91FF90B8
:10104000EF90DF90CF90089529813A8121503109A6
:101050003A832983232B49F489EB9AE00E94DE0A24
:10106000E0CF40E051E05A8349830E94EE008E3F7A
:1010700059F70E94EE0090E0B0E0A0E0CC24D82E1A
:10108000E92EFA2E0E94EE00C82AFE2CED2CDC2C54
:10109000CC240E94EE00C82AFE2CED2CDC2CCC24A3
:1010A0000E94EE00A7019601282B29833A834B83E7
:1010B0005C830E94EE000E94EE00289AB6CFFF9259
:1010C0000F931F93CF93DF93F62FE72FBC01F22EE0
:1010D000032F142FD52F28984F2F5E2F80E20E94C8
:1010E00031020E94F300C82F289A882381F08BE2F6
:1010F0009BE00E94DE0A8C2F0E94FF008C2F90E064
:101100009160DF91CF911F910F91FF9008952898E2
:101110004F2D502F612F7D2F81E20E9431020E94BE
:10112000F300C82F289A882359F08EE89BE00E948C
:10113000DE0A8C2F0E94FF008C2F90E09260E1CF9E
:10114000289840E050E0BA0186E20E9431020E94F5
:10115000F300C82F8823A9F0289A8FEE9BE00E9405
:10116000DE0A8C2F0E94FF008C2F90E09460C9CF84
:10117000219749F48EE39CE00E94DE0A80E098E02B
:10118000C0CFD0E0C0E00E94EE00882389F3289A07
:1011900090E080E0B6CFCF93DF93EC010E94FF0098
:1011A000CC27C11582E0D807D9F050F487EC9CE039
:1011B000209791F0C115D14069F084E49DE00CC006
:1011C000C11584E0D80779F0C115D840B1F782E3A2
:1011D0009DE002C08FED9CE0DF91CF910C94DE0A80
:1011E00080E09DE0F9CF8FE19DE0F6CF1092C50041
:1011F00087E68093C40088E18093C10086E08093F5
:10120000C20008958091C00087FFFCCF8091C60086
:1012100008959091C00095FFFCCF8093C60008957B
:101220004F925F926F927F928F929F92AF92BF92F6
:10123000CF92DF92EF92FF920F931F93CF93DF93A2
:10124000CDB7DEB79B01AC018DB69EB66A30710595
:1012500081059105C0F16436710581059105A8F1FC
:10126000283E83E038074105510588F1203197E297
:1012700039074105510568F1203AE6E83E07E1E00B
:101280004E07510540F12034F2E43F07FFE04F07DD
:10129000510518F1203886E9380788E948075105D3
:1012A000F0F0211591EE390795EF490795E05907C0
:1012B000C0F02115EAEC3E07EAE94E07EBE35E07D2
:1012C00090F00AE011C001E00FC002E00DC003E0A1
:1012D0000BC004E009C005E007C006E005C007E058
:1012E00003C008E001C009E010E06801F1E0CF1A96
:1012F000D1088DB79EB7801B910B0FB6F8949EBF97
:101300000FBE8DBFEDB7FEB731967F0160E36193ED
:10131000CF018E199F0980179107CCF357018AE0FE
:10132000482E512C612C712CCA01B901A3019201E4
:101330000E949526605DF50161935F01CF018E19D2
:101340009F098017910784F3F701EC0DFD1D808143
:101350000E940909F1E0CF1AD108B0F70FB6F8944E
:101360009EBE0FBE8DBEDF91CF911F910F91FF905A
:10137000EF90DF90CF90BF90AF909F908F907F9035
:101380006F905F904F900895CF92DF92EF92FF920F
:101390000F931F93CF93DF93CDB7DEB7CDB6DEB6F5
:1013A000603171058105910530F16F3F710581054F
:1013B000910519F110F1611520E172078105910580
:1013C000F0F06115710531E083079105D0F06115EA
:1013D000710520E182079105B0F061157105810565
:1013E00031E0930790F061157105810520E19207C6
:1013F00070F020E20DC024E00BC028E009C02CE012
:1014000007C020E105C024E103C028E101C02CE1B0
:10141000422F50E08A01015011092DB73EB7241B1D
:10142000350B0FB6F8943EBF0FBE2DBF2F5F3F4F59
:101430007901F901A0E3A1939F012E193F09241717
:101440003507CCF3F701A1E3B0E3262F2170969581
:10145000879577956795211102C0B08301C0A0835D
:1014600031969F012E193F092417350774F3F701B0
:10147000E00FF11F80810E940909C801837099273C
:10148000892B19F480E20E9409090150110978F7AB
:101490000FB6F894DEBE0FBECDBEDF91CF911F9187
:1014A0000F91FF90EF90DF90CF900895CF92DF9251
:1014B000EF92FF920F931F93CF93DF93CDB7DEB7D9
:1014C000CDB6DEB66F3F71058105910509F100F1DA
:1014D000611520E1720781059105E0F06115710544
:1014E00031E083079105C0F06115710520E18207A5
:1014F0009105A0F061157105810531E0930780F039
:1015000061157105810520E1920760F028E00BC0AC
:1015100022E009C023E007C024E005C025E003C0A5
:1015200026E001C027E0422F50E07A0131E0E31AC3
:10153000F1082DB73EB7241B350B0FB6F8943EBF0C
:101540000FBE2DBF0DB71EB70F5F1F4FF801A0E3F1
:10155000A1939F01201B310B24173507CCF3F80111
:10156000262F2F7034E096958795779567953A9555
:10157000D1F72A3010F4205D01C0295C2083319618
:101580009F01201B310B2417350754F3F801EE0D92
:10159000FF1D80810E94090931E0E31AF108B0F7CC
:1015A0000FB6F894DEBE0FBECDBEDF91CF911F9176
:1015B0000F91FF90EF90DF90CF9008950F931F93BE
:1015C000CF93DF93EC018C0107511C4F8991882345
:1015D00031F0C017D10719F00E940909F7CFDF9148
:1015E000CF911F910F910895883031F178F48230B6
:1015F00001F138F4882399F08130C1F086EE9DE046
:1016000010C08430D9F783E99DE00BC0803259F0D7
:101610008034A9F0803191F788ED9DE002C082E628
:101620009DE00C94DE0A8CE69DE0FBCF8FE79DE009
:10163000F8CF84EA9DE0F5CF87EB9DE0F2CF87EC11
:101640009DE0EFCFCF93DF93CDB7DEB7D2500FB68B
:10165000F894DEBF0FBECDBFAE014F5F5F4F60E0BD
:1016600070E0CB010E946422C150DE4F8881CF5FC1
:10167000D1408535B1F4C050DE4F8881C050D24092
:101680008A3A79F48C859D85811522E0920749F488
:10169000DE5F0FB6F894DEBF0FBECDBFDF91CF91F6
:1016A000089580E890E0F4CFCF93DF93CDB7DEB715
:1016B000D2500FB6F894DEBF0FBECDBFAE014F5F64
:1016C0005F4F60E070E0CB010E946422C150DE4FAA
:1016D0008881CF5FD1408535B1F4C050DE4F88811D
:1016E000C050D2408A3A79F48C859D85811592400C
:1016F00051F48E85DE5F0FB6F894DEBF0FBECDBF0E
:10170000DF91CF91089580E8F5CFCF93DF93CDB7E8
:10171000DEB7D2500FB6F894DEBF0FBECDBFAE011C
:101720004F5F5F4F60E070E0CB010E946422C150C8
:10173000DE4F8881CF5FD140853591F4C050DE4FB8
:101740008881C050D2408A3A59F48F859889DE5FEB
:101750000FB6F894DEBF0FBECDBFDF91CF910895D5
:1017600080E890E0F4CFCF93DF93CDB7DEB7D250CF
:101770000FB6F894DEBF0FBECDBFAE014F5F5F4F17
:1017800060E070E0CB010E946422C150DE4F88818E
:10179000CF5FD140853589F4C050DE4F8881C0507D
:1017A000D2408A3A51F48989DE5F0FB6F894DEBFE1
:1017B0000FBECDBFDF91CF91089580E8F5CFCF93D5
:1017C000DF93CDB7DEB7C450D2400FB6F894DEBF7A
:1017D0000FBECDBFAE014F5F5F4F60E070E0CB0149
:1017E0000E946422C150DE4F8881CF5FD140853591
:1017F00099F5C050DE4F8881C050D2408A3AC9F571
:101800008FA198A5B0E0A0E0BA2FA92F982F882724
:101810002EA1822BBA2FA92F982F88272DA1AC019A
:10182000BD01422BCF5FDD4F488359836A837B83A1
:10183000C150D240CF5FDD4F688179818A819B8121
:10184000C150D240CC5FDD4F0FB6F894DEBF0FBE63
:10185000CDBFDF91CF91089560E870E080E090E027
:10186000CF5FDD4F688379838A839B83C150D240E9
:10187000E1CF80E890E0A0E0B0E0CF5FDD4F88836B
:101880009983AA83BB83C150D240D4CFCF93DF9337
:10189000CDB7DEB7C450D2400FB6F894DEBF0FBE4E
:1018A000CDBFAE014F5F5F4F60E070E0CB010E94A3
:1018B0006422C150DE4F8881CF5FD140853599F5D4
:1018C000C050DE4F8881C050D2408A3AC9F58FA5FA
:1018D00098A9B0E0A0E0BA2FA92F982F88272EA5AD
:1018E000822BBA2FA92F982F88272DA5AC01BD01D7
:1018F000422BCF5FDD4F488359836A837B83C1507E
:10190000D240CF5FDD4F688179818A819B81C15050
:10191000D240CC5FDD4F0FB6F894DEBF0FBECDBF17
:10192000DF91CF91089560E870E080E090E0CF5FB4
:10193000DD4F688379838A839B83C150D240E1CF96
:1019400080E890E0A0E0B0E0CF5FDD4F888399832E
:10195000AA83BB83C150D240D4CF8F929F92AF92C3
:10196000BF92CF92DF92EF92FF920F931F93CF938C
:10197000DF9300D000D000D0CDB7DEB77B018C0163
:101980002DB73EB73E832D830E94850B4C010E94EC
:10199000220B5C019C01369527953695279550E0E2
:1019A00040E0B701C8010E9495266B017C0192E0DE
:1019B000CC0CDD1CEE1CFF1C9A95D1F76DB77EB7E1
:1019C0006A197B090FB6F8947EBF0FBE6DBF0DB7C5
:1019D0001EB70F5F1F4F280D391D411D511DD50129
:1019E0000E94B72669837A838B839C83A8010E9417
:1019F0006422D701C6010396A11DB11D800F911F5E
:101A0000FC01808190E0B0E0A0E0BA2FA92F982FD0
:101A10008827B701A6014E5F5F4F6F4F7F4F400F82
:101A2000511FFA012081822BBA2FA92F982F8827C6
:101A3000B701A6014F5F5F4F6F4F7F4F400F511FA0
:101A4000FA012081822BBA2FA92F982F8827C00E48
:101A5000D11EF6012081AC01BD01422B49835A837E
:101A60006B837C83CD01BA01ED81FE810FB6F894C2
:101A7000FEBF0FBEEDBF26960FB6F894DEBF0FBEB9
:101A8000CDBFDF91CF911F910F91FF90EF90DF902D
:101A9000CF90BF90AF909F908F9008952F923F92DC
:101AA0004F925F926F927F928F929F92AF92BF926E
:101AB000CF92DF92EF92FF920F931F93CF93DF931A
:101AC000CDB7DEB7C35CD1090FB6F894DEBF0FBE49
:101AD000CDBF1C014B012DB73EB7C654DF4F398334
:101AE0002883CA5BD040FB0101900020E9F73197C1
:101AF0008F01061B170BCA55DF4F0883C65AD0400B
:101B0000DB018C918F7D962FFB01F1F4B2E0C4577D
:101B1000DF4FB883CC58D040EDC281918C3521F194
:101B20008F3209F426C78A3309F42AC7282F277F62
:101B3000223209F42CC7282F2F7B2C3309F42EC70F
:101B40008E53823008F431C78E2F891BCA55DF4F60
:101B5000B881C65AD0408B1700F3CA55DF4FB88101
:101B6000C65AD040B11107C0E2E0C457DF4FE88346
:101B7000CC58D040BFC20E94220B2C010E94540BB3
:101B8000CB54DF4F8883C55BD0406101E7EFCE1AAD
:101B9000ECEFDE0AD6012D913D914D915C91CC5632
:101BA000DF4F288339834A835B83C459D0400E9426
:101BB000850B7C010E94B30BC457DF4F8883CC5840
:101BC000D0400E94DF0BC057DF4F6883C059D04020
:101BD000C856DF4F7883C859D0405C01EDB7FEB7D7
:101BE000C854DF4FF983E883C85BD0402DB73EB7B8
:101BF000241935090FB6F8943EBF0FBE2DBF4DB75F
:101C00005EB74F5F5F4F3A018DB79EB78419950954
:101C10000FB6F8949EBF0FBE8DBFADB7BEB711967D
:101C2000C056DF4FB983A883C05AD04061E576E043
:101C3000C4010E943227892B31F4C457DF4F188228
:101C4000CC58D0404CC2C457DF4FF881CC58D0405C
:101C5000AF2FB0E0C057DF4F2881C059D040C856E1
:101C6000DF4F3881C859D040A5010E94B7269B019B
:101C7000AC012E0D3F1D411D511DC856DF4F28835D
:101C800039834A835B83C859D04066EF7DE0C40145
:101C90000E943227CB54DF4F3881C55BD040232FC1
:101CA00030E050E040E0CE55DF4F288339834A834F
:101CB0005B83C25AD040892B09F0D9C0CC56DF4F84
:101CC000288139814A815B81C459D0402250310931
:101CD00041095109CE55DF4F688179818A819B8105
:101CE000C25AD0400E9471269B01AC01C856DF4FFA
:101CF00088819981AA81BB81C859D040280F391F9A
:101D00004A1F5B1FD2010E94B726C457DF4F68836A
:101D100079838A839B83CC58D040A3010E9464229C
:101D2000D301D496ED90FC90D597DB960C91DB9780
:101D3000DA961C91F60180809180A280B3800E9487
:101D4000460CC457DF4F688379838A839B83CC58C2
:101D5000D04086169706A806B90609F46ECFC701CB
:101D6000B0E0A0E0BA2FA92F982F8827802BBA2F98
:101D7000A92F982F8827812B810113954101FEEF10
:101D80009F1A710127EFE21A2DEFF20A0097A105C1
:101D9000B105E9F469EF7DE0C4010E943B276AE5E3
:101DA00072E0C7010E943B2769EF7DE0C1010E94FC
:101DB0003B276AE572E0C8010E943B270E94460C5F
:101DC000D6016D937D938D939C93139736CFF60137
:101DD00080839183A283B383F70101900020E9F708
:101DE0003197AF014E195F095E01F1E4AF0EB11CEE
:101DF000B701C5010E944227F80101900020E9F7D0
:101E00003197AF01401B510BB8019E012F5F3F4F2F
:101E10006901C9010E9442276FE270E0C5010E947A
:101E200056273C016FE270E0C6010E9456272C0144
:101E3000B3016F5F7F4FC4010E943B27B2016F5F08
:101E40007F4FC1010E943B27A3014E5F5F4F4A199C
:101E50005B09B501C7010E944227A2014E5F5F4F97
:101E60004C195D09B601C8010E944227E6CEE12C5B
:101E7000C457DF4F1882CC58D040F12CC057DF4FE9
:101E800019821882C059D040B12CA12CC201B0E0F7
:101E9000A0E0C155DF4F88839983AA83BB83CF5AC3
:101EA000D040D801BB27CA54DF4FB983A883C65B93
:101EB000D040F3017F97C054DF4FF983E883C05CC3
:101EC000D0409E012F5B3F4FC657DF4F3983288399
:101ED000CA58D040CC56DF4F288139814A815B8176
:101EE000C459D0402250310941095109CE55DF4F24
:101EF000688179818A819B81C25AD0400E94712673
:101F0000C456DF4F688379838A839B83CC59D04042
:101F10009B01AC01C856DF4F88819981AA81BB81A2
:101F2000C859D040280F391F4A1F5B1FDA01C90169
:101F30000196A11DB11DC955DF4F88839983AA83DE
:101F4000BB83C75AD040C155DF4F688179818A81F0
:101F50009B81CF5AD0400E947126C555DF4F6883C0
:101F600079838A839B83CB5AD040C456DF4F198232
:101F70001882CC59D040D3015297CE53DF4FB9834A
:101F8000A883C25CD040CB54DF4FB881C55BD04042
:101F9000AB2FB0E0CD54DF4FB983A883C35BD040F3
:101FA000C456DF4FE881F981CC59D040EA17FB07CE
:101FB0006CF1CC56DF4F688179818A819B81C4594D
:101FC000D0400E94AD0CCC56DF4F6883C459D0403E
:101FD000CB56DF4F7883C559D040CA56DF4F888330
:101FE000C659D040C956DF4F9883C759D040CC5608
:101FF000DF4F288139814A815B81C459D0402F3F0E
:102000003F4F4F4F5F4009F065CF63C0A301C555F7
:10201000DF4F688179818A819B81CB5AD0400E94B1
:102020006422D12CC12CC056DF4FE881F981C05AFF
:10203000D0407F97C454DF4FF983E883CC5BD04016
:10204000C056DF4F28813981C05AD0402251310912
:10205000C254DF4F39832883CE5BD040FF2079F113
:1020600030EEA31631E0B30638F0CD2809F03EC4B7
:1020700070EEA72EBB24BA94C457DF4F4881CC58CA
:10208000D0404E29C457DF4F4883CC58D04044231A
:1020900009F45AC0C057DF4FC880D980C059D0401A
:1020A00050E2C50ED11CE12CC457DF4F1882CC582A
:1020B000D040C057DF4F19821882C059D0408301E9
:1020C0000C0D1D1DD8018C91853E09F450C4811161
:1020D00043C0B0E2C457DF4FB883CC58D040C85497
:1020E000DF4FA881B981C85BD0400FB6F894BEBF5E
:1020F0000FBEADBFC457DF4F8881CC58D040C65407
:10210000DF4FA881B981CA5BD0400FB6F894BEBF3B
:102110000FBEADBFCD53DF4F0FB6F894DEBF0FBE7D
:10212000CDBFDF91CF911F910F91FF90EF90DF9086
:10213000CF90BF90AF909F908F907F906F905F9067
:102140004F903F902F900895650180E2C80ED11CFA
:10215000E12CB12CA12CB3CFF8019385292F2F703E
:102160002F3009F031C386FD07C0F0E4C457DF4FBC
:10217000F883CC58D040B3CFFE0131961192C657A8
:10218000DF4F28813981CA58D040E217F307B1F7F1
:102190008F7330E2839F50011124AC0CBD1CA4143A
:1021A000B50408F476C24A145B0408F4FDC04A146E
:1021B0005B04D9F6EE24E394C457DF4F1882CC5861
:1021C000D040CD54DF4F88819981C35BD0400197C7
:1021D000C456DF4FA881B981CC59D040A817B907A0
:1021E0000CF4EAC0CC56DF4F688179818A819B81EB
:1021F000C459D0400E94AD0C9B01AC012250310962
:1022000041095109CE55DF4F688179818A819B81CF
:10221000C25AD0400E9471269B01AC01C856DF4FC4
:1022200088819981AA81BB81C859D040280F391F64
:102230004A1F5B1FC155DF4F688179818A819B816D
:10224000CF5AD0400E947126C057DF4F68837983F0
:102250008A839B83C059D040C056DF4F4881598143
:10226000C05AD0400E946422D501A419B509C057B4
:10227000DF4FB983A883C059D040C056DF4F0881D3
:102280001981C05AD0400A0F1B1FF80183858F3077
:1022900009F46BCFC457DF4FF881CC58D040F130F0
:1022A00009F02FC1E11061CFF801B09780818F70E4
:1022B000F82E21E0821359CFCD0160E09C0120521D
:1022C000310937FF82C0930122513E4F80E092E0F6
:1022D000AC01405251094C155D050CF0CCC0BE015B
:1022E0006F5F7F4FC4010E943227892B09F0F0C233
:1022F000D80155968C9190E0B0E0A0E0BA2FA92FBC
:10230000982F8827F8012489822BBA2FA92F982F7C
:102310008827238D822BBA2FA92F982F8827A101D8
:10232000475F5C4F228D822BFA0180839183A283C9
:10233000B383D801FE01EF5BFF4FCF0108967F0109
:102340002D912193E817F907D9F7D70118961C9218
:102350005101B394B101C5010E94272781011E5F7D
:102360006101E7EFCE1AEDEFDE0AB801C6010E9467
:102370002727D1018C918F3229F069EF7DE0C501CB
:102380000E942727B401C1010E943B27F8018081E8
:102390008F3229F069EF7DE0C6010E942727B7013F
:1023A000C8010E943B2749CCE12C41E0C457DF4FD4
:1023B0004883CC58D04005CFC955DF4F288139819B
:1023C0004A815B81C75AD04035CFC454DF4FE88182
:1023D000F981CC5BD040E80FF91F2BE030E02150B1
:1023E0003109A9F4C254DF4FE881F981CE5BD040B6
:1023F000E80FF91F2DE030E021503109B1F49C01C4
:102400002450310928173907F1F4809757CF4191AB
:102410005FEF540F5E3718F7A1E0B0E0AC0FBD1FBF
:10242000A60FB11D4C936F5FDACF41915FEF540F50
:102430005E3710F7A1E0B0E0AC0FBD1FA60FB11DD5
:102440004C936F5FD9CFC056DF4FE881F981C05AF6
:10245000D040E20FF31F40815FEF540F5E3740F42E
:10246000E1E0F0E0EC0FFD1FE60FF11D40836F5F30
:102470002F5F3F4FC7CFF9013D974BE050E04150F0
:10248000510981F4F9014DE050E041505109C1F486
:10249000AC01445051094817590701F58097205263
:1024A000310916CF7191AFEFA70FAE3740F7A1E01A
:1024B000B0E0AC0FBD1FA60FB11D7C936F5FDFCFE7
:1024C0007191AFEFA70FAE3700F7A1E0B0E0AC0F0E
:1024D000BD1FA60FB11D7C936F5FD7CFF301E40F33
:1024E000F51F7081EFEFE70FEE3740F4E1E0F0E029
:1024F000EC0FFD1FE60FF11D70836F5F4F5F5F4FA5
:10250000CACFF1E0EF1231CEF301E052FE4F8081ED
:102510008F70F82E21E0821328CE930122513E4F76
:10252000C457DF4F6881CC58D04080E092E0AC01C6
:10253000405251094C155D050CF065C0BE016F5F3E
:102540007F4FC4010E943227892B09F00DC2D801A8
:1025500055968C9190E0B0E0A0E0BA2FA92F982F6B
:102560008827F8012489822BBA2FA92F982F882732
:10257000238D822BBA2FA92F982F8827A101475F7F
:102580005C4F228D822BFA0180839183A283B383D7
:10259000F801DE01AF5BBF4FCD0108967D012191AF
:1025A0002D938A179B07D9F7D70118961C925101D2
:1025B000B394B101C5010E94272781011E5F61010B
:1025C000E7EFCE1AEDEFDE0AB801C6010E94272719
:1025D000D1018C918F3229F069EF7DE0C5010E9415
:1025E0002727B401C1010E943B27F80180818F3267
:1025F00029F069EF7DE0C6010E942727B701C801D5
:102600000E943B276CCDF9013D974BE050E04150D3
:10261000510981F4F9014DE050E041505109C1F4F4
:10262000AC01445051094817590701F580972052D1
:1026300031097DCF7191AFEFA70FAE3740F7A1E021
:10264000B0E0AC0FBD1FA60FB11D7C936F5FDFCF55
:102650007191AFEFA70FAE3700F7A1E0B0E0AC0F7C
:10266000BD1FA60FB11D7C936F5FD7CFF301E40FA1
:10267000F51F7081EFEFE70FEE3740F4E1E0F0E097
:10268000EC0FFD1FE60FF11D70836F5F4F5F5F4F13
:10269000CACF83010A0D1B1DF801B09780818F708E
:1026A000F82EF1E08F1361CDC50140E09C0120526E
:1026B00031092C153D05BCF5BE016F5F7F4FC4018C
:1026C0000E943227892B09F009C1D80155968C91B7
:1026D00090E0B0E0A0E0BA2FA92F982F8827F8014A
:1026E0002489822BBA2FA92F982F8827238D822BFC
:1026F000BA2FA92F982F8827A101475F5C4F228D01
:10270000822BFA0180839183A283B383F801DE01D7
:10271000AF5BBF4FCD0108967D0121912D93A81786
:10272000B907D9F712CEC054DF4FE881F981C05CF8
:10273000D040E80FF91F2BE030E021503109A9F417
:10274000CE53DF4FE881F981C25CD040E80FF91F1A
:102750002DE030E021503109B1F49C0124503109C1
:1027600028173907F1F48097A1CF51916FEF650FCA
:102770006E3718F7A1E0B0E0AC0FBD1FA40FB11D7C
:102780005C934F5FDACF51916FEF650F6E3710F7A3
:10279000A1E0B0E0AC0FBD1FA40FB11D5C934F5F73
:1027A000D9CFF301E20FF31F50816FEF650F6E3742
:1027B00040F4E1E0F0E0EC0FFD1FE40FF11D508369
:1027C0004F5F2F5F3F4FCCCFF92FF071FF2E94FF5B
:1027D00085C0CA55DF4F2881C65AD040293008F03D
:1027E000C6C0B401CE018F5B9F4F0E943B27D8012A
:1027F000FE01EF57FF4FCA54DF4F88819981C65BB6
:10280000D0408E0F9F1FBF01E817F90709F05DC088
:10281000CA54DF4FE881F981C65BD040E60FF71F4D
:102820001082CE018F5B9F4F0E943227892B09F0C7
:102830009EC0D80155968C9190E0B0E0A0E0BA2FF0
:10284000A92F982F8827F8012489822BBA2FA92F26
:10285000982F8827238D822BBA2FA92F982F88276E
:10286000A101475F5C4F228D822BFA018083918307
:10287000A283B3836101D394B101C6010E942727CB
:1028800081011E5F710127EFE21A2DEFF20AB801F4
:10289000C7010E942727D1018C918F3229F069EF5F
:1028A0007DE0C6010E942727B401C1010E943B2799
:1028B000F80180818F3229F069EF7DE0C7010E9425
:1028C0002727BE016F577F4F6BCD2D9121939CCF52
:1028D000F1E0C457DF4FF883CC58D04020E2C20E5D
:1028E000D11CC11432E0D3060CF4B8CBC456DF4F70
:1028F00048815981CC59D0404F5F5F4FC456DF4F5C
:1029000059834883CC59D040C955DF4F888199817C
:10291000AA81BB81C75AD0400196A11DB11DC955DE
:10292000DF4F88839983AA83BB83C75AD040C5559C
:10293000DF4F288139814A815B81CB5AD040C15514
:10294000DF4F88819981AA81BB81CF5AD040280F5F
:10295000391F4A1F5B1FC555DF4F288339834A83C0
:102960005B83CB5AD0400FCBEE24E394B7CFF12C4E
:10297000B5CFF2E0C457DF4FF883CC58D040BACB84
:1029800022E0C457DF4F2883CC58D040B3CB32E08D
:10299000C457DF4F3883CC58D040ACCB42E0C4574B
:1029A000DF4F4883CC58D040A5CB52E0C457DF4F0F
:1029B0005883CC58D0409ECB2F923F924F925F923B
:1029C0006F927F928F929F92AF92BF92CF92DF923F
:1029D000EF92FF920F931F93CF93DF9300D000D01D
:1029E00000D0CDB7DEB7FC01E60FF71F242F28700B
:1029F000D22E43FF09C087853685A32FB82FBE830B
:102A0000AD838189E088F82EB42FB0713B2E44FF4E
:102A100003C083896288782E242F2072222E45FFDE
:102A200006C087890689182F818D408C582E878C87
:102A3000912CB12CA12CBA2CA92C982C8824868DF1
:102A4000882ABA2CA92C982C8824858D882ABA2CFF
:102A5000A92C982C8824848D882A8CE895E00E94E3
:102A6000DE0ADD2009F493C08FEF9DE00E94DE0AAC
:102A70006701B5E0D694C794BA95E1F73FE0C32269
:102A8000DD248AE0C816D10420F483E895E00E9492
:102A9000DE0AB0E0A0E0B601CD010E94100989EF86
:102AA0009DE00E94DE0A67019FE1C922DD24AAE0C1
:102AB000CA16D10420F483E895E00E94DE0AB0E053
:102AC000A0E0B601CD010E94100989EF9DE00E94AF
:102AD000DE0AEF2CFF24E69494E4E91A98EFF90A51
:102AE000B0E0A0E0B701CD010E9410098EE795E0AB
:102AF0000E94DE0AED80FE80EF2CFF24E694E6942F
:102B0000E694AD81BE81A115B04520F483E895E03F
:102B10000E94DE0AB0E0A0E0B701CD010E941009DA
:102B20008BE599E00E94DE0AED80FE80E5E0F694F8
:102B3000E794EA95E1F79FE3E922FF24AAE0EA1689
:102B4000F10420F483E895E00E94DE0AB0E0A0E002
:102B5000B701CD010E9410098BE599E00E94DE0AC1
:102B6000AD81BE81AF71BB27AA0FBB1FBA83A983FA
:102B70001A9720F483E895E00E94DE0AA981BA81C1
:102B8000CD01B0E0A0E0BC01CD010E9410093320CE
:102B900009F448C08EEF9DE00E94DE0A930165E0D3
:102BA000369527956A95E1F72F7033273A83298365
:102BB0002A30310520F483E895E00E94DE0AA981DD
:102BC000BA81CD01B0E0A0E0BC01CD010E941009A6
:102BD00089EF9DE00E94DE0A93012F7133273A832B
:102BE00029832A30310520F483E895E00E94DE0A2B
:102BF000A981BA81CD01B0E0A0E0BC01CD010E9465
:102C0000100989EF9DE00E94DE0A672C7724669404
:102C1000B4E46B1AB8EF7B0AB0E0A0E0B301CD01D9
:102C20000E941009222009F497C08EEF9DE00E94B7
:102C3000DE0AD20145E0B695A7954A95E1F7AF7057
:102C4000BB27BA83A9831A9720F483E895E00E94F2
:102C5000DE0AA981BA81CD01B0E0A0E0BC01CD01BE
:102C60000E94100989EF9DE00E94DE0A92012F71F7
:102C700033273A8329832A30310520F483E895E00D
:102C80000E94DE0AA981BA81CD01B0E0A0E0BC01BA
:102C9000CD010E94100989EF9DE00E94DE0A452CBB
:102CA00055244694B4E44B1AB8EF5B0AB0E0A0E0B8
:102CB000B201CD010E9410098EE795E00E94DE0A64
:102CC000D801AB2FBB27A695A695A695BA83A98355
:102CD0000115B0E51B0720F483E895E00E94DE0AA9
:102CE000A981BA81CD01B0E0A0E0BC01CD010E9474
:102CF00010098BE599E00E94DE0A980195E036956F
:102D000027959A95E1F72F7333273A8329832A3041
:102D1000310520F483E895E00E94DE0AA981BA819A
:102D2000CD01B0E0A0E0BC01CD010E9410098BE50F
:102D300099E00E94DE0A0F711127000F111F0A305F
:102D4000110520F483E895E00E94DE0AB0E0A0E0DF
:102D5000B801CD010E9410098EEF9DE00E94DE0AAD
:102D6000C501B40128EE33E040E050E00E94952612
:102D700029833A834B835C8381149AEC99069AE900
:102D8000A9069BE3B90630F18EE795E00E94DE0AC2
:102D900069817A818B819C810E94100984E09EE088
:102DA00026960FB6F894DEBF0FBECDBFDF91CF9150
:102DB0001F910F91FF90EF90DF90CF90BF90AF9059
:102DC0009F908F907F906F905F904F903F902F904B
:102DD0000C94DE0A8DE795E08114A1EE9A06A5EF2A
:102DE000AA06A5E0BA0690F68FEF9DE0B0E88B1634
:102DF000B6E99B06B8E9AB06B10440F68EEF9DE05C
:102E000020E4821622E492062FE0A206B10408F024
:102E1000BDCF8DEF9DE030EA831636E8930631E0B2
:102E2000A306B10408F0B2CF80E1881687E29806C5
:102E3000A104B10418F08CEF9DE0A8CF8BEF9DE0CA
:102E4000A5CFCF92DF92EF92FF920F931F93CF9374
:102E5000DF93CDB7DEB72E970FB6F894DEBF0FBE67
:102E6000CDBF8C017B0180E289838A838B838C8335
:102E70008D838E838F838887198644FF27C087E0E0
:102E80009EE00E94DE0AF801EE0DFF1DDE011196A4
:102E90009E01275F3F4FCD0141914D932A173B077C
:102EA000D9F70E94DE0A8FEF9DE00E94DE0A2E967F
:102EB0000FB6F894DEBF0FBECDBFDF91CF911F914B
:102EC0000F91FF90EF90DF90CF90089585E19EE005
:102ED0000E94DE0A63E27EE0CE010A960E943B2752
:102EE000F7013896E00FF11FDE011B96CE010E961A
:102EF00021912D93A817B907D9F7F801EE0DFF1D01
:102F0000DE01119690E080E08D0121912D93203219
:102F100071F5800F911FFC011082C8010E94DE0A2A
:102F200063E27EE0CE010A960E943227892B21F0CF
:102F3000CE010A960E94DE0AF12CE12C88E0C82E10
:102F4000D12CF80101900020E9F73197E01BF10B3B
:102F5000C6018E1B9F0BE816F90608F0A8CF86E87D
:102F600095E00E94DE0AFFEFEF1AFF0AEACF019612
:102F70008830910551F6D1CF2F923F924F925F92B8
:102F80006F927F928F929F92AF92BF92CF92DF9279
:102F9000EF92FF920F931F93CF93DF93CDB7DEB7DE
:102FA000C357D1090FB6F894DEBF0FBECDBF7C0169
:102FB000162F2DB73EB7A8963FAF2EAFA89788E241
:102FC0009EE00E94DE0AC7010E94DE0A0E94220BD8
:102FD0001C010E94540BA6968FAFA697F701E75FDE
:102FE000FC4F80819181A281B3812B968CAF9DAFE4
:102FF000AEAFBFAF2B970E94850B7C010E94B30B35
:10300000082F0E94DF0BA02FB0E09B01AC010E94B3
:10301000B7269B01AC012E0D3F1D411D511D65962C
:103020002CAF3DAF4EAF5FAF65974DB75EB742195E
:1030300053090FB6F8945EBF0FBE4DBF8DB79EB754
:1030400001967C01ADB7BEB7A219B3090FB6F894CB
:10305000BEBF0FBEADBF2DB73EB72F5F3F4F29019B
:103060008BE895E00E94DE0A13FF04C08EE39EE029
:103070000E94DE0A14FF04C085E59EE00E94DE0A7D
:1030800015FF04C088E69EE00E94DE0A84E89EE008
:103090000E94DE0A8BE895E00E94DE0A45E050E0DF
:1030A00067965FAF4EAF6797A12CB12C00E0712CF3
:1030B000612CD12CC12CA6969FADA697892F90E0AC
:1030C000B0E0A0E0A3968CAF9DAFAEAFBFAFA3972B
:1030D000910150E040E06F962CAF3DAF4EAF5FAF37
:1030E0006F97A7014F515109E0965FAF4EAFE09740
:1030F000C7014297E2969FAF8EAFE2972B962CAD19
:103100003DAD4EAD5FAD2B972250310941095109BC
:10311000A3966CAD7DAD8EAD9FADA3970E94712639
:103120009B01AC0165968CAD9DADAEADBFAD659715
:10313000280F391F4A1F5B1F2F962CAF3DAF4EAF94
:103140005FAF2F976F966CAD7DAD8EAD9FAD6F97D6
:103150000E9471266B966CAF7DAF8EAF9FAF6B9761
:1031600061961FAE1EAE6197D2015F97E496BFAF26
:10317000AEAFE497A696BFADA697AB2FB0E0A596ED
:10318000BFAFAEAFA59761962EAD3FAD61972A1741
:103190003B0774F12B966CAD7DAD8EAD9FAD2B973B
:1031A0000E94AD0C28966FAF289729967FAF29977C
:1031B0002A968FAF2A972B969FAF2B972B968CAD85
:1031C0009DADAEADBFAD2B978F3F9F4FAF4FBF4073
:1031D00069F067964EAD5FAD6797415051096796AC
:1031E0005FAF4EAF6797452B09F088CF80E28AC06A
:1031F000A7016B966CAD7DAD8EAD9FAD6B970E94B8
:103200006422912C812C9E012F5B3F4F23963FAF70
:103210002EAF2397A20142515109AA965FAF4EAF3C
:10322000AA972F968CAD9DADAEADBFAD2F970196F1
:10323000A11DB11DAE968CAF9DAFAEAFBFAFAE9727
:103240008214930450F4002309F446C090EEC9168A
:1032500091E0D906B0F1892881F16196AEADBFAD9C
:10326000619711966196BFAFAEAF61976B962CAD2B
:103270003DAD4EAD5FAD6B976F968CAD9DADAEAD78
:10328000BFAD6F97280F391F4A1F5B1F6B962CAF7E
:103290003DAF4EAF5FAF6B972F962CAD3DAD4EADB2
:1032A0005FAD2F972F5F3F4F4F4F5F4F2F962CAF44
:1032B0003DAF4EAF5FAF2F975DCF80EEC82EDD24C0
:1032C000DA94BA2809F441C0430130E2830E911C1C
:1032D000A12CB12C712C612CF701E80DF91D808116
:1032E000853E09F4ACC2882309F480CF5385249627
:1032F0005FAF2497952F9F709F3009F08BC286FD9A
:103300002CC080E4A896AEADBFADA8970FB6F894D8
:10331000BEBF0FBEADBFCD58DF4F0FB6F894DEBFB6
:103320000FBECDBFDF91CF911F910F91FF90EF9016
:10333000DF90CF90BF90AF909F908F907F906F90D5
:103340005F904F903F902F900895460140E2840E89
:10335000911CA12CD12CC12CBFCFFE013196119212
:103360002396AEADBFAD2397EA17FB07C1F78F7366
:10337000B0E28B9F60011124C80CD91CC214D30485
:1033800008F4B7C12C143D0408F4A2C02C143D0469
:1033900009F0B7CFAA24A394B12CA5968EAD9FAD0A
:1033A000A597019761962EAD3FAD61972817390714
:1033B0000CF492C02B966CAD7DAD8EAD9FAD2B976E
:1033C0000E94AD0C9B01AC01225031094109510909
:1033D000A3966CAD7DAD8EAD9FADA3970E94712677
:1033E0009B01AC0165968CAD9DADAEADBFAD659753
:1033F000280F391F4A1F5B1F6F966CAD7DAD8EADD8
:103400009FAD6F970E94712627966CAF7DAF8EAFF0
:103410009FAF2797A2010E946422360162187308A9
:10342000F201E60DF71D938524969FAF24979F30F8
:1034300009F467CF91FF02C012FF03C210FF0CC056
:10344000412FB301C2010E94DC1424964FAD249792
:10345000B301C2010E94211711FFF3C1A1E0BA120A
:10346000D5C0A1104ECFF201E60DF71DB0978081B7
:10347000082F017080FF45CF412FB301C2010E9488
:10348000DC142496BFAD249787E09EE0B4FD02C013
:1034900085E19EE00E94DE0AC30160E09C012052AB
:1034A000310937FF20C0970122513E4F80E092E062
:1034B000AC0140525109481559050CF061C0CE01CC
:1034C00001960E94DE0AB02E90E2890E911CB8CEC1
:1034D000A12CBB24B39461CFAE962CAD3DAD4EADC7
:1034E0005FADAE9789CFE496EEADFFADE497E80F00
:1034F000F91F2BE030E02150310999F4AA96EEAD86
:10350000FFADAA97E80FF91F2DE030E021503109F7
:10351000B1F49C012450310928173907F1F4809740
:10352000BDCF41915FEF540F5E3728F7A1E0B0E0C7
:10353000AC0FBD1FA60FB11D4C936F5FDCCF419147
:103540005FEF540F5E3710F7A1E0B0E0AC0FBD1F86
:10355000A60FB11D4C936F5FD9CFF201E20FF31F9D
:1035600040815FEF540F5E3740F4E1E0F0E0EC0F94
:10357000FD1FE60FF11D40836F5F2F5F3F4FCCCFE4
:10358000F9013D974BE050E04150510981F4F901B8
:103590004DE050E041505109C1F4AC014450510993
:1035A0004817590701F580972052310981CF719151
:1035B000AFEFA70FAE3740F7A1E0B0E0AC0FBD1FF3
:1035C000A60FB11D7C936F5FDFCF7191AFEFA70F97
:1035D000AE3700F7A1E0B0E0AC0FBD1FA60FB11DE4
:1035E0007C936F5FD7CFF701E40FF51F7081EFEF8A
:1035F000E70FEE3740F4E1E0F0E0EC0FFD1FE60FDF
:10360000F11D70836F5F4F5F5F4FCACF21E0A21241
:1036100078CEF701E052FE4F8081082F017080FFC5
:1036200070CE412FB301C2010E94DC1424963FAD3D
:10363000249785E19EE034FF02C087E09EE00E946F
:10364000DE0A970122513E4F6B2D80E092E0AC01E3
:10365000405251094815590534F4CE0101960E9493
:10366000DE0AA02E31CFF9013D974BE050E04150EA
:10367000510981F4F9014DE050E041505109C1F484
:10368000AC01445051094817590701F58097205261
:103690003109DDCF7191AFEFA70FAE3740F7A1E051
:1036A000B0E0AC0FBD1FA60FB11D7C936F5FDFCFE5
:1036B0007191AFEFA70FAE3700F7A1E0B0E0AC0F0C
:1036C000BD1FA60FB11D7C936F5FD7CFF701E40F2D
:1036D000F51F7081EFEFE70FEE3740F4E1E0F0E027
:1036E000EC0FFD1FE60FF11D70836F5F4F5F5F4FA3
:1036F000CACFF701EC0DFD1D438524964FAF2497EB
:103700004F3009F4FECD41FF02C012FF9AC010FFF6
:103710000CC0412FB601C7010E94DC1424964FADA6
:103720002497B601C7010E94211711FF8AC0F70133
:10373000EC0DFD1DB0978081082F017080FFE1CD59
:10374000412FB601C7010E94DC1424965FAD249777
:1037500087E09EE054FD02C085E19EE00E94DE0A03
:10376000C60140E09C0120523109281539052CF48E
:10377000CE0101960E94DE0AA7CEE096EEADFFAD27
:10378000E097E80FF91F2BE030E02150310999F460
:10379000E296EEADFFADE297E80FF91F2DE030E0C5
:1037A00021503109B1F49C012450310928173907FF
:1037B000F1F48097D7CF51916FEF650F6E3728F7EF
:1037C000A1E0B0E0AC0FBD1FA40FB11D5C934F5F33
:1037D000DCCF51916FEF650F6E3710F7A1E0B0E0CD
:1037E000AC0FBD1FA40FB11D5C934F5FD9CFF70184
:1037F000E20FF31F50816FEF650F6E3740F4E1E089
:10380000F0E0EC0FFD1FE40FF11D50834F5F2F5FC1
:103810003F4FCCCF24968FAD249781FF04C0012F5A
:10382000047012FF51CE412FB401C7010E94DC1475
:1038300024964FAD2497B401C7010E94211700E0E0
:1038400043CE01E041CE2F923F924F925F926F9212
:103850007F928F929F92AF92BF92CF92DF92EF9220
:10386000FF920F931F93CF93DF93CDB7DEB72E97C1
:103870000FB6F894DEBF0FBECDBF7C016D877E878B
:103880000E94220B4C010E94540B282E0E94850B93
:103890006C010E94B30BB82E0E94DF0BAB2DB0E081
:1038A0009B01AC010E94B72669837A838B839C833A
:1038B0002B013C014C0C5D1C611C711CED85FE85CF
:1038C000EE0DFF1DC588D12CF12CE12CFE2CED2C2A
:1038D000DC2CCC248489C82AFE2CED2CDC2CCC24B6
:1038E000838DC82AFE2CED2CDC2CCC24828DC82A9A
:1038F000940150E040E02D833E834F835887822D12
:1039000090E0B0E0A0E089879A87AB87BC87312C34
:10391000AD85BE858A0E9B1E8BE895E00E94DE0A6F
:10392000A7019601225031094109510969857A851B
:103930008B859C850E9471269B01AC01240D351D51
:10394000461D571D6D817E818F8198850E9471264D
:1039500069837A838B839C8310E000E00215130552
:1039600034F1C701B6010E94AD0C6B017C019FEFE1
:10397000C916D906E9069FE0F90671F62E960FB62C
:10398000F894DEBF0FBECDBFDF91CF911F910F9195
:10399000FF90EF90DF90CF90BF90AF909F908F906F
:1039A0007F906F905F904F903F902F9008954D853E
:1039B0005E8569817A818B819C810E946422AD84BD
:1039C000BE84A814B90499F40F5F1F4F29813A816E
:1039D0004B815C818D819E81AF81B885280F391F15
:1039E0004A1F5B1F29833A834B835C83B7CFF50162
:1039F00081915F018A3029F48CE895E00E94DE0A0B
:103A0000E0CF8823F1F20E940909DBCF2F923F9289
:103A10004F925F926F927F928F929F92AF92BF92DE
:103A2000CF92DF92EF92FF920F931F93CF93DF938A
:103A3000CDB7DEB7C659D1090FB6F894DEBF0FBEB9
:103A4000CDBF8C011B012DB73EB7C757DF4F398360
:103A50002883C958D040DB018C918F7D09F453C174
:103A6000FB0101900020E9F731979F01261B370BDE
:103A7000C258DF4F39832883CE57D040EF963FADF1
:103A8000EF97E4963FAFE497962FFB018E2F891BAB
:103A9000E4964FADE497841708F422C1E4969FADF5
:103AA000E497992309F42FC10E94220B3C010E9444
:103AB000540BCA57DF4F8883C658D040F801E75FE0
:103AC000FC4F80819181A281B381A7968CAF9DAF7D
:103AD000AEAFBFAFA7970E94850B8C010E94B30BBE
:103AE000F82E0E94DF0B6F966CAF7DAF8EAF9FAF4D
:103AF0006F97AF2DB0E09B01AC010E94B7269B01F0
:103B0000AC01200F311F411D511DE3962CAF3DAF7D
:103B10004EAF5FAFE3974DB75EB7C957DF4F5983DD
:103B20004883C758D0408DB79EB7861997090FB6FE
:103B3000F8949EBF0FBE8DBFADB7BEB711967D0185
:103B4000EDB7FEB7E619F7090FB6F894FEBF0FBE42
:103B5000EDBF2DB73EB72F5F3F4FA9963FAF2EAFBA
:103B6000A99745E050E0E6965FAF4EAFE69700E0DC
:103B70006C961FAE6C9710E0512C412CB12CA12CEF
:103B8000CA57DF4F9881C658D040892F90E0B0E0E7
:103B9000A0E0C058DF4F88839983AA83BB83C058B5
:103BA000D040930150E040E0EE962CAF3DAF4EAFD9
:103BB0005FAFEE97A7014F515109CF56DF4F5983A1
:103BC0004883C159D040C7014297CD56DF4F9983F2
:103BD0008883C359D040A7962CAD3DAD4EAD5FADA7
:103BE000A7972250310941095109C058DF4F688118
:103BF00079818A819B81C058D0400E9471269B01A7
:103C0000AC01E3968CAD9DADAEADBFADE397280F93
:103C1000391F4A1F5B1FAD962CAF3DAF4EAF5FAF54
:103C2000AD97EE966CAD7DAD8EAD9FADEE970E94DB
:103C30007126EA966CAF7DAF8EAF9FAFEA97AF96D5
:103C40001FAE1EAEAF97A996AEADBFADA9975F9759
:103C5000CB56DF4FB983A883C559D040CA57DF4F31
:103C6000B881C658D040AB2FB0E0CC57DF4FB983F6
:103C7000A883C458D040AF96EEADFFADAF97EA171A
:103C8000FB070CF442C0A7966CAD7DAD8EAD9FAD29
:103C9000A7970E94AD0CA4966FAFA497A5967FAF8F
:103CA000A597A6968FAFA697A7969FAFA797A7961B
:103CB0002CAD3DAD4EAD5FADA7972F3F3F4F4F4F62
:103CC0005F4009F4A7C0E696AEADBFADE697119789
:103CD000E696BFAFAEAFE697AB2B09F07CCF9AC0AC
:103CE00081918C3581F08F3271F08A3361F0282F09
:103CF000277F223241F0282F2F7B2C3321F08E5347
:103D0000823008F0C3CE11E091C0A701EA966CADF5
:103D10007DAD8EAD9FADEA970E946422D12CC12C5F
:103D2000A996EEADFFADA9977297C557DF4FF983FE
:103D3000E883CB58D040AD962CAD3DAD4EAD5FADD8
:103D4000AD972F5F3F4F4F4F5F4FC357DF4F2883D4
:103D500039834A835B83CD58D040C614D70480F1A1
:103D6000AF964EAD5FADAF974F5F5F4FAF965FAF12
:103D70004EAFAF97EA968CAD9DADAEADBFADEA97B5
:103D8000EE962CAD3DAD4EAD5FADEE97820F931F1D
:103D9000A41FB51FEA968CAF9DAFAEAFBFAFEA9739
:103DA000AD968CAD9DADAEADBFADAD970196A11DED
:103DB000B11DAD968CAF9DAFAEAFBFAFAD974ECF3F
:103DC0001123F9F030EEA31631E0B30630F0CD2820
:103DD00039F680EEA82EBB24BA946C964FAD6C9742
:103DE000402B6C964FAF6C97442309F445C0620199
:103DF00050E2C50ED11C00E06C961FAE6C97512CA2
:103E0000412CF701EC0DFD1D8081853E09F45AC35C
:103E100081113AC014E0C957DF4FE881F981C758D2
:103E2000D0400FB6F894FEBF0FBEEDBF812FC7572D
:103E3000DF4F28813981C958D0400FB6F8943EBF72
:103E40000FBE2DBFCA56DF4F0FB6F894DEBF0FBEB0
:103E5000CDBFDF91CF911F910F91FF90EF90DF9039
:103E6000CF90BF90AF909F908F907F906F905F901A
:103E70004F903F902F900895650180E2C80ED11CAD
:103E800000E0B12CA12CBDCF9385292F2F702F30AE
:103E900009F03DC286FD02C010E4BDCFFE0131969F
:103EA0009E012F5B3F4F1192E217F307E1F78F73EB
:103EB00090E2899F50011124AC0CBD1CA614B704DC
:103EC00008F4B1C16A147B0408F491C0A114A2E003
:103ED000BA0611F701E06C961FAE6C97CC57DF4F16
:103EE00088819981C458D0400197AF96EEADFFAD5F
:103EF000AF97E817F9070CF480C0A7966CAD7DADBD
:103F00008EAD9FADA7970E94AD0C9B01AC012250D6
:103F1000310941095109C058DF4F688179818A818F
:103F20009B81C058D0400E9471269B01AC01E39652
:103F30008CAD9DADAEADBFADE397280F391F4A1FC5
:103F40005B1FEE966CAD7DAD8EAD9FADEE970E9482
:103F50007126A3966CAF7DAF8EAF9FAFA397A99646
:103F60004EAD5FADA9970E946422250146185708FF
:103F7000A996EEADFFADA997E40DF51D83858F30B1
:103F800009F48ACF84FD9CC26C969FAD6C979130EA
:103F900009F0D6C0011180CFB0978081182F117021
:103FA00080FF7ACFC20160E09C012052310937FFC7
:103FB0002DC0970122513E4F80E092E0AC0140526B
:103FC00051094C155D050CF075C0BE016F5F7F4F48
:103FD000C1010E943227892B09F06CC2A9966EADEF
:103FE0007FADA997C2010E94231C10E014CF00E00E
:103FF000B1E06C96BFAF6C9771CFC357DF4F28818C
:1040000039814A815B81CD58D0409BCFCB56DF4F61
:10401000E881F981C559D040E80FF91F2BE030E065
:1040200021503109A9F4C557DF4FE881F981CB58F8
:10403000D040E80FF91F2DE030E021503109B1F4F4
:104040009C012450310928173907F1F48097ACCF2F
:1040500041915FEF540F5E3718F7A1E0B0E0AC0F6D
:10406000BD1FA60FB11D4C936F5FDACF41915FEF7B
:10407000540F5E3710F7A1E0B0E0AC0FBD1FA60FE4
:10408000B11D4C936F5FD9CFA996EEADFFADA99747
:10409000E20FF31F40815FEF540F5E3740F4E1E021
:1040A000F0E0EC0FFD1FE60FF11D40836F5F2F5F07
:1040B0003F4FC9CFF9013D974BE050E041505109C6
:1040C00081F4F9014DE050E041505109C1F4AC01D7
:1040D000445051094817590701F58097205231097A
:1040E0006DCF7191AFEFA70FAE3740F7A1E0B0E011
:1040F000AC0FBD1FA60FB11D7C936F5FDFCF719119
:10410000AFEFA70FAE3700F7A1E0B0E0AC0FBD1FD7
:10411000A60FB11D7C936F5FD7CFF701E40FF51F9A
:104120007081EFEFE70FEE3740F4E1E0F0E0EC0FE5
:10413000FD1FE60FF11D70836F5F4F5F5F4FCACFAA
:10414000013009F0A9CEF701E052FE4F8081182F0F
:10415000117080FFA1CE970122513E4F6C966FAD3A
:104160006C9780E092E0AC01405251094C155D051E
:10417000A4F4BE016F5F7F4FC1010E943227892BDB
:1041800009F09CC1A9966EAD7FADA997C2010E94AE
:10419000231C6C961FAD6C973ECEF9013D974BE00A
:1041A00050E04150510981F4F9014DE050E0415097
:1041B0005109C1F4AC01445051094817590701F5A0
:1041C000809720523109CFCF7191AFEFA70FAE3753
:1041D00040F7A1E0B0E0AC0FBD1FA60FB11D7C936E
:1041E0006F5FDFCF7191AFEFA70FAE3700F7A1E0A0
:1041F000B0E0AC0FBD1FA60FB11D7C936F5FD7CF92
:10420000F701E40FF51F7081EFEFE70FEE3740F491
:10421000E1E0F0E0EC0FFD1FE60FF11D70836F5F32
:104220004F5F5F4FCACFF701EA0DFB1D83858F30CB
:1042300009F432CE84FD44C1B0978081182F1170EB
:1042400080FF2ACEC50140E09C01205231092C1587
:104250003D0564F4BE016F5F7F4FC1010E943227AC
:10426000892B09F0C8C0B701C501BDCECF56DF4FBD
:10427000E881F981C159D040E80FF91F2BE030E007
:1042800021503109A9F4CD56DF4FE881F981C35996
:10429000D040E80FF91F2DE030E021503109B1F492
:1042A0009C012450310928173907F1F48097CCCFAD
:1042B00051916FEF650F6E3718F7A1E0B0E0AC0FCA
:1042C000BD1FA40FB11D5C934F5FDACF51916FEF0B
:1042D000650F6E3710F7A1E0B0E0AC0FBD1FA40F63
:1042E000B11D5C934F5FD9CFF701E20FF31F5081EF
:1042F0006FEF650F6E3740F4E1E0F0E0EC0FFD1F6B
:10430000E40FF11D50834F5F2F5F3F4FCCCF192F2C
:10431000107194FDD7C0E496AFADE497AD3008F0CE
:104320006AC0FE01E65BFF4FCF010996DF011D92D7
:10433000A817B907E1F769961FAE69976A961FAE8D
:104340006A976B961FAE6B97C258DF4F8880998033
:10435000CE57D040992421E0822F90E0881599050E
:104360000CF44DC0A0961FAEA09720E0822F90E0E5
:10437000881599050CF458C0882DA1E4B0E0AC0F65
:10438000BD1FA80DB91D90E2883008F45BC02A96C5
:104390001FAE2A97D701AC0DBD1DCF0108962D91F8
:1043A0002193E817F907D9F7BE01665B7F4FCE016D
:1043B0008F5B9F4F0E943227892BE9F4F701EC0DA8
:1043C000FD1D808568968FAF6897818569968FAF50
:1043D000699782856A968FAF6A976DE775E0CE011F
:1043E000895A9F4F0E943227892B79F1A096BFAD41
:1043F000A097B1112FC020E2C20ED11CAECCAC01EF
:104400004F5F5F4F481559050CF0ACCFD101A80F95
:10441000B91F3C913E3211F02F5F9ECF4C01B1E0AD
:10442000A096BFAFA097A1CF41E450E04C0F5D1F15
:10443000480F591F820D931DDC018C91DA018C937A
:104440002F5F94CF9D938F5F9FCFA096EFADA097E6
:10445000EE2389F280E264968FAF649765968FAF02
:10446000659766968FAF669767961FAE6797FFEF63
:104470008F1A9F0AF101E80DF91DDE01AD5ABF4FF9
:104480009D012D5F3F4F8191882321F08D93A217CD
:10449000B307C9F7BE016D5A7F4FCE01895A9F4FAE
:1044A0000E943227892B09F0A6CFB701C6010E94CE
:1044B000231CB1CC6C961FAF6C979DCF012F9BCF67
:1044C00011E099CF10E097CF0F931F93CF93DF9315
:1044D000CDB7DEB7C250D2400FB6F894DEBF0FBEE4
:1044E000CDBF8A01AE014F5F5F4F0E949803DE018E
:1044F0001196F801C8019E5F2D912193E817F907E5
:10450000D9F7CE5FDD4F0FB6F894DEBF0FBECDBF3B
:10451000DF91CF911F910F910895CDB7DEB7C552AE
:10452000D3400FB6F894DEBF0FBECDBF0E94F60891
:104530000E94D600CE5EDC4F188219821A821B823E
:10454000C251D340CE5EDC4F688179818A819B81E4
:10455000C251D3400E9410090E94C802C25FDC4FC2
:104560006883CE50D340C15FDC4F7883CF50D340B7
:10457000C05FDC4F8883C051D340CF5EDC4F98834F
:10458000C151D340C25FDC4F88819981AA81BB8130
:10459000CE50D340892B8A2B8B2B09F46BC284E33A
:1045A00092E00E94DE0AC25FDC4F688179818A81D5
:1045B0009B81CE50D3400E94560AC25FDC4F688177
:1045C00079818A819B81CE50D3400E943801CE5E92
:1045D000DC4F88819981AA81BB81C251D340019768
:1045E000A105B10509F4E4C081E090E0A0E0B0E0ED
:1045F000CE5EDC4F88839983AA83BB83C251D340AC
:10460000A1CFC25FDC4F8881CE50D3400E94090900
:10461000F201E00FF11FC25FDC4F2881CE50D34082
:1046200020830F5F1F4F4BC3D6012D916D01F50104
:1046300021935F012032E1F4F701E80FF91F1082A6
:10464000FC013196E40DF51DD30130E020E0A80116
:10465000481B590BCA012817390724F441914D937F
:1046600041110AC00034110554F010E000E017C0F9
:10467000222331F301962FC32F5F3F4FECCF6BE521
:1046800072E0C7010E9432278C01892B09F095C086
:10469000B301CE0101960E944E0D0E94F40A8CE8EF
:1046A00095E00E94DE0A8AE090E02091C600019722
:1046B000E1F7012B09F494C28EE093E00E94DE0A38
:1046C0000E948B00C25FDC4F6883CE50D340C15F35
:1046D000DC4F7883CF50D340C05FDC4F8883C0511C
:1046E000D340CF5EDC4F9883C151D34085E293E045
:1046F0000E94DE0A0E948B007B018C0180E593E022
:104700000E94DE0AB701C8010E94100985E693E005
:104710000E94DE0AC25FDC4F688179818A819B81B9
:10472000CE50D3400E94100983E893E00E94DE0A35
:104730000E940209D82E0E9409098CE895E00E9487
:10474000DE0AB9E7DB12B8CFC25FDC4F88819981FE
:10475000AA81BB81CE50D34029E0880F991FAA1FA0
:10476000BB1F2A95D1F7C25FDC4F88839983AA8348
:10477000BB83CE50D3409701A801BC01CD010E945C
:104780008C048CE993E00E94DE0A0E940209182F33
:104790000E940909113709F08FCFC85EDC4FA8814C
:1047A000B981C851D3400FB6F894BEBF0FBEADBF9C
:1047B0000E9402090E940909FBCF6EE572E0C70161
:1047C0000E9432278C01892B09F0DCC0D1011D9297
:1047D0001C9290E080E0AA24A394B12CF4012191D2
:1047E0004F01222391F00196203261F4319710821B
:1047F000F501EE0FFF1FE20DF31D91838083FFEFA4
:10480000AF1ABF0A8034910549F7912C812CC25F01
:10481000DC4F1882CE50D340CE5EDC4FA881B981E8
:10482000C251D340CD90DD90CE5EDC4FB983A883DA
:10483000C251D340C60CD71C61E672E0C6010E948B
:104840003227892B91F4C25FDC4FB881CE50D34020
:10485000B260C25FDC4FB883CE50D3409FEF891A5D
:10486000990AA814B904C1F676C065E672E0C601DB
:104870000E943227892B61F4C25FDC4FE881CE5061
:10488000D340E160C25FDC4FE883CE50D340E6CF37
:1048900069E672E0C6010E943227892B61F4C25F8B
:1048A000DC4FF881CE50D340F863C25FDC4FF88311
:1048B000CE50D340D3CF6CE672E0C6010E943227BF
:1048C000892B61F4C25FDC4F2881CE50D340246035
:1048D000C25FDC4F2883CE50D340C0CF6FE672E07A
:1048E000C6010E943227892B61F4C25FDC4F4881E8
:1048F000CE50D3404860C25FDC4F4883CE50D34097
:10490000ADCF62E772E0C6010E943227892B61F4C5
:10491000C25FDC4F5881CE50D3405061C25FDC4F44
:104920005883CE50D3409ACF66E772E0C6010E940A
:104930003227892B61F4C25FDC4F8881CE50D3408F
:104940008062C25FDC4F8883CE50D34087CF8AE736
:1049500092E00E94DE0AC25FDC4FA881CE50D340B5
:10496000A0FD06C0A260C25FDC4FA883CE50D3403A
:10497000C25FDC4F6881CE50D340CE0101960E94C9
:10498000BC178BCE6DE872E0C7010E9432278C0104
:10499000892B31F4B301CE0101960E94061D7DCE14
:1049A00062E972E0C7010E9432278C01892B09F06D
:1049B00051C086E992E00E94DE0ACE5DDC4F88811C
:1049C000C252D340CD5DDC4F9881C352D3400E9488
:1049D000DE0A85EA92E00E94DE0ACC5DDC4F888127
:1049E000C452D340CB5DDC4F9881C552D3400E9466
:1049F000DE0A8AEB92E00E94DE0ACE0101960E9456
:104A0000DE0A88EC92E00E94DE0ACA5EDC4F8881F2
:104A1000C651D340C95EDC4F9881C751D3400E9434
:104A2000DE0A8CED92E00E94DE0AC65FDC4F8881D0
:104A30009981AA81BB81CA50D340C25FDC4F888371
:104A40009983AA83BB83CE50D340BC01CD010E9481
:104A5000100925CED7018C91813739F481EF92E08E
:104A60000E94DE0A01E010E01ACE8AEF92E00E9476
:104A7000DE0AFBCDEDB7FEB7C85EDC4FF983E883F5
:104A8000C851D3408CE895E00E94DE0A2FE230E066
:104A90003A8329838EEFFE013396DF01482F1D9262
:104AA0004A95E9F75E0151E0A50EB51EF501119298
:104AB0001192DF01482F1D924A95E9F76E015FEFD1
:104AC000C51A5DEFD50AF6012193319397E0DF0116
:104AD0001D929A95E9F78E01065F1D4FF80111921C
:104AE0001192DF011D928A95E9F70E94460CC25F80
:104AF000DC4F688379838A839B83CE50D340FE0149
:104B0000E65FFC4F60837183828393834DB75EB70A
:104B1000405451090FB6F8945EBF0FBE4DBF8DB71C
:104B20009EB701962C01ADB7BEB7A054B1090FB620
:104B3000F894BEBF0FBEADBF4F5351097A018158E3
:104B400091090FB6F8949EBF0FBE8DBFDF973D0150
:104B5000415C51090FB6F8945EBF0FBE4DBF8F5731
:104B600091091C01A054BF4FC05EDC4FB983A883DC
:104B7000C052D3404F5F5E4FC25EDC4F59834883C3
:104B8000CE51D34080549F4FC45EDC4F99838883BD
:104B9000CC51D340A05CB109C65EDC4FB983A88379
:104BA000CA51D340CA5EDC4FA882C651D340C95E09
:104BB000DC4FB882C751D340CE5DDC4FC882C252B1
:104BC000D340CD5DDC4FD882C352D340CC5DDC4FA7
:104BD0000883C452D340CB5DDC4F1883C552D34009
:104BE0006201F2011192C05EDC4FA881B981C0520E
:104BF000D340EA17FB07B1F75701F7011192C25EE4
:104C0000DC4F48815981CE51D340E417F507B1F705
:104C10004301F3011192C45EDC4F88819981CC512C
:104C2000D340E817F907B1F7CE5EDC4F398228820E
:104C3000C251D340F10111921192C65EDC4FA8819E
:104C4000B981CA51D340AE17BF07A9F78CE895E0E8
:104C50000E94DE0ACA5EDC4F8881C651D340C95E1D
:104C6000DC4F9881C751D3400E94DE0ACE010196E5
:104C70000E94DE0A83E592E00E94DE0A0E94020999
:104C8000C25FDC4F8883CE50D34010E000E0C25FAB
:104C9000DC4F4881CE50D3404D30D9F0C25FDC4F5D
:104CA000B881CE50D340BF3709F0ABCC87E592E056
:104CB0000E94DE0A0115110511F0015011090E9430
:104CC0000209C25FDC4F8883CE50D3400034110507
:104CD000F4F290E080E00817190709F0A5CCC801AC
:104CE000AFCCDB018F939F930E94B726BF91AF910A
:104CF000A29F800D911DA39F900DB29F900D112436
:104D0000089597FB072E16F4009407D077FD09D07D
:104D10000E94042707FC05D03EF4909581959F4F93
:104D20000895709561957F4F0895A1E21A2EAA1BF0
:104D3000BB1BFD010DC0AA1FBB1FEE1FFF1FA2174B
:104D4000B307E407F50720F0A21BB30BE40BF50B48
:104D5000661F771F881F991F1A9469F760957095D1
:104D6000809590959B01AC01BD01CF0108950E94F3
:104D70001827A59F900DB49F900DA49F800D911DA5
:104D800011240895002E083090F0982F872F762F49
:104D9000652F542F432F322F22270850F4CF220F94
:104DA000331F441F551F661F771F881F991F0A95C1
:104DB000B2F7002D089597FD1094002E083098F05A
:104DC0000850232F342F452F562F672F782F892FE8
:104DD000912DF4CF1594979587957795679557956D
:104DE0004795379527950A95AAF71124002D089520
:104DF0000024A7FD00942A173005400550056005E2
:104E00007005800590050895AA1BBB1B51E107C0E2
:104E1000AA1FBB1FA617B70710F0A61BB70B881F4A
:104E2000991F5A95A9F780959095BC01CD010895D9
:104E3000A29FB001B39FC001A39F700D811D1124DB
:104E4000911DB29F700D811D1124911D0895FB01CC
:104E5000DC010D900020E9F7119701900D920020E0
:104E6000E1F70895FB01DC018D910190801901109B
:104E7000D9F3990B0895FB01DC0101900D920020FC
:104E8000E1F70895DC01FB014150504058F049F032
:104E900001900D920020C1F7E61BF70B3197CF016F
:104EA00008951C9201900020E9F7F6CFFC0181E003
:104EB00090E00190061609F4CF010020D1F7019788
:064EC0000895F894FFCFF5
:104EC600736563746F722076616C756520697320F3
:104ED600746F6F206C617267652E0A0D456E74657E
:104EE600722076616C7565203C203431393433305C
:104EF600340A0D000A0D534420494E4954204641B8
:104F0600494C454420524553504F4E5345203D2071
:104F1600307800203E2000082008006364006C738F
:104F2600002F4C4E002F534E002F41002F48002FCC
:104F360043002F4C41002F4C4D000A0D496E7661FF
:104F46006C696420417267756D656E74006F70657B
:104F56006E00637764000A0D73686F72744E616D3C
:104F660065203D20000A0D73686F7274506172658A
:104F76006E7450617468203D20000A0D6C6F6E6778
:104F86004E616D65203D20000A0D6C6F6E675061A5
:104F960072656E7450617468203D20000A0D4641AA
:104FA600544669727374436C7573746572203D2040
:104FB600000A0D717569740A0D000A0D496E766155
:104FC6006C696420636F6D6D616E640A0D000A0D75
:104FD600456E7465722053746172742053656374F0
:104FE6006F720A0D000A0D686F77206D616E792069
:104FF600736563746F727320646F20796F752077A1
:10500600616E7420746F207072696E743F0A0D00B1
:105016000A0D596F752077616E7420746F20707257
:10502600696E74200020736563746F727320626505
:1050360067696E6E696E6720617420736563746F4D
:105046007220000A0D6973207468697320636F7299
:10505600726563743F2028792F6E29000A0D20702F
:10506600726573732027712720746F2071756974B8
:1050760020616E6420616E79206F74686572206BA2
:10508600657920746F20676F20616761696E3A20C9
:10509600002052315F54494D454F55542C00205045
:1050A6004152414D45544552204552524F522C00D3
:1050B6002041444452455353204552524F522C00EE
:1050C6002045524153452053455155454E434520B1
:1050D6004552524F520020434F4D5F4352435F4566
:1050E60052524F520020494C4C4547414C20434FA9
:1050F6004D4D414E440020455241534520524553A3
:1051060045540020494E2049444C452053544154AF
:105116004500204F5554204F462049444C45002019
:105126004641494C45445F474F5F49444C455F53B0
:105136005441544500204641494C45445F53454E31
:10514600445F49465F434F4E440020554E535550E9
:10515600504F525445445F434152445F5459504561
:1051660000204641494C45445F4352435F4F4E5FE2
:105176004F464600204641494C45445F4150505FEA
:10518600434D4400204641494C45445F53445F53D8
:10519600454E445F4F505F434F4E4400204F555499
:1051A6005F4F465F49444C455F54494D454F555402
:1051B60000204641494C45445F524541445F4F43B8
:1051C600520020504F5745525F55505F4E4F545F27
:1051D600434F4D504C45544500204641494C4544AB
:1051E6005F5345545F424C4F434B4C454E0020465F
:1051F60041494C45445F53454E445F435344002068
:10520600494E49545F535543434553530A0D000ACB
:105216000A0D20424C4F434B204F464653455409F6
:1052260009090920202048455809090909092020AB
:1052360020202041534349490A0D000A0D20202011
:1052460000307830000920000909000A0A0D000A1A
:105256000D3E3E204552524F523A202020524541A3
:10526600445F4D554C5449504C455F424C4F434B5F
:105276002028434D4431382920696E2053445F501D
:1052860072696E744D756C7469706C654461746195
:10529600426C6F636B7328292072657475726E6534
:1052A60064206572726F7220696E205231207265B9
:1052B60073706F6E73652E000A0D3E3E2045525286
:1052C6004F523A20202054696D656F7574207768B7
:1052D600696C652077616974696E6720666F7220F4
:1052E600537461727420426C6F636B20546F6B65EC
:1052F6006E20696E2053445F5072696E744D756CF2
:105306007469706C6544617461426C6F636B732879
:10531600292E000A0A0D0909090909424C4F434B77
:105326003A20000A0D536561726368696E672066EC
:105336006F72206E6F6E2D7A65726F20626C6F636E
:105346006B73206F7665722072616E676520002030
:10535600746F20000A0D446F6E6520736561726379
:1053660068696E67206E6F6E2D7A65726F20626C4B
:105376006F636B732E000A0D3E3E204552524F520C
:105386003A20202057524954455F424C4F434B2008
:1053960028434D4432342920696E2053445F5772A6
:1053A60069746553696E676C6544617461426C6FBC
:1053B600636B28292072657475726E656420657248
:1053C600726F7220696E20523120726573706F6E33
:1053D60073652E000A0D3E3E204552524F523A202A
:1053E600202054696D656F7574207768696C652037
:1053F60077616974696E6720666F722044617461B3
:1054060020526573706F6E736520546F6B656E20E6
:10541600696E2053445F577269746553696E676C91
:105426006544617461426C6F636B28292E2020529B
:10543600657475726E696E67207769746820494E67
:1054460056414C49445F444154415F544F4B454E8D
:105456000A0D000A0D3E3E2074696D656F75742055
:1054660077616974696E6720666F72206361726422
:1054760020746F206E6F7420626520627573792EBA
:105486000A0D000A0D3E3E20446174612072656A71
:1054960065637465642044756520746F20435243C8
:1054A600204572726F720A0D4461746120526573F1
:1054B600706F6E736520546F6B656E203D20006EB5
:1054C6000D000A0D3E3E20446174612072656A65D6
:1054D600637465642064756520746F20612057725B
:1054E600697465204572726F720A0D446174612099
:1054F600526573706F6E736520546F6B656E203DD9
:1055060020000A0D3E3E204552524F523A2020209E
:1055160057524954455F424C4F434B2028434D4414
:1055260032342920696E2053445F57726974654D81
:10553600756C7469706C6544617461426C6F636B01
:105546007328292072657475726E6564206572729F
:105556006F7220696E20523120726573706F6E73A0
:10556600652E000A0D3E3E204552524F523A2020EB
:105576002054696D656F7574207768696C6520774E
:10558600616974696E6720666F7220446174612078
:10559600526573706F6E736520546F6B656E20690C
:1055A6006E2053445F57726974654D756C746970EB
:1055B6006C6544617461426C6F636B7328292E209D
:1055C6002052657475726E696E67207769746820FB
:1055D600494E56414C49445F444154415F544F4BF8
:1055E600454E0A0D000A0D3E3E205231205265738B
:1055F600706F6E73652072657475726E6564206275
:10560600792073645F577269746553696E67656C58
:1056160044617461426C6F636B28293A000A0D3E3F
:105626003E204461746120526573706F6E7365200D
:105636004572726F72733A000A0D205752495445EB
:105646005F4552524F52000A0D204352435F455266
:10565600524F52000A0D20444154412041434345D4
:1056660050544544000A0D20494E434F525245437B
:105676005420524553504F4E53452052455455528F
:105686004E4544000A0D3E3E204552524F523A20A6
:105696006572726F722072657475726E65642069C8
:1056A6006E20523120726573706F6E736520746F51
:1056B600204150505F434D4420696E2053445F4E55
:1056C600756D6265724F6657656C6C577269747456
:1056D600656E426C6F636B7328292E205265747554
:1056E600726E696E67207769746820696E76616C80
:1056F60069642076616C7565000A0D3E3E20455250
:10570600524F523A206572726F72207265747572CA
:105716006E656420696E20523120726573706F6EFB
:10572600736520746F2053454E445F4E554D5F5749
:10573600525F424C4F434B5320696E2053445F4E99
:10574600756D6265724F6657656C6C5772697474D5
:10575600656E426C6F636B7328292E2052657475D3
:10576600726E696E67207769746820696E76616CFF
:1057760069642076616C7565000A0D3E3E204552CF
:10578600524F523A2074696D656F75742077686957
:105796006C652077616974696E6720666F72207325
:1057A6007461727420746F6B656E20696E20534449
:1057B6005F4E756D6265724F6657656C6C577269A0
:1057C6007474656E426C6F636B7328292E20526564
:1057D6007475726E696E67207769746820696E7673
:1057E600616C69642076616C7565000A0D3E3E2029
:1057F6004552524F523A20202045524153455F5759
:10580600525F424C4F434B5F53544152545F4144A5
:1058160044522028434D4433322920696E20534494
:105826005F4572617365426C6F636B7328292072E2
:10583600657475726E6564206572726F7220696E2A
:1058460020523120726573706F6E73652E000A0DDB
:105856003E3E204552524F523A2020204552415357
:10586600455F57525F424C4F434B5F454E445F4145
:105876004444522028434D4433332920696E205333
:10588600445F4572617365426C6F636B73282920B0
:1058960072657475726E6564206572726F722069C6
:1058A6006E20523120726573706F6E73652E000A1A
:1058B6000D3E3E204552524F523A2020204552413D
:1058C60053452028434D4433382920696E205344DC
:1058D6005F4572617365426C6F636B732829207232
:1058E600657475726E6564206572726F7220696E7A
:1058F60020523120726573706F6E73652E000A0D2B
:105906003E3E204552524F523A2020202054696D87
:10591600656F7574207768696C652077616974694D
:105926006E6720666F72206361726420746F2065F3
:105936007869742074686520627573792073746160
:10594600746520647572696E6720626C6F636B2084
:10595600657261736520696E2053445F4572617399
:1059660065426C6F636B737328292E2052657475BC
:10597600726E696E672077697468206572726F72DD
:105986002873292E0A0D000A0D09202020204552D1
:10599600415345205355434345535346554C000AFE
:1059A6000D09202020204552524F52204552415386
:1059B60045205354415254204144445245535300C8
:1059C6000A0D09202020204552524F5220455241AF
:1059D600534520454E442041444452455353000A02
:1059E6000D09202020204552524F52204552415346
:1059F60045000A0D09202020204552524F522042D0
:105A0600555359000A0D0920202020494E56414C75
:105A16004944204552524F5220524553504F4E53FF
:105A260045000A0D53554343455353000A0D454E51
:105A360044204F46204449524543544F5259000A88
:105A46000D494E56414C49442046494C45204E414D
:105A56004D45000A0D46494C45204E4F5420464FB1
:105A6600554E44000A0D494E56414C49442044497E
:105A760052204E414D45000A0D444952204E4F5486
:105A860020464F554E44000A0D434F52525550542E
:105A960020534543544F52000A0D454E44204F466D
:105AA6002046494C45000A0D554E4B4E4F574E2049
:105AB6004552524F52002E2E002F0020202020202B
:105AC600202020006B4200202020203C4449523EEA
:105AD60020202020002020203C46494C453E202006
