:100000000C9472000C9489000C9489000C94890063
:100010000C9489000C9489000C9489000C9489003C
:100020000C9489000C9489000C9489000C9489002C
:100030000C9489000C9489000C9489000C9489001C
:100040000C9489000C9489000C9489000C9489000C
:100050000C9489000C9489000C9489000C948900FC
:100060000C9489000C9489000C9489000C948900EC
:100070000C9489000C9489000C9489000C948900DC
:100080000C9489000C9489000C9489000C948900CC
:100090000C9489000C9489000C9489000C948900BC
:1000A0000C9489000C9489000C9489000C948900AC
:1000B0000C9489000C9489000C9489000C9489009C
:1000C0000C9489000C9489000C9489000C9489008C
:1000D0000C9489000C9489000C9489000C9489007C
:1000E0000C94890011241FBECFEFD1E2DEBFCDBF3B
:1000F0001FE0A0E0B2E0ECE3F1E500E00BBF02C0DE
:1001000007900D92A035B107D9F70E94C8230C942F
:100110009C280C940000CF93DF9300D000D00F9266
:10012000CDB7DEB70E94390A8D8319821A821B82ED
:100130001C828D818D3061F469817A818B819C81F3
:100140000F900F900F900F900F90DF91CF91089527
:10015000AAE0B0E029813A814B815C810E94F227BC
:100160002D812053DC01CB01820F911DA11DB11DFA
:1001700089839A83AB83BC8387E496E00E94150C45
:1001800069817A818B819C810E94470A0E94390A89
:100190008D8389819A81AB81BC810097A044B10590
:1001A00040F280E092E00E94150CBFCF87E084B956
:1001B00081E085B9E4E6F0E080818B7F808382E591
:1001C0008CBD8DB58E7F8DBD08958EBD0DB407FE9F
:1001D000FDCF08958EB508950C94E5008FEF0E9431
:1001E000E5000C94EA00CF93C0E00E94EE008F3F40
:1001F00011F0CF910895C150C1F780E8FACFCF93A5
:10020000C82F87FF04C081ED93E00E94150CC6FF44
:1002100004C08EED93E00E94150CC5FF04C080EF72
:1002200093E00E94150CC4FF04C080E094E00E949B
:10023000150CC3FF04C086E194E00E94150CC2FFB8
:1002400004C085E294E00E94150CC1FF04C086E35F
:1002500094E00E94150C83E494E0C0FD04C0C11139
:1002600005C082E594E0CF910C94150CCF910895D0
:10027000CF92DF92EF92FF926B017C01D0FE04C01F
:100280008FE594E00E94150CD1FE04C085E794E050
:100290000E94150CD2FE04C08AE894E00E94150C5E
:1002A000D3FE04C081EA94E00E94150CD4FE04C081
:1002B00084EB94E00E94150CD5FE04C084EC94E01D
:1002C0000E94150CD6FE04C08CED94E00E94150C23
:1002D000D7FE04C081EF94E00E94150CE0FE04C03C
:1002E00082E095E00E94150CE1FE04C089E195E0F2
:1002F0000E94150C8EE295E0E2FC06C0CD28CE28C7
:10030000CF2841F48FE395E0FF90EF90DF90CF90FE
:100310000C94150CFF90EF90DF90CF9008952F92E2
:100320003F924F925F926F927F928F929F92AF9285
:10033000BF92CF92DF92EF92FF920F931F93CF93D2
:10034000DF93CDB7DEB728970FB6F894DEBF0FBEA8
:10035000CDBFE22F3B834C835D836E83472E382EC7
:10036000292E88E2A82EB12C512C612C712C812CC5
:10037000912C89E889831A82C12CD12CE12CF12C93
:1003800010E0188680E88F83B0E0F0E02D2D2E235A
:100390003B813E214C814F215D8151236E818885B7
:1003A00068237F8174218B2F83219F2F9221A0E0CE
:1003B0000E94332891F0E5258B8186258B838C81E3
:1003C00087258C838D8188258D838E8189258E83D9
:1003D000898148268A8138262C24252D362D472DC3
:1003E000582D692D79818A819C2D01E00E94182861
:1003F000522E632E742E852E962E79838A83C92ED3
:100400002D2D3E2D4F2D512F68857F818B2F9F2FB6
:100410000E941828D22EE32EF42E152F68877F8392
:10042000B82FF92F81E0A81AB10809F0AFCF8E2FAD
:1004300028960FB6F894DEBF0FBECDBFDF91CF91E7
:100440001F910F91FF90EF90DF90CF90BF90AF90F2
:100450009F908F907F906F905F904F903F902F90E4
:1004600008957F928F929F92AF92BF92CF92DF9228
:10047000EF92FF920F931F93CF93DF934A015B019B
:10048000282F206430E040E050E060E070E080E041
:1004900090E008E20E94FD27C22F732EB42FA52FF3
:1004A000F62FE72F182FD92F9401A50160E070E0F7
:1004B00080E090E008E00E94FD27C22B732AC42E42
:1004C000CB2AD52EDA2AE62EEF2AF72EFE2A182B73
:1004D000D92B2C2F372DA601B701812F9D2F0E94DC
:1004E0008F01C82BC1608FEF0E94E5008FEF0E9443
:1004F000E5008FEF0E94E5002C2F372DA601B701F4
:10050000812F9D2F08E20E941828822F0E94E5006B
:100510002C2F372DA601B701812F9D2F00E20E94BD
:100520001828822F0E94E5002C2F372DA601B70135
:10053000812F9D2F08E10E941828822F0E94E5003C
:100540002C2F372DA601B701812F9D2F00E10E948E
:100550001828822F0E94E5002C2F372DA601B70105
:10056000812F9D2F08E00E941828822F0E94E5000D
:100570008C2FDF91CF911F910F91FF90EF90DF9023
:10058000CF90BF90AF909F908F907F900C94E5009C
:100590000F931F93CF93DF93CBE0D0E08FEF0E94B8
:1005A000E5002197D9F7289840E050E0BA0180E0B3
:1005B0000E9431020E94F300289A813061F0682F76
:1005C00070E07160072E000C880B990BDF91CF91C2
:1005D0001F910F91089528984AEA51E060E070E079
:1005E00088E00E9431020E94F300C82F0E94EE00B2
:1005F0000E94EE000E94EE00D82F0E94EE00289A82
:10060000C13021F06C2F70E07260DCCFD13009F086
:100610008AC08A3A09F087C0289840E050E0BA01C1
:100620008BE30E9431020E94F300289A813021F06E
:10063000682F70E07860C6CFC6E0289840E050E0B0
:10064000BA0187E30E9431020E94F300289A8130A8
:1006500021F0682F70E07061B5CF289840E050E03D
:10066000BA0189E20E9431020E94F300682F289AA1
:10067000823018F070E07062A5CFC15019F470E0BC
:100680007066A0CF8111D9CF289840E050E0BA0120
:100690008AE30E9431020E94F300882331F0682F20
:1006A00070E0706890E080E091CF0E94EE00D82F5B
:1006B00087FD06C0289A60E070E081E090E086CF78
:1006C000082F10E00E94EE00C82F0E94EE00282F95
:1006D000C80156E0959587955A95E1F7823031F03B
:1006E000289A60E074E880E090E070CFD5FB88271E
:1006F00080F943E0159507954A95E1F70270082BBC
:10070000D170D02B289A69F78C2F90E0880F991F11
:10071000221F2227221F822B8F3F914011F760E07A
:1007200070E0CB0153CF61E076E080E090E04ECF07
:10073000CF92DF92EF92FF920F931F93CF93DF93AD
:10074000CDB7DEB729970FB6F894DEBF0FBECDBF89
:10075000289840E050E0BA0189E00E9431020E94EE
:10076000F300882301F1289A8FE495E00E94150C8C
:10077000C12CD12C7601C394C982DA82EB82FC822F
:1007800069817A818B819C8129960FB6F894DEBFAE
:100790000FBECDBFDF91CF911F910F91FF90EF90D2
:1007A000DF90CF90089519820E94EE008295869581
:1007B00086958370833079F47981715079837111D2
:1007C000F3CF289A81E090E0A0E0B0E089839A839B
:1007D000AB83BC83D5CF19820E94EE0087FF07C090
:1007E0009981915099839111F7CF289AC1CF0E9496
:1007F000EE001D820E94EE007D817F5F798382334F
:1008000041F08A3531F08D818F3F79F3D980DD82D7
:10081000F1CFE12C0E94EE008B7781F00E94EE0078
:10082000982F92959F70953009F07BC08F70E82EBD
:1008300087EF8E0D833028F6198602C091E09987E4
:10084000C980CC2009F4BDCF99819F5F9983A98588
:10085000A13001F3DA2EAD8310E000E00E94EE003B
:10086000982F937F61E011F18370082F10E0102F13
:1008700000270E94EE00082B000F111F000F111F10
:100880000E94EE008295869586958370082B0E94C3
:10089000EE0089830E94EE00C980CC0C7C2D76701E
:1008A000881F8827881F782B7D83698581E0D8166B
:1008B00009F49BCFDA94613089F2289A862F21E0DF
:1008C00030E040E050E0E8122FC081E090E0A0E08E
:1008D000B0E089839A83AB83BC83CD808C2D90E07C
:1008E0000196C980DA80EB80FC80CC0CDD1CEE1C0C
:1008F000FF1CC982DA82EB82FC826F5F68171906DF
:1009000081F37CF3D80111960E94F2279B01AC0180
:10091000C701B6010E94AC2769837A838B839C83CD
:100920002FCFA1E0A9878CCF220F331F441F551F63
:100930008F5FC9CFAF92BF92CF92DF92EF92FF92BB
:100940000F931F93CF93DF93CDB7DEB7C450D24040
:100950000FB6F894DEBF0FBECDBFF82E092F289832
:1009600081E10E9431020E94F300182F882399F13F
:10097000289A86EA95E00E94150C812F0E94FF00BC
:10098000198381E08A83CD5FDD4F1882C350D24046
:10099000CC5FDD4F1882C450D24084E092E0FE016B
:1009A0003196AF2DB02F01900D920197E1F78F2D69
:1009B000902FCC5FDD4F0FB6F894DEBF0FBECDBFDA
:1009C000DF91CF911F910F91FF90EF90DF90CF902B
:1009D000BF90AF9008950E94EE008E3F29F5CE01A2
:1009E0008D5F9D4F5C011F3FA1F06E0193E0C90E2A
:1009F000D11C0E94EE00F60181936F01EA15FB0500
:100A0000C1F70E94EE00D82E0E94EE00E82E0E9450
:100A1000EE00289A19821A82F501D082CC5FDD4F50
:100A2000E882C450D240B9CF0E94EE001F5FD5CFFC
:100A3000AF92BF92CF92DF92EF92FF920F931F93EC
:100A4000CF93DF9300D000D000D0CDB7DEB76C01DC
:100A500089E096E00E94150C1E821D8200E110E0E4
:100A6000F12CE12C85E396E00E94150C970150E0F3
:100A700040E029833A834B835C838BE396E03FEF2E
:100A8000E316F10419F010F080E592E00E94150CD5
:100A900069817A818B819C810E948D0B8FE396E026
:100AA0000E94150CAD80BE80AC0CBD1CF12CE12C5D
:100AB0008D819E818E0D9F1D80179107B0F182E47C
:100AC00096E00E94150CED80FE80E016F10608F419
:100AD0004CC08D819E817801E81AF90A0817190720
:100AE00010F4F12CE12CAD81BE81EA0EFB1E005FFB
:100AF0001F4F5096BE83AD830031B2E01B0709F053
:100B0000B1CF85E496E026960FB6F894DEBF0FBE0F
:100B1000CDBFDF91CF911F910F91FF90EF90DF90AC
:100B2000CF90BF90AF900C94150CC701837099279C
:100B3000892B21F480E496E00E94150C80E496E075
:100B40000E94150CD5018D915D01282F30E050E0F9
:100B500040E029833A834B835C83CA01B9010E9438
:100B60008D0B3FEFE31AF30AA3CFF601EE0DFF1D45
:100B70008081803238F480E20E94400A4FEFE41A0C
:100B8000F40AA3CF87FFF8CF8EE2F6CF3F924F92C1
:100B90005F926F927F928F929F92AF92BF92CF920D
:100BA000DF92EF92FF920F931F93CF93DF93CDB716
:100BB000DEB7C850D2400FB6F894DEBF0FBECDBF2F
:100BC0002B013C0179012898BC01A20182E10E941D
:100BD00031020E94F3008983882359F0289A89E41E
:100BE00096E00E94150C89810E94FF008981811185
:100BF00063C08701D12CC12C992493945E01BDEF71
:100C0000AB1ABB0A4DC0E12C32E0F32E0E94EE007D
:100C10008E3F49F081E0E81AF108C1F782EB96E0D7
:100C20000E94150C9A827E0193E0E90EF11C3E2C85
:100C30008F2C0E94EE00D7018D937D01AA15BB0574
:100C4000C1F70E94EE00F50180830E94EE00CC5FA8
:100C5000DD4F8883C450D2408DE097E00E94150C90
:100C6000D301C20129E0B695A795979587952A9556
:100C7000D1F7CB5FDD4F88839983AA83BB83C550AF
:100C8000D240BC01CD010E94470A832D982D0E94BD
:100C900018059FEFC91AD90AA2E05A0E611C711CEF
:100CA000C016D10609F0AFCF40E050E0BA018CE0A9
:100CB0000E9431020E94EE00289AC85FDD4F0FB6F5
:100CC000F894DEBF0FBECDBFDF91CF911F910F9182
:100CD000FF90EF90DF90CF90BF90AF909F908F905C
:100CE0007F906F905F904F903F9008958F929F926A
:100CF000AF92BF92CF92DF92EF92FF920F931F932A
:100D0000CF93DF93CDB7DEB7CC50D2400FB6F89477
:100D1000DEBF0FBECDBFCB5FDD4F6883C550D24075
:100D2000CA5FDD4F7883C650D240C95FDD4F8883EC
:100D3000C750D240C85FDD4F9883C850D240C75FCC
:100D4000DD4F2883C950D240C65FDD4F3883CA507B
:100D5000D240C55FDD4F4883CB50D240C45FDD4FEA
:100D60005883CC50D2408DE197E00E94150CCB5FA8
:100D7000DD4F688179818A819B81C550D2400E9474
:100D8000470A89E497E00E94150CC75FDD4F688130
:100D900079818A819B81C950D2400E94470A10E024
:100DA00000E0C75FDD4F88809980AA80BB80C95072
:100DB000D2408FEF881A980AA80AB80A7E019DEFE0
:100DC000E91AF90A95E0C92ED12CCB5FDD4F888155
:100DD0009981AA81BB81C550D24088159905AA0581
:100DE000BB05B8F08EE497E0C45FDD4F0FB6F89412
:100DF000DEBF0FBECDBFDF91CF911F910F91FF904E
:100E0000EF90DF90CF90BF90AF909F908F900C9419
:100E1000150CCB5FDD4F488159816A817B81C550BC
:100E2000D24089E0440F551F661F771F8A95D1F77E
:100E3000CE0101960E949A04FE0133968191882387
:100E400071F1C801B6010E94BC27892B21F486E408
:100E500096E00E94150C82E496E00E94150CCB5F90
:100E6000DD4F688179818A819B81C550D2400E9483
:100E7000470A0F5F1F4FCB5FDD4F88819981AA81A1
:100E8000BB81C550D2400196A11DB11DCB5FDD4F86
:100E900088839983AA83BB83C550D24096CFEE1531
:100EA000FF0561F6E8CF0F931F93CF93DF9300D038
:100EB00000D0CDB7DEB7362F272FBC018A01289886
:100EC000432F522F88E10E9431020E94F300898350
:100ED0008823A9F0289A80E797E00E94150C898161
:100EE0000E94FF002981822F90E09F600F900F9059
:100EF0000F900F90DF91CF911F910F9108958EEF7A
:100F00000E94EC0009831A8309811A811E5FA9815E
:100F1000BA818D91BA83A9830E94EC00E981FA819C
:100F2000E017F107A1F78FEF0E94EC008FEF0E940E
:100F3000EC0001E011E00E94EE00898301501109EC
:100F400041F4289A8EEC97E00E94150C80E09FE017
:100F5000CDCF89818F7199819771953011F08B3048
:100F600051F7898185708530B9F4A2E0B2E0BA8387
:100F7000A9830E94EE0081110BC089819A8101979B
:100F80009A838983892BA9F78DE498E00E94150C38
:100F9000289A80E092E0AACF89818B708B30A9F4E7
:100FA000289A8DE798E00E94150C9981892F90E08E
:100FB000B0E0A0E0BC01CD010E948D0B89EB98E070
:100FC0000E94150C80E095E091CF89818D708D3065
:100FD00009F0BCCF289A8CEB98E00E94150C9981FF
:100FE000892F90E0B0E0A0E0BC01CD010E948D0B04
:100FF00089EB98E00E94150C80E096E077CF8F9205
:101000009F92AF92BF92CF92DF92EF92FF920F9397
:101010001F93CF93DF9300D000D0CDB7DEB7E62F7C
:10102000572FBC01042F790128984E2F89E10E9487
:1010300031020E94F3008983882309F4CAC0289AE8
:101040008CEF98E00E94150C89810E94FF00998125
:10105000892F90E09F609A83898389819A810F907C
:101060000F900F900F90DF91CF911F910F91FF90F4
:10107000EF90DF90CF90BF90AF909F908F900895AA
:1010800089818F7199819771953011F08B3091F52D
:1010900089818570853009F04EC082E092E09A83A4
:1010A00089830E94EE008823A9F1A0E0B2E0BA8310
:1010B000A983FFEFCF1ADF0AC016D1060CF058C083
:1010C0008CEF0E94EC00FA82E982A981BA818D91AD
:1010D000BA83A9830E94EC00E981FA81EA15FB0535
:1010E000A1F78FEF0E94EC008FEF0E94EC008824A4
:1010F0008394982C0E94EE008983F1E08F1A910866
:1011000009F0BECF289A8DE599E00E94150C80E089
:101110009FE0A1CFA981BA811197BA83A983AB2B94
:1011200009F0BFCF8DE498E00E94150CE0E0F2E0FA
:10113000FA83E983BECF89818B708B3059F58DE7B7
:1011400098E00E94150C9981892F90E0B0E0A0E012
:1011500089839A83AB83BC83BC01CD010E948D0B34
:1011600089EB98E00E94150CA0E0B5E0BA83A98352
:101170008DEF0E94EC0002E012E00E94EE0081116F
:1011800007C001501109C9F78DE498E00E94150CC1
:10119000289A63CF89818D708D30C1F48CEB98E0F3
:1011A0000E94150C9981892F90E0B0E0A0E089831E
:1011B0009A83AB83BC83BC01CD010E948D0B89EB6C
:1011C00098E00E94150CA0E0B6E0D0CFE0E0FFE090
:1011D000AFCFD12CC12C80E09FE09A83898310E0AF
:1011E00057019EEFB91A68CFCF93DF93EC018FEDD3
:1011F00099E00E94150C8C2F0E94FF0087E19AE075
:101200000E94150CCC27D770C11585E0D80781F056
:10121000C11586E0D80731F0C115D24061F48EE4E3
:101220009AE002C082E39AE0DF91CF910C94150C12
:1012300081E49AE0F9CF8FE59AE0F6CFCF92DF9282
:10124000EF92FF92CF93DF9300D000D0CDB7DEB7FF
:10125000289840E050E0BA0187E30E9431020E94E2
:10126000F300F82E8EE79AE0F1100DC040E050E058
:10127000BA0186E10E9431020E94F300F82E882311
:1012800039F183EF9AE00E94150C8F2D0E94FF0028
:1012900019821A821B821C8269817A818B819C81CE
:1012A0000F900F900F900F90DF91CF91FF90EF90E4
:1012B000DF90CF90089529813A81215031093A83F6
:1012C0002983232B49F483E79BE00E94150CE0CF90
:1012D00040E051E05A8349830E94EE008E3F59F767
:1012E0000E94EE0090E0B0E0A0E0CC24D82EE92EE1
:1012F000FA2E0E94EE00C82AFE2CED2CDC2CCC2409
:101300000E94EE00C82AFE2CED2CDC2CCC240E947E
:10131000EE00A7019601282B29833A834B835C8337
:101320000E94EE000E94EE00289AB6CFFF920F9323
:101330001F93CF93DF93F62FE72FBC01F22E032FDD
:10134000142FD52F28984F2F5E2F80E20E94310254
:101350000E94F300C82F289A882381F085EE9BE035
:101360000E94150C8C2F0E94FF008C2F90E0916042
:10137000DF91CF911F910F91FF90089528984F2DE5
:10138000502F612F7D2F81E20E9431020E94F300D5
:10139000C82F289A882359F088E49CE00E94150CF5
:1013A0008C2F0E94FF008C2F90E09260E1CF289854
:1013B00040E050E0BA0186E20E9431020E94F30050
:1013C000C82F8823A9F0289A89EA9CE00E94150C6E
:1013D0008C2F0E94FF008C2F90E09460C9CF219742
:1013E00049F488EF9CE00E94150C80E098E0C0CFA3
:1013F000D0E0C0E00E94EE00882389F3289A90E0B4
:1014000080E0B6CFCF93DF93EC010E94FF00CC27A2
:10141000C11582E0D807D9F050F481E89DE020970B
:1014200091F0C115D14069F08EEF9DE00CC0C1155F
:1014300084E0D80779F0C115D840B1F78CEE9DE073
:1014400002C089E99DE0DF91CF910C94150C8AEBE5
:101450009DE0F9CF89ED9DE0F6CF1092C50087E6BB
:101460008093C40088E18093C10086E08093C2002D
:1014700008958091C00087FFFCCF8091C600089539
:101480009091C00095FFFCCF8093C60008954F92C5
:101490005F926F927F928F929F92AF92BF92CF9204
:1014A000DF92EF92FF920F931F93CF93DF93CDB70D
:1014B000DEB79B01AC018DB69EB66A307105810521
:1014C0009105C0F16436710581059105A8F1283EAA
:1014D00083E038074105510588F1203197E239074B
:1014E0004105510568F1203AE6E83E07E1E04E0784
:1014F000510540F12034F2E43F07FFE04F0751056A
:1015000018F1203886E9380788E948075105F0F0D6
:10151000211591EE390795EF490795E05907C0F07D
:101520002115EAEC3E07EAE94E07EBE35E0790F08F
:101530000AE011C001E00FC002E00DC003E00BC0E3
:1015400004E009C005E007C006E005C007E003C0ED
:1015500008E001C009E010E06801F1E0CF1AD1080D
:101560008DB79EB7801B910B0FB6F8949EBF0FBE30
:101570008DBFEDB7FEB731967F0160E36193CF0178
:101580008E199F0980179107CCF357018AE0482EE6
:10159000512C612C712CCA01B901A30192010E9446
:1015A000D027605DF50161935F01CF018E199F091E
:1015B0008017910784F3F701EC0DFD1D80810E94D7
:1015C000400AF1E0CF1AD108B0F70FB6F8949EBEEA
:1015D0000FBE8DBEDF91CF911F910F91FF90EF90C5
:1015E000DF90CF90BF90AF909F908F907F906F9043
:1015F0005F904F900895CF92DF92EF92FF920F93FA
:101600001F93CF93DF93CDB7DEB7CDB6DEB6603193
:1016100071058105910530F16F3F710581059105D7
:1016200019F110F1611520E1720781059105F0F0C3
:101630006115710531E083079105D0F061157105E1
:1016400020E182079105B0F061157105810531E057
:10165000930790F061157105810520E1920770F004
:1016600020E20DC024E00BC028E009C02CE007C038
:1016700020E105C024E103C028E101C02CE1422F94
:1016800050E08A01015011092DB73EB7241B350BDC
:101690000FB6F8943EBF0FBE2DBF2F5F3F4F7901AD
:1016A000F901A0E3A1939F012E193F0924173507E3
:1016B000CCF3F701A1E3B0E3262F2170969587952F
:1016C00077956795211102C0B08301C0A083319640
:1016D0009F012E193F092417350774F3F701E00F16
:1016E000F11F80810E94400AC80183709927892BCD
:1016F00019F480E20E94400A0150110978F70FB6F0
:10170000F894DEBE0FBECDBEDF91CF911F910F9139
:10171000FF90EF90DF90CF900895CF92DF92EF92FD
:10172000FF920F931F93CF93DF93CDB7DEB7CDB664
:10173000DEB66F3F71058105910509F100F1611574
:1017400020E1720781059105E0F06115710531E036
:1017500083079105C0F06115710520E182079105AD
:10176000A0F061157105810531E0930780F06115E6
:101770007105810520E1920760F028E00BC022E0AE
:1017800009C023E007C024E005C025E003C026E02F
:1017900001C027E0422F50E07A0131E0E31AF1085E
:1017A0002DB73EB7241B350B0FB6F8943EBF0FBEC6
:1017B0002DBF0DB71EB70F5F1F4FF801A0E3A19318
:1017C0009F01201B310B24173507CCF3F801262F7E
:1017D0002F7034E096958795779567953A95D1F770
:1017E0002A3010F4205D01C0295C208331969F01CE
:1017F000201B310B2417350754F3F801EE0DFF1DA4
:1018000080810E94400A31E0E31AF108B0F70FB678
:10181000F894DEBE0FBECDBEDF91CF911F910F9128
:10182000FF90EF90DF90CF9008950F931F93CF9389
:10183000DF93EC018C0107511C4F8991882331F013
:10184000C017D10719F00E94400AF7CFDF91CF915E
:101850001F910F910895883031F178F4823001F1B1
:1018600038F4882399F08130C1F080EA9EE010C0FE
:101870008430D9F78DE49EE00BC0803259F080347B
:10188000A9F0803191F782E99EE002C08CE19EE0F0
:101890000C94150C86E29EE0FBCF89E39EE0F8CF26
:1018A0008EE59EE0F5CF81E79EE0F2CF81E89EE0F5
:1018B000EFCFCF93DF93CDB7DEB7D2500FB6F8940A
:1018C000DEBF0FBECDBFAE014F5F5F4F60E070E087
:1018D000CB010E949B23C150DE4F8881CF5FD14056
:1018E0008535B1F4C050DE4F8881C050D2408A3A6D
:1018F00079F48C859D85811522E0920749F4DE5F9D
:101900000FB6F894DEBF0FBECDBFDF91CF91089523
:1019100080E890E0F4CFCF93DF93CDB7DEB7D2501D
:101920000FB6F894DEBF0FBECDBFAE014F5F5F4F65
:1019300060E070E0CB010E949B23C150DE4F8881A4
:10194000CF5FD1408535B1F4C050DE4F8881C050A3
:10195000D2408A3A79F48C859D858115924051F464
:101960008E85DE5F0FB6F894DEBF0FBECDBFDF9170
:10197000CF91089580E8F5CFCF93DF93CDB7DEB751
:10198000D2500FB6F894DEBF0FBECDBFAE014F5F91
:101990005F4F60E070E0CB010E949B23C150DE4F9F
:1019A0008881CF5FD140853591F4C050DE4F88816A
:1019B000C050D2408A3A59F48F859889DE5F0FB6BD
:1019C000F894DEBF0FBECDBFDF91CF91089580E8C0
:1019D00090E0F4CFCF93DF93CDB7DEB7D2500FB600
:1019E000F894DEBF0FBECDBFAE014F5F5F4F60E02A
:1019F00070E0CB010E949B23C150DE4F8881CF5FF6
:101A0000D140853589F4C050DE4F8881C050D24026
:101A10008A3A51F48989DE5F0FB6F894DEBF0FBEB3
:101A2000CDBFDF91CF91089580E8F5CFCF93DF93BD
:101A3000CDB7DEB7C450D2400FB6F894DEBF0FBEAC
:101A4000CDBFAE014F5F5F4F60E070E0CB010E9401
:101A50009B23C150DE4F8881CF5FD140853599F5FA
:101A6000C050DE4F8881C050D2408A3AC9F58FA15C
:101A700098A5B0E0A0E0BA2FA92F982F88272EA113
:101A8000822BBA2FA92F982F88272DA1AC01BD0139
:101A9000422BCF5FDD4F488359836A837B83C150DC
:101AA000D240CF5FDD4F688179818A819B81C150AF
:101AB000D240CC5FDD4F0FB6F894DEBF0FBECDBF76
:101AC000DF91CF91089560E870E080E090E0CF5F13
:101AD000DD4F688379838A839B83C150D240E1CFF5
:101AE00080E890E0A0E0B0E0CF5FDD4F888399838D
:101AF000AA83BB83C150D240D4CFCF93DF93CDB75D
:101B0000DEB7C450D2400FB6F894DEBF0FBECDBFD3
:101B1000AE014F5F5F4F60E070E0CB010E949B23FE
:101B2000C150DE4F8881CF5FD140853599F5C050D7
:101B3000DE4F8881C050D2408A3AC9F58FA598A956
:101B4000B0E0A0E0BA2FA92F982F88272EA5822BCE
:101B5000BA2FA92F982F88272DA5AC01BD01422BA4
:101B6000CF5FDD4F488359836A837B83C150D24066
:101B7000CF5FDD4F688179818A819B81C150D240DE
:101B8000CC5FDD4F0FB6F894DEBF0FBECDBFDF9147
:101B9000CF91089560E870E080E090E0CF5FDD4F86
:101BA000688379838A839B83C150D240E1CF80E8E8
:101BB00090E0A0E0B0E0CF5FDD4F88839983AA83F7
:101BC000BB83C150D240D4CF8F929F92AF92BF922D
:101BD000CF92DF92EF92FF920F931F93CF93DF93F9
:101BE00000D000D000D0CDB7DEB77B018C012DB77F
:101BF0003EB73E832D830E94BC0C4C010E94590CC1
:101C00005C019C01369527953695279550E040E07C
:101C1000B701C8010E94D0276B017C0192E0CC0C77
:101C2000DD1CEE1CFF1C9A95D1F76DB77EB76A19C3
:101C30007B090FB6F8947EBF0FBE6DBF0DB71EB700
:101C40000F5F1F4F280D391D411D511DD5010E94E9
:101C5000F22769837A838B839C83A8010E949B234C
:101C6000D701C6010396A11DB11D800F911FFC0174
:101C7000808190E0B0E0A0E0BA2FA92F982F8827AC
:101C8000B701A6014E5F5F4F6F4F7F4F400F511F4F
:101C9000FA012081822BBA2FA92F982F8827B7010C
:101CA000A6014F5F5F4F6F4F7F4F400F511FFA01EB
:101CB0002081822BBA2FA92F982F8827C00ED11EE2
:101CC000F6012081AC01BD01422B49835A836B830D
:101CD0007C83CD01BA01ED81FE810FB6F894FEBF81
:101CE0000FBEEDBF26960FB6F894DEBF0FBECDBF78
:101CF000DF91CF911F910F91FF90EF90DF90CF90E8
:101D0000BF90AF909F908F9008952F923F924F92E7
:101D10005F926F927F928F929F92AF92BF92CF927B
:101D2000DF92EF92FF920F931F93CF93DF93CDB784
:101D3000DEB7C35CD1090FB6F894DEBF0FBECDBFCE
:101D40001C014B012DB73EB7C654DF4F39832883A2
:101D5000CA5BD040FB0101900020E9F731978F0169
:101D6000061B170BCA55DF4F0883C65AD040DB014C
:101D70008C918F7D962FFB01F1F4B2E0C457DF4FB9
:101D8000B883CC58D040EDC281918C3521F18F328F
:101D900009F426C78A3309F42AC7282F277F22325D
:101DA00009F42CC7282F2F7B2C3309F42EC78E5310
:101DB000823008F431C78E2F891BCA55DF4FB88196
:101DC000C65AD0408B1700F3CA55DF4FB881C65AA8
:101DD000D040B11107C0E2E0C457DF4FE883CC58D0
:101DE000D040BFC20E94590C2C010E948B0CCB54D6
:101DF000DF4F8883C55BD0406101E7EFCE1AECEF7F
:101E0000DE0AD6012D913D914D915C91CC56DF4F6C
:101E1000288339834A835B83C459D0400E94BC0C19
:101E20007C010E94EA0CC457DF4F8883CC58D04015
:101E30000E94160DC057DF4F6883C059D040C85666
:101E4000DF4F7883C859D0405C01EDB7FEB7C85466
:101E5000DF4FF983E883C85BD0402DB73EB7241924
:101E600035090FB6F8943EBF0FBE2DBF4DB75EB714
:101E70004F5F5F4F3A018DB79EB7841995090FB632
:101E8000F8949EBF0FBE8DBFADB7BEB71196C056BA
:101E9000DF4FB983A883C05AD0406BE077E0C4011C
:101EA0000E946D28892B31F4C457DF4F1882CC581B
:101EB000D0404CC2C457DF4FF881CC58D040AF2F30
:101EC000B0E0C057DF4F2881C059D040C856DF4F1F
:101ED0003881C859D040A5010E94F2279B01AC016E
:101EE0002E0D3F1D411D511DC856DF4F28833983DC
:101EF0004A835B83C859D04060EB7EE0C4010E94F6
:101F00006D28CB54DF4F3881C55BD040232F30E0A4
:101F100050E040E0CE55DF4F288339834A835B830E
:101F2000C25AD040892B09F0D9C0CC56DF4F288146
:101F300039814A815B81C459D0402250310941091D
:101F40005109CE55DF4F688179818A819B81C25AC0
:101F5000D0400E94AC279B01AC01C856DF4F88815E
:101F60009981AA81BB81C859D040280F391F4A1FC7
:101F70005B1FD2010E94F227C457DF4F6883798329
:101F80008A839B83CC58D040A3010E949B23D3011A
:101F9000D496ED90FC90D597DB960C91DB97DA9672
:101FA0001C91F60180809180A280B3800E947D0DFB
:101FB000C457DF4F688379838A839B83CC58D04092
:101FC00086169706A806B90609F46ECFC701B0E0D9
:101FD000A0E0BA2FA92F982F8827802BBA2FA92FDE
:101FE000982F8827812B810113954101FEEF9F1ABD
:101FF000710127EFE21A2DEFF20A0097A105B10552
:10200000E9F463EB7EE0C4010E9476286AE572E0A1
:10201000C7010E94762863EB7EE0C1010E9476280A
:102020006AE572E0C8010E9476280E947D0DD60103
:102030006D937D938D939C93139736CFF601808398
:102040009183A283B383F70101900020E9F73197D0
:10205000AF014E195F095E01F1E4AF0EB11CB7018B
:10206000C5010E947D28F80101900020E9F7319711
:10207000AF01401B510BB8019E012F5F3F4F69011B
:10208000C9010E947D286FE270E0C5010E9491287D
:102090003C016FE270E0C6010E9491282C01B3015F
:1020A0006F5F7F4FC4010E947628B2016F5F7F4F40
:1020B000C1010E947628A3014E5F5F4F4A195B0958
:1020C000B501C7010E947D28A2014E5F5F4F4C19E8
:1020D0005D09B601C8010E947D28E6CEE12CC457F7
:1020E000DF4F1882CC58D040F12CC057DF4F1982F7
:1020F0001882C059D040B12CA12CC201B0E0A0E0A0
:10210000C155DF4F88839983AA83BB83CF5AD040C0
:10211000D801BB27CA54DF4FB983A883C65BD04020
:10212000F3017F97C054DF4FF983E883C05CD04050
:102130009E012F5B3F4FC657DF4F39832883CA5814
:10214000D040CC56DF4F288139814A815B81C45908
:10215000D0402250310941095109CE55DF4F6881E5
:1021600079818A819B81C25AD0400E94AC27C45693
:10217000DF4F688379838A839B83CC59D0409B014E
:10218000AC01C856DF4F88819981AA81BB81C859AB
:10219000D040280F391F4A1F5B1FDA01C901019681
:1021A000A11DB11DC955DF4F88839983AA83BB83C5
:1021B000C75AD040C155DF4F688179818A819B81A0
:1021C000CF5AD0400E94AC27C555DF4F6883798332
:1021D0008A839B83CB5AD040C456DF4F1982188222
:1021E000CC59D040D3015297CE53DF4FB983A88347
:1021F000C25CD040CB54DF4FB881C55BD040AB2F21
:10220000B0E0CD54DF4FB983A883C35BD040C45640
:10221000DF4FE881F981CC59D040EA17FB076CF118
:10222000CC56DF4F688179818A819B81C459D04027
:102230000E94E40DCC56DF4F6883C459D040CB5682
:10224000DF4F7883C559D040CA56DF4F8883C659BF
:10225000D040C956DF4F9883C759D040CC56DF4F86
:10226000288139814A815B81C459D0402F3F3F4F3B
:102270004F4F5F4009F065CF63C0A301C555DF4FE5
:10228000688179818A819B81CB5AD0400E949B23AF
:10229000D12CC12CC056DF4FE881F981C05AD04003
:1022A0007F97C454DF4FF983E883CC5BD040C0569E
:1022B000DF4F28813981C05AD04022513109C254A0
:1022C000DF4F39832883CE5BD040FF2079F130EE99
:1022D000A31631E0B30638F0CD2809F03EC470EE05
:1022E000A72EBB24BA94C457DF4F4881CC58D040A6
:1022F0004E29C457DF4F4883CC58D040442309F4BB
:102300005AC0C057DF4FC880D980C059D04050E272
:10231000C50ED11CE12CC457DF4F1882CC58D040D9
:10232000C057DF4F19821882C059D04083010C0D6D
:102330001D1DD8018C91853E09F450C4811143C004
:10234000B0E2C457DF4FB883CC58D040C854DF4FF9
:10235000A881B981C85BD0400FB6F894BEBF0FBE4C
:10236000ADBFC457DF4F8881CC58D040C654DF4F33
:10237000A881B981CA5BD0400FB6F894BEBF0FBE2A
:10238000ADBFCD53DF4F0FB6F894DEBF0FBECDBF4C
:10239000DF91CF911F910F91FF90EF90DF90CF9041
:1023A000BF90AF909F908F907F906F905F904F9075
:1023B0003F902F900895650180E2C80ED11CE12C5A
:1023C000B12CA12CB3CFF8019385292F2F702F307A
:1023D00009F031C386FD07C0F0E4C457DF4FF8832E
:1023E000CC58D040B3CFFE0131961192C657DF4F83
:1023F00028813981CA58D040E217F307B1F78F73AB
:1024000030E2839F50011124AC0CBD1CA414B50410
:1024100008F476C24A145B0408F4FDC04A145B0455
:10242000D9F6EE24E394C457DF4F1882CC58D0403D
:10243000CD54DF4F88819981C35BD0400197C4564A
:10244000DF4FA881B981CC59D040A817B9070CF447
:10245000EAC0CC56DF4F688179818A819B81C4595B
:10246000D0400E94E40D9B01AC012250310941098A
:102470005109CE55DF4F688179818A819B81C25A8B
:10248000D0400E94AC279B01AC01C856DF4F888129
:102490009981AA81BB81C859D040280F391F4A1F92
:1024A0005B1FC155DF4F688179818A819B81CF5A3B
:1024B000D0400E94AC27C057DF4F688379838A835E
:1024C0009B83C059D040C056DF4F48815981C05AC4
:1024D000D0400E949B23D501A419B509C057DF4FF6
:1024E000B983A883C059D040C056DF4F08811981F5
:1024F000C05AD0400A0F1B1FF80183858F3009F4A2
:102500006BCFC457DF4FF881CC58D040F13009F081
:102510002FC1E11061CFF801B09780818F70F82E44
:1025200021E0821359CFCD0160E09C012052310996
:1025300037FF82C0930122513E4F80E092E0AC0110
:10254000405251094C155D050CF0CCC0BE016F5FC7
:102550007F4FC4010E946D28892B09F0F0C2D80179
:1025600055968C9190E0B0E0A0E0BA2FA92F982F5B
:102570008827F8012489822BBA2FA92F982F882722
:10258000238D822BBA2FA92F982F8827A101475F6F
:102590005C4F228D822BFA0180839183A283B383C7
:1025A000D801FE01EF5BFF4FCF0108967F012D910F
:1025B0002193E817F907D9F7D70118961C92510112
:1025C000B394B101C5010E94622881011E5F6101BF
:1025D000E7EFCE1AEDEFDE0AB801C6010E946228CD
:1025E000D1018C918F3229F063EB7EE0C5010E940E
:1025F0006228B401C1010E947628F80180818F32DF
:1026000029F063EB7EE0C6010E946228B701C80191
:102610000E94762849CCE12C41E0C457DF4F488323
:10262000CC58D04005CFC955DF4F288139814A8128
:102630005B81C75AD04035CFC454DF4FE881F98160
:10264000CC5BD040E80FF91F2BE030E0215031097E
:10265000A9F4C254DF4FE881F981CE5BD040E80F86
:10266000F91F2DE030E021503109B1F49C012450D4
:10267000310928173907F1F4809757CF41915FEF5F
:10268000540F5E3718F7A1E0B0E0AC0FBD1FA60FE6
:10269000B11D4C936F5FDACF41915FEF540F5E37FE
:1026A00010F7A1E0B0E0AC0FBD1FA60FB11D4C9319
:1026B0006F5FD9CFC056DF4FE881F981C05AD04053
:1026C000E20FF31F40815FEF540F5E3740F4E1E00B
:1026D000F0E0EC0FFD1FE60FF11D40836F5F2F5FF1
:1026E0003F4FC7CFF9013D974BE050E041505109B2
:1026F00081F4F9014DE050E041505109C1F4AC01C1
:10270000445051094817590701F580972052310963
:1027100016CF7191AFEFA70FAE3740F7A1E0B0E051
:10272000AC0FBD1FA60FB11D7C936F5FDFCF719102
:10273000AFEFA70FAE3700F7A1E0B0E0AC0FBD1FC1
:10274000A60FB11D7C936F5FD7CFF301E40FF51F88
:102750007081EFEFE70FEE3740F4E1E0F0E0EC0FCF
:10276000FD1FE60FF11D70836F5F4F5F5F4FCACF94
:10277000F1E0EF1231CEF301E052FE4F80818F7015
:10278000F82E21E0821328CE930122513E4FC457E8
:10279000DF4F6881CC58D04080E092E0AC014052DD
:1027A00051094C155D050CF065C0BE016F5F7F4F90
:1027B000C4010E946D28892B09F00DC2D8015596DD
:1027C0008C9190E0B0E0A0E0BA2FA92F982F882735
:1027D000F8012489822BBA2FA92F982F8827238DBF
:1027E000822BBA2FA92F982F8827A101475F5C4F12
:1027F000228D822BFA0180839183A283B383F80117
:10280000DE01AF5BBF4FCD0108967D0121912D9375
:102810008A179B07D9F7D70118961C925101B394D8
:10282000B101C5010E94622881011E5F6101E7EFCD
:10283000CE1AEDEFDE0AB801C6010E946228D1016E
:102840008C918F3229F063EB7EE0C5010E946228F3
:10285000B401C1010E947628F80180818F3229F0ED
:1028600063EB7EE0C6010E946228B701C8010E94A6
:1028700076286CCDF9013D974BE050E0415051096D
:1028800081F4F9014DE050E041505109C1F4AC012F
:10289000445051094817590701F5809720523109D2
:1028A0007DCF7191AFEFA70FAE3740F7A1E0B0E059
:1028B000AC0FBD1FA60FB11D7C936F5FDFCF719171
:1028C000AFEFA70FAE3700F7A1E0B0E0AC0FBD1F30
:1028D000A60FB11D7C936F5FD7CFF301E40FF51FF7
:1028E0007081EFEFE70FEE3740F4E1E0F0E0EC0F3E
:1028F000FD1FE60FF11D70836F5F4F5F5F4FCACF03
:1029000083010A0D1B1DF801B09780818F70F82E8E
:10291000F1E08F1361CDC50140E09C0120523109E7
:102920002C153D05BCF5BE016F5F7F4FC4010E94B1
:102930006D28892B09F009C1D80155968C9190E03A
:10294000B0E0A0E0BA2FA92F982F8827F80124899A
:10295000822BBA2FA92F982F8827238D822BBA2F4D
:10296000A92F982F8827A101475F5C4F228D822BCA
:10297000FA0180839183A283B383F801DE01AF5B08
:10298000BF4FCD0108967D0121912D93A817B9075E
:10299000D9F712CEC054DF4FE881F981C05CD04036
:1029A000E80FF91F2BE030E021503109A9F4CE5394
:1029B000DF4FE881F981C25CD040E80FF91F2DE0BC
:1029C00030E021503109B1F49C012450310928171D
:1029D0003907F1F48097A1CF51916FEF650F6E37F2
:1029E00018F7A1E0B0E0AC0FBD1FA40FB11D5C93C0
:1029F0004F5FDACF51916FEF650F6E3710F7A1E09F
:102A0000B0E0AC0FBD1FA40FB11D5C934F5FD9CFD9
:102A1000F301E20FF31F50816FEF650F6E3740F443
:102A2000E1E0F0E0EC0FFD1FE40FF11D50834F5F7C
:102A30002F5F3F4FCCCFF92FF071FF2E94FF85C051
:102A4000CA55DF4F2881C65AD040293008F0C6C089
:102A5000B401CE018F5B9F4F0E947628D801FE0102
:102A6000EF57FF4FCA54DF4F88819981C65BD04032
:102A70008E0F9F1FBF01E817F90709F05DC0CA5408
:102A8000DF4FE881F981C65BD040E60FF71F108267
:102A9000CE018F5B9F4F0E946D28892B09F09EC04D
:102AA000D80155968C9190E0B0E0A0E0BA2FA92F04
:102AB000982F8827F8012489822BBA2FA92F982FC5
:102AC0008827238D822BBA2FA92F982F8827A10121
:102AD000475F5C4F228D822BFA0180839183A28312
:102AE000B3836101D394B101C6010E9462288101C0
:102AF0001E5F710127EFE21A2DEFF20AB801C7013C
:102B00000E946228D1018C918F3229F063EB7EE024
:102B1000C6010E946228B401C1010E947628F80112
:102B200080818F3229F063EB7EE0C7010E9462282A
:102B3000BE016F577F4F6BCD2D9121939CCFF1E05C
:102B4000C457DF4FF883CC58D04020E2C20ED11CCE
:102B5000C11432E0D3060CF4B8CBC456DF4F488121
:102B60005981CC59D0404F5F5F4FC456DF4F5983D6
:102B70004883CC59D040C955DF4F88819981AA81BB
:102B8000BB81C75AD0400196A11DB11DC955DF4F69
:102B900088839983AA83BB83C75AD040C555DF4F2A
:102BA000288139814A815B81CB5AD040C155DF4FA2
:102BB00088819981AA81BB81CF5AD040280F391FC3
:102BC0004A1F5B1FC555DF4F288339834A835B83C8
:102BD000CB5AD0400FCBEE24E394B7CFF12CB5CF36
:102BE000F2E0C457DF4FF883CC58D040BACB22E094
:102BF000C457DF4F2883CC58D040B3CB32E0C45702
:102C0000DF4F3883CC58D040ACCB42E0C457DF4FC5
:102C10004883CC58D040A5CB52E0C457DF4F5883EF
:102C2000CC58D0409ECB2F923F924F925F926F92A2
:102C30007F928F929F92AF92BF92CF92DF92EF924C
:102C4000FF920F931F93CF93DF9300D000D000D05B
:102C5000CDB7DEB7FC01E60FF71F242F2870D22E68
:102C600043FF09C087853685A32FB82FBE83AD8368
:102C70008189E088F82EB42FB0713B2E44FF03C049
:102C800083896288782E242F2072222E45FF06C069
:102C900087890689182F818D408C582E878C912C1E
:102CA000B12CA12CBA2CA92C982C8824868D882A8A
:102CB000BA2CA92C982C8824858D882ABA2CA92C6A
:102CC000982C8824848D882A86E496E00E94150C2E
:102CD000DD2009F493C089EB9EE00E94150C67018A
:102CE000B5E0D694C794BA95E1F73FE0C322DD245E
:102CF0008AE0C816D10420F48DE396E00E94150CFA
:102D0000B0E0A0E0B601CD010E94470A83EB9EE04F
:102D10000E94150C67019FE1C922DD24AAE0CA16B2
:102D2000D10420F48DE396E00E94150CB0E0A0E001
:102D3000B601CD010E94470A83EB9EE00E94150C6C
:102D4000EF2CFF24E69494E4E91A98EFF90AB0E036
:102D5000A0E0B701CD010E94470A88E396E00E94F7
:102D6000150CED80FE80EF2CFF24E694E694E694AB
:102D7000AD81BE81A115B04520F48DE396E00E949F
:102D8000150CB0E0A0E0B701CD010E94470A85E133
:102D90009AE00E94150CED80FE80E5E0F694E79441
:102DA000EA95E1F79FE3E922FF24AAE0EA16F1049D
:102DB00020F48DE396E00E94150CB0E0A0E0B7018E
:102DC000CD010E94470A85E19AE00E94150CAD8171
:102DD000BE81AF71BB27AA0FBB1FBA83A9831A9705
:102DE00020F48DE396E00E94150CA981BA81CD01F3
:102DF000B0E0A0E0BC01CD010E94470A332009F4F5
:102E000048C088EB9EE00E94150C930165E0369562
:102E100027956A95E1F72F7033273A8329832A3063
:102E2000310520F48DE396E00E94150CA981BA814A
:102E3000CD01B0E0A0E0BC01CD010E94470A83EBC8
:102E40009EE00E94150C93012F7133273A8329834A
:102E50002A30310520F48DE396E00E94150CA981FB
:102E6000BA81CD01B0E0A0E0BC01CD010E94470ACB
:102E700083EB9EE00E94150C672C77246694B4E4E3
:102E80006B1AB8EF7B0AB0E0A0E0B301CD010E945D
:102E9000470A222009F497C088EB9EE00E94150C97
:102EA000D20145E0B695A7954A95E1F7AF70BB27EB
:102EB000BA83A9831A9720F48DE396E00E94150C3B
:102EC000A981BA81CD01B0E0A0E0BC01CD010E9492
:102ED000470A83EB9EE00E94150C92012F71332765
:102EE0003A8329832A30310520F48DE396E00E944D
:102EF000150CA981BA81CD01B0E0A0E0BC01CD01E3
:102F00000E94470A83EB9EE00E94150C452C552435
:102F10004694B4E44B1AB8EF5B0AB0E0A0E0B2010B
:102F2000CD010E94470A88E396E00E94150CD80163
:102F3000AB2FBB27A695A695A695BA83A9830115A5
:102F4000B0E51B0720F48DE396E00E94150CA981E3
:102F5000BA81CD01B0E0A0E0BC01CD010E94470ADA
:102F600085E19AE00E94150C980195E03695279529
:102F70009A95E1F72F7333273A8329832A30310555
:102F800020F48DE396E00E94150CA981BA81CD0151
:102F9000B0E0A0E0BC01CD010E94470A85E19AE0C3
:102FA0000E94150C0F711127000F111F0A30110517
:102FB00020F48DE396E00E94150CB0E0A0E0B8018B
:102FC000CD010E94470A88EB9EE00E94150CC501C6
:102FD000B40128EE33E040E050E00E94D02729837E
:102FE0003A834B835C8381149AEC99069AE9A9068B
:102FF0009BE3B90630F188E396E00E94150C6981E5
:103000007A818B819C810E94470A8EEB9EE02696F6
:103010000FB6F894DEBF0FBECDBFDF91CF911F91E9
:103020000F91FF90EF90DF90CF90BF90AF909F9067
:103030008F907F906F905F904F903F902F900C9467
:10304000150C87E396E08114A1EE9A06A5EFAA0677
:10305000A5E0BA0690F689EB9EE0B0E88B16B6E9DB
:103060009B06B8E9AB06B10440F688EB9EE020E48D
:10307000821622E492062FE0A206B10408F0BDCF2A
:1030800087EB9EE030EA831636E8930631E0A3062C
:10309000B10408F0B2CF80E1881687E29806A10457
:1030A000B10418F086EB9EE0A8CF85EB9EE0A5CF9B
:1030B000CF92DF92EF92FF920F931F93CF93DF9304
:1030C000CDB7DEB72E970FB6F894DEBF0FBECDBFDB
:1030D0008C017B0180E289838A838B838C838D833F
:1030E0008E838F838887198644FF27C081EC9EE0FA
:1030F0000E94150CF801EE0DFF1DDE0111969E01D8
:10310000275F3F4FCD0141914D932A173B07D9F7D8
:103110000E94150C89EB9EE00E94150C2E960FB6AE
:10312000F894DEBF0FBECDBFDF91CF911F910F91FD
:10313000FF90EF90DF90CF9008958FEC9EE00E947B
:10314000150C6DED7EE0CE010A960E947628F701FF
:103150003896E00FF11FDE011B96CE010E962191ED
:103160002D93A817B907D9F7F801EE0DFF1DDE0161
:10317000119690E080E08D0121912D93203271F520
:10318000800F911FFC011082C8010E94150C6DED8B
:103190007EE0CE010A960E946D28892B21F0CE0197
:1031A0000A960E94150CF12CE12C88E0C82ED12C37
:1031B000F80101900020E9F73197E01BF10BC601FF
:1031C0008E1B9F0BE816F90608F0A8CF80E496E066
:1031D0000E94150CFFEFEF1AFF0AEACF0196883024
:1031E000910551F6D1CF2F923F924F925F926F92FD
:1031F0007F928F929F92AF92BF92CF92DF92EF9287
:10320000FF920F931F93CF93DF93CDB7DEB7C357D2
:10321000D1090FB6F894DEBF0FBECDBF7C01162FCB
:103220002DB73EB7A8963FAF2EAFA89782EE9EE08F
:103230000E94150CC7010E94150C0E94590C1C011C
:103240000E948B0CA6968FAFA697F701E75FFC4F05
:1032500080819181A281B3812B968CAF9DAFAEAF5F
:10326000BFAF2B970E94BC0C7C010E94EA0C082F78
:103270000E94160DA02FB0E09B01AC010E94F22726
:103280009B01AC012E0D3F1D411D511D65962CAFBC
:103290003DAF4EAF5FAF65974DB75EB7421953096B
:1032A0000FB6F8945EBF0FBE4DBF8DB79EB70196A7
:1032B0007C01ADB7BEB7A219B3090FB6F894BEBF73
:1032C0000FBEADBF2DB73EB72F5F3F4F290185E43D
:1032D00096E00E94150C13FF04C088EF9EE00E9448
:1032E000150C14FF04C08FE09FE00E94150C15FF21
:1032F00004C082E29FE00E94150C8EE39FE00E94D2
:10330000150C85E496E00E94150C45E050E06796A8
:103310005FAF4EAF6797A12CB12C00E0712C612CF0
:10332000D12CC12CA6969FADA697892F90E0B0E036
:10333000A0E0A3968CAF9DAFAEAFBFAFA3979101B6
:1033400050E040E06F962CAF3DAF4EAF5FAF6F9750
:10335000A7014F515109E0965FAF4EAFE097C7010B
:103360004297E2969FAF8EAFE2972B962CAD3DAD84
:103370004EAD5FAD2B972250310941095109A396FB
:103380006CAD7DAD8EAD9FADA3970E94AC279B0128
:10339000AC0165968CAD9DADAEADBFAD6597280F08
:1033A000391F4A1F5B1F2F962CAF3DAF4EAF5FAF4B
:1033B0002F976F966CAD7DAD8EAD9FAD6F970E94D0
:1033C000AC276B966CAF7DAF8EAF9FAF6B9761965E
:1033D0001FAE1EAE6197D2015F97E496BFAFAEAF4E
:1033E000E497A696BFADA697AB2FB0E0A596BFAF6A
:1033F000AEAFA59761962EAD3FAD61972A173B07FB
:1034000074F12B966CAD7DAD8EAD9FAD2B970E9468
:10341000E40D28966FAF289729967FAF29972A96B3
:103420008FAF2A972B969FAF2B972B968CAD9DAD88
:10343000AEADBFAD2B978F3F9F4FAF4FBF4069F0F1
:1034400067964EAD5FAD67974150510967965FAF84
:103450004EAF6797452B09F088CF80E28AC0A7015D
:103460006B966CAD7DAD8EAD9FAD6B970E949B232F
:10347000912C812C9E012F5B3F4F23963FAF2EAFA7
:103480002397A20142515109AA965FAF4EAFAA9766
:103490002F968CAD9DADAEADBFAD2F970196A11D02
:1034A000B11DAE968CAF9DAFAEAFBFAFAE978214DD
:1034B000930450F4002309F446C090EEC91691E03D
:1034C000D906B0F1892881F16196AEADBFAD6197A3
:1034D00011966196BFAFAEAF61976B962CAD3DADC7
:1034E0004EAD5FAD6B976F968CAD9DADAEADBFAD84
:1034F0006F97280F391F4A1F5B1F6B962CAF3DAF8C
:103500004EAF5FAF6B972F962CAD3DAD4EAD5FAD1F
:103510002F972F5F3F4F4F4F5F4F2F962CAF3DAFF1
:103520004EAF5FAF2F975DCF80EEC82EDD24DA94CB
:10353000BA2809F441C0430130E2830E911CA12C4A
:10354000B12C712C612CF701E80DF91D8081853EAD
:1035500009F4ACC2882309F480CF538524965FAF69
:103560002497952F9F709F3009F08BC286FD2CC049
:1035700080E4A896AEADBFADA8970FB6F894BEBFD5
:103580000FBEADBFCD58DF4F0FB6F894DEBF0FBEF4
:10359000CDBFDF91CF911F910F91FF90EF90DF9002
:1035A000CF90BF90AF909F908F907F906F905F90E3
:1035B0004F903F902F900895460140E2840E911C59
:1035C000A12CD12CC12CBFCFFE0131961192239694
:1035D000AEADBFAD2397EA17FB07C1F78F73B0E21B
:1035E0008B9F60011124C80CD91CC214D30408F4A9
:1035F000B7C12C143D0408F4A2C02C143D0409F0FA
:10360000B7CFAA24A394B12CA5968EAD9FADA59754
:10361000019761962EAD3FAD6197281739070CF4DD
:1036200092C02B966CAD7DAD8EAD9FAD2B970E9459
:10363000E40D9B01AC012250310941095109A396C7
:103640006CAD7DAD8EAD9FADA3970E94AC279B0165
:10365000AC0165968CAD9DADAEADBFAD6597280F45
:10366000391F4A1F5B1F6F966CAD7DAD8EAD9FAD50
:103670006F970E94AC2727966CAF7DAF8EAF9FAF40
:103680002797A2010E949B23360162187308F2015A
:10369000E60DF71D938524969FAF24979F3009F47C
:1036A00067CF91FF02C012FF03C210FF0CC0412F71
:1036B000B301C2010E94131624964FAD2497B301A3
:1036C000C2010E94581811FFF3C1A1E0BA12D5C07F
:1036D000A1104ECFF201E60DF71DB0978081082FA3
:1036E000017080FF45CF412FB301C2010E94131624
:1036F0002496BFAD249781EC9EE0B4FD02C08FEC10
:103700009EE00E94150CC30160E09C01205231092B
:1037100037FF20C0970122513E4F80E092E0AC017C
:1037200040525109481559050CF061C0CE0101966F
:103730000E94150CB02E90E2890E911CB8CEA12CDF
:10374000BB24B39461CFAE962CAD3DAD4EAD5FAD15
:10375000AE9789CFE496EEADFFADE497E80FF91F81
:103760002BE030E02150310999F4AA96EEADFFAD7F
:10377000AA97E80FF91F2DE030E021503109B1F48C
:103780009C012450310928173907F1F48097BDCFE7
:1037900041915FEF540F5E3728F7A1E0B0E0AC0F26
:1037A000BD1FA60FB11D4C936F5FDCCF41915FEF42
:1037B000540F5E3710F7A1E0B0E0AC0FBD1FA60FAD
:1037C000B11D4C936F5FD9CFF201E20FF31F40811F
:1037D0005FEF540F5E3740F4E1E0F0E0EC0FFD1FC7
:1037E000E60FF11D40836F5F2F5F3F4FCCCFF90194
:1037F0003D974BE050E04150510981F4F9014DE013
:1038000050E041505109C1F4AC01445051094817EE
:10381000590701F580972052310981CF7191AFEF9F
:10382000A70FAE3740F7A1E0B0E0AC0FBD1FA60F69
:10383000B11D7C936F5FDFCF7191AFEFA70FAE37F4
:1038400000F7A1E0B0E0AC0FBD1FA60FB11D7C9347
:103850006F5FD7CFF701E40FF51F7081EFEFE70F30
:10386000EE3740F4E1E0F0E0EC0FFD1FE60FF11D54
:1038700070836F5F4F5F5F4FCACF21E0A21278CE97
:10388000F701E052FE4F8081082F017080FF70CE5B
:10389000412FB301C2010E94131624963FAD249715
:1038A0008FEC9EE034FF02C081EC9EE00E94150C7C
:1038B000970122513E4F6B2D80E092E0AC014052C7
:1038C00051094815590534F4CE0101960E94150C92
:1038D000A02E31CFF9013D974BE050E04150510906
:1038E00081F4F9014DE050E041505109C1F4AC01BF
:1038F000445051094817590701F580972052310962
:10390000DDCF7191AFEFA70FAE3740F7A1E0B0E088
:10391000AC0FBD1FA60FB11D7C936F5FDFCF719100
:10392000AFEFA70FAE3700F7A1E0B0E0AC0FBD1FBF
:10393000A60FB11D7C936F5FD7CFF701E40FF51F82
:103940007081EFEFE70FEE3740F4E1E0F0E0EC0FCD
:10395000FD1FE60FF11D70836F5F4F5F5F4FCACF92
:10396000F701EC0DFD1D438524964FAF24974F3092
:1039700009F4FECD41FF02C012FF9AC010FF0CC037
:10398000412FB601C7010E94131624964FAD24970C
:10399000B601C7010E94581811FF8AC0F701EC0D4B
:1039A000FD1DB0978081082F017080FFE1CD412F70
:1039B000B601C7010E94131624965FAD249781ECCF
:1039C0009EE054FD02C08FEC9EE00E94150CC601E3
:1039D00040E09C0120523109281539052CF4CE0114
:1039E00001960E94150CA7CEE096EEADFFADE097D4
:1039F000E80FF91F2BE030E02150310999F4E296ED
:103A0000EEADFFADE297E80FF91F2DE030E0215059
:103A10003109B1F49C012450310928173907F1F418
:103A20008097D7CF51916FEF650F6E3728F7A1E0E0
:103A3000B0E0AC0FBD1FA40FB11D5C934F5FDCCF96
:103A400051916FEF650F6E3710F7A1E0B0E0AC0F4A
:103A5000BD1FA40FB11D5C934F5FD9CFF701E20FDB
:103A6000F31F50816FEF650F6E3740F4E1E0F0E037
:103A7000EC0FFD1FE40FF11D50834F5F2F5F3F4F91
:103A8000CCCF24968FAD249781FF04C0012F047002
:103A900012FF51CE412FB401C7010E941316249684
:103AA0004FAD2497B401C7010E94581800E043CEDF
:103AB00001E041CE2F923F924F925F926F927F92A0
:103AC0008F929F92AF92BF92CF92DF92EF92FF922E
:103AD0000F931F93CF93DF93CDB7DEB72E970FB61B
:103AE000F894DEBF0FBECDBF7C016D877E870E943C
:103AF000590C4C010E948B0C282E0E94BC0C6C01AE
:103B00000E94EA0CB82E0E94160DAB2DB0E09B016E
:103B1000AC010E94F22769837A838B839C832B01FB
:103B20003C014C0C5D1C611C711CED85FE85EE0D8D
:103B3000FF1DC588D12CF12CE12CFE2CED2CDC2CAA
:103B4000CC248489C82AFE2CED2CDC2CCC24838D3B
:103B5000C82AFE2CED2CDC2CCC24828DC82A9401A2
:103B600050E040E02D833E834F835887822D90E0C4
:103B7000B0E0A0E089879A87AB87BC87312CAD8500
:103B8000BE858A0E9B1E85E496E00E94150CA70157
:103B90009601225031094109510969857A858B8541
:103BA0009C850E94AC279B01AC01240D351D461D50
:103BB000571D6D817E818F8198850E94AC27698316
:103BC0007A838B839C8310E000E00215130534F1A7
:103BD000C701B6010E94E40D6B017C019FEFC9167D
:103BE000D906E9069FE0F90671F62E960FB6F8940D
:103BF000DEBF0FBECDBFDF91CF911F910F91FF9020
:103C0000EF90DF90CF90BF90AF909F908F907F907C
:103C10006F905F904F903F902F9008954D855E85F7
:103C200069817A818B819C810E949B23AD84BE84B3
:103C3000A814B90499F40F5F1F4F29813A814B8171
:103C40005C818D819E81AF81B885280F391F4A1F05
:103C50005B1F29833A834B835C83B7CFF501819146
:103C60005F018A3029F486E496E00E94150CE0CFCB
:103C70008823F1F20E94400ADBCF2F923F924F92AD
:103C80005F926F927F928F929F92AF92BF92CF92EC
:103C9000DF92EF92FF920F931F93CF93DF93CDB7F5
:103CA000DEB7C659D1090FB6F894DEBF0FBECDBF3F
:103CB0008C011B012DB73EB7C757DF4F39832883CF
:103CC000C958D040DB018C918F7D09F453C1FB01B1
:103CD00001900020E9F731979F01261B370BC2584E
:103CE000DF4F39832883CE57D040EF963FADEF9713
:103CF000E4963FAFE497962FFB018E2F891BE49645
:103D00004FADE497841708F422C1E4969FADE49781
:103D1000992309F42FC10E94590C3C010E948B0C7D
:103D2000CA57DF4F8883C658D040F801E75FFC4F81
:103D300080819181A281B381A7968CAF9DAFAEAFF8
:103D4000BFAFA7970E94BC0C8C010E94EA0CF82E12
:103D50000E94160D6F966CAF7DAF8EAF9FAF6F97C1
:103D6000AF2DB0E09B01AC010E94F2279B01AC019A
:103D7000200F311F411D511DE3962CAF3DAF4EAFBB
:103D80005FAFE3974DB75EB7C957DF4F598348839D
:103D9000C758D0408DB79EB7861997090FB6F894CB
:103DA0009EBF0FBE8DBFADB7BEB711967D01EDB7FB
:103DB000FEB7E619F7090FB6F894FEBF0FBEEDBFC8
:103DC0002DB73EB72F5F3F4FA9963FAF2EAFA997B4
:103DD00045E050E0E6965FAF4EAFE69700E06C96A8
:103DE0001FAE6C9710E0512C412CB12CA12CCA575E
:103DF000DF4F9881C658D040892F90E0B0E0A0E016
:103E0000C058DF4F88839983AA83BB83C058D040B2
:103E1000930150E040E0EE962CAF3DAF4EAF5FAF68
:103E2000EE97A7014F515109CF56DF4F5983488371
:103E3000C159D040C7014297CD56DF4F998388833F
:103E4000C359D040A7962CAD3DAD4EAD5FADA79701
:103E50002250310941095109C058DF4F68817981E9
:103E60008A819B81C058D0400E94AC279B01AC0145
:103E7000E3968CAD9DADAEADBFADE397280F391F76
:103E80004A1F5B1FAD962CAF3DAF4EAF5FAFAD97F6
:103E9000EE966CAD7DAD8EAD9FADEE970E94AC27DA
:103EA000EA966CAF7DAF8EAF9FAFEA97AF961FAE2D
:103EB0001EAEAF97A996AEADBFADA9975F97CB5693
:103EC000DF4FB983A883C559D040CA57DF4FB881A7
:103ED000C658D040AB2FB0E0CC57DF4FB983A88392
:103EE000C458D040AF96EEADFFADAF97EA17FB07D1
:103EF0000CF442C0A7966CAD7DAD8EAD9FADA7977B
:103F00000E94E40DA4966FAFA497A5967FAFA597E6
:103F1000A6968FAFA697A7969FAFA797A7962CAD0B
:103F20003DAD4EAD5FADA7972F3F3F4F4F4F5F4029
:103F300009F4A7C0E696AEADBFADE6971197E69639
:103F4000BFAFAEAFE697AB2B09F07CCF9AC08191A3
:103F50008C3581F08F3271F08A3361F0282F277F02
:103F6000223241F0282F2F7B2C3321F08E538230C8
:103F700008F0C3CE11E091C0A701EA966CAD7DAD0B
:103F80008EAD9FADEA970E949B23D12CC12CA996A0
:103F9000EEADFFADA9977297C557DF4FF983E88360
:103FA000CB58D040AD962CAD3DAD4EAD5FADAD978D
:103FB0002F5F3F4F4F4F5F4FC357DF4F28833983EA
:103FC0004A835B83CD58D040C614D70480F1AF96A6
:103FD0004EAD5FADAF974F5F5F4FAF965FAF4EAFE8
:103FE000AF97EA968CAD9DADAEADBFADEA97EE96BC
:103FF0002CAD3DAD4EAD5FADEE97820F931FA41F6C
:10400000B51FEA968CAF9DAFAEAFBFAFEA97AD9646
:104010008CAD9DADAEADBFADAD970196A11DB11DEF
:10402000AD968CAF9DAFAEAFBFAFAD974ECF112366
:10403000F9F030EEA31631E0B30630F0CD2839F6B2
:1040400080EEA82EBB24BA946C964FAD6C97402B93
:104050006C964FAF6C97442309F445C0620150E25F
:10406000C50ED11C00E06C961FAE6C97512C412CF4
:10407000F701EC0DFD1D8081853E09F45AC38111C5
:104080003AC014E0C957DF4FE881F981C758D040E2
:104090000FB6F894FEBF0FBEEDBF812FC757DF4F9D
:1040A00028813981C958D0400FB6F8943EBF0FBE61
:1040B0002DBFCA56DF4F0FB6F894DEBF0FBECDBF7F
:1040C000DF91CF911F910F91FF90EF90DF90CF90F4
:1040D000BF90AF909F908F907F906F905F904F9028
:1040E0003F902F900895650180E2C80ED11C00E03A
:1040F000B12CA12CBDCF9385292F2F702F3009F023
:104100003DC286FD02C010E4BDCFFE0131969E0186
:104110002F5B3F4F1192E217F307E1F78F7390E2A5
:10412000899F50011124AC0CBD1CA614B70408F4DF
:10413000B1C16A147B0408F491C0A114A2E0BA06CC
:1041400011F701E06C961FAE6C97CC57DF4F88815A
:104150009981C458D0400197AF96EEADFFADAF97AF
:10416000E817F9070CF480C0A7966CAD7DAD8EAD55
:104170009FADA7970E94E40D9B01AC01225031092D
:1041800041095109C058DF4F688179818A819B813B
:10419000C058D0400E94AC279B01AC01E3968CAD87
:1041A0009DADAEADBFADE397280F391F4A1F5B1F12
:1041B000EE966CAD7DAD8EAD9FADEE970E94AC27B7
:1041C000A3966CAF7DAF8EAF9FAFA397A9964EAD70
:1041D0005FADA9970E949B23250146185708A99611
:1041E000EEADFFADA997E40DF51D83858F3009F481
:1041F0008ACF84FD9CC26C969FAD6C97913009F07C
:10420000D6C0011180CFB0978081182F117080FF28
:104210007ACFC20160E09C012052310937FF2DC0E6
:10422000970122513E4F80E092E0AC01405251098B
:104230004C155D050CF075C0BE016F5F7F4FC1016D
:104240000E946D28892B09F06CC2A9966EAD7FADD6
:10425000A997C2010E945A1D10E014CF00E0B1E0FE
:104260006C96BFAF6C9771CFC357DF4F28813981F0
:104270004A815B81CD58D0409BCFCB56DF4FE88140
:10428000F981C559D040E80FF91F2BE030E02150EB
:104290003109A9F4C557DF4FE881F981CB58D040E7
:1042A000E80FF91F2DE030E021503109B1F49C01F5
:1042B0002450310928173907F1F48097ACCF419188
:1042C0005FEF540F5E3718F7A1E0B0E0AC0FBD1FF1
:1042D000A60FB11D4C936F5FDACF41915FEF540F82
:1042E0005E3710F7A1E0B0E0AC0FBD1FA60FB11D07
:1042F0004C936F5FD9CFA996EEADFFADA997E20FB2
:10430000F31F40815FEF540F5E3740F4E1E0F0E0CF
:10431000EC0FFD1FE60FF11D40836F5F2F5F3F4FD6
:10432000C9CFF9013D974BE050E04150510981F46C
:10433000F9014DE050E041505109C1F4AC01445045
:1043400051094817590701F58097205231096DCF5F
:104350007191AFEFA70FAE3740F7A1E0B0E0AC0F1F
:10436000BD1FA60FB11D7C936F5FDFCF7191AFEFC3
:10437000A70FAE3700F7A1E0B0E0AC0FBD1FA60F4E
:10438000B11D7C936F5FD7CFF701E40FF51F7081EC
:10439000EFEFE70FEE3740F4E1E0F0E0EC0FFD1F48
:1043A000E60FF11D70836F5F4F5F5F4FCACF013023
:1043B00009F0A9CEF701E052FE4F8081182F11704D
:1043C00080FFA1CE970122513E4F6C966FAD6C9746
:1043D00080E092E0AC01405251094C155D05A4F417
:1043E000BE016F5F7F4FC1010E946D28892B09F0CC
:1043F0009CC1A9966EAD7FADA997C2010E945A1DBE
:104400006C961FAD6C973ECEF9013D974BE050E0A6
:104410004150510981F4F9014DE050E041505109FA
:10442000C1F4AC01445051094817590701F5809770
:1044300020523109CFCF7191AFEFA70FAE3740F7C0
:10444000A1E0B0E0AC0FBD1FA60FB11D7C936F5F64
:10445000DFCF7191AFEFA70FAE3700F7A1E0B0E06B
:10446000AC0FBD1FA60FB11D7C936F5FD7CFF701B7
:10447000E40FF51F7081EFEFE70FEE3740F4E1E056
:10448000F0E0EC0FFD1FE60FF11D70836F5F4F5FD3
:104490005F4FCACFF701EA0DFB1D83858F3009F40A
:1044A00032CE84FD44C1B0978081182F117080FFF7
:1044B0002ACEC50140E09C01205231092C153D0552
:1044C00064F4BE016F5F7F4FC1010E946D28892B8C
:1044D00009F0C8C0B701C501BDCECF56DF4FE88196
:1044E000F981C159D040E80FF91F2BE030E021508D
:1044F0003109A9F4CD56DF4FE881F981C359D04085
:10450000E80FF91F2DE030E021503109B1F49C0192
:104510002450310928173907F1F48097CCCF5191F5
:104520006FEF650F6E3718F7A1E0B0E0AC0FBD1F5D
:10453000A40FB11D5C934F5FDACF51916FEF650F00
:104540006E3710F7A1E0B0E0AC0FBD1FA40FB11D96
:104550005C934F5FD9CFF701E20FF31F50816FEFEC
:10456000650F6E3740F4E1E0F0E0EC0FFD1FE40F63
:10457000F11D50834F5F2F5F3F4FCCCF192F10712C
:1045800094FDD7C0E496AFADE497AD3008F06AC0B3
:10459000FE01E65BFF4FCF010996DF011D92A817D0
:1045A000B907E1F769961FAE69976A961FAE6A97D9
:1045B0006B961FAE6B97C258DF4F88809980CE579D
:1045C000D040992421E0822F90E0881599050CF4C1
:1045D0004DC0A0961FAEA09720E0822F90E08815D6
:1045E00099050CF458C0882DA1E4B0E0AC0FBD1FB4
:1045F000A80DB91D90E2883008F45BC02A961FAE62
:104600002A97D701AC0DBD1DCF0108962D9121939E
:10461000E817F907D9F7BE01665B7F4FCE018F5BC4
:104620009F4F0E946D28892BE9F4F701EC0DFD1DC9
:10463000808568968FAF6897818569968FAF6997F7
:1046400082856A968FAF6A9767E376E0CE01895AD2
:104650009F4F0E946D28892B79F1A096BFADA0973E
:10466000B1112FC020E2C20ED11CAECCAC014F5F05
:104670005F4F481559050CF0ACCFD101A80FB91FF9
:104680003C913E3211F02F5F9ECF4C01B1E0A096DD
:10469000BFAFA097A1CF41E450E04C0F5D1F480F82
:1046A000591F820D931DDC018C91DA018C932F5FD1
:1046B00094CF9D938F5F9FCFA096EFADA097EE23F1
:1046C00089F280E264968FAF649765968FAF6597A5
:1046D00066968FAF669767961FAE6797FFEF8F1A44
:1046E0009F0AF101E80DF91DDE01AD5ABF4F9D0192
:1046F0002D5F3F4F8191882321F08D93A217B3073F
:10470000C9F7BE016D5A7F4FCE01895A9F4F0E9453
:104710006D28892B09F0A6CFB701C6010E945A1D4A
:10472000B1CC6C961FAF6C979DCF012F9BCF11E042
:1047300099CF10E097CF0F931F93CF93DF93CDB70F
:10474000DEB7C450D2400FB6F894DEBF0FBECDBF67
:10475000362F272FBC018A01432F522FCE010196FD
:104760000E949A04DE011396F801C8019E5F2D9104
:104770002193E817F907D9F7CC5FDD4F0FB6F8940E
:10478000DEBF0FBECDBFDF91CF911F910F91089576
:10479000CDB7DEB7C552D3400FB6F894DEBF0FBE1B
:1047A000CDBF0E942D0A0E94D600CE5EDC4F18823B
:1047B00019821A821B82C251D340CE5EDC4F6881BF
:1047C00079818A819B81C251D3400E94470A0E940D
:1047D000C802C25FDC4F6883CE50D340C15FDC4F5C
:1047E0007883CF50D340C05FDC4F8883C051D34023
:1047F000CF5EDC4F9883C151D340C25FDC4F8881CC
:104800009981AA81BB81CE50D340892B8A2B8B2BD7
:1048100009F46BC284E392E00E94150CC25FDC4F86
:10482000688179818A819B81CE50D3400E948D0B13
:10483000C25FDC4F688179818A819B81CE50D340F1
:104840000E943801CE5EDC4F88819981AA81BB81AC
:10485000C251D3400197A105B10509F4E4C081E03C
:1048600090E0A0E0B0E0CE5EDC4F88839983AA831D
:10487000BB83C251D340A1CFC25FDC4F8881CE50F1
:10488000D3400E94400AF201E00FF11FC25FDC4FEB
:104890002881CE50D34020830F5F1F4F4BC3D601DA
:1048A0002D916D01F50121935F012032E1F4F701B3
:1048B000E80FF91F1082FC013196E40DF51DD301BC
:1048C00030E020E0A801481B590BCA01281739071E
:1048D00024F441914D9341110AC00034110554F064
:1048E00010E000E017C0222331F301962FC32F5FA1
:1048F0003F4FECCF6BE572E0C7010E946D288C0141
:10490000892B09F095C0B301CE0101960E94850E56
:104910000E942B0C86E496E00E94150C8AE090E041
:104920002091C6000197E1F7012B09F494C28EE0B3
:1049300093E00E94150C0E948B00C25FDC4F6883DD
:10494000CE50D340C15FDC4F7883CF50D340C05F9F
:10495000DC4F8883C051D340CF5EDC4F9883C15178
:10496000D34085E293E00E94150C0E948B007B01EE
:104970008C0180E593E00E94150CB701C8010E94EC
:10498000470A85E693E00E94150CC25FDC4F688100
:1049900079818A819B81CE50D3400E94470A83E867
:1049A00093E00E94150C0E94390AD82E0E94400AFA
:1049B00086E496E00E94150CB9E7DB12B8CFC25F1F
:1049C000DC4F88819981AA81BB81CE50D34029E0F8
:1049D000880F991FAA1FBB1F2A95D1F7C25FDC4F12
:1049E00088839983AA83BB83CE50D3409701A801C3
:1049F000BC01CD010E94C6058CE993E00E94150C14
:104A00000E94390A182F0E94400A113709F08FCFEF
:104A1000C85EDC4FA881B981C851D3400FB6F89465
:104A2000BEBF0FBEADBF0E94390A0E94400AFBCF35
:104A30006EE572E0C7010E946D288C01892B09F098
:104A4000DCC0D1011D921C9290E080E0AA24A394C6
:104A5000B12CF40121914F01222391F001962032D3
:104A600061F431971082F501EE0FFF1FE20DF31D87
:104A700091838083FFEFAF1ABF0A8034910549F715
:104A8000912C812CC25FDC4F1882CE50D340CE5E79
:104A9000DC4FA881B981C251D340CD90DD90CE5E6C
:104AA000DC4FB983A883C251D340C60CD71C61E642
:104AB00072E0C6010E946D28892B91F4C25FDC4F21
:104AC000B881CE50D340B260C25FDC4FB883CE50C5
:104AD000D3409FEF891A990AA814B904C1F676C089
:104AE00065E672E0C6010E946D28892B61F4C25F01
:104AF000DC4FE881CE50D340E160C25FDC4FE883F9
:104B0000CE50D340E6CF69E672E0C6010E946D2820
:104B1000892B61F4C25FDC4FF881CE50D340F8633B
:104B2000C25FDC4FF883CE50D340D3CF6CE672E047
:104B3000C6010E946D28892B61F4C25FDC4F288179
:104B4000CE50D3402460C25FDC4F2883CE50D34088
:104B5000C0CF6FE672E0C6010E946D28892B61F418
:104B6000C25FDC4F4881CE50D3404860C25FDC4F0B
:104B70004883CE50D340ADCF62E772E0C6010E94B9
:104B80006D28892B61F4C25FDC4F5881CE50D34031
:104B90005061C25FDC4F5883CE50D3409ACF66E756
:104BA00072E0C6010E946D28892B61F4C25FDC4F60
:104BB0008881CE50D3408062C25FDC4F8883CE5064
:104BC000D34087CF8AE792E00E94150CC25FDC4F8A
:104BD000A881CE50D340A0FD06C0A260C25FDC4FCA
:104BE000A883CE50D340C25FDC4F6881CE50D34003
:104BF000CE0101960E94F3188BCE6DE872E0C701DA
:104C00000E946D288C01892B31F4B301CE010196ED
:104C10000E943D1E7DCE62E972E0C7010E946D28B0
:104C20008C01892B09F051C086E992E00E94150C95
:104C3000CE5DDC4F8881C252D340CD5DDC4F988180
:104C4000C352D3400E94150C85EA92E00E94150CD5
:104C5000CC5DDC4F8881C452D340CB5DDC4F988162
:104C6000C552D3400E94150C8AEB92E00E94150CAD
:104C7000CE0101960E94150C88EC92E00E94150C62
:104C8000CA5EDC4F8881C651D340C95EDC4F988133
:104C9000C751D3400E94150C8CED92E00E94150C78
:104CA000C65FDC4F88819981AA81BB81CA50D340FD
:104CB000C25FDC4F88839983AA83BB83CE50D340E5
:104CC000BC01CD010E94470A25CED7018C918137C6
:104CD00039F481EF92E00E94150C01E010E01ACE49
:104CE0008AEF92E00E94150CFBCDEDB7FEB7C85ECF
:104CF000DC4FF983E883C851D34086E496E00E94F4
:104D0000150C2FE230E03A8329838EEFFE013396B3
:104D1000DF01482F1D924A95E9F75E0151E0A50E8B
:104D2000B51EF50111921192DF01482F1D924A958F
:104D3000E9F76E015FEFC51A5DEFD50AF601219321
:104D4000319397E0DF011D929A95E9F78E01065F96
:104D50001D4FF80111921192DF011D928A95E9F71A
:104D60000E947D0DC25FDC4F688379838A839B83B9
:104D7000CE50D340FE01E65FFC4F60837183828397
:104D800093834DB75EB7405451090FB6F8945EBF98
:104D90000FBE4DBF8DB79EB701962C01ADB7BEB704
:104DA000A054B1090FB6F894BEBF0FBEADBF4F53AC
:104DB00051097A01815891090FB6F8949EBF0FBE30
:104DC0008DBFDF973D01415C51090FB6F8945EBF7E
:104DD0000FBE4DBF8F5791091C01A054BF4FC05E3D
:104DE000DC4FB983A883C052D3404F5F5E4FC25E91
:104DF000DC4F59834883CE51D34080549F4FC45ECB
:104E0000DC4F99838883CC51D340A05CB109C65E46
:104E1000DC4FB983A883CA51D340CA5EDC4FA88255
:104E2000C651D340C95EDC4FB882C751D340CE5D76
:104E3000DC4FC882C252D340CD5DDC4FD882C35212
:104E4000D340CC5DDC4F0883C452D340CB5DDC4FF4
:104E50001883C552D3406201F2011192C05EDC4F4B
:104E6000A881B981C052D340EA17FB07B1F75701B7
:104E7000F7011192C25EDC4F48815981CE51D34077
:104E8000E417F507B1F74301F3011192C45EDC4F5B
:104E900088819981CC51D340E817F907B1F7CE5EEC
:104EA000DC4F39822882C251D340F1011192119214
:104EB000C65EDC4FA881B981CA51D340AE17BF0787
:104EC000A9F786E496E00E94150CCA5EDC4F888143
:104ED000C651D340C95EDC4F9881C751D3400E9470
:104EE000150CCE0101960E94150C83E592E00E94FC
:104EF000150C0E94390AC25FDC4F8883CE50D34024
:104F000010E000E0C25FDC4F4881CE50D3404D300E
:104F1000D9F0C25FDC4FB881CE50D340BF3709F023
:104F2000ABCC87E592E00E94150C0115110511F03C
:104F3000015011090E94390AC25FDC4F8883CE50AC
:104F4000D34000341105F4F290E080E0081719070F
:104F500009F0A5CCC801AFCCDB018F939F930E94D1
:104F6000F227BF91AF91A29F800D911DA39F900D3D
:104F7000B29F900D1124089597FB072E16F400940C
:104F800007D077FD09D00E943F2807FC05D03EF4EA
:104F9000909581959F4F0895709561957F4F0895E5
:104FA000A1E21A2EAA1BBB1BFD010DC0AA1FBB1F2D
:104FB000EE1FFF1FA217B307E407F50720F0A21B9F
:104FC000B30BE40BF50B661F771F881F991F1A940C
:104FD00069F760957095809590959B01AC01BD0136
:104FE000CF0108950E945328A59F900DB49F900D66
:104FF000A49F800D911D11240895002E083090F07B
:10500000982F872F762F652F542F432F322F22274B
:105010000850F4CF220F331F441F551F661F771F00
:10502000881F991F0A95B2F7002D089597FD1094D7
:10503000002E083098F00850232F342F452F562F7C
:10504000672F782F892F912DF4CF159497958795F9
:105050007795679557954795379527950A95AAF7B8
:105060001124002D08950024A7FD00942A1730056F
:105070004005500560057005800590050895AA1B40
:10508000BB1B51E107C0AA1FBB1FA617B70710F033
:10509000A61BB70B881F991F5A95A9F78095909565
:1050A000BC01CD010895A29FB001B39FC001A39F91
:1050B000700D811D1124911DB29F700D811D112451
:1050C000911D0895FB01DC010D900020E9F7119777
:1050D00001900D920020E1F70895FB01DC018D9114
:1050E000019080190110D9F3990B0895FB01DC019F
:1050F00001900D920020E1F70895DC01FB01415081
:10510000504058F049F001900D920020C1F7E61B85
:10511000F70B3197CF0108951C9201900020E9F719
:10512000F6CFFC0181E090E00190061609F4CF0172
:0C5130000020D1F701970895F894FFCFFC
:10513C00736563746F722076616C7565206973207A
:10514C00746F6F206C617267652E0A0D456E746505
:10515C00722076616C7565203C20343139343330E3
:10516C00340A0D000A0D534420494E49542046413F
:10517C00494C454420524553504F4E5345203D20F9
:10518C00307800203E2000082008006364006C7317
:10519C00002F4C4E002F534E002F41002F48002F54
:1051AC0043002F4C41002F4C4D000A0D496E766187
:1051BC006C696420417267756D656E74006F706503
:1051CC006E00637764000A0D73686F72744E616DC4
:1051DC0065203D20000A0D73686F72745061726512
:1051EC006E7450617468203D20000A0D6C6F6E6700
:1051FC004E616D65203D20000A0D6C6F6E6750612D
:10520C0072656E7450617468203D20000A0D464131
:10521C00544669727374436C7573746572203D20C7
:10522C00000A0D717569740A0D000A0D496E7661DC
:10523C006C696420636F6D6D616E640A0D000A0DFC
:10524C00456E746572205374617274205365637477
:10525C006F720A0D000A0D686F77206D616E7920F0
:10526C00736563746F727320646F20796F75207728
:10527C00616E7420746F207072696E743F0A0D0039
:10528C000A0D596F752077616E7420746F207072DF
:10529C00696E74200020736563746F72732062658D
:1052AC0067696E6E696E6720617420736563746FD5
:1052BC007220000A0D6973207468697320636F7221
:1052CC00726563743F2028792F6E29000A0D2070B7
:1052DC00726573732027712720746F207175697440
:1052EC0020616E6420616E79206F74686572206B2A
:1052FC00657920746F20676F20616761696E3A2051
:10530C00002052315F54494D454F55542C002050CC
:10531C004152414D45544552204552524F522C005A
:10532C002041444452455353204552524F522C0075
:10533C002045524153452053455155454E43452038
:10534C004552524F520020434F4D5F4352435F45ED
:10535C0052524F520020494C4C4547414C20434F30
:10536C004D4D414E4400204552415345205245532A
:10537C0045540020494E2049444C45205354415437
:10538C004500204F5554204F462049444C450020A1
:10539C004641494C45445F474F5F49444C455F5338
:1053AC005441544500204641494C45445F53454EB9
:1053BC00445F49465F434F4E440020554E53555071
:1053CC00504F525445445F434152445F54595045E9
:1053DC0000204641494C45445F4352435F4F4E5F6A
:1053EC004F464600204641494C45445F4150505F72
:1053FC00434D4400204641494C45445F53445F5360
:10540C00454E445F4F505F434F4E4400204F555420
:10541C005F4F465F49444C455F54494D454F555489
:10542C0000204641494C45445F524541445F4F433F
:10543C00520020504F5745525F55505F4E4F545FAE
:10544C00434F4D504C45544500204641494C454432
:10545C005F5345545F424C4F434B4C454E002046E6
:10546C0041494C45445F53454E445F4353440020EF
:10547C00494E49545F535543434553530A0D000A53
:10548C000D3E3E204552524F523A20202053454E5D
:10549C00445F4353442028434D44392920696E20EE
:1054AC0073645F6765744D656D6F7279436170618C
:1054BC006369747928292072657475726E6564202D
:1054CC006572726F7220696E205231207265737032
:1054DC006F6E73652E000A0D3E3E204552524F52A0
:1054EC003A202020524541445F53494E474C455F7A
:1054FC00424C4F434B2028434D4431372920696E91
:10550C002073645F5265616453696E676C654461B6
:10551C007461426C6F636B28292072657475726EAE
:10552C006564206572726F7220696E205231207230
:10553C006573706F6E73652E000A0A0D20424C4F16
:10554C00434B204F46465345540909090920202056
:10555C0048455809090909092020202020415343B6
:10556C0049490A0D000A0D2020200030783000092E
:10557C0020000909000A0A0D000A0D3E3E20455282
:10558C00524F523A202020524541445F4D554C54C5
:10559C0049504C455F424C4F434B2028434D4431BE
:1055AC00382920696E2073645F5072696E744D7572
:1055BC006C7469706C6544617461426C6F636B737D
:1055CC0028292072657475726E6564206572726F1D
:1055DC007220696E20523120726573706F6E736524
:1055EC002E000A0D3E3E204552524F523A202020AA
:1055FC0054696D656F7574207768696C6520776187
:10560C006974696E6720666F7220537461727420BE
:10561C00426C6F636B20546F6B656E20696E2073E8
:10562C00645F5072696E744D756C7469706C65440E
:10563C00617461426C6F636B7328292E000A0A0D2A
:10564C000909090909424C4F434B3A20000A0D53F2
:10565C006561726368696E6720666F72206E6F6E2B
:10566C002D7A65726F20626C6F636B73206F766539
:10567C00722072616E6765200020746F20000A0D25
:10568C00446F6E6520736561726368696E67206E26
:10569C006F6E2D7A65726F20626C6F636B732E0068
:1056AC000A0D3E3E204552524F523A20202057526E
:1056BC004954455F424C4F434B2028434D443234B0
:1056CC002920696E2073645F577269746553696E23
:1056DC00676C6544617461426C6F636B282920723E
:1056EC00657475726E6564206572726F7220696E76
:1056FC0020523120726573706F6E73652E000A0D27
:10570C003E3E204552524F523A20202054696D653E
:10571C006F7574207768696C652077616974696E40
:10572C006720666F72204461746120526573706FDC
:10573C006E736520546F6B656E20696E2073645FA9
:10574C00577269746553696E676C65446174614224
:10575C006C6F636B28292E202052657475726E69EC
:10576C006E67207769746820494E56414C49445FF6
:10577C00444154415F544F4B454E0A0D000A0D3EB7
:10578C003E2074696D656F75742077616974696EFC
:10579C006720666F72206361726420746F206E6F75
:1057AC007420626520627573792E0A0D000A0D3E15
:1057BC003E20446174612072656A6563746564207F
:1057CC0044756520746F20435243204572726F728A
:1057DC000A0D4461746120526573706F6E7365209D
:1057EC00546F6B656E203D20006E0D000A0D3E3E21
:1057FC0020446174612072656A6563746564206419
:10580C00756520746F20612057726974652045722C
:10581C00726F720A0D4461746120526573706F6E01
:10582C00736520546F6B656E203D20000A0D3E3E63
:10583C00204552524F523A20202057524954455F2E
:10584C00424C4F434B2028434D4432342920696E3F
:10585C002073645F57726974654D756C7469706CF4
:10586C006544617461426C6F636B732829207265A7
:10587C007475726E6564206572726F7220696E2029
:10588C00523120726573706F6E73652E000A0D3E77
:10589C003E204552524F523A20202054696D656F7C
:1058AC007574207768696C652077616974696E67B7
:1058BC0020666F72204461746120526573706F6E44
:1058CC00736520546F6B656E20696E2073645F572F
:1058DC00726974654D756C7469706C654461746142
:1058EC00426C6F636B7328292E202052657475727D
:1058FC006E696E67207769746820494E56414C4931
:10590C00445F444154415F544F4B454E0A0D000ACD
:10591C000D3E3E20523120526573706F6E736520C0
:10592C0072657475726E65642062792073645F575A
:10593C007269746553696E67656C44617461426C1D
:10594C006F636B28293A000A0D3E3E204461746156
:10595C0020526573706F6E7365204572726F72732F
:10596C003A000A0D2057524954455F4552524F5246
:10597C00000A0D204352435F4552524F52000A0D0C
:10598C002044415441204143434550544544000A6E
:10599C000D20494E434F52524543542052455350CB
:1059AC004F4E53452052455455524E4544000A0D16
:1059BC003E3E204552524F523A206572726F722011
:1059CC0072657475726E656420696E205231207236
:1059DC006573706F6E736520746F204150505F4318
:1059EC004D4420696E2073645F4E756D6265724F15
:1059FC006657656C6C5772697474656E426C6F6334
:105A0C006B7328292E2052657475726E696E67202F
:105A1C007769746820696E76616C69642076616C54
:105A2C007565000A0D3E3E204552524F523A206594
:105A3C0072726F722072657475726E656420696E15
:105A4C0020523120726573706F6E736520746F20F5
:105A5C0053454E445F4E554D5F57525F424C4F433A
:105A6C004B5320696E2073645F4E756D6265724F87
:105A7C006657656C6C5772697474656E426C6F63B3
:105A8C006B7328292E2052657475726E696E6720AF
:105A9C007769746820696E76616C69642076616CD4
:105AAC007565000A0D3E3E204552524F523A207405
:105ABC00696D656F7574207768696C6520776169AD
:105ACC0074696E6720666F722073746172742074CF
