:100000000C9472000C9489000C9489000C94890063
:100010000C9489000C9489000C9489000C9489003C
:100020000C9489000C9489000C9489000C9489002C
:100030000C9489000C9489000C9489000C9489001C
:100040000C9489000C9489000C9489000C9489000C
:100050000C9489000C9489000C9489000C948900FC
:100060000C9489000C9489000C9489000C948900EC
:100070000C9489000C9489000C9489000C948900DC
:100080000C9489000C9489000C9489000C948900CC
:100090000C9489000C9489000C9489000C948900BC
:1000A0000C9489000C9489000C9489000C948900AC
:1000B0000C9489000C9489000C9489000C9489009C
:1000C0000C9489000C9489000C9489000C9489008C
:1000D0000C9489000C9489000C9489000C9489007C
:1000E0000C94890011241FBECFEFD1E2DEBFCDBF3B
:1000F0001DE0A0E0B2E0ECEAF9E400E00BBF02C0D2
:1001000007900D92A23DB107D9F70E94D3200C941D
:10011000D4240C940000CF92DF92EF92FF92CF9301
:100120000E947408C82FC12CD12C7601CD3019F152
:10013000AAE0B0E0A70196010E942924C0536B01F8
:100140007C01CC0ED11CE11CF11C89EC94E00E94D6
:10015000500AC701B6010E9482080E947408C82F85
:10016000C114D10480E4E806F10400F380E092E0D9
:100170000E94500AD8CFC701B601CF91FF90EF90EF
:10018000DF90CF90089587E084B981E085B9E4E6F7
:10019000F0E080818B7F808382E58CBD8DB58E7F82
:1001A0008DBD08958EBD0DB407FEFDCF08958EB5AB
:1001B00008950C94D2008FEF0E94D2000C94D700C7
:1001C0002F923F924F925F926F927F928F929F9267
:1001D000AF92BF92CF92DF92EF92FF920F931F9355
:1001E000CF93DF93CDB7DEB728970FB6F894DEBF75
:1001F0000FBECDBFD22E832E742E652E562E472EC7
:10020000382E292E88E290E09A838983E12CF12C04
:1002100010E018861F82B9E8912CA12CF0E0E0E0F4
:100220001B821C821D8290E89E83B12CC12C2F2F33
:100230002D213E2F38214B8147215C8156216D8134
:1002400065217E8174218B2D83219C2D9221A0E03C
:100250000E946B2451F0DE248F2471268885682645
:100260009F8159264B2639242A249701412F5885EE
:100270006F817B2F892D9A2D01E00E944F247901F7
:10028000142F58876F83B72F982EA92E2F2F3E2F0C
:100290004B815C816D817E818B2D9C2D0E944F2432
:1002A000F22FE32F4B835C836D837E83B82EC92EA0
:1002B00089819A8101979A838983892B09F0B7CF25
:1002C0008D2D28960FB6F894DEBF0FBECDBFDF91FF
:1002D000CF911F910F91FF90EF90DF90CF90BF9043
:1002E000AF909F908F907F906F905F904F903F90D6
:1002F0002F9008957F928F929F92AF92BF92CF924C
:10030000DF92EF92FF920F931F93CF93DF934A01F7
:100310005B01282F206430E040E050E060E070E0B6
:1003200080E090E008E20E943424C22F732EB42FA4
:10033000A52FF62FE72F182FD92F9401A50160E0E4
:1003400070E080E090E008E00E943424C22BB32EDD
:10035000B728C42ECB2AD52EDA2AE62EEF2AF72E7E
:10036000FE2A182BD92B2C2F3B2DA601B701812F4C
:100370009D2F0E94E000C160C82B8FEF0E94D20029
:100380008FEF0E94D2008FEF0E94D2002C2F3B2DC6
:10039000A601B701812F9D2F08E20E944F24822FD2
:1003A0000E94D2002C2F3B2DA601B701812F9D2F3B
:1003B00000E20E944F24822F0E94D2002C2F3B2D5E
:1003C000A601B701812F9D2F08E10E944F24822FA3
:1003D0000E94D2002C2F3B2DA601B701812F9D2F0B
:1003E00000E10E944F24822F0E94D2002C2F3B2D2F
:1003F000A601B701812F9D2F08E00E944F24822F74
:100400000E94D2008C2FDF91CF911F910F91FF900E
:10041000EF90DF90CF90BF90AF909F908F907F90A4
:100420000C94D200CF93C0E00E94DB008F3F19F400
:10043000C150D1F780E8CF910895EF92FF920F93CA
:100440001F93CF93DF93CBE0D0E08FEF0E94D200D9
:100450002197D9F7289840E050E0BA0180E00E9447
:100460007A010E941202289A813021F0682F70E0F0
:1004700071601AC028984AEA51E060E070E088E0B4
:100480000E947A010E941202C82F0E94DB000E9483
:10049000DB000E94DB00D82F0E94DB00289AC130CD
:1004A00041F06C2F70E07260072E000C880B990BE6
:1004B0008FC0D13009F088C08A3A09F085C02898E9
:1004C00040E050E0BA018BE30E947A010E941202E0
:1004D000289A813021F0682F70E07860E5CFC6E07F
:1004E000289840E050E0BA0187E30E947A010E9418
:1004F0001202289A813021F0682F70E07061D4CF09
:10050000289840E050E0BA0189E20E947A010E94F6
:100510001202289A823020F0682F70E07062C4CFF7
:10052000C15021F4682F70E07066BECF8111D8CF22
:10053000289840E050E0BA018AE30E947A010E94C4
:100540001202882331F0682F70E0706880E090E03C
:100550003FC00E94DB00082F87FD06C0289A60E09C
:1005600070E081E090E034C085FBEE24E0F880711B
:1005700090E023E0959587952A95E1F7182F802F35
:100580008170F82E0E94DB00C82FD0E0CC0FDD1F59
:100590000E94DB00881F8827881FC82B06FD09C022
:1005A000E11007C0111105C0F11003C0CF3FD140C9
:1005B00031F0289A60E074E880E090E009C0289A61
:1005C00060E070E0CB0104C061E076E080E090E0A4
:1005D000DF91CF911F910F91FF90EF9008950895B3
:1005E0000895CF92DF92EF92FF920F931F93CF93D4
:1005F000DF93289840E050E0BA0189E00E947A0138
:100600000E941202882331F0289A81ED93E00E9423
:10061000500A37C0C0E00E94DB008295869586951F
:100620008370833019F4C150B1F72AC0C0E00E9432
:10063000DB0087FF03C0C150D1F722C00E94DB005E
:10064000C0E00E94DB00CF5F823379F08A3569F029
:10065000C111F7CF15C00E94DB00982F92959F70B3
:10066000953041F0CC2361F0CF5F0E94DB008B77A7
:10067000C9F3F1CF182F1F7087EF810F833030F04F
:10068000289A61E070E080E090E05AC0CC23C1F38A
:10069000F12C0E94DB00982F937F09F44BC08370EC
:1006A000C82FD0E0DC2FCC270E94DB00C82BCC0F5A
:1006B000DD1FCC0FDD1F0E94DB008295869586959D
:1006C0008370C82B0E94DB00082F0E94DB000370A0
:1006D000000F881F8827881F802B91E0F91681F270
:1006E000289A90E021E030E040E050E0220F331FF4
:1006F000441F551F9F5F1913F9CF60E0C12CD12C07
:100700007601C39490E00196E62FF0E08E179F07E4
:1007100034F0CC0CDD1CEE1CFF1C6F5FF5CFDE014E
:1007200011960E9429249B01AC01C701B6010E94C9
:10073000E32306C081E0F81609F4A2CFFA94A9CF0A
:10074000DF91CF911F910F91FF90EF90DF90CF90AD
:100750000895BF92CF92DF92EF92FF920F931F9373
:10076000CF93DF93CDB7DEB7C450D2400FB6F89425
:10077000DEBF0FBECDBF8C01289881E10E947A01B7
:100780000E941202F82E8823B1F0289A88E294E0A1
:100790000E94500A8F2D0E94EF02F98281E08A8325
:1007A000CD5FDD4F1882C350D240CC5FDD4F188241
:1007B000C450D2402EC00E94DB00F12C8E3F21F0AD
:1007C0000E94DB00F394FACFCE018D5F9D4F6C0148
:1007D0009FEFF916A1F07E01E3E0EE0EF11C0E94FE
:1007E000DB00F70181937F01EC15FD05C1F70E9445
:1007F000DB00B82E0E94DB00E82E0E94DB00289A66
:1008000019821A82F601B082CC5FDD4FE882C450B3
:10081000D24084E092E0FE013196D80101900D9221
:100820000197E1F7C801CC5FDD4F0FB6F894DEBF4A
:100830000FBECDBFDF91CF911F910F91FF90EF9031
:10084000DF90CF90BF9008954F925F926F927F920A
:100850008F929F92AF92BF92CF92DF92EF92FF92D0
:100860000F931F93CF93DF935C018BE894E00E947A
:10087000500A750100E010E0C0E0D0E087EB94E0A2
:100880000E94500A2E01612C712CCF3FD10509F036
:1008900018F48DEB94E002C080E592E00E94500ACB
:1008A000C301B2010E94C80981EC94E00E94500A81
:1008B000680180E1C80ED11CE7014501800E911E40
:1008C000CE018A199B098C159D05B0F4CE018819BB
:1008D000990983709927892B21F482EC94E00E9476
:1008E000500A82EC94E00E94500A699170E080E026
:1008F00090E00E94C809E4CF84EC94E00E94500A82
:100900004701E801CC15DD0568F4F40181914F0140
:10091000803210F480E202C087FD8EE20E947B08E4
:100920002196F0CFF0E1EF0EF11C8601C11482E0B8
:10093000D80609F0A3CF87EC94E0DF91CF911F9107
:100940000F91FF90EF90DF90CF90BF90AF909F906E
:100950008F907F906F905F904F900C94500A2F92E1
:100960003F924F925F926F927F928F929F92AF923F
:10097000BF92CF92DF92EF92FF920F931F93CF938C
:10098000DF93CDB7DEB7C650D2400FB6F894DEBFC6
:100990000FBECDBF1B018C0129013A012898AB0184
:1009A000BC0182E10E947A010E941202898388239D
:1009B00041F0289A8BEC94E00E94500A89810E94B1
:1009C000EF02898181116BC0812C912C540161014E
:1009D00078011E018DEF281A380A84149504A604A4
:1009E000B70409F454C000E012E00E94DB008E3F1F
:1009F00049F001501109C9F784E395E00E94500ABB
:100A0000E1E0EA838E010D5F1F4FCB5FDD4F08836E
:100A1000C550D240CA5FDD4F1883C650D2400E94F5
:100A2000DB00F80181938F012E163F06C1F70E946B
:100A3000DB00F10180830E94DB00CC5FDD4F888307
:100A4000C450D2408FE895E00E94500AC701B60119
:100A500029E096958795779567952A95D1F70E9415
:100A60008208CB5FDD4F8881C550D240CA5FDD4F21
:100A70009881C650D2400E942404FFEF8F1A9F0A2B
:100A8000AF0ABF0A82E0D80EE11CF11CA6CF40E0FD
:100A900050E0BA018CE00E947A010E94DB00289AA3
:100AA000CA5FDD4F0FB6F894DEBF0FBECDBFDF913A
:100AB000CF911F910F91FF90EF90DF90CF90BF905B
:100AC000AF909F908F907F906F905F904F903F90EE
:100AD0002F9008952F923F924F925F926F927F9244
:100AE0008F929F92AF92BF92CF92DF92EF92FF923E
:100AF0000F931F93CF93DF93CDB7DEB7C450D2408F
:100B00000FB6F894DEBF0FBECDBF6B017C0149016B
:100B10005A018FE995E00E94500AC701B6010E9470
:100B200082088BEC95E00E94500AC501B4010E9436
:100B300082082601370189E0440C551C661C771C8D
:100B40008A95D1F700E010E08FEF881A980AA80A7A
:100B5000B80A1E018DEF281A380AC814D904EA040D
:100B6000FB0470F5B301A201CE0101960E94A90316
:100B7000FE01339681918823B1F0C80165E070E0F1
:100B80000E94F323892B21F488EC94E00E94500A00
:100B900084EC94E00E94500AC701B6010E948208CA
:100BA0000F5F1F4F03C0E215F30521F78FEFC81A3F
:100BB000D80AE80AF80A82E0580E611C711CCDCFF1
:100BC00080ED95E0CC5FDD4F0FB6F894DEBF0FBE31
:100BD000CDBFDF91CF911F910F91FF90EF90DF90EC
:100BE000CF90BF90AF909F908F907F906F905F90CD
:100BF0004F903F902F900C94500A0F931F93CF93D8
:100C0000DF938A012898AB01BC0188E10E947A0138
:100C10000E941202C82F882361F0289A82EF95E083
:100C20000E94500A8C2F0E94EF028C2F90E09F6050
:100C30006AC08EEF0E94D900E8011E5F89910E9470
:100C4000D900C017D107D1F78FEF0E94D9008FEFDD
:100C50000E94D90001E011E00E94DB00C82F015082
:100C6000110931F4289A80E596E00E94500A49C0A3
:100C70008F719C2F9771953039F48C2F857085304A
:100C8000A1F4C2E0D2E003C08B3031F7F6CF0E946E
:100C9000DB00811106C02197D1F78FEC96E00E940E
:100CA000500A289A80E092E02EC08C2F8B708B30F7
:100CB00091F4289A8FEF96E00E94500A6C2F70E012
:100CC00080E090E00E94C8098BE397E00E94500A00
:100CD00080E095E018C08C2F8D708D3091F4289AAB
:100CE0008EE397E00E94500A6C2F70E080E090E065
:100CF0000E94C8098BE397E00E94500A80E096E0CA
:100D000002C080E09FE0DF91CF911F910F91089585
:100D10008F929F92AF92BF92CF92DF92EF92FF920B
:100D20000F931F93CF93DF93042F69012898AB0192
:100D3000BC0189E10E947A010E941202C82F811130
:100D400009C0E12CF12CD0E0CFE010E056018EEF8D
:100D5000B81A27C0289A8EE797E00E94500A8C2F75
:100D60000E94EF028C2F90E09F6084C08C2F8F71C7
:100D70009C2F97719530D9F58C2F85708530D1F5E2
:100D8000C2E0D2E00E94DB00811106C02197D1F7BA
:100D90008FEC96E00E94500AD0E0C2E08FEFE81A94
:100DA000F80AE016F1060CF052C08CEF0E94D90050
:100DB000E60189910E94D900CA15DB05D1F78FEFB2
:100DC0000E94D9008FEF0E94D90088248394982C28
:100DD0000E94DB00C82F81E0881A910839F6289A12
:100DE0008FED97E00E94500A80E09FE043C08B3077
:100DF00079F7C2CF8C2F8B708B3089F48FEF96E010
:100E00000E94500A6C2F70E080E090E00E94C809B8
:100E10008BE397E00E94500AD0E0C5E018C08C2F09
:100E20008D708D3089F48EE397E00E94500A6C2F0C
:100E300070E080E090E00E94C8098BE397E00E9498
:100E4000500AD0E0C6E003C0D0E0CFE0A7CF8DEFDE
:100E50000E94D90002E012E00E94DB00811107C06D
:100E600001501109C9F78FEC96E00E94500A289AA8
:100E70008D2F9C2FDF91CF911F910F91FF90EF90BD
:100E8000DF90CF90BF90AF909F908F900895CF93B9
:100E9000DF93EC0181E698E00E94500A8C2F0E94BB
:100EA000EF0289E998E00E94500ACE0188279770E6
:100EB000811525E0920769F0811526E0920731F04F
:100EC0008115924049F480ED98E008C084EB98E0E9
:100ED00005C083EC98E002C081EE98E0DF91CF91ED
:100EE0000C94500ACF92DF92EF92FF92CF93DF9350
:100EF000289840E050E0BA0187E30E947A010E94FE
:100F00001202C82F882319F080E099E00DC040E05C
:100F100050E0BA0186E10E947A010E941202C82FB5
:100F2000882361F085E799E00E94500A8C2F0E9487
:100F3000EF0260E070E080E090E02FC0C0E0D1E020
:100F40000E94DB008E3F39F02197D1F785EF99E0C1
:100F50000E94500AEECF0E94DB00C82ED12CE12C5B
:100F6000F12CFE2CED2CDC2CCC240E94DB00C82ABA
:100F7000FE2CED2CDC2CCC240E94DB00C82AFE2C9D
:100F8000ED2CDC2CCC240E94DB00C82A0E94DB0064
:100F90000E94DB00289AB601C701DF91CF91FF9034
:100FA000EF90DF90CF900895CF92DF92EF92FF9273
:100FB000CF93DF9369017A012898AB01BC0180E2ED
:100FC0000E947A010E941202C82F289A882359F0A1
:100FD00087E69AE00E94500A8C2F0E94EF028C2F25
:100FE00090E0916041C02898B701A60181E20E947B
:100FF0007A010E941202C82F289A882359F08AEC9D
:101000009AE00E94500A8C2F0E94EF028C2F90E0F1
:1010100092602AC0289840E050E0BA0186E20E941F
:101020007A010E941202C82F882361F0289A8BE26D
:101030009BE00E94500A8C2F0E94EF028C2F90E0C0
:10104000946012C0C0E0D0E00E94DB00811109C0B2
:101050002197D1F78AE79BE00E94500A80E098E050
:1010600003C0289A80E090E0DF91CF91FF90EF904D
:10107000DF90CF900895CF93DF93EC010E94EF02B1
:10108000CE018827811522E09207B1F040F4009745
:1010900081F081159140B1F48BE19CE015C0811580
:1010A00024E0920761F08115984061F48EE69CE09F
:1010B0000BC083E09CE008C08CE39CE005C08BE59E
:1010C0009CE002C080E89CE0DF91CF910C94500A34
:1010D0001092C50087E68093C40088E18093C10028
:1010E00086E08093C20008958091C00087FFFCCF06
:1010F0008091C60008959091C00095FFFCCF809329
:10110000C60008954F925F926F927F928F929F9246
:10111000AF92BF92CF92DF92EF92FF920F931F9305
:10112000CF93DF93CDB7DEB79B01AC018DB69EB6F2
:101130006A30710581059105C0F16436710581053C
:101140009105A8F1283E83E038074105510588F153
:10115000203197E239074105510568F1203AE6E868
:101160003E07E1E04E07510540F12034F2E43F072D
:10117000FFE04F07510518F1203886E9380788E964
:1011800048075105F0F0211591EE390795EF490711
:1011900095E05907C0F02115EAEC3E07EAE94E0751
:1011A000EBE35E0790F00AE011C001E00FC002E03F
:1011B0000DC003E00BC004E009C005E007C006E075
:1011C00005C007E003C008E001C009E010E06801C5
:1011D000F1E0CF1AD1088DB79EB7801B910B0FB6E7
:1011E000F8949EBF0FBE8DBFEDB7FEB731967F015D
:1011F00060E36193CF018E199F0980179107CCF3AB
:1012000057018AE0482E512C612C712CCA01B9017A
:10121000A30192010E940724605DF50161935F01C3
:10122000CF018E199F098017910784F3F701EC0D08
:10123000FD1D80810E947B08F1E0CF1AD108B0F734
:101240000FB6F8949EBE0FBE8DBEDF91CF911F9159
:101250000F91FF90EF90DF90CF90BF90AF909F9055
:101260008F907F906F905F904F900895CF92DF9214
:10127000EF92FF920F931F93CF93DF93CDB7DEB71B
:10128000CDB6DEB6603171058105910530F16F3F55
:1012900071058105910519F110F1611520E17207C1
:1012A00081059105F0F06115710531E08307910525
:1012B000D0F06115710520E182079105B0F061154C
:1012C0007105810531E0930790F061157105810585
:1012D00020E1920770F020E20DC024E00BC028E06E
:1012E00009C02CE007C020E105C024E103C028E1CB
:1012F00001C02CE1422F50E08A01015011092DB7A5
:101300003EB7241B350B0FB6F8943EBF0FBE2DBF62
:101310002F5F3F4F7901F901A0E3A1939F012E199F
:101320003F0924173507CCF3F701A1E3B0E3262FDB
:1013300021709695879577956795211102C0B083A6
:1013400001C0A08331969F012E193F09241735074C
:1013500074F3F701E00FF11F80810E947B08C80140
:1013600083709927892B19F480E20E947B08015031
:10137000110978F70FB6F894DEBE0FBECDBEDF912F
:10138000CF911F910F91FF90EF90DF90CF90089534
:10139000CF92DF92EF92FF920F931F93CF93DF9341
:1013A000CDB7DEB7CDB6DEB66F3F710581059105CD
:1013B00009F100F1611520E1720781059105E0F066
:1013C0006115710531E083079105C0F06115710564
:1013D00020E182079105A0F061157105810531E0DA
:1013E000930780F061157105810520E1920760F097
:1013F00028E00BC022E009C023E007C024E005C0BC
:1014000025E003C026E001C027E0422F50E07A012A
:1014100031E0E31AF1082DB73EB7241B350B0FB6A8
:10142000F8943EBF0FBE2DBF0DB71EB70F5F1F4F05
:10143000F801A0E3A1939F01201B310B241735076E
:10144000CCF3F801262F2F7034E096958795779589
:1014500067953A95D1F72A3010F4205D01C0295CD8
:10146000208331969F01201B310B2417350754F33D
:10147000F801EE0DFF1D80810E947B0831E0E31A28
:10148000F108B0F70FB6F894DEBE0FBECDBEDF9107
:10149000CF911F910F91FF90EF90DF90CF90089523
:1014A0000F931F93CF93DF93EC018C0107511C4FD7
:1014B0008991882331F0C017D10719F00E947B0869
:1014C000F7CFDF91CF911F910F910895843009F1EB
:1014D00040F48130D9F0A0F0823009F580EE9CE034
:1014E00020C08031C9F028F48830C9F483EF9CE033
:1014F00018C0803241F0803491F483E09DE011C047
:101500008EE99CE00EC088EA9CE00BC08BEB9CE06F
:1015100008C08FEC9CE005C084E19DE002C082E23F
:101520009DE00C94500ACF93DF93CDB7DEB7D25035
:101530000FB6F894DEBF0FBECDBFAE014F5F5F4F59
:1015400060E070E0CB010E94A620C150DE4F888190
:10155000CF5FD140853579F4C050DE4F8881C050CF
:10156000D2408A3A41F48C859D858115924019F4C8
:1015700080E092E002C080E890E0DE5F0FB6F89471
:10158000DEBF0FBECDBFDF91CF910895CF93DF9324
:10159000CDB7DEB7D2500FB6F894DEBF0FBECDBFC9
:1015A000AE014F5F5F4F60E070E0CB010E94A6206C
:1015B000C150DE4F8881CF5FD140853571F4C05076
:1015C000DE4F8881C050D2408A3A39F48C859D859F
:1015D0008115924011F48E8501C080E8DE5F0FB660
:1015E000F894DEBF0FBECDBFDF91CF910895CF93AA
:1015F000DF93CDB7DEB7D2500FB6F894DEBF0FBE83
:10160000CDBFAE014F5F5F4F60E070E0CB010E9445
:10161000A620C150DE4F8881CF5FD140853551F47F
:10162000C050DE4F8881C050D2408A3A19F48F856D
:10163000988902C080E890E0DE5F0FB6F894DEBFC4
:101640000FBECDBFDF91CF910895CF93DF93CDB77C
:10165000DEB7D2500FB6F894DEBF0FBECDBFAE01DD
:101660004F5F5F4F60E070E0CB010E94A620C15049
:10167000DE4F8881CF5FD140853549F4C050DE4FC1
:101680008881C050D2408A3A11F4898901C080E82B
:10169000DE5F0FB6F894DEBF0FBECDBFDF91CF91F6
:1016A0000895CF93DF93CDB7DEB7D2500FB6F8943D
:1016B000DEBF0FBECDBFAE014F5F5F4F60E070E099
:1016C000CB010E94A620C150DE4F8881CF5FD14060
:1016D0008535D9F4C050DE4F8881C050D2408A3A57
:1016E000A1F46FA178A5CB01A0E0B0E0BA2FA92F9B
:1016F000982F88272EA1822BBA2FA92F982F8827C1
:101700002DA1BC01CD01622B04C060E870E080E037
:1017100090E0DE5F0FB6F894DEBF0FBECDBFDF9165
:10172000CF910895CF93DF93CDB7DEB7D2500FB6E8
:10173000F894DEBF0FBECDBFAE014F5F5F4F60E0DC
:1017400070E0CB010E94A620C150DE4F8881CF5FA0
:10175000D1408535D9F4C050DE4F8881C050D24089
:101760008A3AA1F46FA578A9CB01A0E0B0E0BA2F26
:10177000A92F982F88272EA5822BBA2FA92F982F13
:1017800088272DA5BC01CD01622B04C060E870E064
:1017900080E090E0DE5F0FB6F894DEBF0FBECDBFF5
:1017A000DF91CF9108954F925F926F927F928F92C7
:1017B0009F92AF92BF92CF92DF92EF92FF920F93E0
:1017C0001F93CF93DF93CDB7DEB72B013C01CDB68E
:1017D000DEB60E94F70A5C010E94930A7C019C011C
:1017E000369527953695279540E050E0C301B20124
:1017F0000E9407242B013C0192E0440C551C661CFE
:10180000771C9A95D1F78DB79EB78E199F090FB6A1
:10181000F8949EBF0FBE8DBF0DB71EB70F5F1F4F51
:101820002A0D3B1D411D511DD7010E942924A801ED
:101830000E94A620D301C2010396A11DB11DF8018B
:10184000E80FF91F6081862F90E0A0E0B0E0BA2F8A
:10185000A92F982F88275301420122E0820E911C64
:10186000A11CB11CF801E80DF91D2081822BBA2FB3
:10187000A92F982F8827530142012FEF821A920A2D
:10188000A20AB20AF801E80DF91D2081822BBA2FB5
:10189000A92F982F8827F801E40DF51D2081BC01A0
:1018A000CD01622B0FB6F894DEBE0FBECDBEDF9128
:1018B000CF911F910F91FF90EF90DF90CF90BF904D
:1018C000AF909F908F907F906F905F904F90089512
:1018D0002F923F924F925F926F927F928F929F9240
:1018E000AF92BF92CF92DF92EF92FF920F931F932E
:1018F000CF93DF93CDB7DEB7C55CD1090FB6F894AF
:10190000DEBF0FBECDBF1C014B01EDB6FEB6C65407
:10191000DF4FF982E882CA5BD040FB0101900020D2
:10192000E9F731976F01C61AD70ADB018C918F7DD9
:1019300079F1C356DF4FC882CD59D040FB01962FB5
:101940008A2F8819C356DF4FE880CD59D0408E15B5
:10195000B0F48D918C35E1F08F32D1F08A33C1F043
:10196000282F277F2232A1F0282F2F7B2C3381F0C4
:101970008E53823028F70CC08191803259F48E2F1B
:10198000891BC356DF4FF880CD59D0408F15A0F387
:1019900082E066C60E94930AC057DF4F998388830E
:1019A000C059D0400E94C60A082F9101275F3C4FC2
:1019B000C257DF4F39832883CE58D040D9014D908C
:1019C0005D906D907C900E94F70A7C010E94250B2F
:1019D000182F0E94510BCE56DF4F688379838A837C
:1019E0009B83C259D040EDB7FEB7C854DF4FF9838F
:1019F000E883C85BD0402DB73EB7C057DF4F488162
:101A00005981C059D040241B350B0FB6F8943EBF06
:101A10000FBE2DBF8DB79EB701965C01ADB7BEB7A7
:101A2000A41BB50B0FB6F894BEBF0FBEADBFEDB78C
:101A3000FEB73196C556DF4FF983E883CB59D040C6
:101A40006DE875E0C4010E94A524892B09F4FCC54A
:101A5000A12FB0E0CE56DF4F288139814A815B81CA
:101A6000C259D0400E9429249B01AC012E0D3F1D7C
:101A7000411D511DC256DF4F288339834A835B8342
:101A8000CE59D04062E37DE0C4010E94A524202FFE
:101A900030E040E050E0C255DF4F288339834A836D
:101AA0005B83CE5AD040892B09F0D3C0A3019201A9
:101AB0002250310941095109C255DF4F68817981AE
:101AC0008A819B81CE5AD0400E94E323C256DF4FC9
:101AD000288139814A815B81CE59D040260F371F3A
:101AE000481F591FC057DF4FA881B981C059D04046
:101AF0000E942924A5010E94A620D501D4960D910B
:101B00001C91D597DB96FC90DB97DA96EC90C25748
:101B1000DF4FE881F981CE58D04080809180A2804B
:101B2000B3800E94920B86169706A806B90609F4A0
:101B30008BC5C801A0E0B0E0BA2FA92F982F882745
:101B40008F29BA2FA92F982F88278E2981011E5FF0
:101B500048019101275F3D4F79011A950097A10532
:101B6000B10511F565E37DE0C4010E94AE246AE58C
:101B700072E0C7010E94AE2465E37DE0C1010E94CE
:101B8000AE246AE572E0C8010E94AE240E94920B66
:101B9000C257DF4FA881B981CE58D0406D937D9355
:101BA0008D939C93139750C5C257DF4FE881F981FD
:101BB000CE58D04080839183A283B383F9010190F2
:101BC0000020E9F73197AF01421B530B5E01F1E4AE
:101BD000AF0EB11CB901C5010E94B524F8010190F6
:101BE0000020E9F73197AF01401B510BB8019E016E
:101BF0002F5F3F4F6901C9010E94B5246FE270E079
:101C0000C5010E94C9243C016FE270E0C6010E9438
:101C1000C9242C01B3016F5F7F4FC4010E94AE2421
:101C2000B2016F5F7F4FC1010E94AE24A3014E5FDE
:101C30005F4F4A195B09B501C7010E94B524A20193
:101C40004E5F5F4F4C195D09B601C8010E94B52473
:101C5000FBC4CA56DF4F1882C659D040CE56DF4F5C
:101C60001882C259D04010E0C257DF4F1982188243
:101C7000CE58D040E12CF12C402F50E0CC54DF4F17
:101C800059834883C45BD040CE018F579F4FC457C0
:101C9000DF4F99838883CC58D040D601BB27CA54E4
:101CA000DF4FB983A883C65BD040FC01EA0FFB1F5E
:101CB000CE53DF4FF983E883C25CD04041505109D5
:101CC000CC53DF4F59834883C45CD040A3019201B9
:101CD0002250310941095109C255DF4F688179818C
:101CE0008A819B81CE5AD0400E94E323C256DF4FA7
:101CF000288139814A815B81CE59D040260F371F18
:101D0000481F591FCE55DF4F288339834A835B8391
:101D1000C25AD040C057DF4FA881B981C059D040C6
:101D2000CD01A0E0B0E0C655DF4F88839983AA8338
:101D3000BB83CA5AD040BC01CD010E94E323CA55DF
:101D4000DF4F688379838A839B83C65AD040C95604
:101D5000DF4F288339834A835B83C759D040FE0114
:101D6000EF5BFF4FC657DF4FF983E883CA58D04077
:101D7000C956DF4F48815981C759D040CE55DF4FF2
:101D800088819981C25AD040481B590BCE54DF4FED
:101D900059834883C25BD040CC54DF4FA881B981BE
:101DA000C45BD0404A175B070CF041C4A501CA557B
:101DB000DF4F688179818A819B81C65AD0400E9419
:101DC000A620C12CD12C950120523E4FC454DF4F88
:101DD00039832883CC5BD040C956DF4F88819981F5
:101DE000AA81BB81C759D0400196A11DB11DC25423
:101DF000DF4F88839983AA83BB83CE5BD0401123B6
:101E0000D1F190EEE91691E0F90638F0CD2809F00D
:101E1000DDC3E0EEEE2EFF24FA94CE56DF4F0881AC
:101E2000C259D040011107C0CA56DF4F1881C659A8
:101E3000D0401123D1F0C257DF4FC880D980CE588F
:101E4000D04020E2C20ED11CCA56DF4F1882C659BC
:101E5000D040CE56DF4F1882C259D040C257DF4F14
:101E600019821882CE58D04006C0670130E2C30EF6
:101E7000D11CE12CF12C85010C0D1D1DD8018C917C
:101E8000853E09F49AC3811102C080E2DEC3F801E5
:101E90009385292F2F702F3009F000C386FD02C0D3
:101EA00080E4D3C3FE0131961192C657DF4FE8801C
:101EB000F980CA58D040EE15FF05B1F78F7376014F
:101EC00000E2809FE00CF11C1124C057DF4F088115
:101ED0001981C059D040E016F10608F422C20E154F
:101EE0001F0578F00E151F05D9F611E0CA56DF4F11
:101EF0001883C659D040CE56DF4F1882C259D04001
:101F00000BC0CA56DF4F1882C659D04001E0CE56EA
:101F1000DF4F0883C259D040CC53DF4F088119816D
:101F2000C45CD040CE54DF4F28813981C25BD040A1
:101F3000201731070CF1C301B2010E94D30B9B01A2
:101F4000AC012250310941095109C255DF4F688166
:101F500079818A819B81CE5AD0400E94E323C25668
:101F6000DF4F288139814A815B81CE59D040260FCD
:101F7000371F481F591F08C0C254DF4F28813981BD
:101F80004A815B81CE5BD040C655DF4F6881798145
:101F90008A819B81CA5AD0400E94E323C556DF4FF5
:101FA00048815981CB59D0400E94A6208701C05753
:101FB000DF4F28813981C059D040021B130BC25713
:101FC000DF4F19830883CE58D040C556DF4F0881B4
:101FD0001981CB59D040C257DF4F48815981CE5823
:101FE000D040040F151FD8011B968C918F3009F437
:101FF00057CFCE56DF4FB881C259D040B13009F02B
:10200000EBC0CA56DF4FE881C659D040E11148CF36
:10201000BA0160527109C556DF4FE881F981CB5989
:10202000D040E60FF71F80818F70813009F038CFE4
:102030009A0124503109C556DF4F48815981CB5947
:10204000D040240F351F80E077FD43C0F9017B9716
:102050004BE050E04150510971F09191AFEFA90F61
:10206000AE37C0F7A1E0B0E0AC0FBD1FA80FB11DA7
:102070009C938F5FEFCFF9013E974DE050E04150C8
:10208000510971F09191AFEFA90FAE37C0F7A1E000
:10209000B0E0AC0FBD1FA80FB11D9C938F5FEFCFB9
:1020A000F90145E050E04150510971F09191AFEFD5
:1020B000A90FAE37C0F7A1E0B0E0AC0FBD1FA80F6D
:1020C000B11D9C938F5FEFCF60527109205231098F
:1020D000BBCF950124503E4F60EE71E06C157D053D
:1020E0000CF443C0F9017B974BE050E0415051099B
:1020F00071F09191AFEFA90FAE37C0F7A1E0B0E05A
:10210000AC0FBD1FA80FB11D9C938F5FEFCFF901DE
:102110003E974DE050E04150510971F09191AFEF81
:10212000A90FAE37C0F7A1E0B0E0AC0FBD1FA80FFC
:10213000B11D9C938F5FEFCFF90145E050E0415016
:10214000510971F09191AFEFA90FAE37C0F7A1E03F
:10215000B0E0AC0FBD1FA80FB11D9C938F5FEFCFF8
:102160006052710920523109B9CFBE016F5F7F4FB4
:10217000C4010E94A524892B09F01DC2D8015596DF
:102180008C9190E0A0E0B0E0BA2FA92F982F88277B
:10219000F8012489822BBA2FA92F982F8827238D05
:1021A000822BBA2FA92F982F8827A101475F5C4F58
:1021B000228D822BFA0180839183A283B383D8017D
:1021C000FE01EF5BFF4FCF0108967F012D91219318
:1021D0008E179F07D9F794C0CA56DF4FF881C659AA
:1021E000D040F13009F05CCEC454DF4FA881B981F2
:1021F000CC5BD0408C918F70813009F051CE95012D
:1022000024503E4F60EE71E080E06C157D050CF4CB
:1022100043C0F9017B974BE050E04150510971F008
:102220009191AFEFA90FAE37C0F7A1E0B0E0AC0FCE
:10223000BD1FA80FB11D9C938F5FEFCFF9013E9793
:102240004DE050E04150510971F09191AFEFA90F6D
:10225000AE37C0F7A1E0B0E0AC0FBD1FA80FB11DB5
:102260009C938F5FEFCFF90145E050E04150510959
:1022700071F09191AFEFA90FAE37C0F7A1E0B0E0D8
:10228000AC0FBD1FA80FB11D9C938F5FEFCF6052A5
:10229000710920523109B9CFBE016F5F7F4FC40170
:1022A0000E94A524892B09F081C1F801858990E05D
:1022B000A0E0B0E0BA2FA92F982F88272489822B7D
:1022C000BA2FA92F982F8827238D822BBA2FA92FB9
:1022D000982F8827A101475F5C4F228D822BFA013E
:1022E00080839183A283B383F801DE01AF5BBF4F8C
:1022F000CD0108967D0121912D93A817B907D9F733
:10230000D70118961C925101B394B101C5010E94E6
:102310009A2481011E5F6101E7EFCE1AEDEFDE0A1C
:10232000A1C0B70160527109F501E60FF71F808166
:102330008F70813009F0B4CD9701245031092A0DF6
:102340003B1D80E06C157D050CF443C0F9017B97C3
:102350004BE050E04150510971F09191AFEFA90F5E
:10236000AE37C0F7A1E0B0E0AC0FBD1FA80FB11DA4
:102370009C938F5FEFCFF9013E974DE050E04150C5
:10238000510971F09191AFEFA90FAE37C0F7A1E0FD
:10239000B0E0AC0FBD1FA80FB11D9C938F5FEFCFB6
:1023A000F90145E050E04150510971F09191AFEFD2
:1023B000A90FAE37C0F7A1E0B0E0AC0FBD1FA80F6A
:1023C000B11D9C938F5FEFCF60527109205231098C
:1023D000B9CFBE016F5F7F4FC4010E94A524892B36
:1023E00009F0E9C0F501EE0DFF1D858990E0A0E040
:1023F000B0E0BA2FA92F982F88272489822BBA2FD3
:10240000A92F982F8827238D822BBA2FA92F982F99
:1024100088279101275F3C4F428D7C018D01E42A82
:10242000B801A701D9014D935D936D937C931397E8
:10243000DE01AF5BBF4FCD0108967D0121912D9349
:10244000A817B907D9F7F70110865101B394B10164
:10245000C5010E949A2481011E5F610127EFC21A03
:102460002DEFD20AB801C6010E949A24D1018C91A5
:102470008F3229F065E37DE0C5010E949A24B40102
:10248000C1010E94AE24F80180818F3229F065E3FA
:102490007DE0C6010E949A24B70184C094FF8DC0DC
:1024A000C356DF4FF881CD59D040F93008F085C0D0
:1024B000B401CE018F5B9F4F0E94AE24D801FE0174
:1024C000EF57FF4FCF01C457DF4F28813981CC58D8
:1024D000D040821B930BCA54DF4F48815981C65BA1
:1024E000D040841795071CF48D918193EBCFCE5388
:1024F000DF4FA881B981C25CD0401C92BE016F57EA
:102500007F4FCE018F5B9F4F0E94A524892B09F03E
:1025100054C0F801858990E0A0E0B0E0BA2FA92F5F
:10252000982F88272489822BBA2FA92F982F8827A4
:10253000238D822BBA2FA92F982F8827A101475FBF
:102540005C4F228D822BFA0180839183A283B38317
:102550006101D394B101C6010E949A2481011E5FDA
:10256000710127EFE21A2DEFF20AB801C7010E94AC
:102570009A24D1018C918F3229F065E37DE0C60168
:102580000E949A24B401C1010E94AE24F801808106
:102590008F3229F065E37DE0C7010E949A24BE01D5
:1025A0006F577F4FC8010E94AE244EC0CE56DF4FFA
:1025B0001882C259D04011E001C010E0F0E2CF0E05
:1025C000D11CC11402E0D0060CF419CCC956DF4F5F
:1025D000288139814A815B81C759D0402F5F3F4FA5
:1025E0004F4F5F4FC956DF4F288339834A835B8340
:1025F000C759D040CA55DF4F88819981AA81BB81D4
:10260000C65AD040C655DF4F288139814A815B8147
:10261000CA5AD040820F931FA41FB51FCA55DF4F5F
:1026200088839983AA83BB83C65AD040A1CBC301B8
:10263000B2010E94D30B2B013C016F3F7F4F8F4FA4
:102640009F4009F043CB21CC80E0C854DF4FE880A5
:10265000F980C85BD0400FB6F894FEBE0FBEEDBE49
:10266000C654DF4FE880F980CA5BD0400FB6F894BB
:10267000FEBE0FBEEDBECB53DF4F0FB6F894DEBFEC
:102680000FBECDBFDF91CF911F910F91FF90EF90C3
:10269000DF90CF90BF90AF909F908F907F906F9082
:1026A0005F904F903F902F9008952F923F924F92BE
:1026B0005F926F927F928F929F92AF92BF92CF92D2
:1026C000DF92EF92FF920F931F93CF93DF93FC0162
:1026D000E60FF71F842F8870B82E43FF0CC0C78504
:1026E000D0E0DC2FCC278685C82B018910E0102F85
:1026F00000278089082B842F8071382E44FF06C064
:102700008388912C982C88248289882A842F80722F
:10271000282E45FF0CC04788512C542C4424868910
:10272000482A618C712C762C6624808D682AC78C8F
:10273000D12CE12CF12CFE2CED2CDC2CCC24868D24
:10274000C82AFE2CED2CDC2CCC24858DC82AFE2C2E
:10275000ED2CDC2CCC24848DC82A88EC94E00E94DB
:10276000500ABB2009F480C08BE39DE00E94500A10
:10277000580180EEA82281E0B822B5E0B694A79473
:10278000BA95E1F78AE0A816B10420F48FEB94E043
:102790000E94500AB50180E090E00E94820885E323
:1027A0009DE00E94500A58018FE1A822BB248AE0D4
:1027B000A816B10420F48FEB94E00E94500AB501F2
:1027C00080E090E00E94820885E39DE00E94500A2C
:1027D000B801672F772766956454784F80E090E0C2
:1027E0000E9482088AEB94E00E94500A8E01012F19
:1027F00011270695069506950A30110520F48FEBF2
:1028000094E00E94500AB80180E090E00E948208A3
:1028100087E998E00E94500A8E01007E1770E5E07B
:1028200016950795EA95E1F70A30110520F48FEB2C
:1028300094E00E94500AB80180E090E00E94820873
:1028400087E998E00E94500ACF71DD27CC0FDD1F89
:10285000CA30D10520F48FEB94E00E94500ABE01EB
:1028600080E090E00E9482083320C9F18AE39DE075
:102870000E94500AE401C07ED17065E0D695C795EC
:102880006A95E1F7CA30D10520F48FEB94E00E94FD
:10289000500ABE0180E090E00E94820885E39DE03E
:1028A0000E94500AE401CF71DD27CA30D10520F41F
:1028B0008FEB94E00E94500ABE0180E090E00E94FD
:1028C000820885E39DE00E94500AB401672F7727B4
:1028D00066956454784F80E090E00E948208222040
:1028E00009F47FC08AE39DE00E94500AB301607E34
:1028F0007170EB0145E0D695C7954A95E1F7CA306E
:10290000D10520F48FEB94E00E94500ABE0180E0D4
:1029100090E00E94820885E39DE00E94500AE30156
:10292000CF71DD27CA30D10520F48FEB94E00E94EF
:10293000500ABE0180E090E00E94820885E39DE09D
:102940000E94500AB301672F772766956454784F29
:1029500080E090E00E9482088AEB94E00E94500A96
:10296000E201CD2FDD27C695C695C695CA30D105A3
:1029700020F48FEB94E00E94500ABE0180E090E0CA
:102980000E94820887E998E00E94500AB201607EA6
:102990007770EB0195E0D695C7959A95E1F7CA3027
:1029A000D10520F48FEB94E00E94500ABE0180E034
:1029B00090E00E94820887E998E00E94500A8FE127
:1029C00048225524440C551C8AE04816510420F432
:1029D0008FEB94E00E94500AB20180E090E00E94E8
:1029E00082088AE39DE00E94500AC1148AECD8064E
:1029F0008AE9E8068BE3F80618F08AEB94E038C021
:102A0000C11481EED80685EFE80685E0F80618F0D7
:102A100089EB94E02DC080E8C81686E9D80688E9DD
:102A2000E806F10418F08BE39DE022C080E4C816AC
:102A300082E4D8068FE0E806F10418F08AE39DE00E
:102A400017C080EAC81686E8D80681E0E806F104D7
:102A500018F089E39DE00CC080E1C81687E2D80633
:102A6000E104F10418F088E39DE002C087E39DE0F3
:102A70000E94500AC701B60128EE33E040E050E062
:102A80000E940724CA01B9010E94820880E49DE0E7
:102A9000DF91CF911F910F91FF90EF90DF90CF903A
:102AA000BF90AF909F908F907F906F905F904F906E
:102AB0003F902F900C94500A8F929F92AF92BF92AA
:102AC000CF92DF92EF92FF920F931F93CF93DF93FA
:102AD000CDB7DEB72E970FB6F894DEBF0FBECDBFD1
:102AE0005C018B01CE0101966C014E0199E0890ECB
:102AF000911CF601760180E28193E815F905E1F772
:102B0000198644FF16C083E49DE00E94500AF50137
:102B1000E00FF11F8191D6018D936D01A815B905C4
:102B2000C9F7C7010E94500A8BE39DE00E94500A3A
:102B300054C081E59DE00E94500A6FE57DE0CE0122
:102B40000A960E94AE24D8011896AA0DBB1DFE015C
:102B50003B96CE010E962D912193E817F907D9F7F0
:102B6000F501E00FF11F20E030E08191D6018D9357
:102B70006D01803229F4F701E20FF31F108205C0C6
:102B80002F5F3F4F2830310581F7C7010E94500A5F
:102B90006FE57DE0CE010A960E94A524892B21F0E5
:102BA000CE010A960E94500A00E010E088E0C82E8C
:102BB000D12CF70101900020E9F73197EE19FF09B8
:102BC000C6018E1B9F0B0817190738F482EC94E09E
:102BD0000E94500A0F5F1F4FECCF2E960FB6F8944D
:102BE000DEBF0FBECDBFDF91CF911F910F91FF9040
:102BF000EF90DF90CF90BF90AF909F908F9008950F
:102C00002F923F924F925F926F927F928F929F92FC
:102C1000AF92BF92CF92DF92EF92FF920F931F93EA
:102C2000CF93DF93CDB7DEB7C357D1090FB6F89472
:102C3000DEBF0FBECDBF7C0124966FAF24972DB7AA
:102C40003EB7AC963FAF2EAFAC9784E69DE00E94B6
:102C5000500AC7010E94500A0E94930A26969FAF0D
:102C60008EAF26970E94C60A082FF701E75FFC4F38
:102C7000C080D180E280F3800E94F70A5C010E944C
:102C8000250B182F0E94510B9B01AC01A12FB0E026
:102C90000E9429249B01AC012A0D3B1D411D511DA1
:102CA000A0962CAF3DAF4EAF5FAFA0974DB75EB7CC
:102CB00026968EAD9FAD2697481B590B0FB6F894FC
:102CC0005EBF0FBE4DBFADB7BEB711963D01EDB7AC
:102CD000FEB7E81BF90B0FB6F894FEBF0FBEEDBFB1
:102CE0002DB73EB72F5F3F4F28963FAF2EAF2897A7
:102CF00087EC94E00E94500A24963FAD249733FF5E
:102D000004C08AE79DE00E94500A24964FAD2497A4
:102D100044FF04C081E99DE00E94500A24965FAD03
:102D2000249755FF04C084EA9DE00E94500A80EC7D
:102D30009DE00E94500A87EC94E00E94500A85E0D2
:102D400090E064969FAF8EAF64972A961FAE2A9745
:102D500029961FAE299710E0212C312C412C512CA3
:102D6000202F30E040E050E0A8962CAF3DAF4EAFB2
:102D70005FAFA897402F50E0AA965FAF4EAFAA97DB
:102D8000CE018F5B9F4F23969FAF8EAF239741500D
:102D90005109E2965FAF4EAFE297D301A052BE4F0A
:102DA000E496BFAFAEAFE497A70196012250310978
:102DB00041095109A8966CAD7DAD8EAD9FADA89728
:102DC0000E94E323A0962CAD3DAD4EAD5FADA09724
:102DD000260F371F481F591F62962CAF3DAF4EAFCD
:102DE0005FAF62972696AEADBFAD2697CD01A0E04E
:102DF000B0E068968CAF9DAFAEAFBFAF6897BC0137
:102E0000CD010E94E3236C966CAF7DAF8EAF9FAF78
:102E10006C972E962CAF3DAF4EAF5FAF2E972C9692
:102E2000AEADBFAD2C976096EEADFFAD6097AE1B1B
:102E3000BF0BA296BFAFAEAFA297AA962EAD3FAD85
:102E4000AA97A217B3070CF01CC3A3016C966CAD34
:102E50007DAD8EAD9FAD6C970E94A620A12CB12CAC
:102E60002496BFAD2497B4709B2E2496EFAD249783
:102E7000E170A396EFAFA3972496FFAD2497F2706D
:102E8000A496FFAFA4972E962CAD3DAD4EAD5FAD91
:102E90002E972F5F3F4F4F4F5F4FE0962CAF3DAFC8
:102EA0004EAF5FAFE09726968EAD9FAD2697A816E2
:102EB000B90650F4112309F44EC030EE431631E048
:102EC000530660F1AB2831F16C968CAD9DADAEAD83
:102ED000BFAD6C9768962CAD3DAD4EAD5FAD6897BC
:102EE000820F931FA41FB51F6C968CAF9DAFAEAF22
:102EF000BFAF6C972E968CAD9DADAEADBFAD2E978E
:102F00000196A11DB11D2E968CAF9DAFAEAFBFAF88
:102F10002E9785CF80EE482E55245A9429969FAD42
:102F20002997911105C02A96AFAD2A97AA2369F077
:102F30005101B0E2AB0EB11C2A961FAE2A9729961A
:102F40001FAE2997212C312C06C05201E0E2AE0EB3
:102F5000B11C412C512CF301EA0DFB1D8081853EF3
:102F600009F48AC2811102C080E2A5C21385912FA3
:102F70009F709F3009F06DC286FD02C080E49BC245
:102F8000FE013196119223962EAD3FAD2397E217A5
:102F9000F307C1F78F73250130E2839F400C511C6A
:102FA000112426964EAD5FAD26974416550608F4BB
:102FB000C0C14415550558F044155505F9F651E0C2
:102FC0002A965FAF2A9729961FAE299707C02A969F
:102FD0001FAE2A9781E029968FAF2997A296AEADB2
:102FE000BFADA297E296EEADFFADE297AE17BF0779
:102FF000ECF0C701B6010E94D30B9B01AC0122503B
:10300000310941095109A8966CAD7DAD8EAD9FADDA
:10301000A8970E94E323A0962CAD3DAD4EAD5FADC9
:10302000A097260F371F481F591F06C0E0962CADEA
:103030003DAD4EAD5FADE09768966CAD7DAD8EADAC
:103040009FAD68970E94E32328964EAD5FAD289709
:103050000E94A620120126962EAD3FAD2697221A79
:10306000330A2896EEADFFAD2897E20DF31D838459
:103070003FE0831609F482CF81FE03C0992009F452
:10308000F9C1A3964FADA397442391F024964FAD79
:103090002497B10128968EAD9FAD28970E945513B5
:1030A000482DB10128968EAD9FAD28970E945C15E2
:1030B000A4965FADA497552309F4DCC129968FAD82
:1030C0002997813009F0C0C02A969FAD2A979111A7
:1030D00055CF8101005211092896EEADFFAD28971A
:1030E000E00FF11F808180FF49CF24964FAD2497D8
:1030F000B10128968EAD9FAD28970E94551384FE8E
:1031000003C083E49DE002C081E59DE00E94500A77
:10311000A8019101245031092896AEADBFAD289782
:103120002A0F3B1F80E057FD43C0F9017B976BE0FE
:1031300070E06150710971F09191AFEFA90FAE3756
:10314000C0F7A1E0B0E0AC0FBD1FA80FB11D9C936C
:103150008F5FEFCFF9013E976DE070E0615071092C
:1031600071F09191AFEFA90FAE37C0F7A1E0B0E0D9
:10317000AC0FBD1FA80FB11D9C938F5FEFCFF9015E
:1031800065E070E06150710971F09191AFEFA90FA6
:10319000AE37C0F7A1E0B0E0AC0FBD1FA80FB11D66
:1031A0009C938F5FEFCF4052510920523109BBCF22
:1031B000930124503E4F40EE51E04A155B050CF45C
:1031C00043C1F9017B976BE070E06150710971F0C8
:1031D0009191AFEFA90FAE37C0F7A1E0B0E0AC0F0F
:1031E000BD1FA80FB11D9C938F5FEFCFF9013E97D4
:1031F0006DE070E06150710971F09191AFEFA90F2E
:10320000AE37C0F7A1E0B0E0AC0FBD1FA80FB11DF5
:103210009C938F5FEFCFF90165E070E06150710919
:1032200071F09191AFEFA90FAE37C0F7A1E0B0E018
:10323000AC0FBD1FA80FB11D9C938F5FEFCF405205
:10324000510920523109B9CF2A96BFAD2A97B13022
:1032500009F094CEE496EEADFFADE497808180FF57
:103260008DCE24964FAD2497B10128968EAD9FAD9B
:1032700028970E94551384FE03C083E49DE002C09A
:1032800081E59DE00E94500A930124503E4F40EE9C
:1032900051E080E04A155B050CF443C0F9017B97CF
:1032A0006BE070E06150710971F09191AFEFA90F7F
:1032B000AE37C0F7A1E0B0E0AC0FBD1FA80FB11D45
:1032C0009C938F5FEFCFF9013E976DE070E0615006
:1032D000710971F09191AFEFA90FAE37C0F7A1E07E
:1032E000B0E0AC0FBD1FA80FB11D9C938F5FEFCF57
:1032F000F90165E070E06150710971F09191AFEFF3
:10330000A90FAE37C0F7A1E0B0E0AC0FBD1FA80F0A
:10331000B11D9C938F5FEFCF40525109205231096C
:10332000B9CFCE0101960E94500A29961FAE299767
:10333000A1C0F301E40DF51D8384FFE08F1609F4AD
:103340001DCE81FE03C0992009F494C0A3962FAD31
:10335000A397222361F024964FAD2497B201C301B5
:103360000E945513482DB201C3010E945C15A4961A
:103370003FADA497332309F47DC0820100521109A7
:10338000F301E00FF11F808180FFF8CD24964FAD4F
:103390002497B201C3010E94551384FE03C083E445
:1033A0009DE002C081E59DE00E94500AA8019201C3
:1033B00024503109260D371D80E04A155B050CF4B9
:1033C00043C0F9017B976BE070E06150710971F0C7
:1033D0009191AFEFA90FAE37C0F7A1E0B0E0AC0F0D
:1033E000BD1FA80FB11D9C938F5FEFCFF9013E97D2
:1033F0006DE070E06150710971F09191AFEFA90F2C
:10340000AE37C0F7A1E0B0E0AC0FBD1FA80FB11DF3
:103410009C938F5FEFCFF90165E070E06150710917
:1034200071F09191AFEFA90FAE37C0F7A1E0B0E016
:10343000AC0FBD1FA80FB11D9C938F5FEFCF405203
:10344000510920523109B9CFCE0101960E94500A8C
:1034500011C011FF02C0992079F024964FAD249736
:10346000B501C3010E945513412FB501C3010E944C
:103470005C1502C011E001C010E040E2A40EB11CD6
:1034800012CDC701B6010E94D30B6B017C016F3FC7
:103490007F4F8F4F9F4009F467CD64964EAD5FAD6F
:1034A00064974150510964965FAF4EAF6497452BC6
:1034B00009F07ACC59CDAC96AEADBFADAC970FB696
:1034C000F894BEBF0FBEADBFCD58DF4F0FB6F89416
:1034D000DEBF0FBECDBFDF91CF911F910F91FF9047
:1034E000EF90DF90CF90BF90AF909F908F907F90A4
:1034F0006F905F904F903F902F9008952F923F9242
:103500004F925F926F927F928F929F92AF92BF92F3
:10351000CF92DF92EF92FF920F931F93CF93DF939F
:10352000CDB7DEB762970FB6F894DEBF0FBECDBF42
:103530007C018B010E94930A9E838D830E94C60AA0
:10354000B82E0E94F70A6C010E94250BA82E0E943B
:10355000510B9B01AC01AA2DB0E00E9429249B01D4
:10356000AC012C0D3D1D411D511D29833A834B8318
:103570005C83F801EE0DFF1DC588D12CE12CF12CE8
:10358000FE2CED2CDC2CCC248489C82AFE2CED2CBE
:10359000DC2CCC24838DC82AFE2CED2CDC2CCC24F6
:1035A000828DC82A4D815E812A01612C712C8B2D60
:1035B00090E0A0E0B0E089879A87AB87BC87AB2D0D
:1035C000B0E0BE87AD87400F511F588B4F8787EC07
:1035D00094E00E94500AA701960122503109410946
:1035E000510969857A858B859C850E94E323298111
:1035F0003A814B815C81260F371F481F591FC30139
:10360000B2010E94E3236D837E838F839887812C90
:10361000912C5401212C312C8D859E85281639063C
:103620006CF5A8016D817E818F819885680D791D6B
:103630008A1D9B1D0E94A6201A8B098B29893A8915
:103640004F8558892417350789F0E989FA898191CE
:10365000FA8BE98B8A3029F488EC94E00E94500AB6
:10366000EDCF882359F30E947B08E8CF5FEF251A3E
:10367000350A840C951CA61CB71CCECFC701B60119
:103680000E94D30B6B017C019FEFC916D906E90696
:103690009FE0F90609F09BCF62960FB6F894DEBF63
:1036A0000FBECDBFDF91CF911F910F91FF90EF9093
:1036B000DF90CF90BF90AF909F908F907F906F9052
:1036C0005F904F903F902F9008952F923F924F928E
:1036D0005F926F927F928F929F92AF92BF92CF92A2
:1036E000DF92EF92FF920F931F93CF93DF93CDB7AB
:1036F000DEB7C659D1090FB6F894DEBF0FBECDBFF5
:103700008C014B012DB73EB7C557DF4F3983288356
:10371000CB58D040FB0101900020E9F73197AF0171
:10372000461B570BEC965FAF4EAFEC97DB018C91CD
:103730008F7D09F4E4C4EB96BFADEB97AC96BFAFB9
:10374000AC97FB01DB01962F8A2F8819AC962FAD21
:10375000AC978217C0F48D918C3509F4D0C48F32A8
:1037600009F4CDC48A3309F4CAC4282F277F223232
:1037700009F4C5C4282F2F7B2C3309F4C0C48E5301
:10378000823010F7BCC48E2F891BAC963FADAC972E
:10379000831708F0B4C481918032A9F30E94930A80
:1037A0006F969FAF8EAF6F970E94C60AED968FAF50
:1037B000ED97F801E75FFC4FC080D180E280F38095
:1037C0000E94F70A8C010E94250BB82E0E94510B13
:1037D0009B01AC01AB2DB0E00E9429249B01AC0100
:1037E000200F311F411D511DC358DF4F28833983DE
:1037F0004A835B83CD57D0404DB75EB7C757DF4F85
:1038000059834883C958D0406DB77EB76F968EAD47
:103810009FAD6F97681B790B0FB6F8947EBF0FBEF4
:103820006DBFADB7BEB711965D01EDB7FEB7E81B32
:10383000F90B0FB6F894FEBF0FBEEDBF2DB73EB724
:103840002F5F3F4FA2963FAF2EAFA29745E050E0CB
:10385000AA965FAF4EAFAA97A0961FAEA09700E0C2
:1038600010E0612C712C212C312CED967FADED9761
:10387000672F70E080E090E0CB57DF4F688379835B
:103880008A839B83C558D040CE018F5B9F4F6D9636
:103890009FAF8EAF6D97AAE4B0E0AC0FBD1F189636
:1038A000CB56DF4FB983A883C559D040A7019601F5
:1038B0002250310941095109CB57DF4F6881798185
:1038C0008A819B81C558D0400E94E323C358DF4FB3
:1038D000288139814A815B81CD57D040260F371F1F
:1038E000481F591FE0962CAF3DAF4EAF5FAFE0973A
:1038F0006F966EAD7FAD6F97AB0160E070E0E496C0
:103900004CAF5DAF6EAF7FAFE497E0962CAD3DADB1
:103910004EAD5FADE097E4966CAD7DAD8EAD9FADE5
:10392000E4970E94E323E8966CAF7DAF8EAF9FAF24
:10393000E897A8962CAF3DAF4EAF5FAFA897ED9636
:103940009FADED97892F90E0CD57DF4F9983888306
:10395000C358D0400197CD56DF4F99838883C35910
:10396000D040A696EEADFFADA697AE962EAD3FAD7C
:10397000AE97E21BF30BCF57DF4FF983E883C158B3
:10398000D040CD57DF4F48815981C358D040E4170C
:10399000F5070CF08EC3A501E8966CAD7DAD8EAD3C
:1039A0009FADE8970E94A620412C512CEC96AEAD1D
:1039B000BFADEC97BB27EA96BFAFAEAFEA97F50174
:1039C000E052FE4FC357DF4FF983E883CD58D04014
:1039D000A8962CAD3DAD4EAD5FADA8972F5F3F4F84
:1039E0004F4F5F4FC157DF4F288339834A835B8333
:1039F000CF58D0406F96AEADBFAD6F974A165B06FD
:103A000050F4112309F44AC030EE231631E0330696
:103A100068F1452839F1E8964CAD5DAD6EAD7FADEE
:103A2000E897E4968CAD9DADAEADBFADE497480F81
:103A3000591F6A1F7B1FE8964CAF5DAF6EAF7FAF1B
:103A4000E897A8962CAD3DAD4EAD5FADA8972F5F22
:103A50003F4F4F4F5F4FA8962CAF3DAF4EAF5FAF7C
:103A6000A8977FCF80EE282E33243A94011105C009
:103A7000A0963FADA097332359F0230140E2440EB6
:103A8000511CA0961FAEA09700E0612C712C06C0BF
:103A9000210150E2450E511C212C312CF501E40D81
:103AA000F51D8081853E09F4FFC2811102C014E03A
:103AB0001AC39385292F2F702F3009F01CC286FD61
:103AC00002C010E410C3FE01319611926D966EADE6
:103AD0007FAD6D976E177F07C1F78F73120170E28C
:103AE000879F200C311C11246F968EAD9FAD6F9770
:103AF0002816390608F490C18215930550F0211458
:103B000092E03906F1F6A1E0A096AFAFA09700E0F1
:103B100004C0A0961FAEA09701E0CD56DF4FE8810C
:103B2000F981C359D040CF57DF4F28813981C1581F
:103B3000D0402E173F070CF1C701B6010E94D30BEE
:103B40009B01AC012250310941095109CB57DF4F8C
:103B5000688179818A819B81C558D0400E94E32386
:103B6000C358DF4F288139814A815B81CD57D040CE
:103B7000260F371F481F591F08C0C157DF4F288124
:103B800039814A815B81CF58D040E4966CAD7DADE0
:103B90008EAD9FADE4970E94E323A2964EAD5FAD3C
:103BA000A2970E94A62031016F964EAD5FAD6F9730
:103BB000641A750AA296EEADFFADA297E60DF71D49
:103BC00083858F3009F47DCF182F107184FD6AC270
:103BD000013009F0B6C0A0965FADA097511171CF2A
:103BE000A30140525109A296EEADFFADA297E40F9A
:103BF000F51F808180FF65CF930124503109A29683
:103C00006EAD7FADA297260F371F80E057FD43C0F2
:103C1000F9017B976BE070E06150710971F091914F
:103C2000AFEFA90FAE37C0F7A1E0B0E0AC0FBD1FFA
:103C3000A80FB11D9C938F5FEFCFF9013E976DE008
:103C400070E06150710971F09191AFEFA90FAE373B
:103C5000C0F7A1E0B0E0AC0FBD1FA80FB11D9C9351
:103C60008F5FEFCFF90165E070E06150710971F08D
:103C70009191AFEFA90FAE37C0F7A1E0B0E0AC0F64
:103C8000BD1FA80FB11D9C938F5FEFCF405251090C
:103C900020523109BBCF950124503E4F40EE51E0F8
:103CA000441555050CF443C0F9017B976BE070E0B7
:103CB0006150710971F09191AFEFA90FAE37C0F764
:103CC000A1E0B0E0AC0FBD1FA80FB11D9C938F5FAA
:103CD000EFCFF9013E976DE070E06150710971F02E
:103CE0009191AFEFA90FAE37C0F7A1E0B0E0AC0FF4
:103CF000BD1FA80FB11D9C938F5FEFCFF90165E049
:103D000070E06150710971F09191AFEFA90FAE377A
:103D1000C0F7A1E0B0E0AC0FBD1FA80FB11D9C9390
:103D20008F5FEFCF4052510920523109B9CFBE0108
:103D30006F5F7F4FC4010E94A524892B09F0B2C197
:103D400065C0A0967FADA097713009F0BACEC35779
:103D5000DF4FA881B981CD58D0408C9180FFB1CE82
:103D6000950124503E4F40EE51E080E0441555054A
:103D70000CF443C0F9017B976BE070E0615071096E
:103D800071F09191AFEFA90FAE37C0F7A1E0B0E0AD
:103D9000AC0FBD1FA80FB11D9C938F5FEFCFF90132
:103DA0003E976DE070E06150710971F09191AFEF55
:103DB000A90FAE37C0F7A1E0B0E0AC0FBD1FA80F50
:103DC000B11D9C938F5FEFCFF90165E070E061500A
:103DD000710971F09191AFEFA90FAE37C0F7A1E073
:103DE000B0E0AC0FBD1FA80FB11D9C938F5FEFCF4C
:103DF0004052510920523109B9CFBE016F5F7F4F48
:103E0000C4010E94A524892B09F04BC1A2966EAD76
:103E10007FADA297C3016CC0F501E20DF31D838550
:103E20008F3009F44ECE182F107184FD3BC1A101D3
:103E300040525109F501E40FF51F808180FF41CE0A
:103E40009101245031092A0D3B1D80E04415550590
:103E50000CF443C0F9017B976BE070E0615071098D
:103E600071F09191AFEFA90FAE37C0F7A1E0B0E0CC
:103E7000AC0FBD1FA80FB11D9C938F5FEFCFF90151
:103E80003E976DE070E06150710971F09191AFEF74
:103E9000A90FAE37C0F7A1E0B0E0AC0FBD1FA80F6F
:103EA000B11D9C938F5FEFCFF90165E070E0615029
:103EB000710971F09191AFEFA90FAE37C0F7A1E092
:103EC000B0E0AC0FBD1FA80FB11D9C938F5FEFCF6B
:103ED0004052510920523109B9CFBE016F5F7F4F67
:103EE000C4010E94A524892B09F0DCC0B501C101E1
:103EF0000E947E1AF8C0192F107194FDD5C0AC969F
:103F0000BFADAC97BD3008F0CFC0FE01E65BFF4F00
:103F1000CF010996DF011D92A817B907E1F768964E
:103F20001FAE689769961FAE69976A961FAE6A972B
:103F30006B961FAE6B97EA962EAD3FADEA97A496AF
:103F40003FAF2EAFA49721E0822F90E0EA96AEAD6E
:103F5000BFADEA978A179B0794F4AC014F5F5F4FA0
:103F6000EA966EAD7FADEA974617570744F4D40141
:103F7000A80FB91F3C913E3231F02F5FE5CFAB96D1
:103F80001FAEAB9708C0A4969FAF8EAFA497B1E0C9
:103F9000AB96BFAFAB9720E0822F90E0A4964EADDA
:103FA0005FADA4978417950774F441E450E04C0F7B
:103FB0005D1F480F591F880D991DDC018C91DA0196
:103FC0008C932F5FE9CFA3968FADA39790E28830B3
:103FD00048F4A1E4B0E0AC0FBD1FA80FB11D9C9345
:103FE0008F5FF5CF2A961FAE2A97D501A40DB51D78
:103FF0008D918193CB56DF4F68817981C559D0402F
:104000006E177F07A9F7BE01665B7F4FCE018F5BFE
:104010009F4F0E94A524892B09F046C0D201189613
:10402000AA0DBB1DFE01E95AFF4FCF0103962D914A
:104030002193E817F907D9F7AB967FADAB977723B4
:1040400099F180E264968FAF649765968FAF65971C
:1040500066968FAF669767961FAE6797A4968EADEC
:104060009FADA4970196F401E80FF91FDE01AD5A48
:10407000BF4F9D012D5F3F4F819181110DC0BE014A
:104080006D5A7F4FCE01895A9F4F0E94A524892BDC
:1040900059F4B501C2012CCF8D932A173B0761F764
:1040A000EECF00E011E001C010E080E2480E511CAC
:1040B000A1CCC701B6010E94D30B6B017C016F3FFD
:1040C0007F4F8F4F9F4009F4F2CCAA966EAD7FAD23
:1040D000AA9761507109AA967FAF6EAFAA97672B16
:1040E00009F0E4CBE4CCC757DF4F88819981C958E8
:1040F000D0400FB6F8949EBF0FBE8DBF01C011E037
:10410000812FC557DF4FE881F981CB58D0400FB6DA
:10411000F894FEBF0FBEEDBFCA56DF4F0FB6F8943E
:10412000DEBF0FBECDBFDF91CF911F910F91FF90EA
:10413000EF90DF90CF90BF90AF909F908F907F9047
:104140006F905F904F903F902F9008950F931F9323
:10415000CF93DF93CDB7DEB7C450D2400FB6F894FB
:10416000DEBF0FBECDBF8A01AB01BC01CE010196FF
:104170000E94A903DE011396F801CE018D5F9D4FC9
:104180002D912193A817B907D9F7CC5FDD4F0FB652
:10419000F894DEBF0FBECDBFDF91CF911F910F917D
:1041A00008950C942404CF93DF93CDB7DEB7C052AB
:1041B000D3400FB6F894DEBF0FBECDBF0E94680893
:1041C0000E94C300C12CD12C7601C701B6010E9408
:1041D00082080E941D024B015C01672B682B692B32
:1041E00009F489C084E392E00E94500AC501B40139
:1041F0000E94C809C501B4010E94F0028FEFC81ADD
:10420000D80AE80AF80A92E0C916D104E104F104D8
:10421000E1F66CC0D8018C91813709F0CDC281EFF5
:1042200092E00E94500AEE24E394F12C88EC94E092
:104230000E94500A8AE090E02091C6000197E1F7C1
:10424000EF2809F402C18EE093E00E94500A0E9418
:104250008B006B017C0185E293E00E94500A0E9472
:104260008B004B015C0180E593E00E94500AC50180
:10427000B4010E94820885E693E00E94500AC701BB
:10428000B6010E94820883E893E00E94500A0E94CF
:104290007408182F0E947B0888EC94E00E94500A52
:1042A000193789F6C701B60129E0660F771F881F05
:1042B000991F2A95D1F7A50194010E94AF048CE9BA
:1042C00093E00E94500A0E947408182F0E947B08F5
:1042D000113709F0B8CFCC5EDC4FE881F981C451C9
:1042E000D3400FB6F894FEBF0FBEEDBF0E94740816
:1042F0000E947B08FBCF8DB79EB7CC5EDC4F9983C5
:104300008883C451D34088EC94E00E94500A2FE285
:1043100030E03A8329838EEFFE013396DF01982F38
:104320001D929A95E9F74E01A1E08A0E9A1EF401BA
:1043300011921192DF01982F1D929A95E9F75E0173
:10434000AFEFAA1AADEFBA0AF5012193319397E0C6
:10435000DF011D929A95E9F77E01B6EFEB1ABDEFEA
:10436000FB0AF70111921192DF011D928A95E9F77C
:104370000E94920BFE01E65FFC4F60837183828393
:1043800093838DB79EB7805491090FB6F8949EBF62
:104390000FBE8DBFADB7BEB711962D0180549109E8
:1043A0000FB6F8949EBF0FBE8DBF0DB71EB70F5F3F
:1043B0001F4FA158B1090FB6F894BEBF0FBEADBFD5
:1043C000CF976C01A058B1090FB6F894BEBF0FBECD
:1043D000ADBF805891093C01AF5BBE4FCA5EDC4F58
:1043E000B983A883C651D3409395C85EDC4F9983A7
:1043F0008883C851D340A058B109C65EDC4FB98349
:10440000A883CA51D34080589109C45EDC4F998378
:104410008883CC51D340CE5EDC4F8882C251D340DA
:10442000CD5EDC4F9882C351D3402A2CC25EDC4F54
:10443000B882CE51D340C15EDC4FE882CF51D34029
:10444000C05EDC4FF882C052D340C25FDC4F59825D
:104450004882CE50D340F2011192CA5EDC4FA8814F
:10446000B981C651D340EA17FB07B1F75801F801EB
:104470001192C85EDC4F88819981C851D340E817FA
:10448000F907B1F74601F6011192C65EDC4FA8812B
:10449000B981CA51D340EA17FB07B1F7C05FDC4FBF
:1044A00079826882C051D340F30111921192C45EA7
:1044B000DC4F88819981CC51D340E817F907A9F7DF
:1044C00088EC94E00E94500ACE5EDC4F8881C25195
:1044D000D340CD5EDC4F9881C351D3400E94500A37
:1044E000CE0101960E94500A83E592E00E94500A94
:1044F0000E947408382EE12CF12CFDE03F16F9F0F3
:104500009FE739120BC087E592E00E94500AE11440
:10451000F10471F0A1E0EA1AF1080AC0832D0E94AB
:104520007B08F201EE0DFF1D3082BFEFEB1AFB0A94
:104530000E947408382EE0E4EE16F104F4F280E0F4
:1045400090E0FC0131968E159F05B1F0C25FDC4F03
:10455000A881B981CE50D3402D91C25FDC4FB98381
:10456000A883CE50D340D5012D935D01203259F45C
:10457000D801A80FB91F1C92E40DF51DD6019701B3
:10458000281B390B08C02223B9F3CF01DACF819160
:104590008D93882331F0CD018C199D0982179307E3
:1045A000B4F3B0E4EB16F1040CF00AC16BE572E071
:1045B000C8010E94A524892B31F4B601CE010196D1
:1045C0000E94680CABC06EE572E0C8010E94A52491
:1045D000892B09F097C0F3011182108221E030E0AD
:1045E000AA24A394B12CD4018D914D018823A1F06C
:1045F000803269F4FD0131971082F501EE0FFF1F43
:10460000E60DF71D31832083BFEFAB1ABB0A2F5F86
:104610003F4F2134310539F7812C912C312CC05F6B
:10462000DC4FE881F981C051D340E190F190C05F47
:10463000DC4FF983E883C051D340EC0CFD1C61E6EC
:1046400072E0C7010E94A524892B19F4F32DF260B2
:1046500040C065E672E0C7010E94A524892B21F4C1
:10466000832D8160382E3CC069E672E0C7010E944C
:10467000A524892B21F4932D9863392E31C06CE643
:1046800072E0C7010E94A524892B21F4A32DA46008
:104690003A2E26C06FE672E0C7010E94A524892B3E
:1046A00021F4B32DB8603B2E1BC062E772E0C70156
:1046B0000E94A524892B21F4E32DE0613E2E10C039
:1046C00066E772E0C7010E94A524892B21F4F32D2F
:1046D000F0623F2E05C08AE792E00E94500A07C0B0
:1046E0008FEF881A980A8A149B0409F098CF30FC3F
:1046F00003C0932D9260392E632DCE0101960E9446
:1047000000160CC06DE872E0C8010E94A524892B38
:1047100041F4B601CE0101960E94651B0E94660A13
:104720004FC062E972E0C8010E94A524892B09F0FC
:1047300071CD86E992E00E94500A822DC25EDC4F64
:104740009881CE51D3400E94500A85EA92E00E949F
:10475000500AC15EDC4F8881CF51D340C05EDC4F30
:104760009881C052D3400E94500A8AEB92E00E9486
:10477000500ACE0101960E94500A88EC92E00E94F5
:10478000500ACE5EDC4F8881C251D340CD5EDC4FF3
:104790009881C351D3400E94500A8CED92E00E9450
:1047A000500AC65FDC4F688179818A819B81CA503B
:1047B000D3400E94820804C08AEF92E00E94500A0F
:1047C000E12CF12C33CDDB018F939F930E942924A0
:1047D000BF91AF91A29F800D911DA39F900DB29F9D
:1047E000900D1124089597FB072E16F4009407D01E
:1047F00077FD09D00E94772407FC05D03EF4909500
:1048000081959F4F0895709561957F4F0895A1E21E
:104810001A2EAA1BBB1BFD010DC0AA1FBB1FEE1F3A
:10482000FF1FA217B307E407F50720F0A21BB30B85
:10483000E40BF50B661F771F881F991F1A9469F701
:1048400060957095809590959B01AC01BD01CF015D
:1048500008950E948B24A59F900DB49F900DA49F56
:10486000800D911D112408950F93083090F0982F1A
:10487000872F762F652F542F432F322F2227085052
:10488000F4CF220F331F441F551F661F771F881F49
:10489000991F0A95B2F70F91089597FB10F8169497
:1048A00000080F93083098F00850232F342F452F1D
:1048B000562F672F782F892F902DF4CF0594979539
:1048C00087957795679557954795379527950A95D5
:1048D000AAF70F9108950024A7FD00942A17300528
:1048E0004005500560057005800590050895AA1BD8
:1048F000BB1B51E107C0AA1FBB1FA617B70710F0CB
:10490000A61BB70B881F991F5A95A9F780959095FC
:10491000BC01CD010895A29FB001B39FC001A39F28
:10492000700D811D1124911DB29F700D811D1124E8
:10493000911D0895FB01DC010D900020E9F711970E
:1049400001900D920020E1F70895FB01DC018D91AB
:10495000019080190110D9F3990B0895FB01DC0136
:1049600001900D920020E1F70895DC01FB01415018
:10497000504058F049F001900D920020C1F7E61B1D
:10498000F70B3197CF0108951C9201900020E9F7B1
:10499000F6CFFC0181E090E00190061609F4CF010A
:0C49A0000020D1F701970895F894FFCF94
:1049AC00736563746F722076616C75652069732012
:1049BC00746F6F206C617267652E0A0D456E74659D
:1049CC00722076616C7565203C203431393433307B
:1049DC00340A0D000A0D534420494E4954204641D7
:1049EC00494C454420524553504F4E5345203D2091
:1049FC00307800203E2000082008006364006C73AF
:104A0C00002F4C4E002F534E002F41002F48002FEB
:104A1C0043002F4C41002F4C4D000A0D496E76611E
:104A2C006C696420417267756D656E74006F70659A
:104A3C006E00637764000A0D73686F72744E616D5B
:104A4C0065203D20000A0D73686F727450617265A9
:104A5C006E7450617468203D20000A0D6C6F6E6797
:104A6C004E616D65203D20000A0D6C6F6E675061C4
:104A7C0072656E7450617468203D20000A0D4641C9
:104A8C00544669727374436C7573746572203D205F
:104A9C00000A0D717569740A0D000A0D496E766174
:104AAC006C696420636F6D6D616E640A0D000A0D94
:104ABC00456E74657220537461727420536563740F
:104ACC006F720A0D000A0D686F77206D616E792088
:104ADC00736563746F727320646F20796F752077C0
:104AEC00616E7420746F207072696E743F0A0D00D1
:104AFC000A0D596F752077616E7420746F20707277
:104B0C00696E74200020736563746F727320626524
:104B1C0067696E6E696E6720617420736563746F6C
:104B2C007220000A0D6973207468697320636F72B8
:104B3C00726563743F2028792F6E29000A0D20704E
:104B4C00726573732027712720746F2071756974D7
:104B5C0020616E6420616E79206F74686572206BC1
:104B6C00657920746F20676F20616761696E3A20E8
:104B7C00000A0D3E3E204552524F523A20202053FF
:104B8C00454E445F4353442028434D443929206902
:104B9C006E2073645F6765744D656D6F72794361E8
:104BAC0070616369747928292072657475726E65F9
:104BBC0064206572726F7220696E205231207265AA
:104BCC0073706F6E73652E000A0D3E3E2045525277
:104BDC004F523A202020524541445F53494E474C96
:104BEC00455F424C4F434B2028434D4431372920DD
:104BFC00696E2073645F5265616453696E676C659E
:104C0C0044617461426C6F636B2829207265747502
:104C1C00726E6564206572726F7220696E205231FB
:104C2C0020726573706F6E73652E000A0A0D204238
:104C3C004C4F434B204F4646534554090909092014
:104C4C002020484558090909090920202020204125
:104C5C00534349490A0D000A0D20202000307830BA
:104C6C00000920000909000A0A0D000A0D3E3E2029
:104C7C004552524F523A202020524541445F4D55E7
:104C8C004C5449504C455F424C4F434B2028434DAC
:104C9C004431382920696E2073645F5072696E74D8
:104CAC004D756C7469706C6544617461426C6F63B2
:104CBC006B7328292072657475726E656420657239
:104CCC00726F7220696E20523120726573706F6E34
:104CDC0073652E000A0D3E3E204552524F523A202B
:104CEC00202054696D656F7574207768696C652038
:104CFC0077616974696E6720666F72205374617294
:104D0C007420426C6F636B20546F6B656E20696E00
:104D1C002073645F5072696E744D756C7469706C3D
:104D2C006544617461426C6F636B7328292E000AB1
:104D3C000A0D0909090909424C4F434B3A20000A54
:104D4C000D536561726368696E6720666F72206EC1
:104D5C006F6E2D7A65726F20626C6F636B73206F50
:104D6C007665722072616E6765200020746F20007A
:104D7C000A0D446F6E6520736561726368696E67B6
:104D8C00206E6F6E2D7A65726F20626C6F636B7321
:104D9C002E000A0D3E3E204552524F523A20202002
:104DAC0057524954455F424C4F434B2028434D4486
:104DBC0032342920696E2073645F577269746553AD
:104DCC00696E676C6544617461426C6F636B282912
:104DDC002072657475726E6564206572726F7220D4
:104DEC00696E20523120726573706F6E73652E0080
:104DFC000A0D3E3E204552524F523A202020546913
:104E0C006D656F7574207768696C6520776169745E
:104E1C00696E6720666F72204461746120526573FD
:104E2C00706F6E736520546F6B656E20696E2073A6
:104E3C00645F577269746553696E676C654461741D
:104E4C0061426C6F636B28292E2020526574757239
:104E5C006E696E67207769746820494E56414C49DB
:104E6C00445F444154415F544F4B454E0A0D000A78
:104E7C000D3E3E2074696D656F75742077616974A1
:104E8C00696E6720666F72206361726420746F2094
:104E9C006E6F7420626520627573792E0A0D000A9C
:104EAC000D3E3E20446174612072656A65637465D1
:104EBC00642044756520746F204352432045727200
:104ECC006F720A0D4461746120526573706F6E735A
:104EDC006520546F6B656E203D20006E0D000A0D31
:104EEC003E3E20446174612072656A65637465643A
:104EFC002064756520746F20612057726974652079
:104F0C004572726F720A0D44617461205265737040
:104F1C006F6E736520546F6B656E203D20000A0D1B
:104F2C003E3E204552524F523A202020575249546F
:104F3C00455F424C4F434B2028434D44323429208B
:104F4C00696E2073645F57726974654D756C746912
:104F5C00706C6544617461426C6F636B73282920BB
:104F6C0072657475726E6564206572726F722069F9
:104F7C006E20523120726573706F6E73652E000A4D
:104F8C000D3E3E204552524F523A20202054696D1E
:104F9C00656F7574207768696C65207761697469D1
:104FAC006E6720666F722044617461205265737065
:104FBC006F6E736520546F6B656E20696E20736421
:104FCC005F57726974654D756C7469706C6544617A
:104FDC007461426C6F636B7328292E2020526574A8
:104FEC0075726E696E67207769746820494E5641F8
:104FFC004C49445F444154415F544F4B454E0A0D5C
:10500C00000A0D3E3E20523120526573706F6E7354
:10501C00652072657475726E6564206279207364A4
:10502C005F577269746553696E67656C446174612E
:10503C00426C6F636B28293A000A0D3E3E20446196
:10504C00746120526573706F6E7365204572726F58
:10505C0072733A000A0D2057524954455F4552521B
:10506C004F52000A0D204352435F4552524F52009B
:10507C000A0D20444154412041434345505445447A
:10508C00000A0D20494E434F52524543542052457D
:10509C0053504F4E53452052455455524E454400A3
:1050AC000A0D3E3E204552524F523A206572726FA5
:1050BC00722072657475726E656420696E2052314F
:1050CC0020726573706F6E736520746F2041505041
:1050DC005F434D4420696E2073645F4E756D62654D
:1050EC00724F6657656C6C5772697474656E426C5E
:1050FC006F636B7328292E2052657475726E696EFE
:10510C0067207769746820696E76616C69642076B3
:10511C00616C7565000A0D3E3E204552524F523A65
:10512C00206572726F722072657475726E65642080
:10513C00696E20523120726573706F6E73652074C6
:10514C006F2053454E445F4E554D5F57525F424C56
:10515C004F434B5320696E2073645F4E756D6265CF
:10516C00724F6657656C6C5772697474656E426CDD
:10517C006F636B7328292E2052657475726E696E7D
:10518C0067207769746820696E76616C6964207633
:10519C00616C7565000A0D3E3E204552524F523AE5
:1051AC002074696D656F7574207768696C652077FC
:1051BC00616974696E6720666F72207374617274B2
:1051CC0020746F6B656E20696E2073645F4E756D15
:1051DC006265724F6657656C6C5772697474656E54
:1051EC00426C6F636B7328292E2052657475726E36
:1051FC00696E67207769746820696E76616C696482
:10520C002076616C7565000A0D3E3E204552524F6A
:10521C00523A20202045524153455F57525F424C31
:10522C004F434B5F53544152545F414444522028E6
:10523C00434D4433322920696E2073645F4572619B
:10524C007365426C6F636B73282920726574757279
:10525C006E6564206572726F7220696E2052312007
:10526C00726573706F6E73652E000A0D3E3E20459D
:10527C0052524F523A20202045524153455F5752CB
:10528C005F424C4F434B5F454E445F414444522078
:10529C0028434D4433332920696E2073645F457273
:1052AC00617365426C6F636B73282920726574752A
:1052BC00726E6564206572726F7220696E20523155
:1052CC0020726573706F6E73652E000A0D3E3E2062
:1052DC004552524F523A20202045524153452028E6
:1052EC00434D4433382920696E2073645F457261E5
:1052FC007365426C6F636B732829207265747572C9
:10530C006E6564206572726F7220696E2052312056
:10531C00726573706F6E73652E000A0D3E3E2045EC
:10532C0052524F523A2020202054696D656F75748B
:10533C00207768696C652077616974696E6720668F
:10534C006F72206361726420746F206578697420B9
:10535C007468652062757379207374617465206458
:10536C007572696E6720626C6F636B206572617316
:10537C006520696E2073645F4572617365426C6F62
:10538C00636B737328292E2052657475726E696E67
:10539C00672077697468206572726F722873292E82
:1053AC000A0D000A0D0920202020455241534520AA
:1053BC005355434345535346554C000A0D09202081
:1053CC0020204552524F52204552415345205354B0
:1053DC004152542041444452455353000A0D092074
:1053EC002020204552524F522045524153452045D2
:1053FC004E442041444452455353000A0D09202089
:10540C0020204552524F52204552415345000A0D1F
:10541C0009202020204552524F522042555359000A
:10542C000A0D0920202020494E56414C4944204564
:10543C0052524F5220524553504F4E5345000A0D75
:10544C0053554343455353000A0D454E44204F4694
:10545C00204449524543544F5259000A0D494E5667
:10546C00414C49442046494C45204E414D45000A8B
:10547C000D46494C45204E4F5420464F554E440046
:10548C000A0D494E56414C494420444952204E4144
:10549C004D45000A0D444952204E4F5420464F555D
:1054AC004E44000A0D434F5252555054205345431D
:1054BC00544F52000A0D454E44204F462046494C4D
:1054CC0045000A0D554E4B4E4F574E204552524FEC
:1054DC0052002E2E002F00202020202020202000E3
:1054EC006B4200202020203C4449523E20202020AA
:1054FC00002020203C46494C453E20202020002EF8
:10550C00202020000A0D43757272656E7420446968
:10551C00726563746F72793A20002043524541548E
:10552C00494F4E204441544520262054494D452C8A
:10553C0000204C4153542041434345535320444194
:10554C0054452C00204C415354204D4F444946495E
:10555C004544204441544520262054494D452C00B7
:10556C002053495A452C20545950452C204E414D1E
:02557C004500E8
:00000001FF
